{
  "_format": "hh-sol-artifact-1",
  "contractName": "RoleManager",
  "sourceName": "contracts/RoleManager.sol",
  "abi": [
    {
      "inputs": [
        {
          "internalType": "string",
          "name": "name",
          "type": "string"
        }
      ],
      "stateMutability": "nonpayable",
      "type": "constructor"
    },
    {
      "anonymous": false,
      "inputs": [
        {
          "indexed": true,
          "internalType": "bytes32",
          "name": "role",
          "type": "bytes32"
        },
        {
          "indexed": true,
          "internalType": "bytes32",
          "name": "previousAdminRole",
          "type": "bytes32"
        },
        {
          "indexed": true,
          "internalType": "bytes32",
          "name": "newAdminRole",
          "type": "bytes32"
        }
      ],
      "name": "RoleAdminChanged",
      "type": "event"
    },
    {
      "anonymous": false,
      "inputs": [
        {
          "indexed": true,
          "internalType": "bytes32",
          "name": "role",
          "type": "bytes32"
        },
        {
          "indexed": true,
          "internalType": "address",
          "name": "account",
          "type": "address"
        },
        {
          "indexed": true,
          "internalType": "address",
          "name": "sender",
          "type": "address"
        }
      ],
      "name": "RoleGranted",
      "type": "event"
    },
    {
      "anonymous": false,
      "inputs": [
        {
          "indexed": true,
          "internalType": "bytes32",
          "name": "role",
          "type": "bytes32"
        },
        {
          "indexed": true,
          "internalType": "address",
          "name": "account",
          "type": "address"
        },
        {
          "indexed": true,
          "internalType": "address",
          "name": "sender",
          "type": "address"
        }
      ],
      "name": "RoleRevoked",
      "type": "event"
    },
    {
      "inputs": [],
      "name": "CONTRIBUTOR_ROLE",
      "outputs": [
        {
          "internalType": "bytes32",
          "name": "",
          "type": "bytes32"
        }
      ],
      "stateMutability": "view",
      "type": "function"
    },
    {
      "inputs": [],
      "name": "DEFAULT_ADMIN_ROLE",
      "outputs": [
        {
          "internalType": "bytes32",
          "name": "",
          "type": "bytes32"
        }
      ],
      "stateMutability": "view",
      "type": "function"
    },
    {
      "inputs": [
        {
          "internalType": "bytes32",
          "name": "role",
          "type": "bytes32"
        }
      ],
      "name": "getRoleAdmin",
      "outputs": [
        {
          "internalType": "bytes32",
          "name": "",
          "type": "bytes32"
        }
      ],
      "stateMutability": "view",
      "type": "function"
    },
    {
      "inputs": [
        {
          "internalType": "bytes32",
          "name": "role",
          "type": "bytes32"
        },
        {
          "internalType": "address",
          "name": "account",
          "type": "address"
        }
      ],
      "name": "grantRole",
      "outputs": [],
      "stateMutability": "nonpayable",
      "type": "function"
    },
    {
      "inputs": [
        {
          "internalType": "bytes32",
          "name": "role",
          "type": "bytes32"
        },
        {
          "internalType": "address",
          "name": "account",
          "type": "address"
        }
      ],
      "name": "hasRole",
      "outputs": [
        {
          "internalType": "bool",
          "name": "",
          "type": "bool"
        }
      ],
      "stateMutability": "view",
      "type": "function"
    },
    {
      "inputs": [
        {
          "internalType": "bytes32",
          "name": "role",
          "type": "bytes32"
        },
        {
          "internalType": "address",
          "name": "account",
          "type": "address"
        }
      ],
      "name": "renounceRole",
      "outputs": [],
      "stateMutability": "nonpayable",
      "type": "function"
    },
    {
      "inputs": [
        {
          "internalType": "address",
          "name": "account",
          "type": "address"
        }
      ],
      "name": "revokeContributorRole",
      "outputs": [],
      "stateMutability": "nonpayable",
      "type": "function"
    },
    {
      "inputs": [
        {
          "internalType": "bytes32",
          "name": "role",
          "type": "bytes32"
        },
        {
          "internalType": "address",
          "name": "account",
          "type": "address"
        }
      ],
      "name": "revokeRole",
      "outputs": [],
      "stateMutability": "nonpayable",
      "type": "function"
    },
    {
      "inputs": [
        {
          "internalType": "address",
          "name": "account",
          "type": "address"
        },
        {
          "internalType": "string",
          "name": "name",
          "type": "string"
        }
      ],
      "name": "setPrivillegeContributor",
      "outputs": [],
      "stateMutability": "nonpayable",
      "type": "function"
    },
    {
      "inputs": [
        {
          "internalType": "bytes4",
          "name": "interfaceId",
          "type": "bytes4"
        }
      ],
      "name": "supportsInterface",
      "outputs": [
        {
          "internalType": "bool",
          "name": "",
          "type": "bool"
        }
      ],
      "stateMutability": "view",
      "type": "function"
    },
    {
      "inputs": [],
      "name": "userId",
      "outputs": [
        {
          "internalType": "uint256",
          "name": "",
          "type": "uint256"
        }
      ],
      "stateMutability": "view",
      "type": "function"
    },
    {
      "inputs": [
        {
          "internalType": "uint256",
          "name": "",
          "type": "uint256"
        }
      ],
      "name": "users",
      "outputs": [
        {
          "internalType": "address",
          "name": "",
          "type": "address"
        }
      ],
      "stateMutability": "view",
      "type": "function"
    },
    {
      "inputs": [
        {
          "internalType": "address",
          "name": "",
          "type": "address"
        }
      ],
      "name": "usersInfo",
      "outputs": [
        {
          "internalType": "uint256",
          "name": "id",
          "type": "uint256"
        },
        {
          "internalType": "string",
          "name": "name",
          "type": "string"
        }
      ],
      "stateMutability": "view",
      "type": "function"
    }
  ],
  "bytecode": "0x60806040523480156200001157600080fd5b50604051620024fc380380620024fc833981810160405281019062000037919062000883565b6000600181905550620000546000801b336200019260201b60201c565b620000867fe2889e7308860b3fe8df0daa86fccfea4d71e43776719a57be28cf90b6db81e9336200028360201b60201c565b80600260003373ffffffffffffffffffffffffffffffffffffffff1673ffffffffffffffffffffffffffffffffffffffff1681526020019081526020016000206001019080519060200190620000de92919062000761565b50600154600260003373ffffffffffffffffffffffffffffffffffffffff1673ffffffffffffffffffffffffffffffffffffffff168152602001908152602001600020600001819055506003339080600181540180825580915050600190039060005260206000200160009091909190916101000a81548173ffffffffffffffffffffffffffffffffffffffff021916908373ffffffffffffffffffffffffffffffffffffffff1602179055505062000d75565b620001a48282620002bc60201b60201c565b6200027f57600160008084815260200190815260200160002060000160008373ffffffffffffffffffffffffffffffffffffffff1673ffffffffffffffffffffffffffffffffffffffff16815260200190815260200160002060006101000a81548160ff021916908315150217905550620002246200032660201b60201c565b73ffffffffffffffffffffffffffffffffffffffff168173ffffffffffffffffffffffffffffffffffffffff16837f2f8788117e7eff1d82e926ec794901d17c78024a50270940304540a733656f0d60405160405180910390a45b5050565b62000294826200032e60201b60201c565b620002a5816200034d60201b60201c565b620002b783836200019260201b60201c565b505050565b600080600084815260200190815260200160002060000160008373ffffffffffffffffffffffffffffffffffffffff1673ffffffffffffffffffffffffffffffffffffffff16815260200190815260200160002060009054906101000a900460ff16905092915050565b600033905090565b6000806000838152602001908152602001600020600101549050919050565b6200036e81620003626200032660201b60201c565b6200037160201b60201c565b50565b620003838282620002bc60201b60201c565b62000419576200039e816200041d60201b620007ca1760201c565b620003b98360001c60206200045260201b620007f71760201c565b604051602001620003cc929190620009b5565b6040516020818303038152906040526040517f08c379a0000000000000000000000000000000000000000000000000000000008152600401620004109190620009f7565b60405180910390fd5b5050565b60606200044b8273ffffffffffffffffffffffffffffffffffffffff16601460ff166200045260201b60201c565b9050919050565b60606000600283600262000467919062000b20565b62000473919062000ac3565b67ffffffffffffffff811115620004b3577f4e487b7100000000000000000000000000000000000000000000000000000000600052604160045260246000fd5b6040519080825280601f01601f191660200182016040528015620004e65781602001600182028036833780820191505090505b5090507f30000000000000000000000000000000000000000000000000000000000000008160008151811062000545577f4e487b7100000000000000000000000000000000000000000000000000000000600052603260045260246000fd5b60200101907effffffffffffffffffffffffffffffffffffffffffffffffffffffffffffff1916908160001a9053507f780000000000000000000000000000000000000000000000000000000000000081600181518110620005d0577f4e487b7100000000000000000000000000000000000000000000000000000000600052603260045260246000fd5b60200101907effffffffffffffffffffffffffffffffffffffffffffffffffffffffffffff1916908160001a9053506000600184600262000612919062000b20565b6200061e919062000ac3565b90505b600181111562000710577f3031323334353637383961626364656600000000000000000000000000000000600f86166010811062000688577f4e487b7100000000000000000000000000000000000000000000000000000000600052603260045260246000fd5b1a60f81b828281518110620006c6577f4e487b7100000000000000000000000000000000000000000000000000000000600052603260045260246000fd5b60200101907effffffffffffffffffffffffffffffffffffffffffffffffffffffffffffff1916908160001a905350600485901c945080620007089062000bc1565b905062000621565b506000841462000757576040517f08c379a00000000000000000000000000000000000000000000000000000000081526004016200074e9062000a1b565b60405180910390fd5b8091505092915050565b8280546200076f9062000bf0565b90600052602060002090601f016020900481019282620007935760008555620007df565b82601f10620007ae57805160ff1916838001178555620007df565b82800160010185558215620007df579182015b82811115620007de578251825591602001919060010190620007c1565b5b509050620007ee9190620007f2565b5090565b5b808211156200080d576000816000905550600101620007f3565b5090565b600062000828620008228462000a66565b62000a3d565b9050828152602081018484840111156200084157600080fd5b6200084e84828562000b8b565b509392505050565b600082601f8301126200086857600080fd5b81516200087a84826020860162000811565b91505092915050565b6000602082840312156200089657600080fd5b600082015167ffffffffffffffff811115620008b157600080fd5b620008bf8482850162000856565b91505092915050565b6000620008d58262000a9c565b620008e1818562000aa7565b9350620008f381856020860162000b8b565b620008fe8162000ce9565b840191505092915050565b6000620009168262000a9c565b62000922818562000ab8565b93506200093481856020860162000b8b565b80840191505092915050565b60006200094f60208362000aa7565b91506200095c8262000cfa565b602082019050919050565b60006200097660178362000ab8565b9150620009838262000d23565b601782019050919050565b60006200099d60118362000ab8565b9150620009aa8262000d4c565b601182019050919050565b6000620009c28262000967565b9150620009d0828562000909565b9150620009dd826200098e565b9150620009eb828462000909565b91508190509392505050565b6000602082019050818103600083015262000a138184620008c8565b905092915050565b6000602082019050818103600083015262000a368162000940565b9050919050565b600062000a4962000a5c565b905062000a57828262000c26565b919050565b6000604051905090565b600067ffffffffffffffff82111562000a845762000a8362000cba565b5b62000a8f8262000ce9565b9050602081019050919050565b600081519050919050565b600082825260208201905092915050565b600081905092915050565b600062000ad08262000b81565b915062000add8362000b81565b9250827fffffffffffffffffffffffffffffffffffffffffffffffffffffffffffffffff0382111562000b155762000b1462000c5c565b5b828201905092915050565b600062000b2d8262000b81565b915062000b3a8362000b81565b9250817fffffffffffffffffffffffffffffffffffffffffffffffffffffffffffffffff048311821515161562000b765762000b7562000c5c565b5b828202905092915050565b6000819050919050565b60005b8381101562000bab57808201518184015260208101905062000b8e565b8381111562000bbb576000848401525b50505050565b600062000bce8262000b81565b9150600082141562000be55762000be462000c5c565b5b600182039050919050565b6000600282049050600182168062000c0957607f821691505b6020821081141562000c205762000c1f62000c8b565b5b50919050565b62000c318262000ce9565b810181811067ffffffffffffffff8211171562000c535762000c5262000cba565b5b80604052505050565b7f4e487b7100000000000000000000000000000000000000000000000000000000600052601160045260246000fd5b7f4e487b7100000000000000000000000000000000000000000000000000000000600052602260045260246000fd5b7f4e487b7100000000000000000000000000000000000000000000000000000000600052604160045260246000fd5b6000601f19601f8301169050919050565b7f537472696e67733a20686578206c656e67746820696e73756666696369656e74600082015250565b7f416363657373436f6e74726f6c3a206163636f756e7420000000000000000000600082015250565b7f206973206d697373696e6720726f6c6520000000000000000000000000000000600082015250565b6117778062000d856000396000f3fe608060405234801561001057600080fd5b50600436106100cf5760003560e01c80635d0eaaaf1161008c578063a217fddf11610066578063a217fddf14610237578063d547741f14610255578063d723715414610271578063eafb79e21461028d576100cf565b80635d0eaaaf146101ba57806391d14854146101eb5780639974d85f1461021b576100cf565b806301ffc9a7146100d4578063248a9ca3146101045780632f2ff15d1461013457806336568abe14610150578063365b98b21461016c578063589759191461019c575b600080fd5b6100ee60048036038101906100e99190610ffe565b6102ab565b6040516100fb91906111d7565b60405180910390f35b61011e60048036038101906101199190610f99565b610325565b60405161012b91906111f2565b60405180910390f35b61014e60048036038101906101499190610fc2565b610344565b005b61016a60048036038101906101659190610fc2565b610365565b005b61018660048036038101906101819190611027565b6103e8565b60405161019391906111bc565b60405180910390f35b6101a4610427565b6040516101b1919061126f565b60405180910390f35b6101d460048036038101906101cf9190610f1c565b61042d565b6040516101e292919061128a565b60405180910390f35b61020560048036038101906102009190610fc2565b6104d9565b60405161021291906111d7565b60405180910390f35b61023560048036038101906102309190610f1c565b610543565b005b61023f610627565b60405161024c91906111f2565b60405180910390f35b61026f600480360381019061026a9190610fc2565b61062e565b005b61028b60048036038101906102869190610f45565b61064f565b005b6102956107a6565b6040516102a291906111f2565b60405180910390f35b60007f7965db0b000000000000000000000000000000000000000000000000000000007bffffffffffffffffffffffffffffffffffffffffffffffffffffffff1916827bffffffffffffffffffffffffffffffffffffffffffffffffffffffff1916148061031e575061031d82610af1565b5b9050919050565b6000806000838152602001908152602001600020600101549050919050565b61034d82610325565b61035681610b5b565b6103608383610b6f565b505050565b61036d610c4f565b73ffffffffffffffffffffffffffffffffffffffff168173ffffffffffffffffffffffffffffffffffffffff16146103da576040517f08c379a00000000000000000000000000000000000000000000000000000000081526004016103d19061124f565b60405180910390fd5b6103e48282610c57565b5050565b600381815481106103f857600080fd5b906000526020600020016000915054906101000a900473ffffffffffffffffffffffffffffffffffffffff1681565b60015481565b6002602052806000526040600020600091509050806000015490806001018054610456906114d1565b80601f0160208091040260200160405190810160405280929190818152602001828054610482906114d1565b80156104cf5780601f106104a4576101008083540402835291602001916104cf565b820191906000526020600020905b8154815290600101906020018083116104b257829003601f168201915b5050505050905082565b600080600084815260200190815260200160002060000160008373ffffffffffffffffffffffffffffffffffffffff1673ffffffffffffffffffffffffffffffffffffffff16815260200190815260200160002060009054906101000a900460ff16905092915050565b6000801b61055081610b5b565b61057a7fe2889e7308860b3fe8df0daa86fccfea4d71e43776719a57be28cf90b6db81e98361062e565b6003600260008473ffffffffffffffffffffffffffffffffffffffff1673ffffffffffffffffffffffffffffffffffffffff16815260200190815260200160002060000154815481106105f6577f4e487b7100000000000000000000000000000000000000000000000000000000600052603260045260246000fd5b9060005260206000200160006101000a81549073ffffffffffffffffffffffffffffffffffffffff02191690555050565b6000801b81565b61063782610325565b61064081610b5b565b61064a8383610c57565b505050565b6000801b61065c81610b5b565b6106867fe2889e7308860b3fe8df0daa86fccfea4d71e43776719a57be28cf90b6db81e984610344565b6001600081548092919061069990611534565b9190505550600154600260008573ffffffffffffffffffffffffffffffffffffffff1673ffffffffffffffffffffffffffffffffffffffff1681526020019081526020016000206000018190555081600260008573ffffffffffffffffffffffffffffffffffffffff1673ffffffffffffffffffffffffffffffffffffffff168152602001908152602001600020600101908051906020019061073d929190610dbd565b506003839080600181540180825580915050600190039060005260206000200160009091909190916101000a81548173ffffffffffffffffffffffffffffffffffffffff021916908373ffffffffffffffffffffffffffffffffffffffff160217905550505050565b7fe2889e7308860b3fe8df0daa86fccfea4d71e43776719a57be28cf90b6db81e981565b60606107f08273ffffffffffffffffffffffffffffffffffffffff16601460ff166107f7565b9050919050565b60606000600283600261080a919061138d565b6108149190611337565b67ffffffffffffffff811115610853577f4e487b7100000000000000000000000000000000000000000000000000000000600052604160045260246000fd5b6040519080825280601f01601f1916602001820160405280156108855781602001600182028036833780820191505090505b5090507f3000000000000000000000000000000000000000000000000000000000000000816000815181106108e3577f4e487b7100000000000000000000000000000000000000000000000000000000600052603260045260246000fd5b60200101907effffffffffffffffffffffffffffffffffffffffffffffffffffffffffffff1916908160001a9053507f78000000000000000000000000000000000000000000000000000000000000008160018151811061096d577f4e487b7100000000000000000000000000000000000000000000000000000000600052603260045260246000fd5b60200101907effffffffffffffffffffffffffffffffffffffffffffffffffffffffffffff1916908160001a905350600060018460026109ad919061138d565b6109b79190611337565b90505b6001811115610aa3577f3031323334353637383961626364656600000000000000000000000000000000600f861660108110610a1f577f4e487b7100000000000000000000000000000000000000000000000000000000600052603260045260246000fd5b1a60f81b828281518110610a5c577f4e487b7100000000000000000000000000000000000000000000000000000000600052603260045260246000fd5b60200101907effffffffffffffffffffffffffffffffffffffffffffffffffffffffffffff1916908160001a905350600485901c945080610a9c906114a7565b90506109ba565b5060008414610ae7576040517f08c379a0000000000000000000000000000000000000000000000000000000008152600401610ade9061122f565b60405180910390fd5b8091505092915050565b60007f01ffc9a7000000000000000000000000000000000000000000000000000000007bffffffffffffffffffffffffffffffffffffffffffffffffffffffff1916827bffffffffffffffffffffffffffffffffffffffffffffffffffffffff1916149050919050565b610b6c81610b67610c4f565b610d38565b50565b610b7982826104d9565b610c4b57600160008084815260200190815260200160002060000160008373ffffffffffffffffffffffffffffffffffffffff1673ffffffffffffffffffffffffffffffffffffffff16815260200190815260200160002060006101000a81548160ff021916908315150217905550610bf0610c4f565b73ffffffffffffffffffffffffffffffffffffffff168173ffffffffffffffffffffffffffffffffffffffff16837f2f8788117e7eff1d82e926ec794901d17c78024a50270940304540a733656f0d60405160405180910390a45b5050565b600033905090565b610c6182826104d9565b15610d3457600080600084815260200190815260200160002060000160008373ffffffffffffffffffffffffffffffffffffffff1673ffffffffffffffffffffffffffffffffffffffff16815260200190815260200160002060006101000a81548160ff021916908315150217905550610cd9610c4f565b73ffffffffffffffffffffffffffffffffffffffff168173ffffffffffffffffffffffffffffffffffffffff16837ff6391f5c32d9c69d2a47ea670b442974b53935d1edc7fd64eb21e047a839171b60405160405180910390a45b5050565b610d4282826104d9565b610db957610d4f816107ca565b610d5d8360001c60206107f7565b604051602001610d6e929190611182565b6040516020818303038152906040526040517f08c379a0000000000000000000000000000000000000000000000000000000008152600401610db0919061120d565b60405180910390fd5b5050565b828054610dc9906114d1565b90600052602060002090601f016020900481019282610deb5760008555610e32565b82601f10610e0457805160ff1916838001178555610e32565b82800160010185558215610e32579182015b82811115610e31578251825591602001919060010190610e16565b5b509050610e3f9190610e43565b5090565b5b80821115610e5c576000816000905550600101610e44565b5090565b6000610e73610e6e846112df565b6112ba565b905082815260208101848484011115610e8b57600080fd5b610e96848285611465565b509392505050565b600081359050610ead816116e5565b92915050565b600081359050610ec2816116fc565b92915050565b600081359050610ed781611713565b92915050565b600082601f830112610eee57600080fd5b8135610efe848260208601610e60565b91505092915050565b600081359050610f168161172a565b92915050565b600060208284031215610f2e57600080fd5b6000610f3c84828501610e9e565b91505092915050565b60008060408385031215610f5857600080fd5b6000610f6685828601610e9e565b925050602083013567ffffffffffffffff811115610f8357600080fd5b610f8f85828601610edd565b9150509250929050565b600060208284031215610fab57600080fd5b6000610fb984828501610eb3565b91505092915050565b60008060408385031215610fd557600080fd5b6000610fe385828601610eb3565b9250506020610ff485828601610e9e565b9150509250929050565b60006020828403121561101057600080fd5b600061101e84828501610ec8565b91505092915050565b60006020828403121561103957600080fd5b600061104784828501610f07565b91505092915050565b611059816113e7565b82525050565b611068816113f9565b82525050565b61107781611405565b82525050565b600061108882611310565b611092818561131b565b93506110a2818560208601611474565b6110ab8161160a565b840191505092915050565b60006110c182611310565b6110cb818561132c565b93506110db818560208601611474565b80840191505092915050565b60006110f460208361131b565b91506110ff8261161b565b602082019050919050565b600061111760178361132c565b915061112282611644565b601782019050919050565b600061113a60118361132c565b91506111458261166d565b601182019050919050565b600061115d602f8361131b565b915061116882611696565b604082019050919050565b61117c8161145b565b82525050565b600061118d8261110a565b915061119982856110b6565b91506111a48261112d565b91506111b082846110b6565b91508190509392505050565b60006020820190506111d16000830184611050565b92915050565b60006020820190506111ec600083018461105f565b92915050565b6000602082019050611207600083018461106e565b92915050565b60006020820190508181036000830152611227818461107d565b905092915050565b60006020820190508181036000830152611248816110e7565b9050919050565b6000602082019050818103600083015261126881611150565b9050919050565b60006020820190506112846000830184611173565b92915050565b600060408201905061129f6000830185611173565b81810360208301526112b1818461107d565b90509392505050565b60006112c46112d5565b90506112d08282611503565b919050565b6000604051905090565b600067ffffffffffffffff8211156112fa576112f96115db565b5b6113038261160a565b9050602081019050919050565b600081519050919050565b600082825260208201905092915050565b600081905092915050565b60006113428261145b565b915061134d8361145b565b9250827fffffffffffffffffffffffffffffffffffffffffffffffffffffffffffffffff038211156113825761138161157d565b5b828201905092915050565b60006113988261145b565b91506113a38361145b565b9250817fffffffffffffffffffffffffffffffffffffffffffffffffffffffffffffffff04831182151516156113dc576113db61157d565b5b828202905092915050565b60006113f28261143b565b9050919050565b60008115159050919050565b6000819050919050565b60007fffffffff0000000000000000000000000000000000000000000000000000000082169050919050565b600073ffffffffffffffffffffffffffffffffffffffff82169050919050565b6000819050919050565b82818337600083830152505050565b60005b83811015611492578082015181840152602081019050611477565b838111156114a1576000848401525b50505050565b60006114b28261145b565b915060008214156114c6576114c561157d565b5b600182039050919050565b600060028204905060018216806114e957607f821691505b602082108114156114fd576114fc6115ac565b5b50919050565b61150c8261160a565b810181811067ffffffffffffffff8211171561152b5761152a6115db565b5b80604052505050565b600061153f8261145b565b91507fffffffffffffffffffffffffffffffffffffffffffffffffffffffffffffffff8214156115725761157161157d565b5b600182019050919050565b7f4e487b7100000000000000000000000000000000000000000000000000000000600052601160045260246000fd5b7f4e487b7100000000000000000000000000000000000000000000000000000000600052602260045260246000fd5b7f4e487b7100000000000000000000000000000000000000000000000000000000600052604160045260246000fd5b6000601f19601f8301169050919050565b7f537472696e67733a20686578206c656e67746820696e73756666696369656e74600082015250565b7f416363657373436f6e74726f6c3a206163636f756e7420000000000000000000600082015250565b7f206973206d697373696e6720726f6c6520000000000000000000000000000000600082015250565b7f416363657373436f6e74726f6c3a2063616e206f6e6c792072656e6f756e636560008201527f20726f6c657320666f722073656c660000000000000000000000000000000000602082015250565b6116ee816113e7565b81146116f957600080fd5b50565b61170581611405565b811461171057600080fd5b50565b61171c8161140f565b811461172757600080fd5b50565b6117338161145b565b811461173e57600080fd5b5056fea26469706673582212205364f713ee53c6c38268412b3fe746317b814f08167397d9aa2123ce13c7e00c64736f6c63430008040033",
  "linkReferences": {},
  "deployedLinkReferences": {}
}