{
  "_format": "hh-sol-artifact-1",
  "contractName": "RoleManager",
  "sourceName": "contracts/RoleManager.sol",
  "abi": [
    {
      "inputs": [],
      "stateMutability": "nonpayable",
      "type": "constructor"
    },
    {
      "anonymous": false,
      "inputs": [
        {
          "indexed": true,
          "internalType": "bytes32",
          "name": "role",
          "type": "bytes32"
        },
        {
          "indexed": true,
          "internalType": "bytes32",
          "name": "previousAdminRole",
          "type": "bytes32"
        },
        {
          "indexed": true,
          "internalType": "bytes32",
          "name": "newAdminRole",
          "type": "bytes32"
        }
      ],
      "name": "RoleAdminChanged",
      "type": "event"
    },
    {
      "anonymous": false,
      "inputs": [
        {
          "indexed": true,
          "internalType": "bytes32",
          "name": "role",
          "type": "bytes32"
        },
        {
          "indexed": true,
          "internalType": "address",
          "name": "account",
          "type": "address"
        },
        {
          "indexed": true,
          "internalType": "address",
          "name": "sender",
          "type": "address"
        }
      ],
      "name": "RoleGranted",
      "type": "event"
    },
    {
      "anonymous": false,
      "inputs": [
        {
          "indexed": true,
          "internalType": "bytes32",
          "name": "role",
          "type": "bytes32"
        },
        {
          "indexed": true,
          "internalType": "address",
          "name": "account",
          "type": "address"
        },
        {
          "indexed": true,
          "internalType": "address",
          "name": "sender",
          "type": "address"
        }
      ],
      "name": "RoleRevoked",
      "type": "event"
    },
    {
      "inputs": [],
      "name": "CONTRIBUTOR_ROLE",
      "outputs": [
        {
          "internalType": "bytes32",
          "name": "",
          "type": "bytes32"
        }
      ],
      "stateMutability": "view",
      "type": "function"
    },
    {
      "inputs": [],
      "name": "DEFAULT_ADMIN_ROLE",
      "outputs": [
        {
          "internalType": "bytes32",
          "name": "",
          "type": "bytes32"
        }
      ],
      "stateMutability": "view",
      "type": "function"
    },
    {
      "inputs": [
        {
          "internalType": "uint256",
          "name": "",
          "type": "uint256"
        }
      ],
      "name": "contributors",
      "outputs": [
        {
          "internalType": "address",
          "name": "",
          "type": "address"
        }
      ],
      "stateMutability": "view",
      "type": "function"
    },
    {
      "inputs": [
        {
          "internalType": "bytes32",
          "name": "role",
          "type": "bytes32"
        }
      ],
      "name": "getRoleAdmin",
      "outputs": [
        {
          "internalType": "bytes32",
          "name": "",
          "type": "bytes32"
        }
      ],
      "stateMutability": "view",
      "type": "function"
    },
    {
      "inputs": [
        {
          "internalType": "bytes32",
          "name": "role",
          "type": "bytes32"
        },
        {
          "internalType": "address",
          "name": "account",
          "type": "address"
        }
      ],
      "name": "grantRole",
      "outputs": [],
      "stateMutability": "nonpayable",
      "type": "function"
    },
    {
      "inputs": [
        {
          "internalType": "bytes32",
          "name": "role",
          "type": "bytes32"
        },
        {
          "internalType": "address",
          "name": "account",
          "type": "address"
        }
      ],
      "name": "hasRole",
      "outputs": [
        {
          "internalType": "bool",
          "name": "",
          "type": "bool"
        }
      ],
      "stateMutability": "view",
      "type": "function"
    },
    {
      "inputs": [
        {
          "internalType": "bytes32",
          "name": "role",
          "type": "bytes32"
        },
        {
          "internalType": "address",
          "name": "account",
          "type": "address"
        }
      ],
      "name": "renounceRole",
      "outputs": [],
      "stateMutability": "nonpayable",
      "type": "function"
    },
    {
      "inputs": [
        {
          "internalType": "address",
          "name": "account",
          "type": "address"
        }
      ],
      "name": "revokeContributorRole",
      "outputs": [],
      "stateMutability": "nonpayable",
      "type": "function"
    },
    {
      "inputs": [
        {
          "internalType": "bytes32",
          "name": "role",
          "type": "bytes32"
        },
        {
          "internalType": "address",
          "name": "account",
          "type": "address"
        }
      ],
      "name": "revokeRole",
      "outputs": [],
      "stateMutability": "nonpayable",
      "type": "function"
    },
    {
      "inputs": [
        {
          "internalType": "address",
          "name": "account",
          "type": "address"
        },
        {
          "internalType": "string",
          "name": "name",
          "type": "string"
        }
      ],
      "name": "setPrivillegeContributor",
      "outputs": [],
      "stateMutability": "nonpayable",
      "type": "function"
    },
    {
      "inputs": [
        {
          "internalType": "bytes4",
          "name": "interfaceId",
          "type": "bytes4"
        }
      ],
      "name": "supportsInterface",
      "outputs": [
        {
          "internalType": "bool",
          "name": "",
          "type": "bool"
        }
      ],
      "stateMutability": "view",
      "type": "function"
    },
    {
      "inputs": [],
      "name": "userId",
      "outputs": [
        {
          "internalType": "uint256",
          "name": "",
          "type": "uint256"
        }
      ],
      "stateMutability": "view",
      "type": "function"
    },
    {
      "inputs": [
        {
          "internalType": "address",
          "name": "",
          "type": "address"
        }
      ],
      "name": "usersInfo",
      "outputs": [
        {
          "internalType": "uint256",
          "name": "id",
          "type": "uint256"
        },
        {
          "internalType": "string",
          "name": "name",
          "type": "string"
        }
      ],
      "stateMutability": "view",
      "type": "function"
    }
  ],
  "bytecode": "0x608060405234801561001057600080fd5b5061001c600033610021565b6100c0565b6000828152602081815260408083206001600160a01b038516845290915290205460ff166100bc576000828152602081815260408083206001600160a01b03851684529091529020805460ff1916600117905561007b3390565b6001600160a01b0316816001600160a01b0316837f2f8788117e7eff1d82e926ec794901d17c78024a50270940304540a733656f0d60405160405180910390a45b5050565b610e22806100cf6000396000f3fe608060405234801561001057600080fd5b50600436106100df5760003560e01c80635d0eaaaf1161008c578063a217fddf11610066578063a217fddf14610204578063d547741f1461020c578063d72371541461021f578063eafb79e21461023257600080fd5b80635d0eaaaf1461019957806391d14854146101ba5780639974d85f146101f157600080fd5b806336568abe116100bd57806336568abe146101525780633cb5d10014610165578063589759191461019057600080fd5b806301ffc9a7146100e4578063248a9ca31461010c5780632f2ff15d1461013d575b600080fd5b6100f76100f2366004610bcb565b610259565b60405190151581526020015b60405180910390f35b61012f61011a366004610b88565b60009081526020819052604090206001015490565b604051908152602001610103565b61015061014b366004610ba0565b6102f2565b005b610150610160366004610ba0565b61031c565b610178610173366004610b88565b6103ad565b6040516001600160a01b039091168152602001610103565b61012f60015481565b6101ac6101a7366004610ab1565b6103d7565b604051610103929190610ccb565b6100f76101c8366004610ba0565b6000918252602082815260408084206001600160a01b0393909316845291905290205460ff1690565b6101506101ff366004610ab1565b61047c565b61012f600081565b61015061021a366004610ba0565b610517565b61015061022d366004610acb565b61053c565b61012f7fe2889e7308860b3fe8df0daa86fccfea4d71e43776719a57be28cf90b6db81e981565b60007fffffffff0000000000000000000000000000000000000000000000000000000082167f7965db0b0000000000000000000000000000000000000000000000000000000014806102ec57507f01ffc9a7000000000000000000000000000000000000000000000000000000007fffffffff000000000000000000000000000000000000000000000000000000008316145b92915050565b60008281526020819052604090206001015461030d8161061f565b610317838361062c565b505050565b6001600160a01b038116331461039f5760405162461bcd60e51b815260206004820152602f60248201527f416363657373436f6e74726f6c3a2063616e206f6e6c792072656e6f756e636560448201527f20726f6c657320666f722073656c66000000000000000000000000000000000060648201526084015b60405180910390fd5b6103a982826106ca565b5050565b600381815481106103bd57600080fd5b6000918252602090912001546001600160a01b0316905081565b600260205260009081526040902080546001820180549192916103f990610d6a565b80601f016020809104026020016040519081016040528092919081815260200182805461042590610d6a565b80156104725780601f1061044757610100808354040283529160200191610472565b820191906000526020600020905b81548152906001019060200180831161045557829003601f168201915b5050505050905082565b60006104878161061f565b6104b17fe2889e7308860b3fe8df0daa86fccfea4d71e43776719a57be28cf90b6db81e983610517565b6001600160a01b0382166000908152600260205260409020546003805490919081106104ed57634e487b7160e01b600052603260045260246000fd5b6000918252602090912001805473ffffffffffffffffffffffffffffffffffffffff191690555050565b6000828152602081905260409020600101546105328161061f565b61031783836106ca565b60006105478161061f565b6105717fe2889e7308860b3fe8df0daa86fccfea4d71e43776719a57be28cf90b6db81e9846102f2565b6001805490600061058183610da5565b9091555050600180546001600160a01b038516600090815260026020908152604090912091825584516105bc939290920191908501906109fc565b5050600380546001810182556000919091527fc2575a0e9e593c00f959f8c92f12db2869c3395a3b0502d05e2516446f71f85b01805473ffffffffffffffffffffffffffffffffffffffff19166001600160a01b03939093169290921790915550565b6106298133610749565b50565b6000828152602081815260408083206001600160a01b038516845290915290205460ff166103a9576000828152602081815260408083206001600160a01b03851684529091529020805460ff191660011790556106863390565b6001600160a01b0316816001600160a01b0316837f2f8788117e7eff1d82e926ec794901d17c78024a50270940304540a733656f0d60405160405180910390a45050565b6000828152602081815260408083206001600160a01b038516845290915290205460ff16156103a9576000828152602081815260408083206001600160a01b0385168085529252808320805460ff1916905551339285917ff6391f5c32d9c69d2a47ea670b442974b53935d1edc7fd64eb21e047a839171b9190a45050565b6000828152602081815260408083206001600160a01b038516845290915290205460ff166103a95761077a816107bc565b6107858360206107ce565b604051602001610796929190610c37565b60408051601f198184030181529082905262461bcd60e51b825261039691600401610cb8565b60606102ec6001600160a01b03831660145b606060006107dd836002610d04565b6107e8906002610cec565b67ffffffffffffffff81111561080e57634e487b7160e01b600052604160045260246000fd5b6040519080825280601f01601f191660200182016040528015610838576020820181803683370190505b5090507f30000000000000000000000000000000000000000000000000000000000000008160008151811061087d57634e487b7160e01b600052603260045260246000fd5b60200101906001600160f81b031916908160001a9053507f7800000000000000000000000000000000000000000000000000000000000000816001815181106108d657634e487b7160e01b600052603260045260246000fd5b60200101906001600160f81b031916908160001a90535060006108fa846002610d04565b610905906001610cec565b90505b60018111156109a6577f303132333435363738396162636465660000000000000000000000000000000085600f166010811061095457634e487b7160e01b600052603260045260246000fd5b1a60f81b82828151811061097857634e487b7160e01b600052603260045260246000fd5b60200101906001600160f81b031916908160001a90535060049490941c9361099f81610d53565b9050610908565b5083156109f55760405162461bcd60e51b815260206004820181905260248201527f537472696e67733a20686578206c656e67746820696e73756666696369656e746044820152606401610396565b9392505050565b828054610a0890610d6a565b90600052602060002090601f016020900481019282610a2a5760008555610a70565b82601f10610a4357805160ff1916838001178555610a70565b82800160010185558215610a70579182015b82811115610a70578251825591602001919060010190610a55565b50610a7c929150610a80565b5090565b5b80821115610a7c5760008155600101610a81565b80356001600160a01b0381168114610aac57600080fd5b919050565b600060208284031215610ac2578081fd5b6109f582610a95565b60008060408385031215610add578081fd5b610ae683610a95565b9150602083013567ffffffffffffffff80821115610b02578283fd5b818501915085601f830112610b15578283fd5b813581811115610b2757610b27610dd6565b604051601f8201601f19908116603f01168101908382118183101715610b4f57610b4f610dd6565b81604052828152886020848701011115610b67578586fd5b82602086016020830137856020848301015280955050505050509250929050565b600060208284031215610b99578081fd5b5035919050565b60008060408385031215610bb2578182fd5b82359150610bc260208401610a95565b90509250929050565b600060208284031215610bdc578081fd5b81357fffffffff00000000000000000000000000000000000000000000000000000000811681146109f5578182fd5b60008151808452610c23816020860160208601610d23565b601f01601f19169290920160200192915050565b7f416363657373436f6e74726f6c3a206163636f756e7420000000000000000000815260008351610c6f816017850160208801610d23565b7f206973206d697373696e6720726f6c65200000000000000000000000000000006017918401918201528351610cac816028840160208801610d23565b01602801949350505050565b6020815260006109f56020830184610c0b565b828152604060208201526000610ce46040830184610c0b565b949350505050565b60008219821115610cff57610cff610dc0565b500190565b6000816000190483118215151615610d1e57610d1e610dc0565b500290565b60005b83811015610d3e578181015183820152602001610d26565b83811115610d4d576000848401525b50505050565b600081610d6257610d62610dc0565b506000190190565b600181811c90821680610d7e57607f821691505b60208210811415610d9f57634e487b7160e01b600052602260045260246000fd5b50919050565b6000600019821415610db957610db9610dc0565b5060010190565b634e487b7160e01b600052601160045260246000fd5b634e487b7160e01b600052604160045260246000fdfea2646970667358221220b1af3284702b4a6f72df1c2d3dc1901c4db3f8d3b61909197027929647567fb564736f6c63430008040033",
  "linkReferences": {},
  "deployedLinkReferences": {}
}