{
  "_format": "hh-sol-artifact-1",
  "contractName": "RoleManager",
  "sourceName": "contracts/RoleManager.sol",
  "abi": [
    {
      "inputs": [
        {
          "internalType": "string",
          "name": "name",
          "type": "string"
        }
      ],
      "stateMutability": "nonpayable",
      "type": "constructor"
    },
    {
      "anonymous": false,
      "inputs": [
        {
          "indexed": false,
          "internalType": "address",
          "name": "account",
          "type": "address"
        },
        {
          "indexed": false,
          "internalType": "string",
          "name": "name",
          "type": "string"
        },
        {
          "indexed": false,
          "internalType": "string",
          "name": "role",
          "type": "string"
        }
      ],
      "name": "MemberAdded",
      "type": "event"
    },
    {
      "anonymous": false,
      "inputs": [
        {
          "indexed": true,
          "internalType": "bytes32",
          "name": "role",
          "type": "bytes32"
        },
        {
          "indexed": true,
          "internalType": "bytes32",
          "name": "previousAdminRole",
          "type": "bytes32"
        },
        {
          "indexed": true,
          "internalType": "bytes32",
          "name": "newAdminRole",
          "type": "bytes32"
        }
      ],
      "name": "RoleAdminChanged",
      "type": "event"
    },
    {
      "anonymous": false,
      "inputs": [
        {
          "indexed": true,
          "internalType": "bytes32",
          "name": "role",
          "type": "bytes32"
        },
        {
          "indexed": true,
          "internalType": "address",
          "name": "account",
          "type": "address"
        },
        {
          "indexed": true,
          "internalType": "address",
          "name": "sender",
          "type": "address"
        }
      ],
      "name": "RoleGranted",
      "type": "event"
    },
    {
      "anonymous": false,
      "inputs": [
        {
          "indexed": true,
          "internalType": "bytes32",
          "name": "role",
          "type": "bytes32"
        },
        {
          "indexed": true,
          "internalType": "address",
          "name": "account",
          "type": "address"
        },
        {
          "indexed": true,
          "internalType": "address",
          "name": "sender",
          "type": "address"
        }
      ],
      "name": "RoleRevoked",
      "type": "event"
    },
    {
      "inputs": [],
      "name": "CONTRIBUTOR_ROLE",
      "outputs": [
        {
          "internalType": "bytes32",
          "name": "",
          "type": "bytes32"
        }
      ],
      "stateMutability": "view",
      "type": "function"
    },
    {
      "inputs": [],
      "name": "DEFAULT_ADMIN_ROLE",
      "outputs": [
        {
          "internalType": "bytes32",
          "name": "",
          "type": "bytes32"
        }
      ],
      "stateMutability": "view",
      "type": "function"
    },
    {
      "inputs": [
        {
          "internalType": "bytes32",
          "name": "role",
          "type": "bytes32"
        }
      ],
      "name": "getRoleAdmin",
      "outputs": [
        {
          "internalType": "bytes32",
          "name": "",
          "type": "bytes32"
        }
      ],
      "stateMutability": "view",
      "type": "function"
    },
    {
      "inputs": [
        {
          "internalType": "bytes32",
          "name": "role",
          "type": "bytes32"
        },
        {
          "internalType": "address",
          "name": "account",
          "type": "address"
        }
      ],
      "name": "grantRole",
      "outputs": [],
      "stateMutability": "nonpayable",
      "type": "function"
    },
    {
      "inputs": [
        {
          "internalType": "bytes32",
          "name": "role",
          "type": "bytes32"
        },
        {
          "internalType": "address",
          "name": "account",
          "type": "address"
        }
      ],
      "name": "hasRole",
      "outputs": [
        {
          "internalType": "bool",
          "name": "",
          "type": "bool"
        }
      ],
      "stateMutability": "view",
      "type": "function"
    },
    {
      "inputs": [
        {
          "internalType": "bytes32",
          "name": "role",
          "type": "bytes32"
        },
        {
          "internalType": "address",
          "name": "account",
          "type": "address"
        }
      ],
      "name": "renounceRole",
      "outputs": [],
      "stateMutability": "nonpayable",
      "type": "function"
    },
    {
      "inputs": [
        {
          "internalType": "bytes32",
          "name": "role",
          "type": "bytes32"
        },
        {
          "internalType": "address",
          "name": "account",
          "type": "address"
        }
      ],
      "name": "revokeRole",
      "outputs": [],
      "stateMutability": "nonpayable",
      "type": "function"
    },
    {
      "inputs": [],
      "name": "roleId",
      "outputs": [
        {
          "internalType": "uint256",
          "name": "",
          "type": "uint256"
        }
      ],
      "stateMutability": "view",
      "type": "function"
    },
    {
      "inputs": [
        {
          "internalType": "uint256",
          "name": "",
          "type": "uint256"
        }
      ],
      "name": "roles",
      "outputs": [
        {
          "internalType": "address",
          "name": "",
          "type": "address"
        }
      ],
      "stateMutability": "view",
      "type": "function"
    },
    {
      "inputs": [
        {
          "internalType": "address",
          "name": "",
          "type": "address"
        }
      ],
      "name": "rolesInfo",
      "outputs": [
        {
          "internalType": "uint256",
          "name": "id",
          "type": "uint256"
        },
        {
          "internalType": "string",
          "name": "name",
          "type": "string"
        }
      ],
      "stateMutability": "view",
      "type": "function"
    },
    {
      "inputs": [
        {
          "internalType": "address",
          "name": "account",
          "type": "address"
        },
        {
          "internalType": "string",
          "name": "name",
          "type": "string"
        }
      ],
      "name": "setPrivillegeContributor",
      "outputs": [],
      "stateMutability": "nonpayable",
      "type": "function"
    },
    {
      "inputs": [
        {
          "internalType": "bytes4",
          "name": "interfaceId",
          "type": "bytes4"
        }
      ],
      "name": "supportsInterface",
      "outputs": [
        {
          "internalType": "bool",
          "name": "",
          "type": "bool"
        }
      ],
      "stateMutability": "view",
      "type": "function"
    }
  ],
  "bytecode": "0x60806040523480156200001157600080fd5b50604051620025bf380380620025bf833981810160405281019062000037919062000882565b60018081905550620000536000801b336200019160201b60201c565b620000857fe2889e7308860b3fe8df0daa86fccfea4d71e43776719a57be28cf90b6db81e9336200028260201b60201c565b80600260003373ffffffffffffffffffffffffffffffffffffffff1673ffffffffffffffffffffffffffffffffffffffff1681526020019081526020016000206001019080519060200190620000dd92919062000760565b50600154600260003373ffffffffffffffffffffffffffffffffffffffff1673ffffffffffffffffffffffffffffffffffffffff168152602001908152602001600020600001819055506003339080600181540180825580915050600190039060005260206000200160009091909190916101000a81548173ffffffffffffffffffffffffffffffffffffffff021916908373ffffffffffffffffffffffffffffffffffffffff1602179055505062000d74565b620001a38282620002bb60201b60201c565b6200027e57600160008084815260200190815260200160002060000160008373ffffffffffffffffffffffffffffffffffffffff1673ffffffffffffffffffffffffffffffffffffffff16815260200190815260200160002060006101000a81548160ff021916908315150217905550620002236200032560201b60201c565b73ffffffffffffffffffffffffffffffffffffffff168173ffffffffffffffffffffffffffffffffffffffff16837f2f8788117e7eff1d82e926ec794901d17c78024a50270940304540a733656f0d60405160405180910390a45b5050565b62000293826200032d60201b60201c565b620002a4816200034c60201b60201c565b620002b683836200019160201b60201c565b505050565b600080600084815260200190815260200160002060000160008373ffffffffffffffffffffffffffffffffffffffff1673ffffffffffffffffffffffffffffffffffffffff16815260200190815260200160002060009054906101000a900460ff16905092915050565b600033905090565b6000806000838152602001908152602001600020600101549050919050565b6200036d81620003616200032560201b60201c565b6200037060201b60201c565b50565b620003828282620002bb60201b60201c565b62000418576200039d816200041c60201b6200076d1760201c565b620003b88360001c60206200045160201b6200079a1760201c565b604051602001620003cb929190620009b4565b6040516020818303038152906040526040517f08c379a00000000000000000000000000000000000000000000000000000000081526004016200040f9190620009f6565b60405180910390fd5b5050565b60606200044a8273ffffffffffffffffffffffffffffffffffffffff16601460ff166200045160201b60201c565b9050919050565b60606000600283600262000466919062000b1f565b62000472919062000ac2565b67ffffffffffffffff811115620004b2577f4e487b7100000000000000000000000000000000000000000000000000000000600052604160045260246000fd5b6040519080825280601f01601f191660200182016040528015620004e55781602001600182028036833780820191505090505b5090507f30000000000000000000000000000000000000000000000000000000000000008160008151811062000544577f4e487b7100000000000000000000000000000000000000000000000000000000600052603260045260246000fd5b60200101907effffffffffffffffffffffffffffffffffffffffffffffffffffffffffffff1916908160001a9053507f780000000000000000000000000000000000000000000000000000000000000081600181518110620005cf577f4e487b7100000000000000000000000000000000000000000000000000000000600052603260045260246000fd5b60200101907effffffffffffffffffffffffffffffffffffffffffffffffffffffffffffff1916908160001a9053506000600184600262000611919062000b1f565b6200061d919062000ac2565b90505b60018111156200070f577f3031323334353637383961626364656600000000000000000000000000000000600f86166010811062000687577f4e487b7100000000000000000000000000000000000000000000000000000000600052603260045260246000fd5b1a60f81b828281518110620006c5577f4e487b7100000000000000000000000000000000000000000000000000000000600052603260045260246000fd5b60200101907effffffffffffffffffffffffffffffffffffffffffffffffffffffffffffff1916908160001a905350600485901c945080620007079062000bc0565b905062000620565b506000841462000756576040517f08c379a00000000000000000000000000000000000000000000000000000000081526004016200074d9062000a1a565b60405180910390fd5b8091505092915050565b8280546200076e9062000bef565b90600052602060002090601f016020900481019282620007925760008555620007de565b82601f10620007ad57805160ff1916838001178555620007de565b82800160010185558215620007de579182015b82811115620007dd578251825591602001919060010190620007c0565b5b509050620007ed9190620007f1565b5090565b5b808211156200080c576000816000905550600101620007f2565b5090565b600062000827620008218462000a65565b62000a3c565b9050828152602081018484840111156200084057600080fd5b6200084d84828562000b8a565b509392505050565b600082601f8301126200086757600080fd5b81516200087984826020860162000810565b91505092915050565b6000602082840312156200089557600080fd5b600082015167ffffffffffffffff811115620008b057600080fd5b620008be8482850162000855565b91505092915050565b6000620008d48262000a9b565b620008e0818562000aa6565b9350620008f281856020860162000b8a565b620008fd8162000ce8565b840191505092915050565b6000620009158262000a9b565b62000921818562000ab7565b93506200093381856020860162000b8a565b80840191505092915050565b60006200094e60208362000aa6565b91506200095b8262000cf9565b602082019050919050565b60006200097560178362000ab7565b9150620009828262000d22565b601782019050919050565b60006200099c60118362000ab7565b9150620009a98262000d4b565b601182019050919050565b6000620009c18262000966565b9150620009cf828562000908565b9150620009dc826200098d565b9150620009ea828462000908565b91508190509392505050565b6000602082019050818103600083015262000a128184620008c7565b905092915050565b6000602082019050818103600083015262000a35816200093f565b9050919050565b600062000a4862000a5b565b905062000a56828262000c25565b919050565b6000604051905090565b600067ffffffffffffffff82111562000a835762000a8262000cb9565b5b62000a8e8262000ce8565b9050602081019050919050565b600081519050919050565b600082825260208201905092915050565b600081905092915050565b600062000acf8262000b80565b915062000adc8362000b80565b9250827fffffffffffffffffffffffffffffffffffffffffffffffffffffffffffffffff0382111562000b145762000b1362000c5b565b5b828201905092915050565b600062000b2c8262000b80565b915062000b398362000b80565b9250817fffffffffffffffffffffffffffffffffffffffffffffffffffffffffffffffff048311821515161562000b755762000b7462000c5b565b5b828202905092915050565b6000819050919050565b60005b8381101562000baa57808201518184015260208101905062000b8d565b8381111562000bba576000848401525b50505050565b600062000bcd8262000b80565b9150600082141562000be45762000be362000c5b565b5b600182039050919050565b6000600282049050600182168062000c0857607f821691505b6020821081141562000c1f5762000c1e62000c8a565b5b50919050565b62000c308262000ce8565b810181811067ffffffffffffffff8211171562000c525762000c5162000cb9565b5b80604052505050565b7f4e487b7100000000000000000000000000000000000000000000000000000000600052601160045260246000fd5b7f4e487b7100000000000000000000000000000000000000000000000000000000600052602260045260246000fd5b7f4e487b7100000000000000000000000000000000000000000000000000000000600052604160045260246000fd5b6000601f19601f8301169050919050565b7f537472696e67733a20686578206c656e67746820696e73756666696369656e74600082015250565b7f416363657373436f6e74726f6c3a206163636f756e7420000000000000000000600082015250565b7f206973206d697373696e6720726f6c6520000000000000000000000000000000600082015250565b61183b8062000d846000396000f3fe608060405234801561001057600080fd5b50600436106100b45760003560e01c8063a217fddf11610071578063a217fddf1461019f578063bfda4a49146101bd578063d547741f146101ed578063d723715414610209578063e002e54214610225578063eafb79e214610256576100b4565b806301ffc9a7146100b9578063248a9ca3146100e95780632f2ff15d1461011957806336568abe1461013557806373368a481461015157806391d148541461016f575b600080fd5b6100d360048036038101906100ce9190610fa1565b610274565b6040516100e09190611203565b60405180910390f35b61010360048036038101906100fe9190610f3c565b6102ee565b604051610110919061121e565b60405180910390f35b610133600480360381019061012e9190610f65565b61030d565b005b61014f600480360381019061014a9190610f65565b61032e565b005b6101596103b1565b60405161016691906112bb565b60405180910390f35b61018960048036038101906101849190610f65565b6103b7565b6040516101969190611203565b60405180910390f35b6101a7610421565b6040516101b4919061121e565b60405180910390f35b6101d760048036038101906101d29190610fca565b610428565b6040516101e491906111a5565b60405180910390f35b61020760048036038101906102029190610f65565b610467565b005b610223600480360381019061021e9190610ee8565b610488565b005b61023f600480360381019061023a9190610ebf565b61069d565b60405161024d9291906112d6565b60405180910390f35b61025e610749565b60405161026b919061121e565b60405180910390f35b60007f7965db0b000000000000000000000000000000000000000000000000000000007bffffffffffffffffffffffffffffffffffffffffffffffffffffffff1916827bffffffffffffffffffffffffffffffffffffffffffffffffffffffff191614806102e757506102e682610a94565b5b9050919050565b6000806000838152602001908152602001600020600101549050919050565b610316826102ee565b61031f81610afe565b6103298383610b12565b505050565b610336610bf2565b73ffffffffffffffffffffffffffffffffffffffff168173ffffffffffffffffffffffffffffffffffffffff16146103a3576040517f08c379a000000000000000000000000000000000000000000000000000000000815260040161039a9061129b565b60405180910390fd5b6103ad8282610bfa565b5050565b60015481565b600080600084815260200190815260200160002060000160008373ffffffffffffffffffffffffffffffffffffffff1673ffffffffffffffffffffffffffffffffffffffff16815260200190815260200160002060009054906101000a900460ff16905092915050565b6000801b81565b6003818154811061043857600080fd5b906000526020600020016000915054906101000a900473ffffffffffffffffffffffffffffffffffffffff1681565b610470826102ee565b61047981610afe565b6104838383610bfa565b505050565b6000801b61049581610afe565b6000600260008573ffffffffffffffffffffffffffffffffffffffff1673ffffffffffffffffffffffffffffffffffffffff168152602001908152602001600020600001541461051a576040517f08c379a00000000000000000000000000000000000000000000000000000000081526004016105119061127b565b60405180910390fd5b6105447fe2889e7308860b3fe8df0daa86fccfea4d71e43776719a57be28cf90b6db81e98461030d565b6001600081548092919061055790611580565b9190505550600154600260008573ffffffffffffffffffffffffffffffffffffffff1673ffffffffffffffffffffffffffffffffffffffff1681526020019081526020016000206000018190555081600260008573ffffffffffffffffffffffffffffffffffffffff1673ffffffffffffffffffffffffffffffffffffffff16815260200190815260200160002060010190805190602001906105fb929190610d60565b506003839080600181540180825580915050600190039060005260206000200160009091909190916101000a81548173ffffffffffffffffffffffffffffffffffffffff021916908373ffffffffffffffffffffffffffffffffffffffff1602179055507f8c1f1ca5a6426d31d3b3e545fe86200c81f966a54ee5abdf886a0cc7b3d02fa583836040516106909291906111c0565b60405180910390a1505050565b60026020528060005260406000206000915090508060000154908060010180546106c69061151d565b80601f01602080910402602001604051908101604052809291908181526020018280546106f29061151d565b801561073f5780601f106107145761010080835404028352916020019161073f565b820191906000526020600020905b81548152906001019060200180831161072257829003601f168201915b5050505050905082565b7fe2889e7308860b3fe8df0daa86fccfea4d71e43776719a57be28cf90b6db81e981565b60606107938273ffffffffffffffffffffffffffffffffffffffff16601460ff1661079a565b9050919050565b6060600060028360026107ad91906113d9565b6107b79190611383565b67ffffffffffffffff8111156107f6577f4e487b7100000000000000000000000000000000000000000000000000000000600052604160045260246000fd5b6040519080825280601f01601f1916602001820160405280156108285781602001600182028036833780820191505090505b5090507f300000000000000000000000000000000000000000000000000000000000000081600081518110610886577f4e487b7100000000000000000000000000000000000000000000000000000000600052603260045260246000fd5b60200101907effffffffffffffffffffffffffffffffffffffffffffffffffffffffffffff1916908160001a9053507f780000000000000000000000000000000000000000000000000000000000000081600181518110610910577f4e487b7100000000000000000000000000000000000000000000000000000000600052603260045260246000fd5b60200101907effffffffffffffffffffffffffffffffffffffffffffffffffffffffffffff1916908160001a9053506000600184600261095091906113d9565b61095a9190611383565b90505b6001811115610a46577f3031323334353637383961626364656600000000000000000000000000000000600f8616601081106109c2577f4e487b7100000000000000000000000000000000000000000000000000000000600052603260045260246000fd5b1a60f81b8282815181106109ff577f4e487b7100000000000000000000000000000000000000000000000000000000600052603260045260246000fd5b60200101907effffffffffffffffffffffffffffffffffffffffffffffffffffffffffffff1916908160001a905350600485901c945080610a3f906114f3565b905061095d565b5060008414610a8a576040517f08c379a0000000000000000000000000000000000000000000000000000000008152600401610a819061125b565b60405180910390fd5b8091505092915050565b60007f01ffc9a7000000000000000000000000000000000000000000000000000000007bffffffffffffffffffffffffffffffffffffffffffffffffffffffff1916827bffffffffffffffffffffffffffffffffffffffffffffffffffffffff1916149050919050565b610b0f81610b0a610bf2565b610cdb565b50565b610b1c82826103b7565b610bee57600160008084815260200190815260200160002060000160008373ffffffffffffffffffffffffffffffffffffffff1673ffffffffffffffffffffffffffffffffffffffff16815260200190815260200160002060006101000a81548160ff021916908315150217905550610b93610bf2565b73ffffffffffffffffffffffffffffffffffffffff168173ffffffffffffffffffffffffffffffffffffffff16837f2f8788117e7eff1d82e926ec794901d17c78024a50270940304540a733656f0d60405160405180910390a45b5050565b600033905090565b610c0482826103b7565b15610cd757600080600084815260200190815260200160002060000160008373ffffffffffffffffffffffffffffffffffffffff1673ffffffffffffffffffffffffffffffffffffffff16815260200190815260200160002060006101000a81548160ff021916908315150217905550610c7c610bf2565b73ffffffffffffffffffffffffffffffffffffffff168173ffffffffffffffffffffffffffffffffffffffff16837ff6391f5c32d9c69d2a47ea670b442974b53935d1edc7fd64eb21e047a839171b60405160405180910390a45b5050565b610ce582826103b7565b610d5c57610cf28161076d565b610d008360001c602061079a565b604051602001610d1192919061116b565b6040516020818303038152906040526040517f08c379a0000000000000000000000000000000000000000000000000000000008152600401610d539190611239565b60405180910390fd5b5050565b828054610d6c9061151d565b90600052602060002090601f016020900481019282610d8e5760008555610dd5565b82601f10610da757805160ff1916838001178555610dd5565b82800160010185558215610dd5579182015b82811115610dd4578251825591602001919060010190610db9565b5b509050610de29190610de6565b5090565b5b80821115610dff576000816000905550600101610de7565b5090565b6000610e16610e118461132b565b611306565b905082815260208101848484011115610e2e57600080fd5b610e398482856114b1565b509392505050565b600081359050610e50816117a9565b92915050565b600081359050610e65816117c0565b92915050565b600081359050610e7a816117d7565b92915050565b600082601f830112610e9157600080fd5b8135610ea1848260208601610e03565b91505092915050565b600081359050610eb9816117ee565b92915050565b600060208284031215610ed157600080fd5b6000610edf84828501610e41565b91505092915050565b60008060408385031215610efb57600080fd5b6000610f0985828601610e41565b925050602083013567ffffffffffffffff811115610f2657600080fd5b610f3285828601610e80565b9150509250929050565b600060208284031215610f4e57600080fd5b6000610f5c84828501610e56565b91505092915050565b60008060408385031215610f7857600080fd5b6000610f8685828601610e56565b9250506020610f9785828601610e41565b9150509250929050565b600060208284031215610fb357600080fd5b6000610fc184828501610e6b565b91505092915050565b600060208284031215610fdc57600080fd5b6000610fea84828501610eaa565b91505092915050565b610ffc81611433565b82525050565b61100b81611445565b82525050565b61101a81611451565b82525050565b600061102b8261135c565b6110358185611367565b93506110458185602086016114c0565b61104e81611656565b840191505092915050565b60006110648261135c565b61106e8185611378565b935061107e8185602086016114c0565b80840191505092915050565b6000611097602083611367565b91506110a282611667565b602082019050919050565b60006110ba600b83611367565b91506110c582611690565b602082019050919050565b60006110dd602483611367565b91506110e8826116b9565b604082019050919050565b6000611100601783611378565b915061110b82611708565b601782019050919050565b6000611123601183611378565b915061112e82611731565b601182019050919050565b6000611146602f83611367565b91506111518261175a565b604082019050919050565b611165816114a7565b82525050565b6000611176826110f3565b91506111828285611059565b915061118d82611116565b91506111998284611059565b91508190509392505050565b60006020820190506111ba6000830184610ff3565b92915050565b60006060820190506111d56000830185610ff3565b81810360208301526111e78184611020565b905081810360408301526111fa816110ad565b90509392505050565b60006020820190506112186000830184611002565b92915050565b60006020820190506112336000830184611011565b92915050565b600060208201905081810360008301526112538184611020565b905092915050565b600060208201905081810360008301526112748161108a565b9050919050565b60006020820190508181036000830152611294816110d0565b9050919050565b600060208201905081810360008301526112b481611139565b9050919050565b60006020820190506112d0600083018461115c565b92915050565b60006040820190506112eb600083018561115c565b81810360208301526112fd8184611020565b90509392505050565b6000611310611321565b905061131c828261154f565b919050565b6000604051905090565b600067ffffffffffffffff82111561134657611345611627565b5b61134f82611656565b9050602081019050919050565b600081519050919050565b600082825260208201905092915050565b600081905092915050565b600061138e826114a7565b9150611399836114a7565b9250827fffffffffffffffffffffffffffffffffffffffffffffffffffffffffffffffff038211156113ce576113cd6115c9565b5b828201905092915050565b60006113e4826114a7565b91506113ef836114a7565b9250817fffffffffffffffffffffffffffffffffffffffffffffffffffffffffffffffff0483118215151615611428576114276115c9565b5b828202905092915050565b600061143e82611487565b9050919050565b60008115159050919050565b6000819050919050565b60007fffffffff0000000000000000000000000000000000000000000000000000000082169050919050565b600073ffffffffffffffffffffffffffffffffffffffff82169050919050565b6000819050919050565b82818337600083830152505050565b60005b838110156114de5780820151818401526020810190506114c3565b838111156114ed576000848401525b50505050565b60006114fe826114a7565b91506000821415611512576115116115c9565b5b600182039050919050565b6000600282049050600182168061153557607f821691505b60208210811415611549576115486115f8565b5b50919050565b61155882611656565b810181811067ffffffffffffffff8211171561157757611576611627565b5b80604052505050565b600061158b826114a7565b91507fffffffffffffffffffffffffffffffffffffffffffffffffffffffffffffffff8214156115be576115bd6115c9565b5b600182019050919050565b7f4e487b7100000000000000000000000000000000000000000000000000000000600052601160045260246000fd5b7f4e487b7100000000000000000000000000000000000000000000000000000000600052602260045260246000fd5b7f4e487b7100000000000000000000000000000000000000000000000000000000600052604160045260246000fd5b6000601f19601f8301169050919050565b7f537472696e67733a20686578206c656e67746820696e73756666696369656e74600082015250565b7f636f6e7472696275746f72000000000000000000000000000000000000000000600082015250565b7f4163636f756e7420616c7265616479206861766520736f6d652070726976696c60008201527f6c65676500000000000000000000000000000000000000000000000000000000602082015250565b7f416363657373436f6e74726f6c3a206163636f756e7420000000000000000000600082015250565b7f206973206d697373696e6720726f6c6520000000000000000000000000000000600082015250565b7f416363657373436f6e74726f6c3a2063616e206f6e6c792072656e6f756e636560008201527f20726f6c657320666f722073656c660000000000000000000000000000000000602082015250565b6117b281611433565b81146117bd57600080fd5b50565b6117c981611451565b81146117d457600080fd5b50565b6117e08161145b565b81146117eb57600080fd5b50565b6117f7816114a7565b811461180257600080fd5b5056fea26469706673582212202aa5a77c8b6e740a39e1f42708c3f34d6e97177cde7fd359929df18692a5bac864736f6c63430008040033",
  "linkReferences": {},
  "deployedLinkReferences": {}
}