{
  "_format": "hh-sol-artifact-1",
  "contractName": "RoleManager",
  "sourceName": "contracts/RoleManager.sol",
  "abi": [
    {
      "inputs": [
        {
          "internalType": "string",
          "name": "name",
          "type": "string"
        }
      ],
      "stateMutability": "nonpayable",
      "type": "constructor"
    },
    {
      "anonymous": false,
      "inputs": [
        {
          "indexed": true,
          "internalType": "bytes32",
          "name": "role",
          "type": "bytes32"
        },
        {
          "indexed": true,
          "internalType": "bytes32",
          "name": "previousAdminRole",
          "type": "bytes32"
        },
        {
          "indexed": true,
          "internalType": "bytes32",
          "name": "newAdminRole",
          "type": "bytes32"
        }
      ],
      "name": "RoleAdminChanged",
      "type": "event"
    },
    {
      "anonymous": false,
      "inputs": [
        {
          "indexed": false,
          "internalType": "address",
          "name": "account",
          "type": "address"
        },
        {
          "indexed": false,
          "internalType": "string",
          "name": "name",
          "type": "string"
        },
        {
          "indexed": false,
          "internalType": "string",
          "name": "roleName",
          "type": "string"
        }
      ],
      "name": "RoleGranted",
      "type": "event"
    },
    {
      "anonymous": false,
      "inputs": [
        {
          "indexed": true,
          "internalType": "bytes32",
          "name": "role",
          "type": "bytes32"
        },
        {
          "indexed": true,
          "internalType": "address",
          "name": "account",
          "type": "address"
        },
        {
          "indexed": true,
          "internalType": "address",
          "name": "sender",
          "type": "address"
        }
      ],
      "name": "RoleGranted",
      "type": "event"
    },
    {
      "anonymous": false,
      "inputs": [
        {
          "indexed": false,
          "internalType": "address",
          "name": "account",
          "type": "address"
        },
        {
          "indexed": false,
          "internalType": "string",
          "name": "roleName",
          "type": "string"
        }
      ],
      "name": "RoleRevoked",
      "type": "event"
    },
    {
      "anonymous": false,
      "inputs": [
        {
          "indexed": true,
          "internalType": "bytes32",
          "name": "role",
          "type": "bytes32"
        },
        {
          "indexed": true,
          "internalType": "address",
          "name": "account",
          "type": "address"
        },
        {
          "indexed": true,
          "internalType": "address",
          "name": "sender",
          "type": "address"
        }
      ],
      "name": "RoleRevoked",
      "type": "event"
    },
    {
      "inputs": [],
      "name": "CONTRIBUTOR_ROLE",
      "outputs": [
        {
          "internalType": "bytes32",
          "name": "",
          "type": "bytes32"
        }
      ],
      "stateMutability": "view",
      "type": "function"
    },
    {
      "inputs": [],
      "name": "DEFAULT_ADMIN_ROLE",
      "outputs": [
        {
          "internalType": "bytes32",
          "name": "",
          "type": "bytes32"
        }
      ],
      "stateMutability": "view",
      "type": "function"
    },
    {
      "inputs": [
        {
          "internalType": "bytes32",
          "name": "role",
          "type": "bytes32"
        }
      ],
      "name": "getRoleAdmin",
      "outputs": [
        {
          "internalType": "bytes32",
          "name": "",
          "type": "bytes32"
        }
      ],
      "stateMutability": "view",
      "type": "function"
    },
    {
      "inputs": [
        {
          "internalType": "bytes32",
          "name": "role",
          "type": "bytes32"
        },
        {
          "internalType": "address",
          "name": "account",
          "type": "address"
        }
      ],
      "name": "grantRole",
      "outputs": [],
      "stateMutability": "nonpayable",
      "type": "function"
    },
    {
      "inputs": [
        {
          "internalType": "bytes32",
          "name": "role",
          "type": "bytes32"
        },
        {
          "internalType": "address",
          "name": "account",
          "type": "address"
        }
      ],
      "name": "hasRole",
      "outputs": [
        {
          "internalType": "bool",
          "name": "",
          "type": "bool"
        }
      ],
      "stateMutability": "view",
      "type": "function"
    },
    {
      "inputs": [
        {
          "internalType": "bytes32",
          "name": "role",
          "type": "bytes32"
        },
        {
          "internalType": "address",
          "name": "account",
          "type": "address"
        }
      ],
      "name": "renounceRole",
      "outputs": [],
      "stateMutability": "nonpayable",
      "type": "function"
    },
    {
      "inputs": [
        {
          "internalType": "address",
          "name": "account",
          "type": "address"
        }
      ],
      "name": "revokeContributorRole",
      "outputs": [],
      "stateMutability": "nonpayable",
      "type": "function"
    },
    {
      "inputs": [
        {
          "internalType": "bytes32",
          "name": "role",
          "type": "bytes32"
        },
        {
          "internalType": "address",
          "name": "account",
          "type": "address"
        }
      ],
      "name": "revokeRole",
      "outputs": [],
      "stateMutability": "nonpayable",
      "type": "function"
    },
    {
      "inputs": [
        {
          "internalType": "address",
          "name": "account",
          "type": "address"
        },
        {
          "internalType": "string",
          "name": "name",
          "type": "string"
        }
      ],
      "name": "setPrivillegeContributor",
      "outputs": [],
      "stateMutability": "nonpayable",
      "type": "function"
    },
    {
      "inputs": [
        {
          "internalType": "bytes4",
          "name": "interfaceId",
          "type": "bytes4"
        }
      ],
      "name": "supportsInterface",
      "outputs": [
        {
          "internalType": "bool",
          "name": "",
          "type": "bool"
        }
      ],
      "stateMutability": "view",
      "type": "function"
    },
    {
      "inputs": [],
      "name": "userId",
      "outputs": [
        {
          "internalType": "uint256",
          "name": "",
          "type": "uint256"
        }
      ],
      "stateMutability": "view",
      "type": "function"
    },
    {
      "inputs": [
        {
          "internalType": "uint256",
          "name": "",
          "type": "uint256"
        }
      ],
      "name": "users",
      "outputs": [
        {
          "internalType": "address",
          "name": "",
          "type": "address"
        }
      ],
      "stateMutability": "view",
      "type": "function"
    },
    {
      "inputs": [
        {
          "internalType": "address",
          "name": "",
          "type": "address"
        }
      ],
      "name": "usersInfo",
      "outputs": [
        {
          "internalType": "uint256",
          "name": "id",
          "type": "uint256"
        },
        {
          "internalType": "string",
          "name": "name",
          "type": "string"
        }
      ],
      "stateMutability": "view",
      "type": "function"
    }
  ],
  "bytecode": "0x60806040523480156200001157600080fd5b506040516200278e3803806200278e8339818101604052810190620000379190620008be565b6000600181905550620000546000801b33620001cd60201b60201c565b620000867fe2889e7308860b3fe8df0daa86fccfea4d71e43776719a57be28cf90b6db81e933620002be60201b60201c565b80600260003373ffffffffffffffffffffffffffffffffffffffff1673ffffffffffffffffffffffffffffffffffffffff1681526020019081526020016000206001019080519060200190620000de9291906200079c565b50600154600260003373ffffffffffffffffffffffffffffffffffffffff1673ffffffffffffffffffffffffffffffffffffffff168152602001908152602001600020600001819055506003339080600181540180825580915050600190039060005260206000200160009091909190916101000a81548173ffffffffffffffffffffffffffffffffffffffff021916908373ffffffffffffffffffffffffffffffffffffffff1602179055507f5033203abc62f72bb5c4e773c4fbc6804f9bc8ca8b3ce912fbd5fd42b66f2a073382604051620001be92919062000a6a565b60405180910390a15062000e8e565b620001df8282620002f760201b60201c565b620002ba57600160008084815260200190815260200160002060000160008373ffffffffffffffffffffffffffffffffffffffff1673ffffffffffffffffffffffffffffffffffffffff16815260200190815260200160002060006101000a81548160ff0219169083151502179055506200025f6200036160201b60201c565b73ffffffffffffffffffffffffffffffffffffffff168173ffffffffffffffffffffffffffffffffffffffff16837f2f8788117e7eff1d82e926ec794901d17c78024a50270940304540a733656f0d60405160405180910390a45b5050565b620002cf826200036960201b60201c565b620002e0816200038860201b60201c565b620002f28383620001cd60201b60201c565b505050565b600080600084815260200190815260200160002060000160008373ffffffffffffffffffffffffffffffffffffffff1673ffffffffffffffffffffffffffffffffffffffff16815260200190815260200160002060009054906101000a900460ff16905092915050565b600033905090565b6000806000838152602001908152602001600020600101549050919050565b620003a9816200039d6200036160201b60201c565b620003ac60201b60201c565b50565b620003be8282620002f760201b60201c565b6200045457620003d9816200045860201b6200083a1760201c565b620003f48360001c60206200048d60201b620008671760201c565b6040516020016200040792919062000a28565b6040516020818303038152906040526040517f08c379a00000000000000000000000000000000000000000000000000000000081526004016200044b919062000ab3565b60405180910390fd5b5050565b6060620004868273ffffffffffffffffffffffffffffffffffffffff16601460ff166200048d60201b60201c565b9050919050565b606060006002836002620004a2919062000bdc565b620004ae919062000b7f565b67ffffffffffffffff811115620004ee577f4e487b7100000000000000000000000000000000000000000000000000000000600052604160045260246000fd5b6040519080825280601f01601f191660200182016040528015620005215781602001600182028036833780820191505090505b5090507f30000000000000000000000000000000000000000000000000000000000000008160008151811062000580577f4e487b7100000000000000000000000000000000000000000000000000000000600052603260045260246000fd5b60200101907effffffffffffffffffffffffffffffffffffffffffffffffffffffffffffff1916908160001a9053507f7800000000000000000000000000000000000000000000000000000000000000816001815181106200060b577f4e487b7100000000000000000000000000000000000000000000000000000000600052603260045260246000fd5b60200101907effffffffffffffffffffffffffffffffffffffffffffffffffffffffffffff1916908160001a905350600060018460026200064d919062000bdc565b62000659919062000b7f565b90505b60018111156200074b577f3031323334353637383961626364656600000000000000000000000000000000600f861660108110620006c3577f4e487b7100000000000000000000000000000000000000000000000000000000600052603260045260246000fd5b1a60f81b82828151811062000701577f4e487b7100000000000000000000000000000000000000000000000000000000600052603260045260246000fd5b60200101907effffffffffffffffffffffffffffffffffffffffffffffffffffffffffffff1916908160001a905350600485901c945080620007439062000cb1565b90506200065c565b506000841462000792576040517f08c379a0000000000000000000000000000000000000000000000000000000008152600401620007899062000ad7565b60405180910390fd5b8091505092915050565b828054620007aa9062000ce0565b90600052602060002090601f016020900481019282620007ce57600085556200081a565b82601f10620007e957805160ff19168380011785556200081a565b828001600101855582156200081a579182015b8281111562000819578251825591602001919060010190620007fc565b5b5090506200082991906200082d565b5090565b5b80821115620008485760008160009055506001016200082e565b5090565b6000620008636200085d8462000b22565b62000af9565b9050828152602081018484840111156200087c57600080fd5b6200088984828562000c7b565b509392505050565b600082601f830112620008a357600080fd5b8151620008b58482602086016200084c565b91505092915050565b600060208284031215620008d157600080fd5b600082015167ffffffffffffffff811115620008ec57600080fd5b620008fa8482850162000891565b91505092915050565b6200090e8162000c3d565b82525050565b6000620009218262000b58565b6200092d818562000b63565b93506200093f81856020860162000c7b565b6200094a8162000dd9565b840191505092915050565b6000620009628262000b58565b6200096e818562000b74565b93506200098081856020860162000c7b565b80840191505092915050565b60006200099b60208362000b63565b9150620009a88262000dea565b602082019050919050565b6000620009c2600b8362000b63565b9150620009cf8262000e13565b602082019050919050565b6000620009e960178362000b74565b9150620009f68262000e3c565b601782019050919050565b600062000a1060118362000b74565b915062000a1d8262000e65565b601182019050919050565b600062000a3582620009da565b915062000a43828562000955565b915062000a508262000a01565b915062000a5e828462000955565b91508190509392505050565b600060608201905062000a81600083018562000903565b818103602083015262000a95818462000914565b9050818103604083015262000aaa81620009b3565b90509392505050565b6000602082019050818103600083015262000acf818462000914565b905092915050565b6000602082019050818103600083015262000af2816200098c565b9050919050565b600062000b0562000b18565b905062000b13828262000d16565b919050565b6000604051905090565b600067ffffffffffffffff82111562000b405762000b3f62000daa565b5b62000b4b8262000dd9565b9050602081019050919050565b600081519050919050565b600082825260208201905092915050565b600081905092915050565b600062000b8c8262000c71565b915062000b998362000c71565b9250827fffffffffffffffffffffffffffffffffffffffffffffffffffffffffffffffff0382111562000bd15762000bd062000d4c565b5b828201905092915050565b600062000be98262000c71565b915062000bf68362000c71565b9250817fffffffffffffffffffffffffffffffffffffffffffffffffffffffffffffffff048311821515161562000c325762000c3162000d4c565b5b828202905092915050565b600062000c4a8262000c51565b9050919050565b600073ffffffffffffffffffffffffffffffffffffffff82169050919050565b6000819050919050565b60005b8381101562000c9b57808201518184015260208101905062000c7e565b8381111562000cab576000848401525b50505050565b600062000cbe8262000c71565b9150600082141562000cd55762000cd462000d4c565b5b600182039050919050565b6000600282049050600182168062000cf957607f821691505b6020821081141562000d105762000d0f62000d7b565b5b50919050565b62000d218262000dd9565b810181811067ffffffffffffffff8211171562000d435762000d4262000daa565b5b80604052505050565b7f4e487b7100000000000000000000000000000000000000000000000000000000600052601160045260246000fd5b7f4e487b7100000000000000000000000000000000000000000000000000000000600052602260045260246000fd5b7f4e487b7100000000000000000000000000000000000000000000000000000000600052604160045260246000fd5b6000601f19601f8301169050919050565b7f537472696e67733a20686578206c656e67746820696e73756666696369656e74600082015250565b7f436f6e7472696275746f72000000000000000000000000000000000000000000600082015250565b7f416363657373436f6e74726f6c3a206163636f756e7420000000000000000000600082015250565b7f206973206d697373696e6720726f6c6520000000000000000000000000000000600082015250565b6118f08062000e9e6000396000f3fe608060405234801561001057600080fd5b50600436106100cf5760003560e01c80635d0eaaaf1161008c578063a217fddf11610066578063a217fddf14610237578063d547741f14610255578063d723715414610271578063eafb79e21461028d576100cf565b80635d0eaaaf146101ba57806391d14854146101eb5780639974d85f1461021b576100cf565b806301ffc9a7146100d4578063248a9ca3146101045780632f2ff15d1461013457806336568abe14610150578063365b98b21461016c578063589759191461019c575b600080fd5b6100ee60048036038101906100e9919061106e565b6102ab565b6040516100fb91906112fe565b60405180910390f35b61011e60048036038101906101199190611009565b610325565b60405161012b9190611319565b60405180910390f35b61014e60048036038101906101499190611032565b610344565b005b61016a60048036038101906101659190611032565b610365565b005b61018660048036038101906101819190611097565b6103e8565b6040516101939190611272565b60405180910390f35b6101a4610427565b6040516101b19190611396565b60405180910390f35b6101d460048036038101906101cf9190610f8c565b61042d565b6040516101e29291906113b1565b60405180910390f35b61020560048036038101906102009190611032565b6104d9565b60405161021291906112fe565b60405180910390f35b61023560048036038101906102309190610f8c565b610543565b005b61023f61065e565b60405161024c9190611319565b60405180910390f35b61026f600480360381019061026a9190611032565b610665565b005b61028b60048036038101906102869190610fb5565b610686565b005b610295610816565b6040516102a29190611319565b60405180910390f35b60007f7965db0b000000000000000000000000000000000000000000000000000000007bffffffffffffffffffffffffffffffffffffffffffffffffffffffff1916827bffffffffffffffffffffffffffffffffffffffffffffffffffffffff1916148061031e575061031d82610b61565b5b9050919050565b6000806000838152602001908152602001600020600101549050919050565b61034d82610325565b61035681610bcb565b6103608383610bdf565b505050565b61036d610cbf565b73ffffffffffffffffffffffffffffffffffffffff168173ffffffffffffffffffffffffffffffffffffffff16146103da576040517f08c379a00000000000000000000000000000000000000000000000000000000081526004016103d190611376565b60405180910390fd5b6103e48282610cc7565b5050565b600381815481106103f857600080fd5b906000526020600020016000915054906101000a900473ffffffffffffffffffffffffffffffffffffffff1681565b60015481565b6002602052806000526040600020600091509050806000015490806001018054610456906115f8565b80601f0160208091040260200160405190810160405280929190818152602001828054610482906115f8565b80156104cf5780601f106104a4576101008083540402835291602001916104cf565b820191906000526020600020905b8154815290600101906020018083116104b257829003601f168201915b5050505050905082565b600080600084815260200190815260200160002060000160008373ffffffffffffffffffffffffffffffffffffffff1673ffffffffffffffffffffffffffffffffffffffff16815260200190815260200160002060009054906101000a900460ff16905092915050565b6000801b61055081610bcb565b61057a7fe2889e7308860b3fe8df0daa86fccfea4d71e43776719a57be28cf90b6db81e983610665565b6003600260008473ffffffffffffffffffffffffffffffffffffffff1673ffffffffffffffffffffffffffffffffffffffff16815260200190815260200160002060000154815481106105f6577f4e487b7100000000000000000000000000000000000000000000000000000000600052603260045260246000fd5b9060005260206000200160006101000a81549073ffffffffffffffffffffffffffffffffffffffff02191690557f9f43a01c0d4ff5aff09b3b9b472df707ceefd3f948f8942f10fa1562a89213048260405161065291906112d0565b60405180910390a15050565b6000801b81565b61066e82610325565b61067781610bcb565b6106818383610cc7565b505050565b6000801b61069381610bcb565b6106bd7fe2889e7308860b3fe8df0daa86fccfea4d71e43776719a57be28cf90b6db81e984610344565b600160008154809291906106d09061165b565b9190505550600154600260008573ffffffffffffffffffffffffffffffffffffffff1673ffffffffffffffffffffffffffffffffffffffff1681526020019081526020016000206000018190555081600260008573ffffffffffffffffffffffffffffffffffffffff1673ffffffffffffffffffffffffffffffffffffffff1681526020019081526020016000206001019080519060200190610774929190610e2d565b506003839080600181540180825580915050600190039060005260206000200160009091909190916101000a81548173ffffffffffffffffffffffffffffffffffffffff021916908373ffffffffffffffffffffffffffffffffffffffff1602179055507f5033203abc62f72bb5c4e773c4fbc6804f9bc8ca8b3ce912fbd5fd42b66f2a07838360405161080992919061128d565b60405180910390a1505050565b7fe2889e7308860b3fe8df0daa86fccfea4d71e43776719a57be28cf90b6db81e981565b60606108608273ffffffffffffffffffffffffffffffffffffffff16601460ff16610867565b9050919050565b60606000600283600261087a91906114b4565b610884919061145e565b67ffffffffffffffff8111156108c3577f4e487b7100000000000000000000000000000000000000000000000000000000600052604160045260246000fd5b6040519080825280601f01601f1916602001820160405280156108f55781602001600182028036833780820191505090505b5090507f300000000000000000000000000000000000000000000000000000000000000081600081518110610953577f4e487b7100000000000000000000000000000000000000000000000000000000600052603260045260246000fd5b60200101907effffffffffffffffffffffffffffffffffffffffffffffffffffffffffffff1916908160001a9053507f7800000000000000000000000000000000000000000000000000000000000000816001815181106109dd577f4e487b7100000000000000000000000000000000000000000000000000000000600052603260045260246000fd5b60200101907effffffffffffffffffffffffffffffffffffffffffffffffffffffffffffff1916908160001a90535060006001846002610a1d91906114b4565b610a27919061145e565b90505b6001811115610b13577f3031323334353637383961626364656600000000000000000000000000000000600f861660108110610a8f577f4e487b7100000000000000000000000000000000000000000000000000000000600052603260045260246000fd5b1a60f81b828281518110610acc577f4e487b7100000000000000000000000000000000000000000000000000000000600052603260045260246000fd5b60200101907effffffffffffffffffffffffffffffffffffffffffffffffffffffffffffff1916908160001a905350600485901c945080610b0c906115ce565b9050610a2a565b5060008414610b57576040517f08c379a0000000000000000000000000000000000000000000000000000000008152600401610b4e90611356565b60405180910390fd5b8091505092915050565b60007f01ffc9a7000000000000000000000000000000000000000000000000000000007bffffffffffffffffffffffffffffffffffffffffffffffffffffffff1916827bffffffffffffffffffffffffffffffffffffffffffffffffffffffff1916149050919050565b610bdc81610bd7610cbf565b610da8565b50565b610be982826104d9565b610cbb57600160008084815260200190815260200160002060000160008373ffffffffffffffffffffffffffffffffffffffff1673ffffffffffffffffffffffffffffffffffffffff16815260200190815260200160002060006101000a81548160ff021916908315150217905550610c60610cbf565b73ffffffffffffffffffffffffffffffffffffffff168173ffffffffffffffffffffffffffffffffffffffff16837f2f8788117e7eff1d82e926ec794901d17c78024a50270940304540a733656f0d60405160405180910390a45b5050565b600033905090565b610cd182826104d9565b15610da457600080600084815260200190815260200160002060000160008373ffffffffffffffffffffffffffffffffffffffff1673ffffffffffffffffffffffffffffffffffffffff16815260200190815260200160002060006101000a81548160ff021916908315150217905550610d49610cbf565b73ffffffffffffffffffffffffffffffffffffffff168173ffffffffffffffffffffffffffffffffffffffff16837ff6391f5c32d9c69d2a47ea670b442974b53935d1edc7fd64eb21e047a839171b60405160405180910390a45b5050565b610db282826104d9565b610e2957610dbf8161083a565b610dcd8360001c6020610867565b604051602001610dde929190611238565b6040516020818303038152906040526040517f08c379a0000000000000000000000000000000000000000000000000000000008152600401610e209190611334565b60405180910390fd5b5050565b828054610e39906115f8565b90600052602060002090601f016020900481019282610e5b5760008555610ea2565b82601f10610e7457805160ff1916838001178555610ea2565b82800160010185558215610ea2579182015b82811115610ea1578251825591602001919060010190610e86565b5b509050610eaf9190610eb3565b5090565b5b80821115610ecc576000816000905550600101610eb4565b5090565b6000610ee3610ede84611406565b6113e1565b905082815260208101848484011115610efb57600080fd5b610f0684828561158c565b509392505050565b600081359050610f1d8161185e565b92915050565b600081359050610f3281611875565b92915050565b600081359050610f478161188c565b92915050565b600082601f830112610f5e57600080fd5b8135610f6e848260208601610ed0565b91505092915050565b600081359050610f86816118a3565b92915050565b600060208284031215610f9e57600080fd5b6000610fac84828501610f0e565b91505092915050565b60008060408385031215610fc857600080fd5b6000610fd685828601610f0e565b925050602083013567ffffffffffffffff811115610ff357600080fd5b610fff85828601610f4d565b9150509250929050565b60006020828403121561101b57600080fd5b600061102984828501610f23565b91505092915050565b6000806040838503121561104557600080fd5b600061105385828601610f23565b925050602061106485828601610f0e565b9150509250929050565b60006020828403121561108057600080fd5b600061108e84828501610f38565b91505092915050565b6000602082840312156110a957600080fd5b60006110b784828501610f77565b91505092915050565b6110c98161150e565b82525050565b6110d881611520565b82525050565b6110e78161152c565b82525050565b60006110f882611437565b6111028185611442565b935061111281856020860161159b565b61111b81611731565b840191505092915050565b600061113182611437565b61113b8185611453565b935061114b81856020860161159b565b80840191505092915050565b6000611164602083611442565b915061116f82611742565b602082019050919050565b6000611187600b83611442565b91506111928261176b565b602082019050919050565b60006111aa600d83611442565b91506111b582611794565b602082019050919050565b60006111cd601783611453565b91506111d8826117bd565b601782019050919050565b60006111f0601183611453565b91506111fb826117e6565b601182019050919050565b6000611213602f83611442565b915061121e8261180f565b604082019050919050565b61123281611582565b82525050565b6000611243826111c0565b915061124f8285611126565b915061125a826111e3565b91506112668284611126565b91508190509392505050565b600060208201905061128760008301846110c0565b92915050565b60006060820190506112a260008301856110c0565b81810360208301526112b481846110ed565b905081810360408301526112c78161119d565b90509392505050565b60006040820190506112e560008301846110c0565b81810360208301526112f68161117a565b905092915050565b600060208201905061131360008301846110cf565b92915050565b600060208201905061132e60008301846110de565b92915050565b6000602082019050818103600083015261134e81846110ed565b905092915050565b6000602082019050818103600083015261136f81611157565b9050919050565b6000602082019050818103600083015261138f81611206565b9050919050565b60006020820190506113ab6000830184611229565b92915050565b60006040820190506113c66000830185611229565b81810360208301526113d881846110ed565b90509392505050565b60006113eb6113fc565b90506113f7828261162a565b919050565b6000604051905090565b600067ffffffffffffffff82111561142157611420611702565b5b61142a82611731565b9050602081019050919050565b600081519050919050565b600082825260208201905092915050565b600081905092915050565b600061146982611582565b915061147483611582565b9250827fffffffffffffffffffffffffffffffffffffffffffffffffffffffffffffffff038211156114a9576114a86116a4565b5b828201905092915050565b60006114bf82611582565b91506114ca83611582565b9250817fffffffffffffffffffffffffffffffffffffffffffffffffffffffffffffffff0483118215151615611503576115026116a4565b5b828202905092915050565b600061151982611562565b9050919050565b60008115159050919050565b6000819050919050565b60007fffffffff0000000000000000000000000000000000000000000000000000000082169050919050565b600073ffffffffffffffffffffffffffffffffffffffff82169050919050565b6000819050919050565b82818337600083830152505050565b60005b838110156115b957808201518184015260208101905061159e565b838111156115c8576000848401525b50505050565b60006115d982611582565b915060008214156115ed576115ec6116a4565b5b600182039050919050565b6000600282049050600182168061161057607f821691505b60208210811415611624576116236116d3565b5b50919050565b61163382611731565b810181811067ffffffffffffffff8211171561165257611651611702565b5b80604052505050565b600061166682611582565b91507fffffffffffffffffffffffffffffffffffffffffffffffffffffffffffffffff821415611699576116986116a4565b5b600182019050919050565b7f4e487b7100000000000000000000000000000000000000000000000000000000600052601160045260246000fd5b7f4e487b7100000000000000000000000000000000000000000000000000000000600052602260045260246000fd5b7f4e487b7100000000000000000000000000000000000000000000000000000000600052604160045260246000fd5b6000601f19601f8301169050919050565b7f537472696e67733a20686578206c656e67746820696e73756666696369656e74600082015250565b7f436f6e7472696275746f72000000000000000000000000000000000000000000600082015250565b7f41646d696e6973747261746f7200000000000000000000000000000000000000600082015250565b7f416363657373436f6e74726f6c3a206163636f756e7420000000000000000000600082015250565b7f206973206d697373696e6720726f6c6520000000000000000000000000000000600082015250565b7f416363657373436f6e74726f6c3a2063616e206f6e6c792072656e6f756e636560008201527f20726f6c657320666f722073656c660000000000000000000000000000000000602082015250565b6118678161150e565b811461187257600080fd5b50565b61187e8161152c565b811461188957600080fd5b50565b61189581611536565b81146118a057600080fd5b50565b6118ac81611582565b81146118b757600080fd5b5056fea2646970667358221220c807a0a70add156a15179bb2a3dd4a1d8ea80cea34936be3bb0702f9dd6c046864736f6c63430008040033",
  "linkReferences": {},
  "deployedLinkReferences": {}
}