{
  "_format": "hh-sol-artifact-1",
  "contractName": "Repository",
  "sourceName": "contracts/Repository.sol",
  "abi": [
    {
      "inputs": [
        {
          "internalType": "string",
          "name": "_name",
          "type": "string"
        },
        {
          "internalType": "string",
          "name": "_description",
          "type": "string"
        },
        {
          "internalType": "address",
          "name": "_user",
          "type": "address"
        }
      ],
      "stateMutability": "nonpayable",
      "type": "constructor"
    },
    {
      "anonymous": false,
      "inputs": [
        {
          "indexed": false,
          "internalType": "string",
          "name": "name",
          "type": "string"
        },
        {
          "indexed": false,
          "internalType": "uint256",
          "name": "createdAt",
          "type": "uint256"
        },
        {
          "indexed": false,
          "internalType": "address",
          "name": "owner",
          "type": "address"
        },
        {
          "indexed": false,
          "internalType": "string",
          "name": "description",
          "type": "string"
        }
      ],
      "name": "RepositoryCreated",
      "type": "event"
    },
    {
      "anonymous": false,
      "inputs": [
        {
          "indexed": true,
          "internalType": "bytes32",
          "name": "role",
          "type": "bytes32"
        },
        {
          "indexed": true,
          "internalType": "bytes32",
          "name": "previousAdminRole",
          "type": "bytes32"
        },
        {
          "indexed": true,
          "internalType": "bytes32",
          "name": "newAdminRole",
          "type": "bytes32"
        }
      ],
      "name": "RoleAdminChanged",
      "type": "event"
    },
    {
      "anonymous": false,
      "inputs": [
        {
          "indexed": true,
          "internalType": "bytes32",
          "name": "role",
          "type": "bytes32"
        },
        {
          "indexed": true,
          "internalType": "address",
          "name": "account",
          "type": "address"
        },
        {
          "indexed": true,
          "internalType": "address",
          "name": "sender",
          "type": "address"
        }
      ],
      "name": "RoleGranted",
      "type": "event"
    },
    {
      "anonymous": false,
      "inputs": [
        {
          "indexed": true,
          "internalType": "bytes32",
          "name": "role",
          "type": "bytes32"
        },
        {
          "indexed": true,
          "internalType": "address",
          "name": "account",
          "type": "address"
        },
        {
          "indexed": true,
          "internalType": "address",
          "name": "sender",
          "type": "address"
        }
      ],
      "name": "RoleRevoked",
      "type": "event"
    },
    {
      "anonymous": false,
      "inputs": [
        {
          "indexed": false,
          "internalType": "address",
          "name": "committer",
          "type": "address"
        },
        {
          "indexed": false,
          "internalType": "string",
          "name": "versionName",
          "type": "string"
        },
        {
          "indexed": false,
          "internalType": "uint256",
          "name": "timestamp",
          "type": "uint256"
        }
      ],
      "name": "VersionAdded",
      "type": "event"
    },
    {
      "inputs": [],
      "name": "CONTRIBUTOR_ROLE",
      "outputs": [
        {
          "internalType": "bytes32",
          "name": "",
          "type": "bytes32"
        }
      ],
      "stateMutability": "view",
      "type": "function"
    },
    {
      "inputs": [],
      "name": "DEFAULT_ADMIN_ROLE",
      "outputs": [
        {
          "internalType": "bytes32",
          "name": "",
          "type": "bytes32"
        }
      ],
      "stateMutability": "view",
      "type": "function"
    },
    {
      "inputs": [
        {
          "internalType": "address",
          "name": "contributor",
          "type": "address"
        },
        {
          "internalType": "string",
          "name": "_name",
          "type": "string"
        }
      ],
      "name": "addContributor",
      "outputs": [],
      "stateMutability": "nonpayable",
      "type": "function"
    },
    {
      "inputs": [
        {
          "internalType": "string",
          "name": "_name",
          "type": "string"
        },
        {
          "internalType": "string",
          "name": "_ipfsHash",
          "type": "string"
        },
        {
          "internalType": "address",
          "name": "_sender",
          "type": "address"
        }
      ],
      "name": "addVersionOfRepository",
      "outputs": [],
      "stateMutability": "nonpayable",
      "type": "function"
    },
    {
      "inputs": [
        {
          "internalType": "uint256",
          "name": "",
          "type": "uint256"
        }
      ],
      "name": "contributors",
      "outputs": [
        {
          "internalType": "address",
          "name": "",
          "type": "address"
        }
      ],
      "stateMutability": "view",
      "type": "function"
    },
    {
      "inputs": [],
      "name": "createdAt",
      "outputs": [
        {
          "internalType": "uint256",
          "name": "",
          "type": "uint256"
        }
      ],
      "stateMutability": "view",
      "type": "function"
    },
    {
      "inputs": [],
      "name": "description",
      "outputs": [
        {
          "internalType": "string",
          "name": "",
          "type": "string"
        }
      ],
      "stateMutability": "view",
      "type": "function"
    },
    {
      "inputs": [],
      "name": "getContributors",
      "outputs": [
        {
          "internalType": "address[]",
          "name": "",
          "type": "address[]"
        }
      ],
      "stateMutability": "view",
      "type": "function"
    },
    {
      "inputs": [
        {
          "internalType": "bytes32",
          "name": "role",
          "type": "bytes32"
        }
      ],
      "name": "getRoleAdmin",
      "outputs": [
        {
          "internalType": "bytes32",
          "name": "",
          "type": "bytes32"
        }
      ],
      "stateMutability": "view",
      "type": "function"
    },
    {
      "inputs": [
        {
          "internalType": "bytes32",
          "name": "hash",
          "type": "bytes32"
        }
      ],
      "name": "getVersion",
      "outputs": [
        {
          "components": [
            {
              "internalType": "uint256",
              "name": "timestamp",
              "type": "uint256"
            },
            {
              "internalType": "address",
              "name": "committer",
              "type": "address"
            },
            {
              "internalType": "string",
              "name": "commitName",
              "type": "string"
            },
            {
              "internalType": "string",
              "name": "ipfsHash",
              "type": "string"
            }
          ],
          "internalType": "struct Repository.Version",
          "name": "",
          "type": "tuple"
        }
      ],
      "stateMutability": "view",
      "type": "function"
    },
    {
      "inputs": [],
      "name": "getVersionHashes",
      "outputs": [
        {
          "internalType": "bytes32[]",
          "name": "",
          "type": "bytes32[]"
        }
      ],
      "stateMutability": "view",
      "type": "function"
    },
    {
      "inputs": [
        {
          "internalType": "bytes32",
          "name": "role",
          "type": "bytes32"
        },
        {
          "internalType": "address",
          "name": "account",
          "type": "address"
        }
      ],
      "name": "grantRole",
      "outputs": [],
      "stateMutability": "nonpayable",
      "type": "function"
    },
    {
      "inputs": [
        {
          "internalType": "bytes32",
          "name": "role",
          "type": "bytes32"
        },
        {
          "internalType": "address",
          "name": "account",
          "type": "address"
        }
      ],
      "name": "hasRole",
      "outputs": [
        {
          "internalType": "bool",
          "name": "",
          "type": "bool"
        }
      ],
      "stateMutability": "view",
      "type": "function"
    },
    {
      "inputs": [],
      "name": "name",
      "outputs": [
        {
          "internalType": "string",
          "name": "",
          "type": "string"
        }
      ],
      "stateMutability": "view",
      "type": "function"
    },
    {
      "inputs": [],
      "name": "owner",
      "outputs": [
        {
          "internalType": "address",
          "name": "",
          "type": "address"
        }
      ],
      "stateMutability": "view",
      "type": "function"
    },
    {
      "inputs": [
        {
          "internalType": "bytes32",
          "name": "role",
          "type": "bytes32"
        },
        {
          "internalType": "address",
          "name": "account",
          "type": "address"
        }
      ],
      "name": "renounceRole",
      "outputs": [],
      "stateMutability": "nonpayable",
      "type": "function"
    },
    {
      "inputs": [],
      "name": "repoHash",
      "outputs": [
        {
          "internalType": "bytes32",
          "name": "",
          "type": "bytes32"
        }
      ],
      "stateMutability": "view",
      "type": "function"
    },
    {
      "inputs": [
        {
          "internalType": "address",
          "name": "account",
          "type": "address"
        }
      ],
      "name": "revokeContributorRole",
      "outputs": [],
      "stateMutability": "nonpayable",
      "type": "function"
    },
    {
      "inputs": [
        {
          "internalType": "bytes32",
          "name": "role",
          "type": "bytes32"
        },
        {
          "internalType": "address",
          "name": "account",
          "type": "address"
        }
      ],
      "name": "revokeRole",
      "outputs": [],
      "stateMutability": "nonpayable",
      "type": "function"
    },
    {
      "inputs": [
        {
          "internalType": "address",
          "name": "account",
          "type": "address"
        },
        {
          "internalType": "string",
          "name": "name",
          "type": "string"
        }
      ],
      "name": "setPrivillegeContributor",
      "outputs": [],
      "stateMutability": "nonpayable",
      "type": "function"
    },
    {
      "inputs": [
        {
          "internalType": "bytes4",
          "name": "interfaceId",
          "type": "bytes4"
        }
      ],
      "name": "supportsInterface",
      "outputs": [
        {
          "internalType": "bool",
          "name": "",
          "type": "bool"
        }
      ],
      "stateMutability": "view",
      "type": "function"
    },
    {
      "inputs": [],
      "name": "userId",
      "outputs": [
        {
          "internalType": "uint256",
          "name": "",
          "type": "uint256"
        }
      ],
      "stateMutability": "view",
      "type": "function"
    },
    {
      "inputs": [
        {
          "internalType": "address",
          "name": "",
          "type": "address"
        }
      ],
      "name": "usersInfo",
      "outputs": [
        {
          "internalType": "uint256",
          "name": "id",
          "type": "uint256"
        },
        {
          "internalType": "string",
          "name": "name",
          "type": "string"
        }
      ],
      "stateMutability": "view",
      "type": "function"
    },
    {
      "inputs": [
        {
          "internalType": "bytes32",
          "name": "",
          "type": "bytes32"
        }
      ],
      "name": "version",
      "outputs": [
        {
          "internalType": "uint256",
          "name": "timestamp",
          "type": "uint256"
        },
        {
          "internalType": "address",
          "name": "committer",
          "type": "address"
        },
        {
          "internalType": "string",
          "name": "commitName",
          "type": "string"
        },
        {
          "internalType": "string",
          "name": "ipfsHash",
          "type": "string"
        }
      ],
      "stateMutability": "view",
      "type": "function"
    },
    {
      "inputs": [
        {
          "internalType": "uint256",
          "name": "",
          "type": "uint256"
        }
      ],
      "name": "versionHashes",
      "outputs": [
        {
          "internalType": "bytes32",
          "name": "",
          "type": "bytes32"
        }
      ],
      "stateMutability": "view",
      "type": "function"
    }
  ],
  "bytecode": "0x60806040523480156200001157600080fd5b50604051620034f0380380620034f08339818101604052810190620000379190620009c3565b6200004c6000801b33620002bb60201b60201c565b6000600181905550620000696000801b82620002bb60201b60201c565b6200009b7fe2889e7308860b3fe8df0daa86fccfea4d71e43776719a57be28cf90b6db81e982620003ac60201b60201c565b6040518060400160405280600d81526020017f41444d494e4953545241544f5200000000000000000000000000000000000000815250600260003373ffffffffffffffffffffffffffffffffffffffff1673ffffffffffffffffffffffffffffffffffffffff1681526020019081526020016000206001019080519060200190620001289291906200088a565b50600154600260003373ffffffffffffffffffffffffffffffffffffffff1673ffffffffffffffffffffffffffffffffffffffff168152602001908152602001600020600001819055506003819080600181540180825580915050600190039060005260206000200160009091909190916101000a81548173ffffffffffffffffffffffffffffffffffffffff021916908373ffffffffffffffffffffffffffffffffffffffff1602179055508260059080519060200190620001ed9291906200088a565b504260068190555080600760006101000a81548173ffffffffffffffffffffffffffffffffffffffff021916908373ffffffffffffffffffffffffffffffffffffffff16021790555081600890805190602001906200024e9291906200088a565b507f4d6e9c5367e86c0906b04a7d25d3d0cb37439bccaffbee2cdce979ae88c3fa0683600654600760009054906101000a900473ffffffffffffffffffffffffffffffffffffffff1685604051620002aa949392919062000bc0565b60405180910390a150505062000fc3565b620002cd8282620003e560201b60201c565b620003a857600160008084815260200190815260200160002060000160008373ffffffffffffffffffffffffffffffffffffffff1673ffffffffffffffffffffffffffffffffffffffff16815260200190815260200160002060006101000a81548160ff0219169083151502179055506200034d6200044f60201b60201c565b73ffffffffffffffffffffffffffffffffffffffff168173ffffffffffffffffffffffffffffffffffffffff16837f2f8788117e7eff1d82e926ec794901d17c78024a50270940304540a733656f0d60405160405180910390a45b5050565b620003bd826200045760201b60201c565b620003ce816200047660201b60201c565b620003e08383620002bb60201b60201c565b505050565b600080600084815260200190815260200160002060000160008373ffffffffffffffffffffffffffffffffffffffff1673ffffffffffffffffffffffffffffffffffffffff16815260200190815260200160002060009054906101000a900460ff16905092915050565b600033905090565b6000806000838152602001908152602001600020600101549050919050565b62000497816200048b6200044f60201b60201c565b6200049a60201b60201c565b50565b620004ac8282620003e560201b60201c565b6200054257620004c7816200054660201b620010e81760201c565b620004e28360001c60206200057b60201b620011151760201c565b604051602001620004f592919062000b5a565b6040516020818303038152906040526040517f08c379a000000000000000000000000000000000000000000000000000000000815260040162000539919062000b9c565b60405180910390fd5b5050565b6060620005748273ffffffffffffffffffffffffffffffffffffffff16601460ff166200057b60201b60201c565b9050919050565b60606000600283600262000590919062000d20565b6200059c919062000cc3565b67ffffffffffffffff811115620005dc577f4e487b7100000000000000000000000000000000000000000000000000000000600052604160045260246000fd5b6040519080825280601f01601f1916602001820160405280156200060f5781602001600182028036833780820191505090505b5090507f3000000000000000000000000000000000000000000000000000000000000000816000815181106200066e577f4e487b7100000000000000000000000000000000000000000000000000000000600052603260045260246000fd5b60200101907effffffffffffffffffffffffffffffffffffffffffffffffffffffffffffff1916908160001a9053507f780000000000000000000000000000000000000000000000000000000000000081600181518110620006f9577f4e487b7100000000000000000000000000000000000000000000000000000000600052603260045260246000fd5b60200101907effffffffffffffffffffffffffffffffffffffffffffffffffffffffffffff1916908160001a905350600060018460026200073b919062000d20565b62000747919062000cc3565b90505b600181111562000839577f3031323334353637383961626364656600000000000000000000000000000000600f861660108110620007b1577f4e487b7100000000000000000000000000000000000000000000000000000000600052603260045260246000fd5b1a60f81b828281518110620007ef577f4e487b7100000000000000000000000000000000000000000000000000000000600052603260045260246000fd5b60200101907effffffffffffffffffffffffffffffffffffffffffffffffffffffffffffff1916908160001a905350600485901c945080620008319062000df5565b90506200074a565b506000841462000880576040517f08c379a0000000000000000000000000000000000000000000000000000000008152600401620008779062000c1b565b60405180910390fd5b8091505092915050565b828054620008989062000e24565b90600052602060002090601f016020900481019282620008bc576000855562000908565b82601f10620008d757805160ff191683800117855562000908565b8280016001018555821562000908579182015b8281111562000907578251825591602001919060010190620008ea565b5b5090506200091791906200091b565b5090565b5b80821115620009365760008160009055506001016200091c565b5090565b6000620009516200094b8462000c66565b62000c3d565b9050828152602081018484840111156200096a57600080fd5b6200097784828562000dbf565b509392505050565b600081519050620009908162000fa9565b92915050565b600082601f830112620009a857600080fd5b8151620009ba8482602086016200093a565b91505092915050565b600080600060608486031215620009d957600080fd5b600084015167ffffffffffffffff811115620009f457600080fd5b62000a028682870162000996565b935050602084015167ffffffffffffffff81111562000a2057600080fd5b62000a2e8682870162000996565b925050604062000a41868287016200097f565b9150509250925092565b62000a568162000d81565b82525050565b600062000a698262000c9c565b62000a75818562000ca7565b935062000a8781856020860162000dbf565b62000a928162000f1d565b840191505092915050565b600062000aaa8262000c9c565b62000ab6818562000cb8565b935062000ac881856020860162000dbf565b80840191505092915050565b600062000ae360208362000ca7565b915062000af08262000f2e565b602082019050919050565b600062000b0a60178362000cb8565b915062000b178262000f57565b601782019050919050565b600062000b3160118362000cb8565b915062000b3e8262000f80565b601182019050919050565b62000b548162000db5565b82525050565b600062000b678262000afb565b915062000b75828562000a9d565b915062000b828262000b22565b915062000b90828462000a9d565b91508190509392505050565b6000602082019050818103600083015262000bb8818462000a5c565b905092915050565b6000608082019050818103600083015262000bdc818762000a5c565b905062000bed602083018662000b49565b62000bfc604083018562000a4b565b818103606083015262000c10818462000a5c565b905095945050505050565b6000602082019050818103600083015262000c368162000ad4565b9050919050565b600062000c4962000c5c565b905062000c57828262000e5a565b919050565b6000604051905090565b600067ffffffffffffffff82111562000c845762000c8362000eee565b5b62000c8f8262000f1d565b9050602081019050919050565b600081519050919050565b600082825260208201905092915050565b600081905092915050565b600062000cd08262000db5565b915062000cdd8362000db5565b9250827fffffffffffffffffffffffffffffffffffffffffffffffffffffffffffffffff0382111562000d155762000d1462000e90565b5b828201905092915050565b600062000d2d8262000db5565b915062000d3a8362000db5565b9250817fffffffffffffffffffffffffffffffffffffffffffffffffffffffffffffffff048311821515161562000d765762000d7562000e90565b5b828202905092915050565b600062000d8e8262000d95565b9050919050565b600073ffffffffffffffffffffffffffffffffffffffff82169050919050565b6000819050919050565b60005b8381101562000ddf57808201518184015260208101905062000dc2565b8381111562000def576000848401525b50505050565b600062000e028262000db5565b9150600082141562000e195762000e1862000e90565b5b600182039050919050565b6000600282049050600182168062000e3d57607f821691505b6020821081141562000e545762000e5362000ebf565b5b50919050565b62000e658262000f1d565b810181811067ffffffffffffffff8211171562000e875762000e8662000eee565b5b80604052505050565b7f4e487b7100000000000000000000000000000000000000000000000000000000600052601160045260246000fd5b7f4e487b7100000000000000000000000000000000000000000000000000000000600052602260045260246000fd5b7f4e487b7100000000000000000000000000000000000000000000000000000000600052604160045260246000fd5b6000601f19601f8301169050919050565b7f537472696e67733a20686578206c656e67746820696e73756666696369656e74600082015250565b7f416363657373436f6e74726f6c3a206163636f756e7420000000000000000000600082015250565b7f206973206d697373696e6720726f6c6520000000000000000000000000000000600082015250565b62000fb48162000d81565b811462000fc057600080fd5b50565b61251d8062000fd36000396000f3fe608060405234801561001057600080fd5b50600436106101735760003560e01c80638da5cb5b116100de578063aa67761411610097578063d547741f11610071578063d547741f14610463578063d72371541461047f578063eafb79e21461049b578063fde40cb6146104b957610173565b8063aa67761414610409578063af157c1914610427578063cf09e0d01461044557610173565b80638da5cb5b1461033357806391d14854146103515780639974d85f146103815780639aaf9f081461039d578063a217fddf146103cd578063a8defe52146103eb57610173565b806336568abe1161013057806336568abe1461024a5780633cb5d1001461026657806358975919146102965780635d0eaaaf146102b45780637284e416146102e55780637ca8f6181461030357610173565b806301ffc9a71461017857806306fdde03146101a857806321f0ef8e146101c6578063248a9ca3146101e25780632f2ff15d1461021257806331e6cbc31461022e575b600080fd5b610192600480360381019061018d919061195a565b6104ec565b60405161019f9190611e4a565b60405180910390f35b6101b0610566565b6040516101bd9190611e80565b60405180910390f35b6101e060048036038101906101db91906118a1565b6105f4565b005b6101fc60048036038101906101f791906118f5565b610610565b6040516102099190611e65565b60405180910390f35b61022c6004803603810190610227919061191e565b61062f565b005b61024860048036038101906102439190611983565b610650565b005b610264600480360381019061025f919061191e565b6107a8565b005b610280600480360381019061027b9190611a02565b61082b565b60405161028d9190611dad565b60405180910390f35b61029e61086a565b6040516102ab9190611f04565b60405180910390f35b6102ce60048036038101906102c99190611878565b610870565b6040516102dc929190611f72565b60405180910390f35b6102ed61091c565b6040516102fa9190611e80565b60405180910390f35b61031d60048036038101906103189190611a02565b6109aa565b60405161032a9190611e65565b60405180910390f35b61033b6109ce565b6040516103489190611dad565b60405180910390f35b61036b6004803603810190610366919061191e565b6109f4565b6040516103789190611e4a565b60405180910390f35b61039b60048036038101906103969190611878565b610a5e565b005b6103b760048036038101906103b291906118f5565b610b42565b6040516103c49190611ee2565b60405180910390f35b6103d5610cf3565b6040516103e29190611e65565b60405180910390f35b6103f3610cfa565b6040516104009190611e65565b60405180910390f35b610411610d00565b60405161041e9190611e28565b60405180910390f35b61042f610d58565b60405161043c9190611e06565b60405180910390f35b61044d610de6565b60405161045a9190611f04565b60405180910390f35b61047d6004803603810190610478919061191e565b610dec565b005b610499600480360381019061049491906118a1565b610e0d565b005b6104a3610f64565b6040516104b09190611e65565b60405180910390f35b6104d360048036038101906104ce91906118f5565b610f88565b6040516104e39493929190611f1f565b60405180910390f35b60007f7965db0b000000000000000000000000000000000000000000000000000000007bffffffffffffffffffffffffffffffffffffffffffffffffffffffff1916827bffffffffffffffffffffffffffffffffffffffffffffffffffffffff1916148061055f575061055e8261140f565b5b9050919050565b600580546105739061223c565b80601f016020809104026020016040519081016040528092919081815260200182805461059f9061223c565b80156105ec5780601f106105c1576101008083540402835291602001916105ec565b820191906000526020600020905b8154815290600101906020018083116105cf57829003601f168201915b505050505081565b6000801b61060181611479565b61060b8383610e0d565b505050565b6000806000838152602001908152602001600020600101549050919050565b61063882610610565b61064181611479565b61064b838361148d565b505050565b7fe2889e7308860b3fe8df0daa86fccfea4d71e43776719a57be28cf90b6db81e961067a81611479565b6000824260405160200161068f929190611d47565b6040516020818303038152906040528051906020012090506000600960008381526020019081526020016000209050428160000181905550838160010160006101000a81548173ffffffffffffffffffffffffffffffffffffffff021916908373ffffffffffffffffffffffffffffffffffffffff160217905550858160020190805190602001906107229291906116db565b508481600301908051906020019061073b9291906116db565b50600a8290806001815401808255809150506001900390600052602060002001600090919091909150557ffefd27dee2120343aa0af195ac635be85abe526658ec8ce87dd5b8820241b2ce84874260405161079893929190611dc8565b60405180910390a1505050505050565b6107b061156d565b73ffffffffffffffffffffffffffffffffffffffff168173ffffffffffffffffffffffffffffffffffffffff161461081d576040517f08c379a000000000000000000000000000000000000000000000000000000000815260040161081490611ec2565b60405180910390fd5b6108278282611575565b5050565b6003818154811061083b57600080fd5b906000526020600020016000915054906101000a900473ffffffffffffffffffffffffffffffffffffffff1681565b60015481565b60026020528060005260406000206000915090508060000154908060010180546108999061223c565b80601f01602080910402602001604051908101604052809291908181526020018280546108c59061223c565b80156109125780601f106108e757610100808354040283529160200191610912565b820191906000526020600020905b8154815290600101906020018083116108f557829003601f168201915b5050505050905082565b600880546109299061223c565b80601f01602080910402602001604051908101604052809291908181526020018280546109559061223c565b80156109a25780601f10610977576101008083540402835291602001916109a2565b820191906000526020600020905b81548152906001019060200180831161098557829003601f168201915b505050505081565b600a81815481106109ba57600080fd5b906000526020600020016000915090505481565b600760009054906101000a900473ffffffffffffffffffffffffffffffffffffffff1681565b600080600084815260200190815260200160002060000160008373ffffffffffffffffffffffffffffffffffffffff1673ffffffffffffffffffffffffffffffffffffffff16815260200190815260200160002060009054906101000a900460ff16905092915050565b6000801b610a6b81611479565b610a957fe2889e7308860b3fe8df0daa86fccfea4d71e43776719a57be28cf90b6db81e983610dec565b6003600260008473ffffffffffffffffffffffffffffffffffffffff1673ffffffffffffffffffffffffffffffffffffffff1681526020019081526020016000206000015481548110610b11577f4e487b7100000000000000000000000000000000000000000000000000000000600052603260045260246000fd5b9060005260206000200160006101000a81549073ffffffffffffffffffffffffffffffffffffffff02191690555050565b610b4a611761565b60096000838152602001908152602001600020604051806080016040529081600082015481526020016001820160009054906101000a900473ffffffffffffffffffffffffffffffffffffffff1673ffffffffffffffffffffffffffffffffffffffff1673ffffffffffffffffffffffffffffffffffffffff168152602001600282018054610bd89061223c565b80601f0160208091040260200160405190810160405280929190818152602001828054610c049061223c565b8015610c515780601f10610c2657610100808354040283529160200191610c51565b820191906000526020600020905b815481529060010190602001808311610c3457829003601f168201915b50505050508152602001600382018054610c6a9061223c565b80601f0160208091040260200160405190810160405280929190818152602001828054610c969061223c565b8015610ce35780601f10610cb857610100808354040283529160200191610ce3565b820191906000526020600020905b815481529060010190602001808311610cc657829003601f168201915b5050505050815250509050919050565b6000801b81565b60045481565b6060600a805480602002602001604051908101604052809291908181526020018280548015610d4e57602002820191906000526020600020905b815481526020019060010190808311610d3a575b5050505050905090565b60606003805480602002602001604051908101604052809291908181526020018280548015610ddc57602002820191906000526020600020905b8160009054906101000a900473ffffffffffffffffffffffffffffffffffffffff1673ffffffffffffffffffffffffffffffffffffffff1681526020019060010190808311610d92575b5050505050905090565b60065481565b610df582610610565b610dfe81611479565b610e088383611575565b505050565b6000801b610e1a81611479565b610e447fe2889e7308860b3fe8df0daa86fccfea4d71e43776719a57be28cf90b6db81e98461062f565b60016000815480929190610e579061229f565b9190505550600154600260008573ffffffffffffffffffffffffffffffffffffffff1673ffffffffffffffffffffffffffffffffffffffff1681526020019081526020016000206000018190555081600260008573ffffffffffffffffffffffffffffffffffffffff1673ffffffffffffffffffffffffffffffffffffffff1681526020019081526020016000206001019080519060200190610efb9291906116db565b506003839080600181540180825580915050600190039060005260206000200160009091909190916101000a81548173ffffffffffffffffffffffffffffffffffffffff021916908373ffffffffffffffffffffffffffffffffffffffff160217905550505050565b7fe2889e7308860b3fe8df0daa86fccfea4d71e43776719a57be28cf90b6db81e981565b60096020528060005260406000206000915090508060000154908060010160009054906101000a900473ffffffffffffffffffffffffffffffffffffffff1690806002018054610fd79061223c565b80601f01602080910402602001604051908101604052809291908181526020018280546110039061223c565b80156110505780601f1061102557610100808354040283529160200191611050565b820191906000526020600020905b81548152906001019060200180831161103357829003601f168201915b5050505050908060030180546110659061223c565b80601f01602080910402602001604051908101604052809291908181526020018280546110919061223c565b80156110de5780601f106110b3576101008083540402835291602001916110de565b820191906000526020600020905b8154815290600101906020018083116110c157829003601f168201915b5050505050905084565b606061110e8273ffffffffffffffffffffffffffffffffffffffff16601460ff16611115565b9050919050565b60606000600283600261112891906120f8565b61113291906120a2565b67ffffffffffffffff811115611171577f4e487b7100000000000000000000000000000000000000000000000000000000600052604160045260246000fd5b6040519080825280601f01601f1916602001820160405280156111a35781602001600182028036833780820191505090505b5090507f300000000000000000000000000000000000000000000000000000000000000081600081518110611201577f4e487b7100000000000000000000000000000000000000000000000000000000600052603260045260246000fd5b60200101907effffffffffffffffffffffffffffffffffffffffffffffffffffffffffffff1916908160001a9053507f78000000000000000000000000000000000000000000000000000000000000008160018151811061128b577f4e487b7100000000000000000000000000000000000000000000000000000000600052603260045260246000fd5b60200101907effffffffffffffffffffffffffffffffffffffffffffffffffffffffffffff1916908160001a905350600060018460026112cb91906120f8565b6112d591906120a2565b90505b60018111156113c1577f3031323334353637383961626364656600000000000000000000000000000000600f86166010811061133d577f4e487b7100000000000000000000000000000000000000000000000000000000600052603260045260246000fd5b1a60f81b82828151811061137a577f4e487b7100000000000000000000000000000000000000000000000000000000600052603260045260246000fd5b60200101907effffffffffffffffffffffffffffffffffffffffffffffffffffffffffffff1916908160001a905350600485901c9450806113ba90612212565b90506112d8565b5060008414611405576040517f08c379a00000000000000000000000000000000000000000000000000000000081526004016113fc90611ea2565b60405180910390fd5b8091505092915050565b60007f01ffc9a7000000000000000000000000000000000000000000000000000000007bffffffffffffffffffffffffffffffffffffffffffffffffffffffff1916827bffffffffffffffffffffffffffffffffffffffffffffffffffffffff1916149050919050565b61148a8161148561156d565b611656565b50565b61149782826109f4565b61156957600160008084815260200190815260200160002060000160008373ffffffffffffffffffffffffffffffffffffffff1673ffffffffffffffffffffffffffffffffffffffff16815260200190815260200160002060006101000a81548160ff02191690831515021790555061150e61156d565b73ffffffffffffffffffffffffffffffffffffffff168173ffffffffffffffffffffffffffffffffffffffff16837f2f8788117e7eff1d82e926ec794901d17c78024a50270940304540a733656f0d60405160405180910390a45b5050565b600033905090565b61157f82826109f4565b1561165257600080600084815260200190815260200160002060000160008373ffffffffffffffffffffffffffffffffffffffff1673ffffffffffffffffffffffffffffffffffffffff16815260200190815260200160002060006101000a81548160ff0219169083151502179055506115f761156d565b73ffffffffffffffffffffffffffffffffffffffff168173ffffffffffffffffffffffffffffffffffffffff16837ff6391f5c32d9c69d2a47ea670b442974b53935d1edc7fd64eb21e047a839171b60405160405180910390a45b5050565b61166082826109f4565b6116d75761166d816110e8565b61167b8360001c6020611115565b60405160200161168c929190611d73565b6040516020818303038152906040526040517f08c379a00000000000000000000000000000000000000000000000000000000081526004016116ce9190611e80565b60405180910390fd5b5050565b8280546116e79061223c565b90600052602060002090601f0160209004810192826117095760008555611750565b82601f1061172257805160ff1916838001178555611750565b82800160010185558215611750579182015b8281111561174f578251825591602001919060010190611734565b5b50905061175d919061179f565b5090565b604051806080016040528060008152602001600073ffffffffffffffffffffffffffffffffffffffff16815260200160608152602001606081525090565b5b808211156117b85760008160009055506001016117a0565b5090565b60006117cf6117ca84611fc7565b611fa2565b9050828152602081018484840111156117e757600080fd5b6117f28482856121d0565b509392505050565b6000813590506118098161248b565b92915050565b60008135905061181e816124a2565b92915050565b600081359050611833816124b9565b92915050565b600082601f83011261184a57600080fd5b813561185a8482602086016117bc565b91505092915050565b600081359050611872816124d0565b92915050565b60006020828403121561188a57600080fd5b6000611898848285016117fa565b91505092915050565b600080604083850312156118b457600080fd5b60006118c2858286016117fa565b925050602083013567ffffffffffffffff8111156118df57600080fd5b6118eb85828601611839565b9150509250929050565b60006020828403121561190757600080fd5b60006119158482850161180f565b91505092915050565b6000806040838503121561193157600080fd5b600061193f8582860161180f565b9250506020611950858286016117fa565b9150509250929050565b60006020828403121561196c57600080fd5b600061197a84828501611824565b91505092915050565b60008060006060848603121561199857600080fd5b600084013567ffffffffffffffff8111156119b257600080fd5b6119be86828701611839565b935050602084013567ffffffffffffffff8111156119db57600080fd5b6119e786828701611839565b92505060406119f8868287016117fa565b9150509250925092565b600060208284031215611a1457600080fd5b6000611a2284828501611863565b91505092915050565b6000611a378383611a5b565b60208301905092915050565b6000611a4f8383611b5b565b60208301905092915050565b611a6481612152565b82525050565b611a7381612152565b82525050565b611a8a611a8582612152565b6122e8565b82525050565b6000611a9b82612018565b611aa58185612053565b9350611ab083611ff8565b8060005b83811015611ae1578151611ac88882611a2b565b9750611ad383612039565b925050600181019050611ab4565b5085935050505092915050565b6000611af982612023565b611b038185612064565b9350611b0e83612008565b8060005b83811015611b3f578151611b268882611a43565b9750611b3183612046565b925050600181019050611b12565b5085935050505092915050565b611b5581612164565b82525050565b611b6481612170565b82525050565b611b7381612170565b82525050565b6000611b848261202e565b611b8e8185612075565b9350611b9e8185602086016121df565b611ba7816123a3565b840191505092915050565b6000611bbd8261202e565b611bc78185612086565b9350611bd78185602086016121df565b611be0816123a3565b840191505092915050565b6000611bf68261202e565b611c008185612097565b9350611c108185602086016121df565b80840191505092915050565b6000611c29602083612086565b9150611c34826123c1565b602082019050919050565b6000611c4c601783612097565b9150611c57826123ea565b601782019050919050565b6000611c6f601183612097565b9150611c7a82612413565b601182019050919050565b6000611c92602f83612086565b9150611c9d8261243c565b604082019050919050565b6000608083016000830151611cc06000860182611d12565b506020830151611cd36020860182611a5b565b5060408301518482036040860152611ceb8282611b79565b91505060608301518482036060860152611d058282611b79565b9150508091505092915050565b611d1b816121c6565b82525050565b611d2a816121c6565b82525050565b611d41611d3c826121c6565b61230c565b82525050565b6000611d538285611a79565b601482019150611d638284611d30565b6020820191508190509392505050565b6000611d7e82611c3f565b9150611d8a8285611beb565b9150611d9582611c62565b9150611da18284611beb565b91508190509392505050565b6000602082019050611dc26000830184611a6a565b92915050565b6000606082019050611ddd6000830186611a6a565b8181036020830152611def8185611bb2565b9050611dfe6040830184611d21565b949350505050565b60006020820190508181036000830152611e208184611a90565b905092915050565b60006020820190508181036000830152611e428184611aee565b905092915050565b6000602082019050611e5f6000830184611b4c565b92915050565b6000602082019050611e7a6000830184611b6a565b92915050565b60006020820190508181036000830152611e9a8184611bb2565b905092915050565b60006020820190508181036000830152611ebb81611c1c565b9050919050565b60006020820190508181036000830152611edb81611c85565b9050919050565b60006020820190508181036000830152611efc8184611ca8565b905092915050565b6000602082019050611f196000830184611d21565b92915050565b6000608082019050611f346000830187611d21565b611f416020830186611a6a565b8181036040830152611f538185611bb2565b90508181036060830152611f678184611bb2565b905095945050505050565b6000604082019050611f876000830185611d21565b8181036020830152611f998184611bb2565b90509392505050565b6000611fac611fbd565b9050611fb8828261226e565b919050565b6000604051905090565b600067ffffffffffffffff821115611fe257611fe1612374565b5b611feb826123a3565b9050602081019050919050565b6000819050602082019050919050565b6000819050602082019050919050565b600081519050919050565b600081519050919050565b600081519050919050565b6000602082019050919050565b6000602082019050919050565b600082825260208201905092915050565b600082825260208201905092915050565b600082825260208201905092915050565b600082825260208201905092915050565b600081905092915050565b60006120ad826121c6565b91506120b8836121c6565b9250827fffffffffffffffffffffffffffffffffffffffffffffffffffffffffffffffff038211156120ed576120ec612316565b5b828201905092915050565b6000612103826121c6565b915061210e836121c6565b9250817fffffffffffffffffffffffffffffffffffffffffffffffffffffffffffffffff048311821515161561214757612146612316565b5b828202905092915050565b600061215d826121a6565b9050919050565b60008115159050919050565b6000819050919050565b60007fffffffff0000000000000000000000000000000000000000000000000000000082169050919050565b600073ffffffffffffffffffffffffffffffffffffffff82169050919050565b6000819050919050565b82818337600083830152505050565b60005b838110156121fd5780820151818401526020810190506121e2565b8381111561220c576000848401525b50505050565b600061221d826121c6565b9150600082141561223157612230612316565b5b600182039050919050565b6000600282049050600182168061225457607f821691505b6020821081141561226857612267612345565b5b50919050565b612277826123a3565b810181811067ffffffffffffffff8211171561229657612295612374565b5b80604052505050565b60006122aa826121c6565b91507fffffffffffffffffffffffffffffffffffffffffffffffffffffffffffffffff8214156122dd576122dc612316565b5b600182019050919050565b60006122f3826122fa565b9050919050565b6000612305826123b4565b9050919050565b6000819050919050565b7f4e487b7100000000000000000000000000000000000000000000000000000000600052601160045260246000fd5b7f4e487b7100000000000000000000000000000000000000000000000000000000600052602260045260246000fd5b7f4e487b7100000000000000000000000000000000000000000000000000000000600052604160045260246000fd5b6000601f19601f8301169050919050565b60008160601b9050919050565b7f537472696e67733a20686578206c656e67746820696e73756666696369656e74600082015250565b7f416363657373436f6e74726f6c3a206163636f756e7420000000000000000000600082015250565b7f206973206d697373696e6720726f6c6520000000000000000000000000000000600082015250565b7f416363657373436f6e74726f6c3a2063616e206f6e6c792072656e6f756e636560008201527f20726f6c657320666f722073656c660000000000000000000000000000000000602082015250565b61249481612152565b811461249f57600080fd5b50565b6124ab81612170565b81146124b657600080fd5b50565b6124c28161217a565b81146124cd57600080fd5b50565b6124d9816121c6565b81146124e457600080fd5b5056fea26469706673582212208a873d10892035c43760ba445e8fa3a3c77ce4c8ca3255f15842ff4cd8dd25dd64736f6c63430008040033",
  "linkReferences": {},
  "deployedLinkReferences": {}
}