{
  "_format": "hh-sol-artifact-1",
  "contractName": "Repository",
  "sourceName": "contracts/Repository.sol",
  "abi": [
    {
      "inputs": [
        {
          "internalType": "string",
          "name": "_name",
          "type": "string"
        }
      ],
      "stateMutability": "nonpayable",
      "type": "constructor"
    },
    {
      "anonymous": false,
      "inputs": [
        {
          "indexed": false,
          "internalType": "address",
          "name": "account",
          "type": "address"
        },
        {
          "indexed": false,
          "internalType": "string",
          "name": "name",
          "type": "string"
        },
        {
          "indexed": false,
          "internalType": "string",
          "name": "role",
          "type": "string"
        }
      ],
      "name": "MemberAdded",
      "type": "event"
    },
    {
      "anonymous": false,
      "inputs": [
        {
          "indexed": true,
          "internalType": "bytes32",
          "name": "role",
          "type": "bytes32"
        },
        {
          "indexed": true,
          "internalType": "bytes32",
          "name": "previousAdminRole",
          "type": "bytes32"
        },
        {
          "indexed": true,
          "internalType": "bytes32",
          "name": "newAdminRole",
          "type": "bytes32"
        }
      ],
      "name": "RoleAdminChanged",
      "type": "event"
    },
    {
      "anonymous": false,
      "inputs": [
        {
          "indexed": true,
          "internalType": "bytes32",
          "name": "role",
          "type": "bytes32"
        },
        {
          "indexed": true,
          "internalType": "address",
          "name": "account",
          "type": "address"
        },
        {
          "indexed": true,
          "internalType": "address",
          "name": "sender",
          "type": "address"
        }
      ],
      "name": "RoleGranted",
      "type": "event"
    },
    {
      "anonymous": false,
      "inputs": [
        {
          "indexed": true,
          "internalType": "bytes32",
          "name": "role",
          "type": "bytes32"
        },
        {
          "indexed": true,
          "internalType": "address",
          "name": "account",
          "type": "address"
        },
        {
          "indexed": true,
          "internalType": "address",
          "name": "sender",
          "type": "address"
        }
      ],
      "name": "RoleRevoked",
      "type": "event"
    },
    {
      "inputs": [],
      "name": "CONTRIBUTOR_ROLE",
      "outputs": [
        {
          "internalType": "bytes32",
          "name": "",
          "type": "bytes32"
        }
      ],
      "stateMutability": "view",
      "type": "function"
    },
    {
      "inputs": [],
      "name": "DEFAULT_ADMIN_ROLE",
      "outputs": [
        {
          "internalType": "bytes32",
          "name": "",
          "type": "bytes32"
        }
      ],
      "stateMutability": "view",
      "type": "function"
    },
    {
      "inputs": [
        {
          "internalType": "string",
          "name": "_name",
          "type": "string"
        }
      ],
      "name": "addToFiles",
      "outputs": [],
      "stateMutability": "nonpayable",
      "type": "function"
    },
    {
      "inputs": [
        {
          "internalType": "uint256",
          "name": "",
          "type": "uint256"
        }
      ],
      "name": "files",
      "outputs": [
        {
          "internalType": "string",
          "name": "name",
          "type": "string"
        }
      ],
      "stateMutability": "view",
      "type": "function"
    },
    {
      "inputs": [
        {
          "internalType": "bytes32",
          "name": "role",
          "type": "bytes32"
        }
      ],
      "name": "getRoleAdmin",
      "outputs": [
        {
          "internalType": "bytes32",
          "name": "",
          "type": "bytes32"
        }
      ],
      "stateMutability": "view",
      "type": "function"
    },
    {
      "inputs": [
        {
          "internalType": "bytes32",
          "name": "role",
          "type": "bytes32"
        },
        {
          "internalType": "address",
          "name": "account",
          "type": "address"
        }
      ],
      "name": "grantRole",
      "outputs": [],
      "stateMutability": "nonpayable",
      "type": "function"
    },
    {
      "inputs": [
        {
          "internalType": "bytes32",
          "name": "role",
          "type": "bytes32"
        },
        {
          "internalType": "address",
          "name": "account",
          "type": "address"
        }
      ],
      "name": "hasRole",
      "outputs": [
        {
          "internalType": "bool",
          "name": "",
          "type": "bool"
        }
      ],
      "stateMutability": "view",
      "type": "function"
    },
    {
      "inputs": [],
      "name": "name",
      "outputs": [
        {
          "internalType": "string",
          "name": "",
          "type": "string"
        }
      ],
      "stateMutability": "view",
      "type": "function"
    },
    {
      "inputs": [],
      "name": "owner",
      "outputs": [
        {
          "internalType": "address",
          "name": "",
          "type": "address"
        }
      ],
      "stateMutability": "view",
      "type": "function"
    },
    {
      "inputs": [
        {
          "internalType": "bytes32",
          "name": "role",
          "type": "bytes32"
        },
        {
          "internalType": "address",
          "name": "account",
          "type": "address"
        }
      ],
      "name": "renounceRole",
      "outputs": [],
      "stateMutability": "nonpayable",
      "type": "function"
    },
    {
      "inputs": [
        {
          "internalType": "bytes32",
          "name": "role",
          "type": "bytes32"
        },
        {
          "internalType": "address",
          "name": "account",
          "type": "address"
        }
      ],
      "name": "revokeRole",
      "outputs": [],
      "stateMutability": "nonpayable",
      "type": "function"
    },
    {
      "inputs": [],
      "name": "roleId",
      "outputs": [
        {
          "internalType": "uint256",
          "name": "",
          "type": "uint256"
        }
      ],
      "stateMutability": "view",
      "type": "function"
    },
    {
      "inputs": [
        {
          "internalType": "uint256",
          "name": "",
          "type": "uint256"
        }
      ],
      "name": "roles",
      "outputs": [
        {
          "internalType": "address",
          "name": "",
          "type": "address"
        }
      ],
      "stateMutability": "view",
      "type": "function"
    },
    {
      "inputs": [
        {
          "internalType": "address",
          "name": "",
          "type": "address"
        }
      ],
      "name": "rolesInfo",
      "outputs": [
        {
          "internalType": "uint256",
          "name": "id",
          "type": "uint256"
        },
        {
          "internalType": "string",
          "name": "name",
          "type": "string"
        }
      ],
      "stateMutability": "view",
      "type": "function"
    },
    {
      "inputs": [
        {
          "internalType": "address",
          "name": "account",
          "type": "address"
        },
        {
          "internalType": "string",
          "name": "name",
          "type": "string"
        }
      ],
      "name": "setPrivillegeContributor",
      "outputs": [],
      "stateMutability": "nonpayable",
      "type": "function"
    },
    {
      "inputs": [
        {
          "internalType": "bytes4",
          "name": "interfaceId",
          "type": "bytes4"
        }
      ],
      "name": "supportsInterface",
      "outputs": [
        {
          "internalType": "bool",
          "name": "",
          "type": "bool"
        }
      ],
      "stateMutability": "view",
      "type": "function"
    },
    {
      "inputs": [],
      "name": "timestamp",
      "outputs": [
        {
          "internalType": "uint256",
          "name": "",
          "type": "uint256"
        }
      ],
      "stateMutability": "view",
      "type": "function"
    }
  ],
  "bytecode": "0x60806040523480156200001157600080fd5b50604051620029593803806200295983398181016040528101906200003791906200091a565b6040518060400160405280600d81526020017f41646d696e6973747261746f720000000000000000000000000000000000000081525060018081905550620000896000801b336200022960201b60201c565b620000bb7fe2889e7308860b3fe8df0daa86fccfea4d71e43776719a57be28cf90b6db81e9336200031a60201b60201c565b80600260003373ffffffffffffffffffffffffffffffffffffffff1673ffffffffffffffffffffffffffffffffffffffff168152602001908152602001600020600101908051906020019062000113929190620007f8565b50600154600260003373ffffffffffffffffffffffffffffffffffffffff1673ffffffffffffffffffffffffffffffffffffffff168152602001908152602001600020600001819055506003339080600181540180825580915050600190039060005260206000200160009091909190916101000a81548173ffffffffffffffffffffffffffffffffffffffff021916908373ffffffffffffffffffffffffffffffffffffffff160217905550508060049080519060200190620001d9929190620007f8565b504260058190555033600660006101000a81548173ffffffffffffffffffffffffffffffffffffffff021916908373ffffffffffffffffffffffffffffffffffffffff1602179055505062000e0c565b6200023b82826200035360201b60201c565b6200031657600160008084815260200190815260200160002060000160008373ffffffffffffffffffffffffffffffffffffffff1673ffffffffffffffffffffffffffffffffffffffff16815260200190815260200160002060006101000a81548160ff021916908315150217905550620002bb620003bd60201b60201c565b73ffffffffffffffffffffffffffffffffffffffff168173ffffffffffffffffffffffffffffffffffffffff16837f2f8788117e7eff1d82e926ec794901d17c78024a50270940304540a733656f0d60405160405180910390a45b5050565b6200032b82620003c560201b60201c565b6200033c81620003e460201b60201c565b6200034e83836200022960201b60201c565b505050565b600080600084815260200190815260200160002060000160008373ffffffffffffffffffffffffffffffffffffffff1673ffffffffffffffffffffffffffffffffffffffff16815260200190815260200160002060009054906101000a900460ff16905092915050565b600033905090565b6000806000838152602001908152602001600020600101549050919050565b6200040581620003f9620003bd60201b60201c565b6200040860201b60201c565b50565b6200041a82826200035360201b60201c565b620004b0576200043581620004b460201b62000a2e1760201c565b620004508360001c6020620004e960201b62000a5b1760201c565b6040516020016200046392919062000a4c565b6040516020818303038152906040526040517f08c379a0000000000000000000000000000000000000000000000000000000008152600401620004a7919062000a8e565b60405180910390fd5b5050565b6060620004e28273ffffffffffffffffffffffffffffffffffffffff16601460ff16620004e960201b60201c565b9050919050565b606060006002836002620004fe919062000bb7565b6200050a919062000b5a565b67ffffffffffffffff8111156200054a577f4e487b7100000000000000000000000000000000000000000000000000000000600052604160045260246000fd5b6040519080825280601f01601f1916602001820160405280156200057d5781602001600182028036833780820191505090505b5090507f300000000000000000000000000000000000000000000000000000000000000081600081518110620005dc577f4e487b7100000000000000000000000000000000000000000000000000000000600052603260045260246000fd5b60200101907effffffffffffffffffffffffffffffffffffffffffffffffffffffffffffff1916908160001a9053507f78000000000000000000000000000000000000000000000000000000000000008160018151811062000667577f4e487b7100000000000000000000000000000000000000000000000000000000600052603260045260246000fd5b60200101907effffffffffffffffffffffffffffffffffffffffffffffffffffffffffffff1916908160001a90535060006001846002620006a9919062000bb7565b620006b5919062000b5a565b90505b6001811115620007a7577f3031323334353637383961626364656600000000000000000000000000000000600f8616601081106200071f577f4e487b7100000000000000000000000000000000000000000000000000000000600052603260045260246000fd5b1a60f81b8282815181106200075d577f4e487b7100000000000000000000000000000000000000000000000000000000600052603260045260246000fd5b60200101907effffffffffffffffffffffffffffffffffffffffffffffffffffffffffffff1916908160001a905350600485901c9450806200079f9062000c58565b9050620006b8565b5060008414620007ee576040517f08c379a0000000000000000000000000000000000000000000000000000000008152600401620007e59062000ab2565b60405180910390fd5b8091505092915050565b828054620008069062000c87565b90600052602060002090601f0160209004810192826200082a576000855562000876565b82601f106200084557805160ff191683800117855562000876565b8280016001018555821562000876579182015b828111156200087557825182559160200191906001019062000858565b5b50905062000885919062000889565b5090565b5b80821115620008a45760008160009055506001016200088a565b5090565b6000620008bf620008b98462000afd565b62000ad4565b905082815260208101848484011115620008d857600080fd5b620008e584828562000c22565b509392505050565b600082601f830112620008ff57600080fd5b815162000911848260208601620008a8565b91505092915050565b6000602082840312156200092d57600080fd5b600082015167ffffffffffffffff8111156200094857600080fd5b6200095684828501620008ed565b91505092915050565b60006200096c8262000b33565b62000978818562000b3e565b93506200098a81856020860162000c22565b620009958162000d80565b840191505092915050565b6000620009ad8262000b33565b620009b9818562000b4f565b9350620009cb81856020860162000c22565b80840191505092915050565b6000620009e660208362000b3e565b9150620009f38262000d91565b602082019050919050565b600062000a0d60178362000b4f565b915062000a1a8262000dba565b601782019050919050565b600062000a3460118362000b4f565b915062000a418262000de3565b601182019050919050565b600062000a5982620009fe565b915062000a678285620009a0565b915062000a748262000a25565b915062000a828284620009a0565b91508190509392505050565b6000602082019050818103600083015262000aaa81846200095f565b905092915050565b6000602082019050818103600083015262000acd81620009d7565b9050919050565b600062000ae062000af3565b905062000aee828262000cbd565b919050565b6000604051905090565b600067ffffffffffffffff82111562000b1b5762000b1a62000d51565b5b62000b268262000d80565b9050602081019050919050565b600081519050919050565b600082825260208201905092915050565b600081905092915050565b600062000b678262000c18565b915062000b748362000c18565b9250827fffffffffffffffffffffffffffffffffffffffffffffffffffffffffffffffff0382111562000bac5762000bab62000cf3565b5b828201905092915050565b600062000bc48262000c18565b915062000bd18362000c18565b9250817fffffffffffffffffffffffffffffffffffffffffffffffffffffffffffffffff048311821515161562000c0d5762000c0c62000cf3565b5b828202905092915050565b6000819050919050565b60005b8381101562000c4257808201518184015260208101905062000c25565b8381111562000c52576000848401525b50505050565b600062000c658262000c18565b9150600082141562000c7c5762000c7b62000cf3565b5b600182039050919050565b6000600282049050600182168062000ca057607f821691505b6020821081141562000cb75762000cb662000d22565b5b50919050565b62000cc88262000d80565b810181811067ffffffffffffffff8211171562000cea5762000ce962000d51565b5b80604052505050565b7f4e487b7100000000000000000000000000000000000000000000000000000000600052601160045260246000fd5b7f4e487b7100000000000000000000000000000000000000000000000000000000600052602260045260246000fd5b7f4e487b7100000000000000000000000000000000000000000000000000000000600052604160045260246000fd5b6000601f19601f8301169050919050565b7f537472696e67733a20686578206c656e67746820696e73756666696369656e74600082015250565b7f416363657373436f6e74726f6c3a206163636f756e7420000000000000000000600082015250565b7f206973206d697373696e6720726f6c6520000000000000000000000000000000600082015250565b611b3d8062000e1c6000396000f3fe608060405234801561001057600080fd5b506004361061010b5760003560e01c806391d14854116100a2578063d547741f11610071578063d547741f146102ba578063d7237154146102d6578063e002e542146102f2578063eafb79e214610323578063f4c714b4146103415761010b565b806391d148541461021e578063a217fddf1461024e578063b80777ea1461026c578063bfda4a491461028a5761010b565b80632f2ff15d116100de5780632f2ff15d146101aa57806336568abe146101c657806373368a48146101e25780638da5cb5b146102005761010b565b806301ffc9a71461011057806306fdde0314610140578063248a9ca31461015e5780632bff4ebc1461018e575b600080fd5b61012a60048036038101906101259190611262565b610371565b6040516101379190611505565b60405180910390f35b6101486103eb565b604051610155919061153b565b60405180910390f35b610178600480360381019061017391906111fd565b610479565b6040516101859190611520565b60405180910390f35b6101a860048036038101906101a3919061128b565b610498565b005b6101c460048036038101906101bf9190611226565b6104f0565b005b6101e060048036038101906101db9190611226565b610511565b005b6101ea610594565b6040516101f791906115bd565b60405180910390f35b61020861059a565b60405161021591906114a7565b60405180910390f35b61023860048036038101906102339190611226565b6105c0565b6040516102459190611505565b60405180910390f35b61025661062a565b6040516102639190611520565b60405180910390f35b610274610631565b60405161028191906115bd565b60405180910390f35b6102a4600480360381019061029f91906112cc565b610637565b6040516102b191906114a7565b60405180910390f35b6102d460048036038101906102cf9190611226565b610676565b005b6102f060048036038101906102eb91906111a9565b610697565b005b61030c60048036038101906103079190611180565b6108ac565b60405161031a9291906115d8565b60405180910390f35b61032b610958565b6040516103389190611520565b60405180910390f35b61035b600480360381019061035691906112cc565b61097c565b604051610368919061153b565b60405180910390f35b60007f7965db0b000000000000000000000000000000000000000000000000000000007bffffffffffffffffffffffffffffffffffffffffffffffffffffffff1916827bffffffffffffffffffffffffffffffffffffffffffffffffffffffff191614806103e457506103e382610d55565b5b9050919050565b600480546103f89061181f565b80601f01602080910402602001604051908101604052809291908181526020018280546104249061181f565b80156104715780601f1061044657610100808354040283529160200191610471565b820191906000526020600020905b81548152906001019060200180831161045457829003601f168201915b505050505081565b6000806000838152602001908152602001600020600101549050919050565b60076040518060200160405280838152509080600181540180825580915050600190039060005260206000200160009091909190915060008201518160000190805190602001906104ea929190611021565b50505050565b6104f982610479565b61050281610dbf565b61050c8383610dd3565b505050565b610519610eb3565b73ffffffffffffffffffffffffffffffffffffffff168173ffffffffffffffffffffffffffffffffffffffff1614610586576040517f08c379a000000000000000000000000000000000000000000000000000000000815260040161057d9061159d565b60405180910390fd5b6105908282610ebb565b5050565b60015481565b600660009054906101000a900473ffffffffffffffffffffffffffffffffffffffff1681565b600080600084815260200190815260200160002060000160008373ffffffffffffffffffffffffffffffffffffffff1673ffffffffffffffffffffffffffffffffffffffff16815260200190815260200160002060009054906101000a900460ff16905092915050565b6000801b81565b60055481565b6003818154811061064757600080fd5b906000526020600020016000915054906101000a900473ffffffffffffffffffffffffffffffffffffffff1681565b61067f82610479565b61068881610dbf565b6106928383610ebb565b505050565b6000801b6106a481610dbf565b6000600260008573ffffffffffffffffffffffffffffffffffffffff1673ffffffffffffffffffffffffffffffffffffffff1681526020019081526020016000206000015414610729576040517f08c379a00000000000000000000000000000000000000000000000000000000081526004016107209061157d565b60405180910390fd5b6107537fe2889e7308860b3fe8df0daa86fccfea4d71e43776719a57be28cf90b6db81e9846104f0565b6001600081548092919061076690611882565b9190505550600154600260008573ffffffffffffffffffffffffffffffffffffffff1673ffffffffffffffffffffffffffffffffffffffff1681526020019081526020016000206000018190555081600260008573ffffffffffffffffffffffffffffffffffffffff1673ffffffffffffffffffffffffffffffffffffffff168152602001908152602001600020600101908051906020019061080a929190611021565b506003839080600181540180825580915050600190039060005260206000200160009091909190916101000a81548173ffffffffffffffffffffffffffffffffffffffff021916908373ffffffffffffffffffffffffffffffffffffffff1602179055507f8c1f1ca5a6426d31d3b3e545fe86200c81f966a54ee5abdf886a0cc7b3d02fa5838360405161089f9291906114c2565b60405180910390a1505050565b60026020528060005260406000206000915090508060000154908060010180546108d59061181f565b80601f01602080910402602001604051908101604052809291908181526020018280546109019061181f565b801561094e5780601f106109235761010080835404028352916020019161094e565b820191906000526020600020905b81548152906001019060200180831161093157829003601f168201915b5050505050905082565b7fe2889e7308860b3fe8df0daa86fccfea4d71e43776719a57be28cf90b6db81e981565b6007818154811061098c57600080fd5b906000526020600020016000915090508060000180546109ab9061181f565b80601f01602080910402602001604051908101604052809291908181526020018280546109d79061181f565b8015610a245780601f106109f957610100808354040283529160200191610a24565b820191906000526020600020905b815481529060010190602001808311610a0757829003601f168201915b5050505050905081565b6060610a548273ffffffffffffffffffffffffffffffffffffffff16601460ff16610a5b565b9050919050565b606060006002836002610a6e91906116db565b610a789190611685565b67ffffffffffffffff811115610ab7577f4e487b7100000000000000000000000000000000000000000000000000000000600052604160045260246000fd5b6040519080825280601f01601f191660200182016040528015610ae95781602001600182028036833780820191505090505b5090507f300000000000000000000000000000000000000000000000000000000000000081600081518110610b47577f4e487b7100000000000000000000000000000000000000000000000000000000600052603260045260246000fd5b60200101907effffffffffffffffffffffffffffffffffffffffffffffffffffffffffffff1916908160001a9053507f780000000000000000000000000000000000000000000000000000000000000081600181518110610bd1577f4e487b7100000000000000000000000000000000000000000000000000000000600052603260045260246000fd5b60200101907effffffffffffffffffffffffffffffffffffffffffffffffffffffffffffff1916908160001a90535060006001846002610c1191906116db565b610c1b9190611685565b90505b6001811115610d07577f3031323334353637383961626364656600000000000000000000000000000000600f861660108110610c83577f4e487b7100000000000000000000000000000000000000000000000000000000600052603260045260246000fd5b1a60f81b828281518110610cc0577f4e487b7100000000000000000000000000000000000000000000000000000000600052603260045260246000fd5b60200101907effffffffffffffffffffffffffffffffffffffffffffffffffffffffffffff1916908160001a905350600485901c945080610d00906117f5565b9050610c1e565b5060008414610d4b576040517f08c379a0000000000000000000000000000000000000000000000000000000008152600401610d429061155d565b60405180910390fd5b8091505092915050565b60007f01ffc9a7000000000000000000000000000000000000000000000000000000007bffffffffffffffffffffffffffffffffffffffffffffffffffffffff1916827bffffffffffffffffffffffffffffffffffffffffffffffffffffffff1916149050919050565b610dd081610dcb610eb3565b610f9c565b50565b610ddd82826105c0565b610eaf57600160008084815260200190815260200160002060000160008373ffffffffffffffffffffffffffffffffffffffff1673ffffffffffffffffffffffffffffffffffffffff16815260200190815260200160002060006101000a81548160ff021916908315150217905550610e54610eb3565b73ffffffffffffffffffffffffffffffffffffffff168173ffffffffffffffffffffffffffffffffffffffff16837f2f8788117e7eff1d82e926ec794901d17c78024a50270940304540a733656f0d60405160405180910390a45b5050565b600033905090565b610ec582826105c0565b15610f9857600080600084815260200190815260200160002060000160008373ffffffffffffffffffffffffffffffffffffffff1673ffffffffffffffffffffffffffffffffffffffff16815260200190815260200160002060006101000a81548160ff021916908315150217905550610f3d610eb3565b73ffffffffffffffffffffffffffffffffffffffff168173ffffffffffffffffffffffffffffffffffffffff16837ff6391f5c32d9c69d2a47ea670b442974b53935d1edc7fd64eb21e047a839171b60405160405180910390a45b5050565b610fa682826105c0565b61101d57610fb381610a2e565b610fc18360001c6020610a5b565b604051602001610fd292919061146d565b6040516020818303038152906040526040517f08c379a0000000000000000000000000000000000000000000000000000000008152600401611014919061153b565b60405180910390fd5b5050565b82805461102d9061181f565b90600052602060002090601f01602090048101928261104f5760008555611096565b82601f1061106857805160ff1916838001178555611096565b82800160010185558215611096579182015b8281111561109557825182559160200191906001019061107a565b5b5090506110a391906110a7565b5090565b5b808211156110c05760008160009055506001016110a8565b5090565b60006110d76110d28461162d565b611608565b9050828152602081018484840111156110ef57600080fd5b6110fa8482856117b3565b509392505050565b60008135905061111181611aab565b92915050565b60008135905061112681611ac2565b92915050565b60008135905061113b81611ad9565b92915050565b600082601f83011261115257600080fd5b81356111628482602086016110c4565b91505092915050565b60008135905061117a81611af0565b92915050565b60006020828403121561119257600080fd5b60006111a084828501611102565b91505092915050565b600080604083850312156111bc57600080fd5b60006111ca85828601611102565b925050602083013567ffffffffffffffff8111156111e757600080fd5b6111f385828601611141565b9150509250929050565b60006020828403121561120f57600080fd5b600061121d84828501611117565b91505092915050565b6000806040838503121561123957600080fd5b600061124785828601611117565b925050602061125885828601611102565b9150509250929050565b60006020828403121561127457600080fd5b60006112828482850161112c565b91505092915050565b60006020828403121561129d57600080fd5b600082013567ffffffffffffffff8111156112b757600080fd5b6112c384828501611141565b91505092915050565b6000602082840312156112de57600080fd5b60006112ec8482850161116b565b91505092915050565b6112fe81611735565b82525050565b61130d81611747565b82525050565b61131c81611753565b82525050565b600061132d8261165e565b6113378185611669565b93506113478185602086016117c2565b61135081611958565b840191505092915050565b60006113668261165e565b611370818561167a565b93506113808185602086016117c2565b80840191505092915050565b6000611399602083611669565b91506113a482611969565b602082019050919050565b60006113bc600b83611669565b91506113c782611992565b602082019050919050565b60006113df602483611669565b91506113ea826119bb565b604082019050919050565b600061140260178361167a565b915061140d82611a0a565b601782019050919050565b600061142560118361167a565b915061143082611a33565b601182019050919050565b6000611448602f83611669565b915061145382611a5c565b604082019050919050565b611467816117a9565b82525050565b6000611478826113f5565b9150611484828561135b565b915061148f82611418565b915061149b828461135b565b91508190509392505050565b60006020820190506114bc60008301846112f5565b92915050565b60006060820190506114d760008301856112f5565b81810360208301526114e98184611322565b905081810360408301526114fc816113af565b90509392505050565b600060208201905061151a6000830184611304565b92915050565b60006020820190506115356000830184611313565b92915050565b600060208201905081810360008301526115558184611322565b905092915050565b600060208201905081810360008301526115768161138c565b9050919050565b60006020820190508181036000830152611596816113d2565b9050919050565b600060208201905081810360008301526115b68161143b565b9050919050565b60006020820190506115d2600083018461145e565b92915050565b60006040820190506115ed600083018561145e565b81810360208301526115ff8184611322565b90509392505050565b6000611612611623565b905061161e8282611851565b919050565b6000604051905090565b600067ffffffffffffffff82111561164857611647611929565b5b61165182611958565b9050602081019050919050565b600081519050919050565b600082825260208201905092915050565b600081905092915050565b6000611690826117a9565b915061169b836117a9565b9250827fffffffffffffffffffffffffffffffffffffffffffffffffffffffffffffffff038211156116d0576116cf6118cb565b5b828201905092915050565b60006116e6826117a9565b91506116f1836117a9565b9250817fffffffffffffffffffffffffffffffffffffffffffffffffffffffffffffffff048311821515161561172a576117296118cb565b5b828202905092915050565b600061174082611789565b9050919050565b60008115159050919050565b6000819050919050565b60007fffffffff0000000000000000000000000000000000000000000000000000000082169050919050565b600073ffffffffffffffffffffffffffffffffffffffff82169050919050565b6000819050919050565b82818337600083830152505050565b60005b838110156117e05780820151818401526020810190506117c5565b838111156117ef576000848401525b50505050565b6000611800826117a9565b91506000821415611814576118136118cb565b5b600182039050919050565b6000600282049050600182168061183757607f821691505b6020821081141561184b5761184a6118fa565b5b50919050565b61185a82611958565b810181811067ffffffffffffffff8211171561187957611878611929565b5b80604052505050565b600061188d826117a9565b91507fffffffffffffffffffffffffffffffffffffffffffffffffffffffffffffffff8214156118c0576118bf6118cb565b5b600182019050919050565b7f4e487b7100000000000000000000000000000000000000000000000000000000600052601160045260246000fd5b7f4e487b7100000000000000000000000000000000000000000000000000000000600052602260045260246000fd5b7f4e487b7100000000000000000000000000000000000000000000000000000000600052604160045260246000fd5b6000601f19601f8301169050919050565b7f537472696e67733a20686578206c656e67746820696e73756666696369656e74600082015250565b7f636f6e7472696275746f72000000000000000000000000000000000000000000600082015250565b7f4163636f756e7420616c7265616479206861766520736f6d652070726976696c60008201527f6c65676500000000000000000000000000000000000000000000000000000000602082015250565b7f416363657373436f6e74726f6c3a206163636f756e7420000000000000000000600082015250565b7f206973206d697373696e6720726f6c6520000000000000000000000000000000600082015250565b7f416363657373436f6e74726f6c3a2063616e206f6e6c792072656e6f756e636560008201527f20726f6c657320666f722073656c660000000000000000000000000000000000602082015250565b611ab481611735565b8114611abf57600080fd5b50565b611acb81611753565b8114611ad657600080fd5b50565b611ae28161175d565b8114611aed57600080fd5b50565b611af9816117a9565b8114611b0457600080fd5b5056fea26469706673582212205031ce4cf558fe8a934512d7be2e30e31738c0dee56f4df6aab2a9ce83517b7264736f6c63430008040033",
  "linkReferences": {},
  "deployedLinkReferences": {}
}