{
  "_format": "hh-sol-artifact-1",
  "contractName": "Repository",
  "sourceName": "contracts/Repository.sol",
  "abi": [
    {
      "inputs": [
        {
          "internalType": "string",
          "name": "_name",
          "type": "string"
        },
        {
          "internalType": "string",
          "name": "_description",
          "type": "string"
        }
      ],
      "stateMutability": "nonpayable",
      "type": "constructor"
    },
    {
      "anonymous": false,
      "inputs": [
        {
          "indexed": false,
          "internalType": "string",
          "name": "name",
          "type": "string"
        },
        {
          "indexed": false,
          "internalType": "uint256",
          "name": "createdAt",
          "type": "uint256"
        },
        {
          "indexed": false,
          "internalType": "address",
          "name": "owner",
          "type": "address"
        },
        {
          "indexed": false,
          "internalType": "string",
          "name": "description",
          "type": "string"
        }
      ],
      "name": "RepositoryCreated",
      "type": "event"
    },
    {
      "anonymous": false,
      "inputs": [
        {
          "indexed": true,
          "internalType": "bytes32",
          "name": "role",
          "type": "bytes32"
        },
        {
          "indexed": true,
          "internalType": "bytes32",
          "name": "previousAdminRole",
          "type": "bytes32"
        },
        {
          "indexed": true,
          "internalType": "bytes32",
          "name": "newAdminRole",
          "type": "bytes32"
        }
      ],
      "name": "RoleAdminChanged",
      "type": "event"
    },
    {
      "anonymous": false,
      "inputs": [
        {
          "indexed": true,
          "internalType": "bytes32",
          "name": "role",
          "type": "bytes32"
        },
        {
          "indexed": true,
          "internalType": "address",
          "name": "account",
          "type": "address"
        },
        {
          "indexed": true,
          "internalType": "address",
          "name": "sender",
          "type": "address"
        }
      ],
      "name": "RoleGranted",
      "type": "event"
    },
    {
      "anonymous": false,
      "inputs": [
        {
          "indexed": true,
          "internalType": "bytes32",
          "name": "role",
          "type": "bytes32"
        },
        {
          "indexed": true,
          "internalType": "address",
          "name": "account",
          "type": "address"
        },
        {
          "indexed": true,
          "internalType": "address",
          "name": "sender",
          "type": "address"
        }
      ],
      "name": "RoleRevoked",
      "type": "event"
    },
    {
      "anonymous": false,
      "inputs": [
        {
          "indexed": false,
          "internalType": "address",
          "name": "committer",
          "type": "address"
        },
        {
          "indexed": false,
          "internalType": "string",
          "name": "versionName",
          "type": "string"
        },
        {
          "indexed": false,
          "internalType": "uint256",
          "name": "timestamp",
          "type": "uint256"
        }
      ],
      "name": "VersionAdded",
      "type": "event"
    },
    {
      "inputs": [],
      "name": "CONTRIBUTOR_ROLE",
      "outputs": [
        {
          "internalType": "bytes32",
          "name": "",
          "type": "bytes32"
        }
      ],
      "stateMutability": "view",
      "type": "function"
    },
    {
      "inputs": [],
      "name": "DEFAULT_ADMIN_ROLE",
      "outputs": [
        {
          "internalType": "bytes32",
          "name": "",
          "type": "bytes32"
        }
      ],
      "stateMutability": "view",
      "type": "function"
    },
    {
      "inputs": [
        {
          "internalType": "string",
          "name": "_name",
          "type": "string"
        }
      ],
      "name": "addVersionOfRepository",
      "outputs": [],
      "stateMutability": "nonpayable",
      "type": "function"
    },
    {
      "inputs": [],
      "name": "createdAt",
      "outputs": [
        {
          "internalType": "uint256",
          "name": "",
          "type": "uint256"
        }
      ],
      "stateMutability": "view",
      "type": "function"
    },
    {
      "inputs": [],
      "name": "description",
      "outputs": [
        {
          "internalType": "string",
          "name": "",
          "type": "string"
        }
      ],
      "stateMutability": "view",
      "type": "function"
    },
    {
      "inputs": [
        {
          "internalType": "bytes32",
          "name": "role",
          "type": "bytes32"
        }
      ],
      "name": "getRoleAdmin",
      "outputs": [
        {
          "internalType": "bytes32",
          "name": "",
          "type": "bytes32"
        }
      ],
      "stateMutability": "view",
      "type": "function"
    },
    {
      "inputs": [
        {
          "internalType": "bytes32",
          "name": "role",
          "type": "bytes32"
        },
        {
          "internalType": "address",
          "name": "account",
          "type": "address"
        }
      ],
      "name": "grantRole",
      "outputs": [],
      "stateMutability": "nonpayable",
      "type": "function"
    },
    {
      "inputs": [
        {
          "internalType": "bytes32",
          "name": "role",
          "type": "bytes32"
        },
        {
          "internalType": "address",
          "name": "account",
          "type": "address"
        }
      ],
      "name": "hasRole",
      "outputs": [
        {
          "internalType": "bool",
          "name": "",
          "type": "bool"
        }
      ],
      "stateMutability": "view",
      "type": "function"
    },
    {
      "inputs": [],
      "name": "name",
      "outputs": [
        {
          "internalType": "string",
          "name": "",
          "type": "string"
        }
      ],
      "stateMutability": "view",
      "type": "function"
    },
    {
      "inputs": [],
      "name": "owner",
      "outputs": [
        {
          "internalType": "address",
          "name": "",
          "type": "address"
        }
      ],
      "stateMutability": "view",
      "type": "function"
    },
    {
      "inputs": [
        {
          "internalType": "bytes32",
          "name": "role",
          "type": "bytes32"
        },
        {
          "internalType": "address",
          "name": "account",
          "type": "address"
        }
      ],
      "name": "renounceRole",
      "outputs": [],
      "stateMutability": "nonpayable",
      "type": "function"
    },
    {
      "inputs": [
        {
          "internalType": "address",
          "name": "account",
          "type": "address"
        }
      ],
      "name": "revokeContributorRole",
      "outputs": [],
      "stateMutability": "nonpayable",
      "type": "function"
    },
    {
      "inputs": [
        {
          "internalType": "bytes32",
          "name": "role",
          "type": "bytes32"
        },
        {
          "internalType": "address",
          "name": "account",
          "type": "address"
        }
      ],
      "name": "revokeRole",
      "outputs": [],
      "stateMutability": "nonpayable",
      "type": "function"
    },
    {
      "inputs": [
        {
          "internalType": "address",
          "name": "account",
          "type": "address"
        },
        {
          "internalType": "string",
          "name": "name",
          "type": "string"
        }
      ],
      "name": "setPrivillegeContributor",
      "outputs": [],
      "stateMutability": "nonpayable",
      "type": "function"
    },
    {
      "inputs": [
        {
          "internalType": "bool",
          "name": "_toReview",
          "type": "bool"
        }
      ],
      "name": "setToReview",
      "outputs": [],
      "stateMutability": "nonpayable",
      "type": "function"
    },
    {
      "inputs": [
        {
          "internalType": "bytes4",
          "name": "interfaceId",
          "type": "bytes4"
        }
      ],
      "name": "supportsInterface",
      "outputs": [
        {
          "internalType": "bool",
          "name": "",
          "type": "bool"
        }
      ],
      "stateMutability": "view",
      "type": "function"
    },
    {
      "inputs": [],
      "name": "toReview",
      "outputs": [
        {
          "internalType": "bool",
          "name": "",
          "type": "bool"
        }
      ],
      "stateMutability": "view",
      "type": "function"
    },
    {
      "inputs": [],
      "name": "userId",
      "outputs": [
        {
          "internalType": "uint256",
          "name": "",
          "type": "uint256"
        }
      ],
      "stateMutability": "view",
      "type": "function"
    },
    {
      "inputs": [
        {
          "internalType": "uint256",
          "name": "",
          "type": "uint256"
        }
      ],
      "name": "users",
      "outputs": [
        {
          "internalType": "address",
          "name": "",
          "type": "address"
        }
      ],
      "stateMutability": "view",
      "type": "function"
    },
    {
      "inputs": [
        {
          "internalType": "address",
          "name": "",
          "type": "address"
        }
      ],
      "name": "usersInfo",
      "outputs": [
        {
          "internalType": "uint256",
          "name": "id",
          "type": "uint256"
        },
        {
          "internalType": "string",
          "name": "name",
          "type": "string"
        }
      ],
      "stateMutability": "view",
      "type": "function"
    },
    {
      "inputs": [
        {
          "internalType": "bytes32",
          "name": "",
          "type": "bytes32"
        }
      ],
      "name": "version",
      "outputs": [
        {
          "internalType": "uint256",
          "name": "timestamp",
          "type": "uint256"
        },
        {
          "internalType": "address",
          "name": "committer",
          "type": "address"
        },
        {
          "internalType": "string",
          "name": "commitName",
          "type": "string"
        }
      ],
      "stateMutability": "view",
      "type": "function"
    },
    {
      "inputs": [
        {
          "internalType": "uint256",
          "name": "",
          "type": "uint256"
        }
      ],
      "name": "versionHashes",
      "outputs": [
        {
          "internalType": "bytes32",
          "name": "",
          "type": "bytes32"
        }
      ],
      "stateMutability": "view",
      "type": "function"
    }
  ],
  "bytecode": "0x60806040523480156200001157600080fd5b5060405162002e0038038062002e008339818101604052810190620000379190620009b3565b6040518060400160405280600d81526020017f41646d696e6973747261746f720000000000000000000000000000000000000081525060006001819055506200008a6000801b33620002c260201b60201c565b620000bc7fe2889e7308860b3fe8df0daa86fccfea4d71e43776719a57be28cf90b6db81e933620003b360201b60201c565b80600260003373ffffffffffffffffffffffffffffffffffffffff1673ffffffffffffffffffffffffffffffffffffffff16815260200190815260200160002060010190805190602001906200011492919062000891565b50600154600260003373ffffffffffffffffffffffffffffffffffffffff1673ffffffffffffffffffffffffffffffffffffffff168152602001908152602001600020600001819055506003339080600181540180825580915050600190039060005260206000200160009091909190916101000a81548173ffffffffffffffffffffffffffffffffffffffff021916908373ffffffffffffffffffffffffffffffffffffffff160217905550508160049080519060200190620001da92919062000891565b504260058190555033600660006101000a81548173ffffffffffffffffffffffffffffffffffffffff021916908373ffffffffffffffffffffffffffffffffffffffff16021790555080600790805190602001906200023b92919062000891565b506000600860006101000a81548160ff0219169083151502179055507f4d6e9c5367e86c0906b04a7d25d3d0cb37439bccaffbee2cdce979ae88c3fa0682600554600660009054906101000a900473ffffffffffffffffffffffffffffffffffffffff1684604051620002b2949392919062000b9b565b60405180910390a1505062000f84565b620002d48282620003ec60201b60201c565b620003af57600160008084815260200190815260200160002060000160008373ffffffffffffffffffffffffffffffffffffffff1673ffffffffffffffffffffffffffffffffffffffff16815260200190815260200160002060006101000a81548160ff021916908315150217905550620003546200045660201b60201c565b73ffffffffffffffffffffffffffffffffffffffff168173ffffffffffffffffffffffffffffffffffffffff16837f2f8788117e7eff1d82e926ec794901d17c78024a50270940304540a733656f0d60405160405180910390a45b5050565b620003c4826200045e60201b60201c565b620003d5816200047d60201b60201c565b620003e78383620002c260201b60201c565b505050565b600080600084815260200190815260200160002060000160008373ffffffffffffffffffffffffffffffffffffffff1673ffffffffffffffffffffffffffffffffffffffff16815260200190815260200160002060009054906101000a900460ff16905092915050565b600033905090565b6000806000838152602001908152602001600020600101549050919050565b6200049e81620004926200045660201b60201c565b620004a160201b60201c565b50565b620004b38282620003ec60201b60201c565b6200054957620004ce816200054d60201b62000d181760201c565b620004e98360001c60206200058260201b62000d451760201c565b604051602001620004fc92919062000b35565b6040516020818303038152906040526040517f08c379a000000000000000000000000000000000000000000000000000000000815260040162000540919062000b77565b60405180910390fd5b5050565b60606200057b8273ffffffffffffffffffffffffffffffffffffffff16601460ff166200058260201b60201c565b9050919050565b60606000600283600262000597919062000cfb565b620005a3919062000c9e565b67ffffffffffffffff811115620005e3577f4e487b7100000000000000000000000000000000000000000000000000000000600052604160045260246000fd5b6040519080825280601f01601f191660200182016040528015620006165781602001600182028036833780820191505090505b5090507f30000000000000000000000000000000000000000000000000000000000000008160008151811062000675577f4e487b7100000000000000000000000000000000000000000000000000000000600052603260045260246000fd5b60200101907effffffffffffffffffffffffffffffffffffffffffffffffffffffffffffff1916908160001a9053507f78000000000000000000000000000000000000000000000000000000000000008160018151811062000700577f4e487b7100000000000000000000000000000000000000000000000000000000600052603260045260246000fd5b60200101907effffffffffffffffffffffffffffffffffffffffffffffffffffffffffffff1916908160001a9053506000600184600262000742919062000cfb565b6200074e919062000c9e565b90505b600181111562000840577f3031323334353637383961626364656600000000000000000000000000000000600f861660108110620007b8577f4e487b7100000000000000000000000000000000000000000000000000000000600052603260045260246000fd5b1a60f81b828281518110620007f6577f4e487b7100000000000000000000000000000000000000000000000000000000600052603260045260246000fd5b60200101907effffffffffffffffffffffffffffffffffffffffffffffffffffffffffffff1916908160001a905350600485901c945080620008389062000dd0565b905062000751565b506000841462000887576040517f08c379a00000000000000000000000000000000000000000000000000000000081526004016200087e9062000bf6565b60405180910390fd5b8091505092915050565b8280546200089f9062000dff565b90600052602060002090601f016020900481019282620008c357600085556200090f565b82601f10620008de57805160ff19168380011785556200090f565b828001600101855582156200090f579182015b828111156200090e578251825591602001919060010190620008f1565b5b5090506200091e919062000922565b5090565b5b808211156200093d57600081600090555060010162000923565b5090565b600062000958620009528462000c41565b62000c18565b9050828152602081018484840111156200097157600080fd5b6200097e84828562000d9a565b509392505050565b600082601f8301126200099857600080fd5b8151620009aa84826020860162000941565b91505092915050565b60008060408385031215620009c757600080fd5b600083015167ffffffffffffffff811115620009e257600080fd5b620009f08582860162000986565b925050602083015167ffffffffffffffff81111562000a0e57600080fd5b62000a1c8582860162000986565b9150509250929050565b62000a318162000d5c565b82525050565b600062000a448262000c77565b62000a50818562000c82565b935062000a6281856020860162000d9a565b62000a6d8162000ef8565b840191505092915050565b600062000a858262000c77565b62000a91818562000c93565b935062000aa381856020860162000d9a565b80840191505092915050565b600062000abe60208362000c82565b915062000acb8262000f09565b602082019050919050565b600062000ae560178362000c93565b915062000af28262000f32565b601782019050919050565b600062000b0c60118362000c93565b915062000b198262000f5b565b601182019050919050565b62000b2f8162000d90565b82525050565b600062000b428262000ad6565b915062000b50828562000a78565b915062000b5d8262000afd565b915062000b6b828462000a78565b91508190509392505050565b6000602082019050818103600083015262000b93818462000a37565b905092915050565b6000608082019050818103600083015262000bb7818762000a37565b905062000bc8602083018662000b24565b62000bd7604083018562000a26565b818103606083015262000beb818462000a37565b905095945050505050565b6000602082019050818103600083015262000c118162000aaf565b9050919050565b600062000c2462000c37565b905062000c32828262000e35565b919050565b6000604051905090565b600067ffffffffffffffff82111562000c5f5762000c5e62000ec9565b5b62000c6a8262000ef8565b9050602081019050919050565b600081519050919050565b600082825260208201905092915050565b600081905092915050565b600062000cab8262000d90565b915062000cb88362000d90565b9250827fffffffffffffffffffffffffffffffffffffffffffffffffffffffffffffffff0382111562000cf05762000cef62000e6b565b5b828201905092915050565b600062000d088262000d90565b915062000d158362000d90565b9250817fffffffffffffffffffffffffffffffffffffffffffffffffffffffffffffffff048311821515161562000d515762000d5062000e6b565b5b828202905092915050565b600062000d698262000d70565b9050919050565b600073ffffffffffffffffffffffffffffffffffffffff82169050919050565b6000819050919050565b60005b8381101562000dba57808201518184015260208101905062000d9d565b8381111562000dca576000848401525b50505050565b600062000ddd8262000d90565b9150600082141562000df45762000df362000e6b565b5b600182039050919050565b6000600282049050600182168062000e1857607f821691505b6020821081141562000e2f5762000e2e62000e9a565b5b50919050565b62000e408262000ef8565b810181811067ffffffffffffffff8211171562000e625762000e6162000ec9565b5b80604052505050565b7f4e487b7100000000000000000000000000000000000000000000000000000000600052601160045260246000fd5b7f4e487b7100000000000000000000000000000000000000000000000000000000600052602260045260246000fd5b7f4e487b7100000000000000000000000000000000000000000000000000000000600052604160045260246000fd5b6000601f19601f8301169050919050565b7f537472696e67733a20686578206c656e67746820696e73756666696369656e74600082015250565b7f416363657373436f6e74726f6c3a206163636f756e7420000000000000000000600082015250565b7f206973206d697373696e6720726f6c6520000000000000000000000000000000600082015250565b611e6c8062000f946000396000f3fe608060405234801561001057600080fd5b50600436106101425760003560e01c80638da5cb5b116100b8578063cebbb33e1161007c578063cebbb33e1461038a578063cf09e0d0146103a8578063d547741f146103c6578063d7237154146103e2578063eafb79e2146103fe578063fde40cb61461041c57610142565b80638da5cb5b146102e657806391d14854146103045780639974d85f14610334578063a217fddf14610350578063a54f5d331461036e57610142565b806336568abe1161010a57806336568abe146101fd578063365b98b21461021957806358975919146102495780635d0eaaaf146102675780637284e416146102985780637ca8f618146102b657610142565b806301ffc9a714610147578063042f2de01461017757806306fdde0314610193578063248a9ca3146101b15780632f2ff15d146101e1575b600080fd5b610161600480360381019061015c919061158a565b61044e565b60405161016e919061183c565b60405180910390f35b610191600480360381019061018c91906114fc565b6104c8565b005b61019b6104e5565b6040516101a89190611872565b60405180910390f35b6101cb60048036038101906101c69190611525565b610573565b6040516101d89190611857565b60405180910390f35b6101fb60048036038101906101f6919061154e565b610592565b005b6102176004803603810190610212919061154e565b6105b3565b005b610233600480360381019061022e91906115f4565b610636565b60405161024091906117e3565b60405180910390f35b610251610675565b60405161025e91906118d4565b60405180910390f35b610281600480360381019061027c919061147f565b61067b565b60405161028f92919061192d565b60405180910390f35b6102a0610727565b6040516102ad9190611872565b60405180910390f35b6102d060048036038101906102cb91906115f4565b6107b5565b6040516102dd9190611857565b60405180910390f35b6102ee6107d9565b6040516102fb91906117e3565b60405180910390f35b61031e6004803603810190610319919061154e565b6107ff565b60405161032b919061183c565b60405180910390f35b61034e6004803603810190610349919061147f565b610869565b005b61035861094d565b6040516103659190611857565b60405180910390f35b610388600480360381019061038391906115b3565b610954565b005b610392610a91565b60405161039f919061183c565b60405180910390f35b6103b0610aa4565b6040516103bd91906118d4565b60405180910390f35b6103e060048036038101906103db919061154e565b610aaa565b005b6103fc60048036038101906103f791906114a8565b610acb565b005b610406610c22565b6040516104139190611857565b60405180910390f35b61043660048036038101906104319190611525565b610c46565b604051610445939291906118ef565b60405180910390f35b60007f7965db0b000000000000000000000000000000000000000000000000000000007bffffffffffffffffffffffffffffffffffffffffffffffffffffffff1916827bffffffffffffffffffffffffffffffffffffffffffffffffffffffff191614806104c157506104c08261103f565b5b9050919050565b80600860006101000a81548160ff02191690831515021790555050565b600480546104f290611b74565b80601f016020809104026020016040519081016040528092919081815260200182805461051e90611b74565b801561056b5780601f106105405761010080835404028352916020019161056b565b820191906000526020600020905b81548152906001019060200180831161054e57829003601f168201915b505050505081565b6000806000838152602001908152602001600020600101549050919050565b61059b82610573565b6105a4816110a9565b6105ae83836110bd565b505050565b6105bb61119d565b73ffffffffffffffffffffffffffffffffffffffff168173ffffffffffffffffffffffffffffffffffffffff1614610628576040517f08c379a000000000000000000000000000000000000000000000000000000000815260040161061f906118b4565b60405180910390fd5b61063282826111a5565b5050565b6003818154811061064657600080fd5b906000526020600020016000915054906101000a900473ffffffffffffffffffffffffffffffffffffffff1681565b60015481565b60026020528060005260406000206000915090508060000154908060010180546106a490611b74565b80601f01602080910402602001604051908101604052809291908181526020018280546106d090611b74565b801561071d5780601f106106f25761010080835404028352916020019161071d565b820191906000526020600020905b81548152906001019060200180831161070057829003601f168201915b5050505050905082565b6007805461073490611b74565b80601f016020809104026020016040519081016040528092919081815260200182805461076090611b74565b80156107ad5780601f10610782576101008083540402835291602001916107ad565b820191906000526020600020905b81548152906001019060200180831161079057829003601f168201915b505050505081565b600a81815481106107c557600080fd5b906000526020600020016000915090505481565b600660009054906101000a900473ffffffffffffffffffffffffffffffffffffffff1681565b600080600084815260200190815260200160002060000160008373ffffffffffffffffffffffffffffffffffffffff1673ffffffffffffffffffffffffffffffffffffffff16815260200190815260200160002060009054906101000a900460ff16905092915050565b6000801b610876816110a9565b6108a07fe2889e7308860b3fe8df0daa86fccfea4d71e43776719a57be28cf90b6db81e983610aaa565b6003600260008473ffffffffffffffffffffffffffffffffffffffff1673ffffffffffffffffffffffffffffffffffffffff168152602001908152602001600020600001548154811061091c577f4e487b7100000000000000000000000000000000000000000000000000000000600052603260045260246000fd5b9060005260206000200160006101000a81549073ffffffffffffffffffffffffffffffffffffffff02191690555050565b6000801b81565b7fe2889e7308860b3fe8df0daa86fccfea4d71e43776719a57be28cf90b6db81e961097e816110a9565b6000334260405160200161099392919061177d565b6040516020818303038152906040528051906020012090506000600960008381526020019081526020016000209050428160000181905550338160010160006101000a81548173ffffffffffffffffffffffffffffffffffffffff021916908373ffffffffffffffffffffffffffffffffffffffff16021790555083816002019080519060200190610a2692919061130b565b50600a8290806001815401808255809150506001900390600052602060002001600090919091909150557ffefd27dee2120343aa0af195ac635be85abe526658ec8ce87dd5b8820241b2ce338542604051610a83939291906117fe565b60405180910390a150505050565b600860009054906101000a900460ff1681565b60055481565b610ab382610573565b610abc816110a9565b610ac683836111a5565b505050565b6000801b610ad8816110a9565b610b027fe2889e7308860b3fe8df0daa86fccfea4d71e43776719a57be28cf90b6db81e984610592565b60016000815480929190610b1590611bd7565b9190505550600154600260008573ffffffffffffffffffffffffffffffffffffffff1673ffffffffffffffffffffffffffffffffffffffff1681526020019081526020016000206000018190555081600260008573ffffffffffffffffffffffffffffffffffffffff1673ffffffffffffffffffffffffffffffffffffffff1681526020019081526020016000206001019080519060200190610bb992919061130b565b506003839080600181540180825580915050600190039060005260206000200160009091909190916101000a81548173ffffffffffffffffffffffffffffffffffffffff021916908373ffffffffffffffffffffffffffffffffffffffff160217905550505050565b7fe2889e7308860b3fe8df0daa86fccfea4d71e43776719a57be28cf90b6db81e981565b60096020528060005260406000206000915090508060000154908060010160009054906101000a900473ffffffffffffffffffffffffffffffffffffffff1690806002018054610c9590611b74565b80601f0160208091040260200160405190810160405280929190818152602001828054610cc190611b74565b8015610d0e5780601f10610ce357610100808354040283529160200191610d0e565b820191906000526020600020905b815481529060010190602001808311610cf157829003601f168201915b5050505050905083565b6060610d3e8273ffffffffffffffffffffffffffffffffffffffff16601460ff16610d45565b9050919050565b606060006002836002610d589190611a30565b610d6291906119da565b67ffffffffffffffff811115610da1577f4e487b7100000000000000000000000000000000000000000000000000000000600052604160045260246000fd5b6040519080825280601f01601f191660200182016040528015610dd35781602001600182028036833780820191505090505b5090507f300000000000000000000000000000000000000000000000000000000000000081600081518110610e31577f4e487b7100000000000000000000000000000000000000000000000000000000600052603260045260246000fd5b60200101907effffffffffffffffffffffffffffffffffffffffffffffffffffffffffffff1916908160001a9053507f780000000000000000000000000000000000000000000000000000000000000081600181518110610ebb577f4e487b7100000000000000000000000000000000000000000000000000000000600052603260045260246000fd5b60200101907effffffffffffffffffffffffffffffffffffffffffffffffffffffffffffff1916908160001a90535060006001846002610efb9190611a30565b610f0591906119da565b90505b6001811115610ff1577f3031323334353637383961626364656600000000000000000000000000000000600f861660108110610f6d577f4e487b7100000000000000000000000000000000000000000000000000000000600052603260045260246000fd5b1a60f81b828281518110610faa577f4e487b7100000000000000000000000000000000000000000000000000000000600052603260045260246000fd5b60200101907effffffffffffffffffffffffffffffffffffffffffffffffffffffffffffff1916908160001a905350600485901c945080610fea90611b4a565b9050610f08565b5060008414611035576040517f08c379a000000000000000000000000000000000000000000000000000000000815260040161102c90611894565b60405180910390fd5b8091505092915050565b60007f01ffc9a7000000000000000000000000000000000000000000000000000000007bffffffffffffffffffffffffffffffffffffffffffffffffffffffff1916827bffffffffffffffffffffffffffffffffffffffffffffffffffffffff1916149050919050565b6110ba816110b561119d565b611286565b50565b6110c782826107ff565b61119957600160008084815260200190815260200160002060000160008373ffffffffffffffffffffffffffffffffffffffff1673ffffffffffffffffffffffffffffffffffffffff16815260200190815260200160002060006101000a81548160ff02191690831515021790555061113e61119d565b73ffffffffffffffffffffffffffffffffffffffff168173ffffffffffffffffffffffffffffffffffffffff16837f2f8788117e7eff1d82e926ec794901d17c78024a50270940304540a733656f0d60405160405180910390a45b5050565b600033905090565b6111af82826107ff565b1561128257600080600084815260200190815260200160002060000160008373ffffffffffffffffffffffffffffffffffffffff1673ffffffffffffffffffffffffffffffffffffffff16815260200190815260200160002060006101000a81548160ff02191690831515021790555061122761119d565b73ffffffffffffffffffffffffffffffffffffffff168173ffffffffffffffffffffffffffffffffffffffff16837ff6391f5c32d9c69d2a47ea670b442974b53935d1edc7fd64eb21e047a839171b60405160405180910390a45b5050565b61129082826107ff565b6113075761129d81610d18565b6112ab8360001c6020610d45565b6040516020016112bc9291906117a9565b6040516020818303038152906040526040517f08c379a00000000000000000000000000000000000000000000000000000000081526004016112fe9190611872565b60405180910390fd5b5050565b82805461131790611b74565b90600052602060002090601f0160209004810192826113395760008555611380565b82601f1061135257805160ff1916838001178555611380565b82800160010185558215611380579182015b8281111561137f578251825591602001919060010190611364565b5b50905061138d9190611391565b5090565b5b808211156113aa576000816000905550600101611392565b5090565b60006113c16113bc84611982565b61195d565b9050828152602081018484840111156113d957600080fd5b6113e4848285611b08565b509392505050565b6000813590506113fb81611dc3565b92915050565b60008135905061141081611dda565b92915050565b60008135905061142581611df1565b92915050565b60008135905061143a81611e08565b92915050565b600082601f83011261145157600080fd5b81356114618482602086016113ae565b91505092915050565b60008135905061147981611e1f565b92915050565b60006020828403121561149157600080fd5b600061149f848285016113ec565b91505092915050565b600080604083850312156114bb57600080fd5b60006114c9858286016113ec565b925050602083013567ffffffffffffffff8111156114e657600080fd5b6114f285828601611440565b9150509250929050565b60006020828403121561150e57600080fd5b600061151c84828501611401565b91505092915050565b60006020828403121561153757600080fd5b600061154584828501611416565b91505092915050565b6000806040838503121561156157600080fd5b600061156f85828601611416565b9250506020611580858286016113ec565b9150509250929050565b60006020828403121561159c57600080fd5b60006115aa8482850161142b565b91505092915050565b6000602082840312156115c557600080fd5b600082013567ffffffffffffffff8111156115df57600080fd5b6115eb84828501611440565b91505092915050565b60006020828403121561160657600080fd5b60006116148482850161146a565b91505092915050565b61162681611a8a565b82525050565b61163d61163882611a8a565b611c20565b82525050565b61164c81611a9c565b82525050565b61165b81611aa8565b82525050565b600061166c826119b3565b61167681856119be565b9350611686818560208601611b17565b61168f81611cdb565b840191505092915050565b60006116a5826119b3565b6116af81856119cf565b93506116bf818560208601611b17565b80840191505092915050565b60006116d86020836119be565b91506116e382611cf9565b602082019050919050565b60006116fb6017836119cf565b915061170682611d22565b601782019050919050565b600061171e6011836119cf565b915061172982611d4b565b601182019050919050565b6000611741602f836119be565b915061174c82611d74565b604082019050919050565b61176081611afe565b82525050565b61177761177282611afe565b611c44565b82525050565b6000611789828561162c565b6014820191506117998284611766565b6020820191508190509392505050565b60006117b4826116ee565b91506117c0828561169a565b91506117cb82611711565b91506117d7828461169a565b91508190509392505050565b60006020820190506117f8600083018461161d565b92915050565b6000606082019050611813600083018661161d565b81810360208301526118258185611661565b90506118346040830184611757565b949350505050565b60006020820190506118516000830184611643565b92915050565b600060208201905061186c6000830184611652565b92915050565b6000602082019050818103600083015261188c8184611661565b905092915050565b600060208201905081810360008301526118ad816116cb565b9050919050565b600060208201905081810360008301526118cd81611734565b9050919050565b60006020820190506118e96000830184611757565b92915050565b60006060820190506119046000830186611757565b611911602083018561161d565b81810360408301526119238184611661565b9050949350505050565b60006040820190506119426000830185611757565b81810360208301526119548184611661565b90509392505050565b6000611967611978565b90506119738282611ba6565b919050565b6000604051905090565b600067ffffffffffffffff82111561199d5761199c611cac565b5b6119a682611cdb565b9050602081019050919050565b600081519050919050565b600082825260208201905092915050565b600081905092915050565b60006119e582611afe565b91506119f083611afe565b9250827fffffffffffffffffffffffffffffffffffffffffffffffffffffffffffffffff03821115611a2557611a24611c4e565b5b828201905092915050565b6000611a3b82611afe565b9150611a4683611afe565b9250817fffffffffffffffffffffffffffffffffffffffffffffffffffffffffffffffff0483118215151615611a7f57611a7e611c4e565b5b828202905092915050565b6000611a9582611ade565b9050919050565b60008115159050919050565b6000819050919050565b60007fffffffff0000000000000000000000000000000000000000000000000000000082169050919050565b600073ffffffffffffffffffffffffffffffffffffffff82169050919050565b6000819050919050565b82818337600083830152505050565b60005b83811015611b35578082015181840152602081019050611b1a565b83811115611b44576000848401525b50505050565b6000611b5582611afe565b91506000821415611b6957611b68611c4e565b5b600182039050919050565b60006002820490506001821680611b8c57607f821691505b60208210811415611ba057611b9f611c7d565b5b50919050565b611baf82611cdb565b810181811067ffffffffffffffff82111715611bce57611bcd611cac565b5b80604052505050565b6000611be282611afe565b91507fffffffffffffffffffffffffffffffffffffffffffffffffffffffffffffffff821415611c1557611c14611c4e565b5b600182019050919050565b6000611c2b82611c32565b9050919050565b6000611c3d82611cec565b9050919050565b6000819050919050565b7f4e487b7100000000000000000000000000000000000000000000000000000000600052601160045260246000fd5b7f4e487b7100000000000000000000000000000000000000000000000000000000600052602260045260246000fd5b7f4e487b7100000000000000000000000000000000000000000000000000000000600052604160045260246000fd5b6000601f19601f8301169050919050565b60008160601b9050919050565b7f537472696e67733a20686578206c656e67746820696e73756666696369656e74600082015250565b7f416363657373436f6e74726f6c3a206163636f756e7420000000000000000000600082015250565b7f206973206d697373696e6720726f6c6520000000000000000000000000000000600082015250565b7f416363657373436f6e74726f6c3a2063616e206f6e6c792072656e6f756e636560008201527f20726f6c657320666f722073656c660000000000000000000000000000000000602082015250565b611dcc81611a8a565b8114611dd757600080fd5b50565b611de381611a9c565b8114611dee57600080fd5b50565b611dfa81611aa8565b8114611e0557600080fd5b50565b611e1181611ab2565b8114611e1c57600080fd5b50565b611e2881611afe565b8114611e3357600080fd5b5056fea26469706673582212206250de7f6065561304c8b12ec4c4a888cc047c53998bec7daa4f2f08882493c564736f6c63430008040033",
  "linkReferences": {},
  "deployedLinkReferences": {}
}