{
  "_format": "hh-sol-artifact-1",
  "contractName": "RepositoryFactory",
  "sourceName": "contracts/RepositoryFactory.sol",
  "abi": [
    {
      "anonymous": false,
      "inputs": [
        {
          "indexed": false,
          "internalType": "string",
          "name": "name",
          "type": "string"
        },
        {
          "indexed": false,
          "internalType": "uint256",
          "name": "createdAt",
          "type": "uint256"
        },
        {
          "indexed": false,
          "internalType": "address",
          "name": "owner",
          "type": "address"
        }
      ],
      "name": "NewRepositorySet",
      "type": "event"
    },
    {
      "inputs": [
        {
          "internalType": "string",
          "name": "_name",
          "type": "string"
        },
        {
          "internalType": "string",
          "name": "_description",
          "type": "string"
        }
      ],
      "name": "createRepositoryContract",
      "outputs": [],
      "stateMutability": "nonpayable",
      "type": "function"
    },
    {
      "inputs": [
        {
          "internalType": "address",
          "name": "user",
          "type": "address"
        }
      ],
      "name": "getUserRepos",
      "outputs": [
        {
          "internalType": "bytes32[]",
          "name": "",
          "type": "bytes32[]"
        }
      ],
      "stateMutability": "view",
      "type": "function"
    },
    {
      "inputs": [
        {
          "internalType": "uint256",
          "name": "",
          "type": "uint256"
        }
      ],
      "name": "repoHashes",
      "outputs": [
        {
          "internalType": "bytes32",
          "name": "",
          "type": "bytes32"
        }
      ],
      "stateMutability": "view",
      "type": "function"
    },
    {
      "inputs": [
        {
          "internalType": "bytes32",
          "name": "",
          "type": "bytes32"
        }
      ],
      "name": "repositories",
      "outputs": [
        {
          "internalType": "contract Repository",
          "name": "",
          "type": "address"
        }
      ],
      "stateMutability": "view",
      "type": "function"
    },
    {
      "inputs": [
        {
          "internalType": "uint256",
          "name": "",
          "type": "uint256"
        }
      ],
      "name": "users",
      "outputs": [
        {
          "internalType": "address",
          "name": "",
          "type": "address"
        }
      ],
      "stateMutability": "view",
      "type": "function"
    }
  ],
  "bytecode": "0x608060405234801561001057600080fd5b50613abb806100206000396000f3fe60806040523480156200001157600080fd5b50600436106200005e5760003560e01c80631f51fd711462000063578063365b98b214620000995780635341603314620000cf578063a44ceba01462000105578063e93f8e001462000125575b600080fd5b6200008160048036038101906200007b919062000577565b6200015b565b60405162000090919062000820565b60405180910390f35b620000b76004803603810190620000b1919062000616565b6200018e565b604051620000c69190620007c2565b60405180910390f35b620000ed6004803603810190620000e7919062000616565b620001ce565b604051620000fc919062000803565b60405180910390f35b6200012360048036038101906200011d9190620005a3565b620001f3565b005b6200014360048036038101906200013d91906200054b565b620003ea565b604051620001529190620007df565b60405180910390f35b60006020528060005260406000206000915054906101000a900473ffffffffffffffffffffffffffffffffffffffff1681565b600381815481106200019f57600080fd5b906000526020600020016000915054906101000a900473ffffffffffffffffffffffffffffffffffffffff1681565b60018181548110620001df57600080fd5b906000526020600020016000915090505481565b60008282604051620002059062000486565b620002129291906200083d565b604051809103906000f0801580156200022f573d6000803e3d6000fd5b509050600033426040516020016200024992919062000792565b6040516020818303038152906040528051906020012090508160008083815260200190815260200160002060006101000a81548173ffffffffffffffffffffffffffffffffffffffff021916908373ffffffffffffffffffffffffffffffffffffffff1602179055506001819080600181540180825580915050600190039060005260206000200160009091909190915055600260003373ffffffffffffffffffffffffffffffffffffffff1673ffffffffffffffffffffffffffffffffffffffff1681526020019081526020016000206000018190806001815401808255809150506001900390600052602060002001600090919091909150556003339080600181540180825580915050600190039060005260206000200160009091909190916101000a81548173ffffffffffffffffffffffffffffffffffffffff021916908373ffffffffffffffffffffffffffffffffffffffff1602179055507fd4c2173365f5506ab1bd9e3309fb2c74350cffc8bd99a495d9536464f21e0e4b844233604051620003dc9392919062000878565b60405180910390a150505050565b6060600260008373ffffffffffffffffffffffffffffffffffffffff1673ffffffffffffffffffffffffffffffffffffffff1681526020019081526020016000206000018054806020026020016040519081016040528092919081815260200182805480156200047a57602002820191906000526020600020905b81548152602001906001019080831162000465575b50505050509050919050565b612f5d8062000b2983390190565b6000620004ab620004a584620008e5565b620008bc565b905082815260208101848484011115620004c457600080fd5b620004d1848285620009e0565b509392505050565b600081359050620004ea8162000ada565b92915050565b600081359050620005018162000af4565b92915050565b600082601f8301126200051957600080fd5b81356200052b84826020860162000494565b91505092915050565b600081359050620005458162000b0e565b92915050565b6000602082840312156200055e57600080fd5b60006200056e84828501620004d9565b91505092915050565b6000602082840312156200058a57600080fd5b60006200059a84828501620004f0565b91505092915050565b60008060408385031215620005b757600080fd5b600083013567ffffffffffffffff811115620005d257600080fd5b620005e08582860162000507565b925050602083013567ffffffffffffffff811115620005fe57600080fd5b6200060c8582860162000507565b9150509250929050565b6000602082840312156200062957600080fd5b6000620006398482850162000534565b91505092915050565b6000620006508383620006f2565b60208301905092915050565b620006678162000970565b82525050565b620006826200067c8262000970565b62000a5b565b82525050565b600062000695826200092b565b620006a181856200094e565b9350620006ae836200091b565b8060005b83811015620006e5578151620006c9888262000642565b9750620006d68362000941565b925050600181019050620006b2565b5085935050505092915050565b620006fd8162000984565b82525050565b6200070e8162000984565b82525050565b6200071f81620009b8565b82525050565b6000620007328262000936565b6200073e81856200095f565b935062000750818560208601620009ef565b6200075b8162000abc565b840191505092915050565b6200077181620009ae565b82525050565b6200078c6200078682620009ae565b62000a83565b82525050565b6000620007a082856200066d565b601482019150620007b2828462000777565b6020820191508190509392505050565b6000602082019050620007d960008301846200065c565b92915050565b60006020820190508181036000830152620007fb818462000688565b905092915050565b60006020820190506200081a600083018462000703565b92915050565b600060208201905062000837600083018462000714565b92915050565b6000604082019050818103600083015262000859818562000725565b905081810360208301526200086f818462000725565b90509392505050565b6000606082019050818103600083015262000894818662000725565b9050620008a5602083018562000766565b620008b460408301846200065c565b949350505050565b6000620008c8620008db565b9050620008d6828262000a25565b919050565b6000604051905090565b600067ffffffffffffffff82111562000903576200090262000a8d565b5b6200090e8262000abc565b9050602081019050919050565b6000819050602082019050919050565b600081519050919050565b600081519050919050565b6000602082019050919050565b600082825260208201905092915050565b600082825260208201905092915050565b60006200097d826200098e565b9050919050565b6000819050919050565b600073ffffffffffffffffffffffffffffffffffffffff82169050919050565b6000819050919050565b6000620009c582620009cc565b9050919050565b6000620009d9826200098e565b9050919050565b82818337600083830152505050565b60005b8381101562000a0f578082015181840152602081019050620009f2565b8381111562000a1f576000848401525b50505050565b62000a308262000abc565b810181811067ffffffffffffffff8211171562000a525762000a5162000a8d565b5b80604052505050565b600062000a688262000a6f565b9050919050565b600062000a7c8262000acd565b9050919050565b6000819050919050565b7f4e487b7100000000000000000000000000000000000000000000000000000000600052604160045260246000fd5b6000601f19601f8301169050919050565b60008160601b9050919050565b62000ae58162000970565b811462000af157600080fd5b50565b62000aff8162000984565b811462000b0b57600080fd5b50565b62000b1981620009ae565b811462000b2557600080fd5b5056fe60806040523480156200001157600080fd5b5060405162002f5d38038062002f5d8339818101604052810190620000379190620009d3565b6040518060400160405280600d81526020017f41646d696e6973747261746f720000000000000000000000000000000000000081525060006001819055506200008a6000801b33620002e260201b60201c565b620000bc7fe2889e7308860b3fe8df0daa86fccfea4d71e43776719a57be28cf90b6db81e933620003d360201b60201c565b80600260003373ffffffffffffffffffffffffffffffffffffffff1673ffffffffffffffffffffffffffffffffffffffff168152602001908152602001600020600101908051906020019062000114929190620008b1565b50600154600260003373ffffffffffffffffffffffffffffffffffffffff1673ffffffffffffffffffffffffffffffffffffffff168152602001908152602001600020600001819055506003339080600181540180825580915050600190039060005260206000200160009091909190916101000a81548173ffffffffffffffffffffffffffffffffffffffff021916908373ffffffffffffffffffffffffffffffffffffffff1602179055507f5033203abc62f72bb5c4e773c4fbc6804f9bc8ca8b3ce912fbd5fd42b66f2a073382604051620001f492919062000bbe565b60405180910390a150816004908051906020019062000215929190620008b1565b504260058190555033600660006101000a81548173ffffffffffffffffffffffffffffffffffffffff021916908373ffffffffffffffffffffffffffffffffffffffff160217905550806007908051906020019062000276929190620008b1565b507f4d6e9c5367e86c0906b04a7d25d3d0cb37439bccaffbee2cdce979ae88c3fa0682600554600660009054906101000a900473ffffffffffffffffffffffffffffffffffffffff1684604051620002d2949392919062000c2b565b60405180910390a150506200103d565b620002f482826200040c60201b60201c565b620003cf57600160008084815260200190815260200160002060000160008373ffffffffffffffffffffffffffffffffffffffff1673ffffffffffffffffffffffffffffffffffffffff16815260200190815260200160002060006101000a81548160ff021916908315150217905550620003746200047660201b60201c565b73ffffffffffffffffffffffffffffffffffffffff168173ffffffffffffffffffffffffffffffffffffffff16837f2f8788117e7eff1d82e926ec794901d17c78024a50270940304540a733656f0d60405160405180910390a45b5050565b620003e4826200047e60201b60201c565b620003f5816200049d60201b60201c565b620004078383620002e260201b60201c565b505050565b600080600084815260200190815260200160002060000160008373ffffffffffffffffffffffffffffffffffffffff1673ffffffffffffffffffffffffffffffffffffffff16815260200190815260200160002060009054906101000a900460ff16905092915050565b600033905090565b6000806000838152602001908152602001600020600101549050919050565b620004be81620004b26200047660201b60201c565b620004c160201b60201c565b50565b620004d382826200040c60201b60201c565b6200056957620004ee816200056d60201b62000d081760201c565b620005098360001c6020620005a260201b62000d351760201c565b6040516020016200051c92919062000b7c565b6040516020818303038152906040526040517f08c379a000000000000000000000000000000000000000000000000000000000815260040162000560919062000c07565b60405180910390fd5b5050565b60606200059b8273ffffffffffffffffffffffffffffffffffffffff16601460ff16620005a260201b60201c565b9050919050565b606060006002836002620005b7919062000d8b565b620005c3919062000d2e565b67ffffffffffffffff81111562000603577f4e487b7100000000000000000000000000000000000000000000000000000000600052604160045260246000fd5b6040519080825280601f01601f191660200182016040528015620006365781602001600182028036833780820191505090505b5090507f30000000000000000000000000000000000000000000000000000000000000008160008151811062000695577f4e487b7100000000000000000000000000000000000000000000000000000000600052603260045260246000fd5b60200101907effffffffffffffffffffffffffffffffffffffffffffffffffffffffffffff1916908160001a9053507f78000000000000000000000000000000000000000000000000000000000000008160018151811062000720577f4e487b7100000000000000000000000000000000000000000000000000000000600052603260045260246000fd5b60200101907effffffffffffffffffffffffffffffffffffffffffffffffffffffffffffff1916908160001a9053506000600184600262000762919062000d8b565b6200076e919062000d2e565b90505b600181111562000860577f3031323334353637383961626364656600000000000000000000000000000000600f861660108110620007d8577f4e487b7100000000000000000000000000000000000000000000000000000000600052603260045260246000fd5b1a60f81b82828151811062000816577f4e487b7100000000000000000000000000000000000000000000000000000000600052603260045260246000fd5b60200101907effffffffffffffffffffffffffffffffffffffffffffffffffffffffffffff1916908160001a905350600485901c945080620008589062000e60565b905062000771565b5060008414620008a7576040517f08c379a00000000000000000000000000000000000000000000000000000000081526004016200089e9062000c86565b60405180910390fd5b8091505092915050565b828054620008bf9062000e8f565b90600052602060002090601f016020900481019282620008e357600085556200092f565b82601f10620008fe57805160ff19168380011785556200092f565b828001600101855582156200092f579182015b828111156200092e57825182559160200191906001019062000911565b5b5090506200093e919062000942565b5090565b5b808211156200095d57600081600090555060010162000943565b5090565b600062000978620009728462000cd1565b62000ca8565b9050828152602081018484840111156200099157600080fd5b6200099e84828562000e2a565b509392505050565b600082601f830112620009b857600080fd5b8151620009ca84826020860162000961565b91505092915050565b60008060408385031215620009e757600080fd5b600083015167ffffffffffffffff81111562000a0257600080fd5b62000a1085828601620009a6565b925050602083015167ffffffffffffffff81111562000a2e57600080fd5b62000a3c85828601620009a6565b9150509250929050565b62000a518162000dec565b82525050565b600062000a648262000d07565b62000a70818562000d12565b935062000a8281856020860162000e2a565b62000a8d8162000f88565b840191505092915050565b600062000aa58262000d07565b62000ab1818562000d23565b935062000ac381856020860162000e2a565b80840191505092915050565b600062000ade60208362000d12565b915062000aeb8262000f99565b602082019050919050565b600062000b05600b8362000d12565b915062000b128262000fc2565b602082019050919050565b600062000b2c60178362000d23565b915062000b398262000feb565b601782019050919050565b600062000b5360118362000d23565b915062000b608262001014565b601182019050919050565b62000b768162000e20565b82525050565b600062000b898262000b1d565b915062000b97828562000a98565b915062000ba48262000b44565b915062000bb2828462000a98565b91508190509392505050565b600060608201905062000bd5600083018562000a46565b818103602083015262000be9818462000a57565b9050818103604083015262000bfe8162000af6565b90509392505050565b6000602082019050818103600083015262000c23818462000a57565b905092915050565b6000608082019050818103600083015262000c47818762000a57565b905062000c58602083018662000b6b565b62000c67604083018562000a46565b818103606083015262000c7b818462000a57565b905095945050505050565b6000602082019050818103600083015262000ca18162000acf565b9050919050565b600062000cb462000cc7565b905062000cc2828262000ec5565b919050565b6000604051905090565b600067ffffffffffffffff82111562000cef5762000cee62000f59565b5b62000cfa8262000f88565b9050602081019050919050565b600081519050919050565b600082825260208201905092915050565b600081905092915050565b600062000d3b8262000e20565b915062000d488362000e20565b9250827fffffffffffffffffffffffffffffffffffffffffffffffffffffffffffffffff0382111562000d805762000d7f62000efb565b5b828201905092915050565b600062000d988262000e20565b915062000da58362000e20565b9250817fffffffffffffffffffffffffffffffffffffffffffffffffffffffffffffffff048311821515161562000de15762000de062000efb565b5b828202905092915050565b600062000df98262000e00565b9050919050565b600073ffffffffffffffffffffffffffffffffffffffff82169050919050565b6000819050919050565b60005b8381101562000e4a57808201518184015260208101905062000e2d565b8381111562000e5a576000848401525b50505050565b600062000e6d8262000e20565b9150600082141562000e845762000e8362000efb565b5b600182039050919050565b6000600282049050600182168062000ea857607f821691505b6020821081141562000ebf5762000ebe62000f2a565b5b50919050565b62000ed08262000f88565b810181811067ffffffffffffffff8211171562000ef25762000ef162000f59565b5b80604052505050565b7f4e487b7100000000000000000000000000000000000000000000000000000000600052601160045260246000fd5b7f4e487b7100000000000000000000000000000000000000000000000000000000600052602260045260246000fd5b7f4e487b7100000000000000000000000000000000000000000000000000000000600052604160045260246000fd5b6000601f19601f8301169050919050565b7f537472696e67733a20686578206c656e67746820696e73756666696369656e74600082015250565b7f436f6e7472696275746f72000000000000000000000000000000000000000000600082015250565b7f416363657373436f6e74726f6c3a206163636f756e7420000000000000000000600082015250565b7f206973206d697373696e6720726f6c6520000000000000000000000000000000600082015250565b611f10806200104d6000396000f3fe608060405234801561001057600080fd5b506004361061012c5760003560e01c80638da5cb5b116100ad578063cf09e0d011610071578063cf09e0d014610358578063d547741f14610376578063d723715414610392578063eafb79e2146103ae578063fde40cb6146103cc5761012c565b80638da5cb5b146102b457806391d14854146102d25780639974d85f14610302578063a217fddf1461031e578063a54f5d331461033c5761012c565b8063365b98b2116100f4578063365b98b2146101e757806358975919146102175780635d0eaaaf146102355780637284e416146102665780637ca8f618146102845761012c565b806301ffc9a71461013157806306fdde0314610161578063248a9ca31461017f5780632f2ff15d146101af57806336568abe146101cb575b600080fd5b61014b6004803603810190610146919061153c565b6103fe565b60405161015891906118a5565b60405180910390f35b610169610478565b60405161017691906118db565b60405180910390f35b610199600480360381019061019491906114d7565b610506565b6040516101a691906118c0565b60405180910390f35b6101c960048036038101906101c49190611500565b610525565b005b6101e560048036038101906101e09190611500565b610546565b005b61020160048036038101906101fc91906115a6565b6105c9565b60405161020e91906117db565b60405180910390f35b61021f610608565b60405161022c919061193d565b60405180910390f35b61024f600480360381019061024a919061145a565b61060e565b60405161025d929190611996565b60405180910390f35b61026e6106ba565b60405161027b91906118db565b60405180910390f35b61029e600480360381019061029991906115a6565b610748565b6040516102ab91906118c0565b60405180910390f35b6102bc61076c565b6040516102c991906117db565b60405180910390f35b6102ec60048036038101906102e79190611500565b610792565b6040516102f991906118a5565b60405180910390f35b61031c6004803603810190610317919061145a565b6107fc565b005b610326610917565b60405161033391906118c0565b60405180910390f35b61035660048036038101906103519190611565565b61091e565b005b610360610a5b565b60405161036d919061193d565b60405180910390f35b610390600480360381019061038b9190611500565b610a61565b005b6103ac60048036038101906103a79190611483565b610a82565b005b6103b6610c12565b6040516103c391906118c0565b60405180910390f35b6103e660048036038101906103e191906114d7565b610c36565b6040516103f593929190611958565b60405180910390f35b60007f7965db0b000000000000000000000000000000000000000000000000000000007bffffffffffffffffffffffffffffffffffffffffffffffffffffffff1916827bffffffffffffffffffffffffffffffffffffffffffffffffffffffff1916148061047157506104708261102f565b5b9050919050565b6004805461048590611bdd565b80601f01602080910402602001604051908101604052809291908181526020018280546104b190611bdd565b80156104fe5780601f106104d3576101008083540402835291602001916104fe565b820191906000526020600020905b8154815290600101906020018083116104e157829003601f168201915b505050505081565b6000806000838152602001908152602001600020600101549050919050565b61052e82610506565b61053781611099565b61054183836110ad565b505050565b61054e61118d565b73ffffffffffffffffffffffffffffffffffffffff168173ffffffffffffffffffffffffffffffffffffffff16146105bb576040517f08c379a00000000000000000000000000000000000000000000000000000000081526004016105b29061191d565b60405180910390fd5b6105c58282611195565b5050565b600381815481106105d957600080fd5b906000526020600020016000915054906101000a900473ffffffffffffffffffffffffffffffffffffffff1681565b60015481565b600260205280600052604060002060009150905080600001549080600101805461063790611bdd565b80601f016020809104026020016040519081016040528092919081815260200182805461066390611bdd565b80156106b05780601f10610685576101008083540402835291602001916106b0565b820191906000526020600020905b81548152906001019060200180831161069357829003601f168201915b5050505050905082565b600780546106c790611bdd565b80601f01602080910402602001604051908101604052809291908181526020018280546106f390611bdd565b80156107405780601f1061071557610100808354040283529160200191610740565b820191906000526020600020905b81548152906001019060200180831161072357829003601f168201915b505050505081565b6009818154811061075857600080fd5b906000526020600020016000915090505481565b600660009054906101000a900473ffffffffffffffffffffffffffffffffffffffff1681565b600080600084815260200190815260200160002060000160008373ffffffffffffffffffffffffffffffffffffffff1673ffffffffffffffffffffffffffffffffffffffff16815260200190815260200160002060009054906101000a900460ff16905092915050565b6000801b61080981611099565b6108337fe2889e7308860b3fe8df0daa86fccfea4d71e43776719a57be28cf90b6db81e983610a61565b6003600260008473ffffffffffffffffffffffffffffffffffffffff1673ffffffffffffffffffffffffffffffffffffffff16815260200190815260200160002060000154815481106108af577f4e487b7100000000000000000000000000000000000000000000000000000000600052603260045260246000fd5b9060005260206000200160006101000a81549073ffffffffffffffffffffffffffffffffffffffff02191690557f9f43a01c0d4ff5aff09b3b9b472df707ceefd3f948f8942f10fa1562a89213048260405161090b9190611877565b60405180910390a15050565b6000801b81565b7fe2889e7308860b3fe8df0daa86fccfea4d71e43776719a57be28cf90b6db81e961094881611099565b6000334260405160200161095d929190611775565b6040516020818303038152906040528051906020012090506000600860008381526020019081526020016000209050428160000181905550338160010160006101000a81548173ffffffffffffffffffffffffffffffffffffffff021916908373ffffffffffffffffffffffffffffffffffffffff160217905550838160020190805190602001906109f09291906112fb565b5060098290806001815401808255809150506001900390600052602060002001600090919091909150557ffefd27dee2120343aa0af195ac635be85abe526658ec8ce87dd5b8820241b2ce338542604051610a4d93929190611839565b60405180910390a150505050565b60055481565b610a6a82610506565b610a7381611099565b610a7d8383611195565b505050565b6000801b610a8f81611099565b610ab97fe2889e7308860b3fe8df0daa86fccfea4d71e43776719a57be28cf90b6db81e984610525565b60016000815480929190610acc90611c40565b9190505550600154600260008573ffffffffffffffffffffffffffffffffffffffff1673ffffffffffffffffffffffffffffffffffffffff1681526020019081526020016000206000018190555081600260008573ffffffffffffffffffffffffffffffffffffffff1673ffffffffffffffffffffffffffffffffffffffff1681526020019081526020016000206001019080519060200190610b709291906112fb565b506003839080600181540180825580915050600190039060005260206000200160009091909190916101000a81548173ffffffffffffffffffffffffffffffffffffffff021916908373ffffffffffffffffffffffffffffffffffffffff1602179055507f5033203abc62f72bb5c4e773c4fbc6804f9bc8ca8b3ce912fbd5fd42b66f2a078383604051610c059291906117f6565b60405180910390a1505050565b7fe2889e7308860b3fe8df0daa86fccfea4d71e43776719a57be28cf90b6db81e981565b60086020528060005260406000206000915090508060000154908060010160009054906101000a900473ffffffffffffffffffffffffffffffffffffffff1690806002018054610c8590611bdd565b80601f0160208091040260200160405190810160405280929190818152602001828054610cb190611bdd565b8015610cfe5780601f10610cd357610100808354040283529160200191610cfe565b820191906000526020600020905b815481529060010190602001808311610ce157829003601f168201915b5050505050905083565b6060610d2e8273ffffffffffffffffffffffffffffffffffffffff16601460ff16610d35565b9050919050565b606060006002836002610d489190611a99565b610d529190611a43565b67ffffffffffffffff811115610d91577f4e487b7100000000000000000000000000000000000000000000000000000000600052604160045260246000fd5b6040519080825280601f01601f191660200182016040528015610dc35781602001600182028036833780820191505090505b5090507f300000000000000000000000000000000000000000000000000000000000000081600081518110610e21577f4e487b7100000000000000000000000000000000000000000000000000000000600052603260045260246000fd5b60200101907effffffffffffffffffffffffffffffffffffffffffffffffffffffffffffff1916908160001a9053507f780000000000000000000000000000000000000000000000000000000000000081600181518110610eab577f4e487b7100000000000000000000000000000000000000000000000000000000600052603260045260246000fd5b60200101907effffffffffffffffffffffffffffffffffffffffffffffffffffffffffffff1916908160001a90535060006001846002610eeb9190611a99565b610ef59190611a43565b90505b6001811115610fe1577f3031323334353637383961626364656600000000000000000000000000000000600f861660108110610f5d577f4e487b7100000000000000000000000000000000000000000000000000000000600052603260045260246000fd5b1a60f81b828281518110610f9a577f4e487b7100000000000000000000000000000000000000000000000000000000600052603260045260246000fd5b60200101907effffffffffffffffffffffffffffffffffffffffffffffffffffffffffffff1916908160001a905350600485901c945080610fda90611bb3565b9050610ef8565b5060008414611025576040517f08c379a000000000000000000000000000000000000000000000000000000000815260040161101c906118fd565b60405180910390fd5b8091505092915050565b60007f01ffc9a7000000000000000000000000000000000000000000000000000000007bffffffffffffffffffffffffffffffffffffffffffffffffffffffff1916827bffffffffffffffffffffffffffffffffffffffffffffffffffffffff1916149050919050565b6110aa816110a561118d565b611276565b50565b6110b78282610792565b61118957600160008084815260200190815260200160002060000160008373ffffffffffffffffffffffffffffffffffffffff1673ffffffffffffffffffffffffffffffffffffffff16815260200190815260200160002060006101000a81548160ff02191690831515021790555061112e61118d565b73ffffffffffffffffffffffffffffffffffffffff168173ffffffffffffffffffffffffffffffffffffffff16837f2f8788117e7eff1d82e926ec794901d17c78024a50270940304540a733656f0d60405160405180910390a45b5050565b600033905090565b61119f8282610792565b1561127257600080600084815260200190815260200160002060000160008373ffffffffffffffffffffffffffffffffffffffff1673ffffffffffffffffffffffffffffffffffffffff16815260200190815260200160002060006101000a81548160ff02191690831515021790555061121761118d565b73ffffffffffffffffffffffffffffffffffffffff168173ffffffffffffffffffffffffffffffffffffffff16837ff6391f5c32d9c69d2a47ea670b442974b53935d1edc7fd64eb21e047a839171b60405160405180910390a45b5050565b6112808282610792565b6112f75761128d81610d08565b61129b8360001c6020610d35565b6040516020016112ac9291906117a1565b6040516020818303038152906040526040517f08c379a00000000000000000000000000000000000000000000000000000000081526004016112ee91906118db565b60405180910390fd5b5050565b82805461130790611bdd565b90600052602060002090601f0160209004810192826113295760008555611370565b82601f1061134257805160ff1916838001178555611370565b82800160010185558215611370579182015b8281111561136f578251825591602001919060010190611354565b5b50905061137d9190611381565b5090565b5b8082111561139a576000816000905550600101611382565b5090565b60006113b16113ac846119eb565b6119c6565b9050828152602081018484840111156113c957600080fd5b6113d4848285611b71565b509392505050565b6000813590506113eb81611e7e565b92915050565b60008135905061140081611e95565b92915050565b60008135905061141581611eac565b92915050565b600082601f83011261142c57600080fd5b813561143c84826020860161139e565b91505092915050565b60008135905061145481611ec3565b92915050565b60006020828403121561146c57600080fd5b600061147a848285016113dc565b91505092915050565b6000806040838503121561149657600080fd5b60006114a4858286016113dc565b925050602083013567ffffffffffffffff8111156114c157600080fd5b6114cd8582860161141b565b9150509250929050565b6000602082840312156114e957600080fd5b60006114f7848285016113f1565b91505092915050565b6000806040838503121561151357600080fd5b6000611521858286016113f1565b9250506020611532858286016113dc565b9150509250929050565b60006020828403121561154e57600080fd5b600061155c84828501611406565b91505092915050565b60006020828403121561157757600080fd5b600082013567ffffffffffffffff81111561159157600080fd5b61159d8482850161141b565b91505092915050565b6000602082840312156115b857600080fd5b60006115c684828501611445565b91505092915050565b6115d881611af3565b82525050565b6115ef6115ea82611af3565b611c89565b82525050565b6115fe81611b05565b82525050565b61160d81611b11565b82525050565b600061161e82611a1c565b6116288185611a27565b9350611638818560208601611b80565b61164181611d44565b840191505092915050565b600061165782611a1c565b6116618185611a38565b9350611671818560208601611b80565b80840191505092915050565b600061168a602083611a27565b915061169582611d62565b602082019050919050565b60006116ad600b83611a27565b91506116b882611d8b565b602082019050919050565b60006116d0600d83611a27565b91506116db82611db4565b602082019050919050565b60006116f3601783611a38565b91506116fe82611ddd565b601782019050919050565b6000611716601183611a38565b915061172182611e06565b601182019050919050565b6000611739602f83611a27565b915061174482611e2f565b604082019050919050565b61175881611b67565b82525050565b61176f61176a82611b67565b611cad565b82525050565b600061178182856115de565b601482019150611791828461175e565b6020820191508190509392505050565b60006117ac826116e6565b91506117b8828561164c565b91506117c382611709565b91506117cf828461164c565b91508190509392505050565b60006020820190506117f060008301846115cf565b92915050565b600060608201905061180b60008301856115cf565b818103602083015261181d8184611613565b90508181036040830152611830816116c3565b90509392505050565b600060608201905061184e60008301866115cf565b81810360208301526118608185611613565b905061186f604083018461174f565b949350505050565b600060408201905061188c60008301846115cf565b818103602083015261189d816116a0565b905092915050565b60006020820190506118ba60008301846115f5565b92915050565b60006020820190506118d56000830184611604565b92915050565b600060208201905081810360008301526118f58184611613565b905092915050565b600060208201905081810360008301526119168161167d565b9050919050565b600060208201905081810360008301526119368161172c565b9050919050565b6000602082019050611952600083018461174f565b92915050565b600060608201905061196d600083018661174f565b61197a60208301856115cf565b818103604083015261198c8184611613565b9050949350505050565b60006040820190506119ab600083018561174f565b81810360208301526119bd8184611613565b90509392505050565b60006119d06119e1565b90506119dc8282611c0f565b919050565b6000604051905090565b600067ffffffffffffffff821115611a0657611a05611d15565b5b611a0f82611d44565b9050602081019050919050565b600081519050919050565b600082825260208201905092915050565b600081905092915050565b6000611a4e82611b67565b9150611a5983611b67565b9250827fffffffffffffffffffffffffffffffffffffffffffffffffffffffffffffffff03821115611a8e57611a8d611cb7565b5b828201905092915050565b6000611aa482611b67565b9150611aaf83611b67565b9250817fffffffffffffffffffffffffffffffffffffffffffffffffffffffffffffffff0483118215151615611ae857611ae7611cb7565b5b828202905092915050565b6000611afe82611b47565b9050919050565b60008115159050919050565b6000819050919050565b60007fffffffff0000000000000000000000000000000000000000000000000000000082169050919050565b600073ffffffffffffffffffffffffffffffffffffffff82169050919050565b6000819050919050565b82818337600083830152505050565b60005b83811015611b9e578082015181840152602081019050611b83565b83811115611bad576000848401525b50505050565b6000611bbe82611b67565b91506000821415611bd257611bd1611cb7565b5b600182039050919050565b60006002820490506001821680611bf557607f821691505b60208210811415611c0957611c08611ce6565b5b50919050565b611c1882611d44565b810181811067ffffffffffffffff82111715611c3757611c36611d15565b5b80604052505050565b6000611c4b82611b67565b91507fffffffffffffffffffffffffffffffffffffffffffffffffffffffffffffffff821415611c7e57611c7d611cb7565b5b600182019050919050565b6000611c9482611c9b565b9050919050565b6000611ca682611d55565b9050919050565b6000819050919050565b7f4e487b7100000000000000000000000000000000000000000000000000000000600052601160045260246000fd5b7f4e487b7100000000000000000000000000000000000000000000000000000000600052602260045260246000fd5b7f4e487b7100000000000000000000000000000000000000000000000000000000600052604160045260246000fd5b6000601f19601f8301169050919050565b60008160601b9050919050565b7f537472696e67733a20686578206c656e67746820696e73756666696369656e74600082015250565b7f436f6e7472696275746f72000000000000000000000000000000000000000000600082015250565b7f41646d696e6973747261746f7200000000000000000000000000000000000000600082015250565b7f416363657373436f6e74726f6c3a206163636f756e7420000000000000000000600082015250565b7f206973206d697373696e6720726f6c6520000000000000000000000000000000600082015250565b7f416363657373436f6e74726f6c3a2063616e206f6e6c792072656e6f756e636560008201527f20726f6c657320666f722073656c660000000000000000000000000000000000602082015250565b611e8781611af3565b8114611e9257600080fd5b50565b611e9e81611b11565b8114611ea957600080fd5b50565b611eb581611b1b565b8114611ec057600080fd5b50565b611ecc81611b67565b8114611ed757600080fd5b5056fea2646970667358221220d6ddbb6db007ee6a1dfd63dbeb9314ddb54e800e19373f965f021b73518ee9d364736f6c63430008040033a264697066735822122068c13335ff95bf5eca7ec71731a2d44008ccda29e212029c4be8f1b4062c6d1064736f6c63430008040033",
  "linkReferences": {},
  "deployedLinkReferences": {}
}