{
  "_format": "hh-sol-artifact-1",
  "contractName": "RepositoryFactory",
  "sourceName": "contracts/RepositoryFactory.sol",
  "abi": [
    {
      "anonymous": false,
      "inputs": [
        {
          "indexed": false,
          "internalType": "string",
          "name": "name",
          "type": "string"
        },
        {
          "indexed": false,
          "internalType": "uint256",
          "name": "createdAt",
          "type": "uint256"
        },
        {
          "indexed": false,
          "internalType": "address",
          "name": "owner",
          "type": "address"
        },
        {
          "indexed": false,
          "internalType": "contract Repository",
          "name": "repository",
          "type": "address"
        }
      ],
      "name": "NewRepositorySet",
      "type": "event"
    },
    {
      "anonymous": false,
      "inputs": [
        {
          "indexed": true,
          "internalType": "address",
          "name": "repository",
          "type": "address"
        },
        {
          "indexed": true,
          "internalType": "address",
          "name": "reviewer",
          "type": "address"
        },
        {
          "indexed": false,
          "internalType": "uint256",
          "name": "reviewerSkillLevel",
          "type": "uint256"
        },
        {
          "indexed": false,
          "internalType": "string",
          "name": "contentIdentifier",
          "type": "string"
        },
        {
          "indexed": false,
          "internalType": "uint256",
          "name": "rating",
          "type": "uint256"
        }
      ],
      "name": "ReviewAdded",
      "type": "event"
    },
    {
      "inputs": [
        {
          "internalType": "string",
          "name": "_name",
          "type": "string"
        },
        {
          "internalType": "string",
          "name": "_description",
          "type": "string"
        }
      ],
      "name": "createRepositoryContract",
      "outputs": [],
      "stateMutability": "nonpayable",
      "type": "function"
    },
    {
      "inputs": [
        {
          "internalType": "address",
          "name": "_repository",
          "type": "address"
        },
        {
          "internalType": "string",
          "name": "_contentIdentifier",
          "type": "string"
        },
        {
          "internalType": "uint256",
          "name": "_rating",
          "type": "uint256"
        },
        {
          "internalType": "uint256",
          "name": "_reviewerSkillLevel",
          "type": "uint256"
        }
      ],
      "name": "createReview",
      "outputs": [],
      "stateMutability": "nonpayable",
      "type": "function"
    },
    {
      "inputs": [],
      "name": "getAllRepositories",
      "outputs": [
        {
          "internalType": "contract Repository[]",
          "name": "",
          "type": "address[]"
        }
      ],
      "stateMutability": "view",
      "type": "function"
    },
    {
      "inputs": [
        {
          "internalType": "address",
          "name": "_repository",
          "type": "address"
        }
      ],
      "name": "getRepositoryReviews",
      "outputs": [
        {
          "components": [
            {
              "internalType": "address",
              "name": "repository",
              "type": "address"
            },
            {
              "internalType": "address",
              "name": "reviewer",
              "type": "address"
            },
            {
              "internalType": "uint256",
              "name": "reviewerSkillLevel",
              "type": "uint256"
            },
            {
              "internalType": "string",
              "name": "contentIdentifier",
              "type": "string"
            },
            {
              "internalType": "uint256",
              "name": "rating",
              "type": "uint256"
            }
          ],
          "internalType": "struct RepositoryFactory.Review[]",
          "name": "repositoryReviews",
          "type": "tuple[]"
        }
      ],
      "stateMutability": "view",
      "type": "function"
    },
    {
      "inputs": [],
      "name": "getReviewableRepositories",
      "outputs": [
        {
          "internalType": "contract Repository[]",
          "name": "reviewableRepository",
          "type": "address[]"
        }
      ],
      "stateMutability": "view",
      "type": "function"
    },
    {
      "inputs": [
        {
          "internalType": "address",
          "name": "user",
          "type": "address"
        }
      ],
      "name": "getUserRepos",
      "outputs": [
        {
          "internalType": "contract Repository[]",
          "name": "",
          "type": "address[]"
        }
      ],
      "stateMutability": "view",
      "type": "function"
    },
    {
      "inputs": [
        {
          "internalType": "address",
          "name": "user",
          "type": "address"
        }
      ],
      "name": "getUserReviewScore",
      "outputs": [
        {
          "internalType": "uint256",
          "name": "",
          "type": "uint256"
        }
      ],
      "stateMutability": "view",
      "type": "function"
    },
    {
      "inputs": [],
      "name": "getUsers",
      "outputs": [
        {
          "internalType": "address[]",
          "name": "",
          "type": "address[]"
        }
      ],
      "stateMutability": "view",
      "type": "function"
    },
    {
      "inputs": [
        {
          "internalType": "uint256",
          "name": "",
          "type": "uint256"
        }
      ],
      "name": "repositories",
      "outputs": [
        {
          "internalType": "contract Repository",
          "name": "",
          "type": "address"
        }
      ],
      "stateMutability": "view",
      "type": "function"
    },
    {
      "inputs": [
        {
          "internalType": "uint256",
          "name": "",
          "type": "uint256"
        }
      ],
      "name": "reviews",
      "outputs": [
        {
          "internalType": "address",
          "name": "repository",
          "type": "address"
        },
        {
          "internalType": "address",
          "name": "reviewer",
          "type": "address"
        },
        {
          "internalType": "uint256",
          "name": "reviewerSkillLevel",
          "type": "uint256"
        },
        {
          "internalType": "string",
          "name": "contentIdentifier",
          "type": "string"
        },
        {
          "internalType": "uint256",
          "name": "rating",
          "type": "uint256"
        }
      ],
      "stateMutability": "view",
      "type": "function"
    },
    {
      "inputs": [],
      "name": "userCounter",
      "outputs": [
        {
          "internalType": "uint256",
          "name": "",
          "type": "uint256"
        }
      ],
      "stateMutability": "view",
      "type": "function"
    },
    {
      "inputs": [
        {
          "internalType": "uint256",
          "name": "",
          "type": "uint256"
        }
      ],
      "name": "users",
      "outputs": [
        {
          "internalType": "address",
          "name": "",
          "type": "address"
        }
      ],
      "stateMutability": "view",
      "type": "function"
    }
  ],
  "bytecode": "0x608060405234801561001057600080fd5b50615a40806100206000396000f3fe60806040523480156200001157600080fd5b5060043610620000c35760003560e01c806397020e31116200007b57806397020e3114620001d0578063a44ceba014620001f0578063e83ddcea1462000210578063e93f8e00146200024a578063f0c37a591462000280578063f4b9cdcf14620002a257620000c3565b8062ce8e3e14620000c85780632f3e03a814620000ea578063365b98b214620001205780634e98144f14620001565780637665270914620001785780637fcc83be14620001ae575b600080fd5b620000d2620002d8565b604051620000e1919062001bae565b60405180910390f35b620001086004803603810190620001029190620016aa565b62000368565b60405162000117919062001bf6565b60405180910390f35b6200013e6004803603810190620001389190620017fa565b62000712565b6040516200014d919062001b2d565b60405180910390f35b6200016062000752565b6040516200016f919062001bd2565b60405180910390f35b620001966004803603810190620001909190620017fa565b62000af6565b604051620001a5919062001c1a565b60405180910390f35b620001b862000b36565b604051620001c7919062001bd2565b60405180910390f35b620001ee6004803603810190620001e89190620016d6565b62000bc6565b005b6200020e600480360381019062000208919062001787565b62000f83565b005b6200022e6004803603810190620002289190620017fa565b6200129f565b6040516200024195949392919062001b4a565b60405180910390f35b620002686004803603810190620002629190620016aa565b620013b6565b60405162000277919062001bd2565b60405180910390f35b6200028a62001488565b60405162000299919062001cd6565b60405180910390f35b620002c06004803603810190620002ba9190620016aa565b6200148e565b604051620002cf919062001cd6565b60405180910390f35b606060068054806020026020016040519081016040528092919081815260200182805480156200035e57602002820191906000526020600020905b8160009054906101000a900473ffffffffffffffffffffffffffffffffffffffff1673ffffffffffffffffffffffffffffffffffffffff168152602001906001019080831162000313575b5050505050905090565b60606000600360008473ffffffffffffffffffffffffffffffffffffffff1673ffffffffffffffffffffffffffffffffffffffff1681526020019081526020016000208054905067ffffffffffffffff811115620003ef577f4e487b7100000000000000000000000000000000000000000000000000000000600052604160045260246000fd5b6040519080825280602002602001820160405280156200042c57816020015b62000418620014da565b8152602001906001900390816200040e5790505b50905060005b600360008573ffffffffffffffffffffffffffffffffffffffff1673ffffffffffffffffffffffffffffffffffffffff1681526020019081526020016000208054905081101562000708576007600360008673ffffffffffffffffffffffffffffffffffffffff1673ffffffffffffffffffffffffffffffffffffffff1681526020019081526020016000208281548110620004f7577f4e487b7100000000000000000000000000000000000000000000000000000000600052603260045260246000fd5b9060005260206000200154815481106200053a577f4e487b7100000000000000000000000000000000000000000000000000000000600052603260045260246000fd5b90600052602060002090600502016040518060a00160405290816000820160009054906101000a900473ffffffffffffffffffffffffffffffffffffffff1673ffffffffffffffffffffffffffffffffffffffff1673ffffffffffffffffffffffffffffffffffffffff1681526020016001820160009054906101000a900473ffffffffffffffffffffffffffffffffffffffff1673ffffffffffffffffffffffffffffffffffffffff1673ffffffffffffffffffffffffffffffffffffffff168152602001600282015481526020016003820180546200061b9062001f4f565b80601f0160208091040260200160405190810160405280929190818152602001828054620006499062001f4f565b80156200069a5780601f106200066e576101008083540402835291602001916200069a565b820191906000526020600020905b8154815290600101906020018083116200067c57829003601f168201915b50505050508152602001600482015481525050828281518110620006e7577f4e487b7100000000000000000000000000000000000000000000000000000000600052603260045260246000fd5b60200260200101819052508080620006ff9062001fbb565b91505062000432565b5080915050919050565b600681815481106200072357600080fd5b906000526020600020016000915054906101000a900473ffffffffffffffffffffffffffffffffffffffff1681565b60606000805b60008054905081101562000881576001151560008281548110620007a5577f4e487b7100000000000000000000000000000000000000000000000000000000600052603260045260246000fd5b9060005260206000200160009054906101000a900473ffffffffffffffffffffffffffffffffffffffff1673ffffffffffffffffffffffffffffffffffffffff1663cebbb33e6040518163ffffffff1660e01b815260040160206040518083038186803b1580156200081657600080fd5b505afa1580156200082b573d6000803e3d6000fd5b505050506040513d601f19601f820116820180604052508101906200085191906200175b565b151514156200086b578180620008679062001fbb565b9250505b8080620008789062001fbb565b91505062000758565b5060008167ffffffffffffffff811115620008c5577f4e487b7100000000000000000000000000000000000000000000000000000000600052604160045260246000fd5b604051908082528060200260200182016040528015620008f45781602001602082028036833780820191505090505b50905060005b60008054905081101562000aed57600115156000828154811062000947577f4e487b7100000000000000000000000000000000000000000000000000000000600052603260045260246000fd5b9060005260206000200160009054906101000a900473ffffffffffffffffffffffffffffffffffffffff1673ffffffffffffffffffffffffffffffffffffffff1663cebbb33e6040518163ffffffff1660e01b815260040160206040518083038186803b158015620009b857600080fd5b505afa158015620009cd573d6000803e3d6000fd5b505050506040513d601f19601f82011682018060405250810190620009f391906200175b565b1515141562000ad7576000818154811062000a37577f4e487b7100000000000000000000000000000000000000000000000000000000600052603260045260246000fd5b9060005260206000200160009054906101000a900473ffffffffffffffffffffffffffffffffffffffff1682828151811062000a9c577f4e487b7100000000000000000000000000000000000000000000000000000000600052603260045260246000fd5b602002602001019073ffffffffffffffffffffffffffffffffffffffff16908173ffffffffffffffffffffffffffffffffffffffff16815250505b808062000ae49062001fbb565b915050620008fa565b50809250505090565b6000818154811062000b0757600080fd5b906000526020600020016000915054906101000a900473ffffffffffffffffffffffffffffffffffffffff1681565b6060600080548060200260200160405190810160405280929190818152602001828054801562000bbc57602002820191906000526020600020905b8160009054906101000a900473ffffffffffffffffffffffffffffffffffffffff1673ffffffffffffffffffffffffffffffffffffffff168152602001906001019080831162000b71575b5050505050905090565b6000600560003373ffffffffffffffffffffffffffffffffffffffff1673ffffffffffffffffffffffffffffffffffffffff16815260200190815260200160002060000154141562000cd9576001600081548092919062000c279062001fbb565b9190505550600154600560003373ffffffffffffffffffffffffffffffffffffffff1673ffffffffffffffffffffffffffffffffffffffff168152602001908152602001600020600001819055506006339080600181540180825580915050600190039060005260206000200160009091909190916101000a81548173ffffffffffffffffffffffffffffffffffffffff021916908373ffffffffffffffffffffffffffffffffffffffff1602179055505b60006040518060a001604052808673ffffffffffffffffffffffffffffffffffffffff1681526020013373ffffffffffffffffffffffffffffffffffffffff168152602001838152602001858152602001848152509050600781908060018154018082558091505060019003906000526020600020906005020160009091909190915060008201518160000160006101000a81548173ffffffffffffffffffffffffffffffffffffffff021916908373ffffffffffffffffffffffffffffffffffffffff16021790555060208201518160010160006101000a81548173ffffffffffffffffffffffffffffffffffffffff021916908373ffffffffffffffffffffffffffffffffffffffff16021790555060408201518160020155606082015181600301908051906020019062000e1292919062001535565b50608082015181600401555050600360008673ffffffffffffffffffffffffffffffffffffffff1673ffffffffffffffffffffffffffffffffffffffff168152602001908152602001600020600160078054905062000e72919062001e5d565b9080600181540180825580915050600190039060005260206000200160009091909190915055600460003373ffffffffffffffffffffffffffffffffffffffff1673ffffffffffffffffffffffffffffffffffffffff168152602001908152602001600020600160078054905062000eeb919062001e5d565b90806001815401808255809150506001900390600052602060002001600090919091909150553373ffffffffffffffffffffffffffffffffffffffff168573ffffffffffffffffffffffffffffffffffffffff167f73752c74877f26c371c119996bda7eac39a2063adea3cd7c6f1613853c4cb6ec84878760405162000f749392919062001cf3565b60405180910390a35050505050565b6000600560003373ffffffffffffffffffffffffffffffffffffffff1673ffffffffffffffffffffffffffffffffffffffff16815260200190815260200160002060000154141562001096576001600081548092919062000fe49062001fbb565b9190505550600154600560003373ffffffffffffffffffffffffffffffffffffffff1673ffffffffffffffffffffffffffffffffffffffff168152602001908152602001600020600001819055506006339080600181540180825580915050600190039060005260206000200160009091909190916101000a81548173ffffffffffffffffffffffffffffffffffffffff021916908373ffffffffffffffffffffffffffffffffffffffff1602179055505b6000828233604051620010a990620015c6565b620010b79392919062001c37565b604051809103906000f080158015620010d4573d6000803e3d6000fd5b5090506000819080600181540180825580915050600190039060005260206000200160009091909190916101000a81548173ffffffffffffffffffffffffffffffffffffffff021916908373ffffffffffffffffffffffffffffffffffffffff16021790555080600260008373ffffffffffffffffffffffffffffffffffffffff1673ffffffffffffffffffffffffffffffffffffffff16815260200190815260200160002060006101000a81548173ffffffffffffffffffffffffffffffffffffffff021916908373ffffffffffffffffffffffffffffffffffffffff160217905550600560003373ffffffffffffffffffffffffffffffffffffffff1673ffffffffffffffffffffffffffffffffffffffff168152602001908152602001600020600101819080600181540180825580915050600190039060005260206000200160009091909190916101000a81548173ffffffffffffffffffffffffffffffffffffffff021916908373ffffffffffffffffffffffffffffffffffffffff1602179055507ff08a9e6a1811719026640608fa9b51435c1774014de0f8b5092b072c120205168342338460405162001292949392919062001c82565b60405180910390a1505050565b60078181548110620012b057600080fd5b90600052602060002090600502016000915090508060000160009054906101000a900473ffffffffffffffffffffffffffffffffffffffff16908060010160009054906101000a900473ffffffffffffffffffffffffffffffffffffffff1690806002015490806003018054620013279062001f4f565b80601f0160208091040260200160405190810160405280929190818152602001828054620013559062001f4f565b8015620013a65780601f106200137a57610100808354040283529160200191620013a6565b820191906000526020600020905b8154815290600101906020018083116200138857829003601f168201915b5050505050908060040154905085565b6060600560008373ffffffffffffffffffffffffffffffffffffffff1673ffffffffffffffffffffffffffffffffffffffff1681526020019081526020016000206001018054806020026020016040519081016040528092919081815260200182805480156200147c57602002820191906000526020600020905b8160009054906101000a900473ffffffffffffffffffffffffffffffffffffffff1673ffffffffffffffffffffffffffffffffffffffff168152602001906001019080831162001431575b50505050509050919050565b60015481565b6000600460008373ffffffffffffffffffffffffffffffffffffffff1673ffffffffffffffffffffffffffffffffffffffff168152602001908152602001600020805490509050919050565b6040518060a00160405280600073ffffffffffffffffffffffffffffffffffffffff168152602001600073ffffffffffffffffffffffffffffffffffffffff1681526020016000815260200160608152602001600081525090565b828054620015439062001f4f565b90600052602060002090601f016020900481019282620015675760008555620015b3565b82601f106200158257805160ff1916838001178555620015b3565b82800160010185558215620015b3579182015b82811115620015b257825182559160200191906001019062001595565b5b509050620015c29190620015d4565b5090565b61391580620020f683390190565b5b80821115620015ef576000816000905550600101620015d5565b5090565b60006200160a620016048462001d60565b62001d37565b9050828152602081018484840111156200162357600080fd5b6200163084828562001f0a565b509392505050565b6000813590506200164981620020a7565b92915050565b6000815190506200166081620020c1565b92915050565b600082601f8301126200167857600080fd5b81356200168a848260208601620015f3565b91505092915050565b600081359050620016a481620020db565b92915050565b600060208284031215620016bd57600080fd5b6000620016cd8482850162001638565b91505092915050565b60008060008060808587031215620016ed57600080fd5b6000620016fd8782880162001638565b945050602085013567ffffffffffffffff8111156200171b57600080fd5b620017298782880162001666565b93505060406200173c8782880162001693565b92505060606200174f8782880162001693565b91505092959194509250565b6000602082840312156200176e57600080fd5b60006200177e848285016200164f565b91505092915050565b600080604083850312156200179b57600080fd5b600083013567ffffffffffffffff811115620017b657600080fd5b620017c48582860162001666565b925050602083013567ffffffffffffffff811115620017e257600080fd5b620017f08582860162001666565b9150509250929050565b6000602082840312156200180d57600080fd5b60006200181d8482850162001693565b91505092915050565b600062001834838362001870565b60208301905092915050565b60006200184e8383620019e7565b60208301905092915050565b600062001868838362001a8b565b905092915050565b6200187b8162001e98565b82525050565b6200188c8162001e98565b82525050565b60006200189f8262001dc6565b620018ab818562001e19565b9350620018b88362001d96565b8060005b83811015620018ef578151620018d3888262001826565b9750620018e08362001df2565b925050600181019050620018bc565b5085935050505092915050565b6000620019098262001dd1565b62001915818562001e19565b9350620019228362001da6565b8060005b83811015620019595781516200193d888262001840565b97506200194a8362001dff565b92505060018101905062001926565b5085935050505092915050565b6000620019738262001ddc565b6200197f818562001e2a565b935083602082028501620019938562001db6565b8060005b85811015620019d55784840389528151620019b385826200185a565b9450620019c08362001e0c565b925060208a0199505060018101905062001997565b50829750879550505050505092915050565b620019f28162001ee2565b82525050565b62001a038162001ee2565b82525050565b600062001a168262001de7565b62001a22818562001e3b565b935062001a3481856020860162001f19565b62001a3f8162002096565b840191505092915050565b600062001a578262001de7565b62001a63818562001e4c565b935062001a7581856020860162001f19565b62001a808162002096565b840191505092915050565b600060a08301600083015162001aa5600086018262001870565b50602083015162001aba602086018262001870565b50604083015162001acf604086018262001b0b565b506060830151848203606086015262001ae9828262001a09565b915050608083015162001b00608086018262001b0b565b508091505092915050565b62001b168162001ed8565b82525050565b62001b278162001ed8565b82525050565b600060208201905062001b44600083018462001881565b92915050565b600060a08201905062001b61600083018862001881565b62001b70602083018762001881565b62001b7f604083018662001b1c565b818103606083015262001b93818562001a4a565b905062001ba4608083018462001b1c565b9695505050505050565b6000602082019050818103600083015262001bca818462001892565b905092915050565b6000602082019050818103600083015262001bee8184620018fc565b905092915050565b6000602082019050818103600083015262001c12818462001966565b905092915050565b600060208201905062001c316000830184620019f8565b92915050565b6000606082019050818103600083015262001c53818662001a4a565b9050818103602083015262001c69818562001a4a565b905062001c7a604083018462001881565b949350505050565b6000608082019050818103600083015262001c9e818762001a4a565b905062001caf602083018662001b1c565b62001cbe604083018562001881565b62001ccd6060830184620019f8565b95945050505050565b600060208201905062001ced600083018462001b1c565b92915050565b600060608201905062001d0a600083018662001b1c565b818103602083015262001d1e818562001a4a565b905062001d2f604083018462001b1c565b949350505050565b600062001d4362001d56565b905062001d51828262001f85565b919050565b6000604051905090565b600067ffffffffffffffff82111562001d7e5762001d7d62002067565b5b62001d898262002096565b9050602081019050919050565b6000819050602082019050919050565b6000819050602082019050919050565b6000819050602082019050919050565b600081519050919050565b600081519050919050565b600081519050919050565b600081519050919050565b6000602082019050919050565b6000602082019050919050565b6000602082019050919050565b600082825260208201905092915050565b600082825260208201905092915050565b600082825260208201905092915050565b600082825260208201905092915050565b600062001e6a8262001ed8565b915062001e778362001ed8565b92508282101562001e8d5762001e8c62002009565b5b828203905092915050565b600062001ea58262001eb8565b9050919050565b60008115159050919050565b600073ffffffffffffffffffffffffffffffffffffffff82169050919050565b6000819050919050565b600062001eef8262001ef6565b9050919050565b600062001f038262001eb8565b9050919050565b82818337600083830152505050565b60005b8381101562001f3957808201518184015260208101905062001f1c565b8381111562001f49576000848401525b50505050565b6000600282049050600182168062001f6857607f821691505b6020821081141562001f7f5762001f7e62002038565b5b50919050565b62001f908262002096565b810181811067ffffffffffffffff8211171562001fb25762001fb162002067565b5b80604052505050565b600062001fc88262001ed8565b91507fffffffffffffffffffffffffffffffffffffffffffffffffffffffffffffffff82141562001ffe5762001ffd62002009565b5b600182019050919050565b7f4e487b7100000000000000000000000000000000000000000000000000000000600052601160045260246000fd5b7f4e487b7100000000000000000000000000000000000000000000000000000000600052602260045260246000fd5b7f4e487b7100000000000000000000000000000000000000000000000000000000600052604160045260246000fd5b6000601f19601f8301169050919050565b620020b28162001e98565b8114620020be57600080fd5b50565b620020cc8162001eac565b8114620020d857600080fd5b50565b620020e68162001ed8565b8114620020f257600080fd5b5056fe60806040523480156200001157600080fd5b5060405162003915380380620039158339818101604052810190620000379190620009e6565b6200004c6000801b33620002de60201b60201c565b6000600181905550620000696000801b82620002de60201b60201c565b6200009b7fe2889e7308860b3fe8df0daa86fccfea4d71e43776719a57be28cf90b6db81e982620003cf60201b60201c565b6040518060400160405280600d81526020017f41444d494e4953545241544f5200000000000000000000000000000000000000815250600260003373ffffffffffffffffffffffffffffffffffffffff1673ffffffffffffffffffffffffffffffffffffffff168152602001908152602001600020600101908051906020019062000128929190620008ad565b50600154600260003373ffffffffffffffffffffffffffffffffffffffff1673ffffffffffffffffffffffffffffffffffffffff168152602001908152602001600020600001819055506003819080600181540180825580915050600190039060005260206000200160009091909190916101000a81548173ffffffffffffffffffffffffffffffffffffffff021916908373ffffffffffffffffffffffffffffffffffffffff1602179055508260049080519060200190620001ed929190620008ad565b504260058190555080600660006101000a81548173ffffffffffffffffffffffffffffffffffffffff021916908373ffffffffffffffffffffffffffffffffffffffff16021790555081600790805190602001906200024e929190620008ad565b506000600860006101000a81548160ff02191690831515021790555060006009819055507f4d6e9c5367e86c0906b04a7d25d3d0cb37439bccaffbee2cdce979ae88c3fa0683600554600660009054906101000a900473ffffffffffffffffffffffffffffffffffffffff1685604051620002cd949392919062000be3565b60405180910390a150505062000fe6565b620002f082826200040860201b60201c565b620003cb57600160008084815260200190815260200160002060000160008373ffffffffffffffffffffffffffffffffffffffff1673ffffffffffffffffffffffffffffffffffffffff16815260200190815260200160002060006101000a81548160ff021916908315150217905550620003706200047260201b60201c565b73ffffffffffffffffffffffffffffffffffffffff168173ffffffffffffffffffffffffffffffffffffffff16837f2f8788117e7eff1d82e926ec794901d17c78024a50270940304540a733656f0d60405160405180910390a45b5050565b620003e0826200047a60201b60201c565b620003f1816200049960201b60201c565b620004038383620002de60201b60201c565b505050565b600080600084815260200190815260200160002060000160008373ffffffffffffffffffffffffffffffffffffffff1673ffffffffffffffffffffffffffffffffffffffff16815260200190815260200160002060009054906101000a900460ff16905092915050565b600033905090565b6000806000838152602001908152602001600020600101549050919050565b620004ba81620004ae6200047260201b60201c565b620004bd60201b60201c565b50565b620004cf82826200040860201b60201c565b6200056557620004ea816200056960201b620014761760201c565b620005058360001c60206200059e60201b620014a31760201c565b6040516020016200051892919062000b7d565b6040516020818303038152906040526040517f08c379a00000000000000000000000000000000000000000000000000000000081526004016200055c919062000bbf565b60405180910390fd5b5050565b6060620005978273ffffffffffffffffffffffffffffffffffffffff16601460ff166200059e60201b60201c565b9050919050565b606060006002836002620005b3919062000d43565b620005bf919062000ce6565b67ffffffffffffffff811115620005ff577f4e487b7100000000000000000000000000000000000000000000000000000000600052604160045260246000fd5b6040519080825280601f01601f191660200182016040528015620006325781602001600182028036833780820191505090505b5090507f30000000000000000000000000000000000000000000000000000000000000008160008151811062000691577f4e487b7100000000000000000000000000000000000000000000000000000000600052603260045260246000fd5b60200101907effffffffffffffffffffffffffffffffffffffffffffffffffffffffffffff1916908160001a9053507f7800000000000000000000000000000000000000000000000000000000000000816001815181106200071c577f4e487b7100000000000000000000000000000000000000000000000000000000600052603260045260246000fd5b60200101907effffffffffffffffffffffffffffffffffffffffffffffffffffffffffffff1916908160001a905350600060018460026200075e919062000d43565b6200076a919062000ce6565b90505b60018111156200085c577f3031323334353637383961626364656600000000000000000000000000000000600f861660108110620007d4577f4e487b7100000000000000000000000000000000000000000000000000000000600052603260045260246000fd5b1a60f81b82828151811062000812577f4e487b7100000000000000000000000000000000000000000000000000000000600052603260045260246000fd5b60200101907effffffffffffffffffffffffffffffffffffffffffffffffffffffffffffff1916908160001a905350600485901c945080620008549062000e18565b90506200076d565b5060008414620008a3576040517f08c379a00000000000000000000000000000000000000000000000000000000081526004016200089a9062000c3e565b60405180910390fd5b8091505092915050565b828054620008bb9062000e47565b90600052602060002090601f016020900481019282620008df57600085556200092b565b82601f10620008fa57805160ff19168380011785556200092b565b828001600101855582156200092b579182015b828111156200092a5782518255916020019190600101906200090d565b5b5090506200093a91906200093e565b5090565b5b80821115620009595760008160009055506001016200093f565b5090565b6000620009746200096e8462000c89565b62000c60565b9050828152602081018484840111156200098d57600080fd5b6200099a84828562000de2565b509392505050565b600081519050620009b38162000fcc565b92915050565b600082601f830112620009cb57600080fd5b8151620009dd8482602086016200095d565b91505092915050565b600080600060608486031215620009fc57600080fd5b600084015167ffffffffffffffff81111562000a1757600080fd5b62000a2586828701620009b9565b935050602084015167ffffffffffffffff81111562000a4357600080fd5b62000a5186828701620009b9565b925050604062000a6486828701620009a2565b9150509250925092565b62000a798162000da4565b82525050565b600062000a8c8262000cbf565b62000a98818562000cca565b935062000aaa81856020860162000de2565b62000ab58162000f40565b840191505092915050565b600062000acd8262000cbf565b62000ad9818562000cdb565b935062000aeb81856020860162000de2565b80840191505092915050565b600062000b0660208362000cca565b915062000b138262000f51565b602082019050919050565b600062000b2d60178362000cdb565b915062000b3a8262000f7a565b601782019050919050565b600062000b5460118362000cdb565b915062000b618262000fa3565b601182019050919050565b62000b778162000dd8565b82525050565b600062000b8a8262000b1e565b915062000b98828562000ac0565b915062000ba58262000b45565b915062000bb3828462000ac0565b91508190509392505050565b6000602082019050818103600083015262000bdb818462000a7f565b905092915050565b6000608082019050818103600083015262000bff818762000a7f565b905062000c10602083018662000b6c565b62000c1f604083018562000a6e565b818103606083015262000c33818462000a7f565b905095945050505050565b6000602082019050818103600083015262000c598162000af7565b9050919050565b600062000c6c62000c7f565b905062000c7a828262000e7d565b919050565b6000604051905090565b600067ffffffffffffffff82111562000ca75762000ca662000f11565b5b62000cb28262000f40565b9050602081019050919050565b600081519050919050565b600082825260208201905092915050565b600081905092915050565b600062000cf38262000dd8565b915062000d008362000dd8565b9250827fffffffffffffffffffffffffffffffffffffffffffffffffffffffffffffffff0382111562000d385762000d3762000eb3565b5b828201905092915050565b600062000d508262000dd8565b915062000d5d8362000dd8565b9250817fffffffffffffffffffffffffffffffffffffffffffffffffffffffffffffffff048311821515161562000d995762000d9862000eb3565b5b828202905092915050565b600062000db18262000db8565b9050919050565b600073ffffffffffffffffffffffffffffffffffffffff82169050919050565b6000819050919050565b60005b8381101562000e0257808201518184015260208101905062000de5565b8381111562000e12576000848401525b50505050565b600062000e258262000dd8565b9150600082141562000e3c5762000e3b62000eb3565b5b600182039050919050565b6000600282049050600182168062000e6057607f821691505b6020821081141562000e775762000e7662000ee2565b5b50919050565b62000e888262000f40565b810181811067ffffffffffffffff8211171562000eaa5762000ea962000f11565b5b80604052505050565b7f4e487b7100000000000000000000000000000000000000000000000000000000600052601160045260246000fd5b7f4e487b7100000000000000000000000000000000000000000000000000000000600052602260045260246000fd5b7f4e487b7100000000000000000000000000000000000000000000000000000000600052604160045260246000fd5b6000601f19601f8301169050919050565b7f537472696e67733a20686578206c656e67746820696e73756666696369656e74600082015250565b7f416363657373436f6e74726f6c3a206163636f756e7420000000000000000000600082015250565b7f206973206d697373696e6720726f6c6520000000000000000000000000000000600082015250565b62000fd78162000da4565b811462000fe357600080fd5b50565b61291f8062000ff66000396000f3fe608060405234801561001057600080fd5b50600436106101da5760003560e01c806391d1485411610104578063d547741f116100a2578063e89e4ed611610071578063e89e4ed614610532578063eafb79e214610565578063fc3d3cba14610583578063fde40cb61461059f576101da565b8063d547741f146104d4578063d7237154146104f0578063e1c584681461050c578063e2e764d414610528576101da565b8063a54f5d33116100de578063a54f5d331461045e578063af157c191461047a578063cebbb33e14610498578063cf09e0d0146104b6576101da565b806391d14854146103f45780639974d85f14610424578063a217fddf14610440576101da565b806336568abe1161017c5780635d0eaaaf1161014b5780635d0eaaaf146103575780637284e416146103885780637ca8f618146103a65780638da5cb5b146103d6576101da565b806336568abe146102cf5780633cb5d100146102eb578063589759191461031b5780635c43dd9914610339576101da565b806306fdde03116101b857806306fdde031461024957806321f0ef8e14610267578063248a9ca3146102835780632f2ff15d146102b3576101da565b806301ffc9a7146101df578063042f2de01461020f578063064270cc1461022b575b600080fd5b6101f960048036038101906101f49190611ce8565b6105d1565b6040516102069190612219565b60405180910390f35b61022960048036038101906102249190611c5a565b61064b565b005b610233610668565b60405161024091906122b1565b60405180910390f35b61025161066e565b60405161025e919061224f565b60405180910390f35b610281600480360381019061027c9190611c06565b6106fc565b005b61029d60048036038101906102989190611c83565b610718565b6040516102aa9190612234565b60405180910390f35b6102cd60048036038101906102c89190611cac565b610737565b005b6102e960048036038101906102e49190611cac565b610758565b005b61030560048036038101906103009190611dbe565b6107db565b604051610312919061217c565b60405180910390f35b61032361081a565b60405161033091906122b1565b60405180910390f35b610341610820565b60405161034e91906121f7565b60405180910390f35b610371600480360381019061036c9190611bdd565b6109c8565b60405161037f92919061230a565b60405180910390f35b610390610a74565b60405161039d919061224f565b60405180910390f35b6103c060048036038101906103bb9190611dbe565b610b02565b6040516103cd9190612234565b60405180910390f35b6103de610b26565b6040516103eb919061217c565b60405180910390f35b61040e60048036038101906104099190611cac565b610b4c565b60405161041b9190612219565b60405180910390f35b61043e60048036038101906104399190611bdd565b610bb6565b005b610448610c9a565b6040516104559190612234565b60405180910390f35b61047860048036038101906104739190611d11565b610ca1565b005b610482610dde565b60405161048f91906121d5565b60405180910390f35b6104a0610e6c565b6040516104ad9190612219565b60405180910390f35b6104be610e7f565b6040516104cb91906122b1565b60405180910390f35b6104ee60048036038101906104e99190611cac565b610e85565b005b61050a60048036038101906105059190611c06565b610ea6565b005b61052660048036038101906105219190611d52565b610ffd565b005b610530611117565b005b61054c60048036038101906105479190611dbe565b611219565b60405161055c949392919061233a565b60405180910390f35b61056d611376565b60405161057a9190612234565b60405180910390f35b61059d60048036038101906105989190611dbe565b61139a565b005b6105b960048036038101906105b49190611c83565b6113a4565b6040516105c8939291906122cc565b60405180910390f35b60007f7965db0b000000000000000000000000000000000000000000000000000000007bffffffffffffffffffffffffffffffffffffffffffffffffffffffff1916827bffffffffffffffffffffffffffffffffffffffffffffffffffffffff1916148061064457506106438261179d565b5b9050919050565b80600860006101000a81548160ff02191690831515021790555050565b60095481565b6004805461067b90612627565b80601f01602080910402602001604051908101604052809291908181526020018280546106a790612627565b80156106f45780601f106106c9576101008083540402835291602001916106f4565b820191906000526020600020905b8154815290600101906020018083116106d757829003601f168201915b505050505081565b6000801b61070981611807565b6107138383610ea6565b505050565b6000806000838152602001908152602001600020600101549050919050565b61074082610718565b61074981611807565b610753838361181b565b505050565b6107606118fb565b73ffffffffffffffffffffffffffffffffffffffff168173ffffffffffffffffffffffffffffffffffffffff16146107cd576040517f08c379a00000000000000000000000000000000000000000000000000000000081526004016107c490612291565b60405180910390fd5b6107d78282611903565b5050565b600381815481106107eb57600080fd5b906000526020600020016000915054906101000a900473ffffffffffffffffffffffffffffffffffffffff1681565b60015481565b6060600a805480602002602001604051908101604052809291908181526020016000905b828210156109bf57838290600052602060002090600402016040518060800160405290816000820154815260200160018201805461088190612627565b80601f01602080910402602001604051908101604052809291908181526020018280546108ad90612627565b80156108fa5780601f106108cf576101008083540402835291602001916108fa565b820191906000526020600020905b8154815290600101906020018083116108dd57829003601f168201915b5050505050815260200160028201805461091390612627565b80601f016020809104026020016040519081016040528092919081815260200182805461093f90612627565b801561098c5780601f106109615761010080835404028352916020019161098c565b820191906000526020600020905b81548152906001019060200180831161096f57829003601f168201915b505050505081526020016003820160009054906101000a900460ff16151515158152505081526020019060010190610844565b50505050905090565b60026020528060005260406000206000915090508060000154908060010180546109f190612627565b80601f0160208091040260200160405190810160405280929190818152602001828054610a1d90612627565b8015610a6a5780601f10610a3f57610100808354040283529160200191610a6a565b820191906000526020600020905b815481529060010190602001808311610a4d57829003601f168201915b5050505050905082565b60078054610a8190612627565b80601f0160208091040260200160405190810160405280929190818152602001828054610aad90612627565b8015610afa5780601f10610acf57610100808354040283529160200191610afa565b820191906000526020600020905b815481529060010190602001808311610add57829003601f168201915b505050505081565b600c8181548110610b1257600080fd5b906000526020600020016000915090505481565b600660009054906101000a900473ffffffffffffffffffffffffffffffffffffffff1681565b600080600084815260200190815260200160002060000160008373ffffffffffffffffffffffffffffffffffffffff1673ffffffffffffffffffffffffffffffffffffffff16815260200190815260200160002060009054906101000a900460ff16905092915050565b6000801b610bc381611807565b610bed7fe2889e7308860b3fe8df0daa86fccfea4d71e43776719a57be28cf90b6db81e983610e85565b6003600260008473ffffffffffffffffffffffffffffffffffffffff1673ffffffffffffffffffffffffffffffffffffffff1681526020019081526020016000206000015481548110610c69577f4e487b7100000000000000000000000000000000000000000000000000000000600052603260045260246000fd5b9060005260206000200160006101000a81549073ffffffffffffffffffffffffffffffffffffffff02191690555050565b6000801b81565b7fe2889e7308860b3fe8df0daa86fccfea4d71e43776719a57be28cf90b6db81e9610ccb81611807565b60003342604051602001610ce0929190612116565b6040516020818303038152906040528051906020012090506000600b60008381526020019081526020016000209050428160000181905550338160010160006101000a81548173ffffffffffffffffffffffffffffffffffffffff021916908373ffffffffffffffffffffffffffffffffffffffff16021790555083816002019080519060200190610d73929190611a69565b50600c8290806001815401808255809150506001900390600052602060002001600090919091909150557ffefd27dee2120343aa0af195ac635be85abe526658ec8ce87dd5b8820241b2ce338542604051610dd093929190612197565b60405180910390a150505050565b60606003805480602002602001604051908101604052809291908181526020018280548015610e6257602002820191906000526020600020905b8160009054906101000a900473ffffffffffffffffffffffffffffffffffffffff1673ffffffffffffffffffffffffffffffffffffffff1681526020019060010190808311610e18575b5050505050905090565b600860009054906101000a900460ff1681565b60055481565b610e8e82610718565b610e9781611807565b610ea18383611903565b505050565b6000801b610eb381611807565b610edd7fe2889e7308860b3fe8df0daa86fccfea4d71e43776719a57be28cf90b6db81e984610737565b60016000815480929190610ef09061268a565b9190505550600154600260008573ffffffffffffffffffffffffffffffffffffffff1673ffffffffffffffffffffffffffffffffffffffff1681526020019081526020016000206000018190555081600260008573ffffffffffffffffffffffffffffffffffffffff1673ffffffffffffffffffffffffffffffffffffffff1681526020019081526020016000206001019080519060200190610f94929190611a69565b506003839080600181540180825580915050600190039060005260206000200160009091909190916101000a81548173ffffffffffffffffffffffffffffffffffffffff021916908373ffffffffffffffffffffffffffffffffffffffff160217905550505050565b6000801b61100a81611807565b60006040518060800160405280428152602001858152602001848152602001600015158152509050600a819080600181540180825580915050600190039060005260206000209060040201600090919091909150600082015181600001556020820151816001019080519060200190611084929190611a69565b5060408201518160020190805190602001906110a1929190611a69565b5060608201518160030160006101000a81548160ff02191690831515021790555050507f4b6670afe959fd4b4dda8bc19ad374452e6e0a0e43e23c1fb993e45d29a00e9b8160000151826020015183604001518460600151604051611109949392919061233a565b60405180910390a150505050565b6000801b61112481611807565b60005b600a805490508110156112155760001515600a8281548110611172577f4e487b7100000000000000000000000000000000000000000000000000000000600052603260045260246000fd5b906000526020600020906004020160030160009054906101000a900460ff1615151415611202576001600a82815481106111d5577f4e487b7100000000000000000000000000000000000000000000000000000000600052603260045260246000fd5b906000526020600020906004020160030160006101000a81548160ff021916908315150217905550611215565b808061120d9061268a565b915050611127565b5050565b600a818154811061122957600080fd5b906000526020600020906004020160009150905080600001549080600101805461125290612627565b80601f016020809104026020016040519081016040528092919081815260200182805461127e90612627565b80156112cb5780601f106112a0576101008083540402835291602001916112cb565b820191906000526020600020905b8154815290600101906020018083116112ae57829003601f168201915b5050505050908060020180546112e090612627565b80601f016020809104026020016040519081016040528092919081815260200182805461130c90612627565b80156113595780601f1061132e57610100808354040283529160200191611359565b820191906000526020600020905b81548152906001019060200180831161133c57829003601f168201915b5050505050908060030160009054906101000a900460ff16905084565b7fe2889e7308860b3fe8df0daa86fccfea4d71e43776719a57be28cf90b6db81e981565b8060098190555050565b600b6020528060005260406000206000915090508060000154908060010160009054906101000a900473ffffffffffffffffffffffffffffffffffffffff16908060020180546113f390612627565b80601f016020809104026020016040519081016040528092919081815260200182805461141f90612627565b801561146c5780601f106114415761010080835404028352916020019161146c565b820191906000526020600020905b81548152906001019060200180831161144f57829003601f168201915b5050505050905083565b606061149c8273ffffffffffffffffffffffffffffffffffffffff16601460ff166114a3565b9050919050565b6060600060028360026114b691906124e3565b6114c0919061248d565b67ffffffffffffffff8111156114ff577f4e487b7100000000000000000000000000000000000000000000000000000000600052604160045260246000fd5b6040519080825280601f01601f1916602001820160405280156115315781602001600182028036833780820191505090505b5090507f30000000000000000000000000000000000000000000000000000000000000008160008151811061158f577f4e487b7100000000000000000000000000000000000000000000000000000000600052603260045260246000fd5b60200101907effffffffffffffffffffffffffffffffffffffffffffffffffffffffffffff1916908160001a9053507f780000000000000000000000000000000000000000000000000000000000000081600181518110611619577f4e487b7100000000000000000000000000000000000000000000000000000000600052603260045260246000fd5b60200101907effffffffffffffffffffffffffffffffffffffffffffffffffffffffffffff1916908160001a9053506000600184600261165991906124e3565b611663919061248d565b90505b600181111561174f577f3031323334353637383961626364656600000000000000000000000000000000600f8616601081106116cb577f4e487b7100000000000000000000000000000000000000000000000000000000600052603260045260246000fd5b1a60f81b828281518110611708577f4e487b7100000000000000000000000000000000000000000000000000000000600052603260045260246000fd5b60200101907effffffffffffffffffffffffffffffffffffffffffffffffffffffffffffff1916908160001a905350600485901c945080611748906125fd565b9050611666565b5060008414611793576040517f08c379a000000000000000000000000000000000000000000000000000000000815260040161178a90612271565b60405180910390fd5b8091505092915050565b60007f01ffc9a7000000000000000000000000000000000000000000000000000000007bffffffffffffffffffffffffffffffffffffffffffffffffffffffff1916827bffffffffffffffffffffffffffffffffffffffffffffffffffffffff1916149050919050565b611818816118136118fb565b6119e4565b50565b6118258282610b4c565b6118f757600160008084815260200190815260200160002060000160008373ffffffffffffffffffffffffffffffffffffffff1673ffffffffffffffffffffffffffffffffffffffff16815260200190815260200160002060006101000a81548160ff02191690831515021790555061189c6118fb565b73ffffffffffffffffffffffffffffffffffffffff168173ffffffffffffffffffffffffffffffffffffffff16837f2f8788117e7eff1d82e926ec794901d17c78024a50270940304540a733656f0d60405160405180910390a45b5050565b600033905090565b61190d8282610b4c565b156119e057600080600084815260200190815260200160002060000160008373ffffffffffffffffffffffffffffffffffffffff1673ffffffffffffffffffffffffffffffffffffffff16815260200190815260200160002060006101000a81548160ff0219169083151502179055506119856118fb565b73ffffffffffffffffffffffffffffffffffffffff168173ffffffffffffffffffffffffffffffffffffffff16837ff6391f5c32d9c69d2a47ea670b442974b53935d1edc7fd64eb21e047a839171b60405160405180910390a45b5050565b6119ee8282610b4c565b611a65576119fb81611476565b611a098360001c60206114a3565b604051602001611a1a929190612142565b6040516020818303038152906040526040517f08c379a0000000000000000000000000000000000000000000000000000000008152600401611a5c919061224f565b60405180910390fd5b5050565b828054611a7590612627565b90600052602060002090601f016020900481019282611a975760008555611ade565b82601f10611ab057805160ff1916838001178555611ade565b82800160010185558215611ade579182015b82811115611add578251825591602001919060010190611ac2565b5b509050611aeb9190611aef565b5090565b5b80821115611b08576000816000905550600101611af0565b5090565b6000611b1f611b1a846123b2565b61238d565b905082815260208101848484011115611b3757600080fd5b611b428482856125bb565b509392505050565b600081359050611b5981612876565b92915050565b600081359050611b6e8161288d565b92915050565b600081359050611b83816128a4565b92915050565b600081359050611b98816128bb565b92915050565b600082601f830112611baf57600080fd5b8135611bbf848260208601611b0c565b91505092915050565b600081359050611bd7816128d2565b92915050565b600060208284031215611bef57600080fd5b6000611bfd84828501611b4a565b91505092915050565b60008060408385031215611c1957600080fd5b6000611c2785828601611b4a565b925050602083013567ffffffffffffffff811115611c4457600080fd5b611c5085828601611b9e565b9150509250929050565b600060208284031215611c6c57600080fd5b6000611c7a84828501611b5f565b91505092915050565b600060208284031215611c9557600080fd5b6000611ca384828501611b74565b91505092915050565b60008060408385031215611cbf57600080fd5b6000611ccd85828601611b74565b9250506020611cde85828601611b4a565b9150509250929050565b600060208284031215611cfa57600080fd5b6000611d0884828501611b89565b91505092915050565b600060208284031215611d2357600080fd5b600082013567ffffffffffffffff811115611d3d57600080fd5b611d4984828501611b9e565b91505092915050565b60008060408385031215611d6557600080fd5b600083013567ffffffffffffffff811115611d7f57600080fd5b611d8b85828601611b9e565b925050602083013567ffffffffffffffff811115611da857600080fd5b611db485828601611b9e565b9150509250929050565b600060208284031215611dd057600080fd5b6000611dde84828501611bc8565b91505092915050565b6000611df38383611e13565b60208301905092915050565b6000611e0b8383612077565b905092915050565b611e1c8161253d565b82525050565b611e2b8161253d565b82525050565b611e42611e3d8261253d565b6126d3565b82525050565b6000611e5382612403565b611e5d818561243e565b9350611e68836123e3565b8060005b83811015611e99578151611e808882611de7565b9750611e8b83612424565b925050600181019050611e6c565b5085935050505092915050565b6000611eb18261240e565b611ebb818561244f565b935083602082028501611ecd856123f3565b8060005b85811015611f095784840389528151611eea8582611dff565b9450611ef583612431565b925060208a01995050600181019050611ed1565b50829750879550505050505092915050565b611f248161254f565b82525050565b611f338161254f565b82525050565b611f428161255b565b82525050565b6000611f5382612419565b611f5d8185612460565b9350611f6d8185602086016125ca565b611f768161278e565b840191505092915050565b6000611f8c82612419565b611f968185612471565b9350611fa68185602086016125ca565b611faf8161278e565b840191505092915050565b6000611fc582612419565b611fcf8185612482565b9350611fdf8185602086016125ca565b80840191505092915050565b6000611ff8602083612471565b9150612003826127ac565b602082019050919050565b600061201b601783612482565b9150612026826127d5565b601782019050919050565b600061203e601183612482565b9150612049826127fe565b601182019050919050565b6000612061602f83612471565b915061206c82612827565b604082019050919050565b600060808301600083015161208f60008601826120e1565b50602083015184820360208601526120a78282611f48565b915050604083015184820360408601526120c18282611f48565b91505060608301516120d66060860182611f1b565b508091505092915050565b6120ea816125b1565b82525050565b6120f9816125b1565b82525050565b61211061210b826125b1565b6126f7565b82525050565b60006121228285611e31565b60148201915061213282846120ff565b6020820191508190509392505050565b600061214d8261200e565b91506121598285611fba565b915061216482612031565b91506121708284611fba565b91508190509392505050565b60006020820190506121916000830184611e22565b92915050565b60006060820190506121ac6000830186611e22565b81810360208301526121be8185611f81565b90506121cd60408301846120f0565b949350505050565b600060208201905081810360008301526121ef8184611e48565b905092915050565b600060208201905081810360008301526122118184611ea6565b905092915050565b600060208201905061222e6000830184611f2a565b92915050565b60006020820190506122496000830184611f39565b92915050565b600060208201905081810360008301526122698184611f81565b905092915050565b6000602082019050818103600083015261228a81611feb565b9050919050565b600060208201905081810360008301526122aa81612054565b9050919050565b60006020820190506122c660008301846120f0565b92915050565b60006060820190506122e160008301866120f0565b6122ee6020830185611e22565b81810360408301526123008184611f81565b9050949350505050565b600060408201905061231f60008301856120f0565b81810360208301526123318184611f81565b90509392505050565b600060808201905061234f60008301876120f0565b81810360208301526123618186611f81565b905081810360408301526123758185611f81565b90506123846060830184611f2a565b95945050505050565b60006123976123a8565b90506123a38282612659565b919050565b6000604051905090565b600067ffffffffffffffff8211156123cd576123cc61275f565b5b6123d68261278e565b9050602081019050919050565b6000819050602082019050919050565b6000819050602082019050919050565b600081519050919050565b600081519050919050565b600081519050919050565b6000602082019050919050565b6000602082019050919050565b600082825260208201905092915050565b600082825260208201905092915050565b600082825260208201905092915050565b600082825260208201905092915050565b600081905092915050565b6000612498826125b1565b91506124a3836125b1565b9250827fffffffffffffffffffffffffffffffffffffffffffffffffffffffffffffffff038211156124d8576124d7612701565b5b828201905092915050565b60006124ee826125b1565b91506124f9836125b1565b9250817fffffffffffffffffffffffffffffffffffffffffffffffffffffffffffffffff048311821515161561253257612531612701565b5b828202905092915050565b600061254882612591565b9050919050565b60008115159050919050565b6000819050919050565b60007fffffffff0000000000000000000000000000000000000000000000000000000082169050919050565b600073ffffffffffffffffffffffffffffffffffffffff82169050919050565b6000819050919050565b82818337600083830152505050565b60005b838110156125e85780820151818401526020810190506125cd565b838111156125f7576000848401525b50505050565b6000612608826125b1565b9150600082141561261c5761261b612701565b5b600182039050919050565b6000600282049050600182168061263f57607f821691505b6020821081141561265357612652612730565b5b50919050565b6126628261278e565b810181811067ffffffffffffffff821117156126815761268061275f565b5b80604052505050565b6000612695826125b1565b91507fffffffffffffffffffffffffffffffffffffffffffffffffffffffffffffffff8214156126c8576126c7612701565b5b600182019050919050565b60006126de826126e5565b9050919050565b60006126f08261279f565b9050919050565b6000819050919050565b7f4e487b7100000000000000000000000000000000000000000000000000000000600052601160045260246000fd5b7f4e487b7100000000000000000000000000000000000000000000000000000000600052602260045260246000fd5b7f4e487b7100000000000000000000000000000000000000000000000000000000600052604160045260246000fd5b6000601f19601f8301169050919050565b60008160601b9050919050565b7f537472696e67733a20686578206c656e67746820696e73756666696369656e74600082015250565b7f416363657373436f6e74726f6c3a206163636f756e7420000000000000000000600082015250565b7f206973206d697373696e6720726f6c6520000000000000000000000000000000600082015250565b7f416363657373436f6e74726f6c3a2063616e206f6e6c792072656e6f756e636560008201527f20726f6c657320666f722073656c660000000000000000000000000000000000602082015250565b61287f8161253d565b811461288a57600080fd5b50565b6128968161254f565b81146128a157600080fd5b50565b6128ad8161255b565b81146128b857600080fd5b50565b6128c481612565565b81146128cf57600080fd5b50565b6128db816125b1565b81146128e657600080fd5b5056fea2646970667358221220ae6d29527aca7f229821651896766f08540550cd6220641c57abaf98aab03fd564736f6c63430008040033a2646970667358221220a72e8695dc75f0d24087339af2d780edc173af088f961260a4fa734373c452e764736f6c63430008040033",
  "linkReferences": {},
  "deployedLinkReferences": {}
}