{
  "_format": "hh-sol-artifact-1",
  "contractName": "RepositoryFactory",
  "sourceName": "contracts/RepositoryFactory.sol",
  "abi": [
    {
      "anonymous": false,
      "inputs": [
        {
          "indexed": false,
          "internalType": "string",
          "name": "name",
          "type": "string"
        },
        {
          "indexed": false,
          "internalType": "uint256",
          "name": "createdAt",
          "type": "uint256"
        },
        {
          "indexed": false,
          "internalType": "address",
          "name": "owner",
          "type": "address"
        },
        {
          "indexed": false,
          "internalType": "contract Repository",
          "name": "repository",
          "type": "address"
        }
      ],
      "name": "NewRepositorySet",
      "type": "event"
    },
    {
      "anonymous": false,
      "inputs": [
        {
          "indexed": true,
          "internalType": "address",
          "name": "repository",
          "type": "address"
        },
        {
          "indexed": true,
          "internalType": "address",
          "name": "reviewer",
          "type": "address"
        },
        {
          "indexed": false,
          "internalType": "uint256",
          "name": "reviewerSkillLevel",
          "type": "uint256"
        },
        {
          "indexed": false,
          "internalType": "string",
          "name": "contentIdentifier",
          "type": "string"
        },
        {
          "indexed": false,
          "internalType": "uint256",
          "name": "rating",
          "type": "uint256"
        }
      ],
      "name": "ReviewAdded",
      "type": "event"
    },
    {
      "inputs": [
        {
          "internalType": "address",
          "name": "user",
          "type": "address"
        },
        {
          "internalType": "contract Repository",
          "name": "repository",
          "type": "address"
        }
      ],
      "name": "addRepositoryToUser",
      "outputs": [],
      "stateMutability": "nonpayable",
      "type": "function"
    },
    {
      "inputs": [
        {
          "internalType": "address",
          "name": "user",
          "type": "address"
        }
      ],
      "name": "addUser",
      "outputs": [],
      "stateMutability": "nonpayable",
      "type": "function"
    },
    {
      "inputs": [
        {
          "internalType": "string",
          "name": "_name",
          "type": "string"
        },
        {
          "internalType": "string",
          "name": "_description",
          "type": "string"
        }
      ],
      "name": "createRepositoryContract",
      "outputs": [],
      "stateMutability": "nonpayable",
      "type": "function"
    },
    {
      "inputs": [
        {
          "internalType": "address",
          "name": "_repository",
          "type": "address"
        },
        {
          "internalType": "string",
          "name": "_contentIdentifier",
          "type": "string"
        },
        {
          "internalType": "uint256",
          "name": "_rating",
          "type": "uint256"
        },
        {
          "internalType": "uint256",
          "name": "_reviewerSkillLevel",
          "type": "uint256"
        },
        {
          "internalType": "uint256",
          "name": "_milestoneId",
          "type": "uint256"
        }
      ],
      "name": "createReview",
      "outputs": [],
      "stateMutability": "nonpayable",
      "type": "function"
    },
    {
      "inputs": [],
      "name": "getAllRepositories",
      "outputs": [
        {
          "internalType": "contract Repository[]",
          "name": "",
          "type": "address[]"
        }
      ],
      "stateMutability": "view",
      "type": "function"
    },
    {
      "inputs": [
        {
          "internalType": "address",
          "name": "_repository",
          "type": "address"
        }
      ],
      "name": "getRepositoryReviews",
      "outputs": [
        {
          "components": [
            {
              "internalType": "address",
              "name": "repository",
              "type": "address"
            },
            {
              "internalType": "address",
              "name": "reviewer",
              "type": "address"
            },
            {
              "internalType": "uint256",
              "name": "reviewerSkillLevel",
              "type": "uint256"
            },
            {
              "internalType": "string",
              "name": "contentIdentifier",
              "type": "string"
            },
            {
              "internalType": "uint256",
              "name": "rating",
              "type": "uint256"
            },
            {
              "internalType": "uint256",
              "name": "milestoneId",
              "type": "uint256"
            }
          ],
          "internalType": "struct RepositoryFactory.Review[]",
          "name": "repositoryReviews",
          "type": "tuple[]"
        }
      ],
      "stateMutability": "view",
      "type": "function"
    },
    {
      "inputs": [
        {
          "internalType": "address",
          "name": "_repository",
          "type": "address"
        }
      ],
      "name": "getRepositoryReviewsLength",
      "outputs": [
        {
          "internalType": "uint256",
          "name": "",
          "type": "uint256"
        }
      ],
      "stateMutability": "view",
      "type": "function"
    },
    {
      "inputs": [],
      "name": "getReviewableRepositories",
      "outputs": [
        {
          "internalType": "contract Repository[]",
          "name": "reviewableRepository",
          "type": "address[]"
        }
      ],
      "stateMutability": "view",
      "type": "function"
    },
    {
      "inputs": [
        {
          "internalType": "address",
          "name": "user",
          "type": "address"
        }
      ],
      "name": "getUserRepos",
      "outputs": [
        {
          "internalType": "contract Repository[]",
          "name": "",
          "type": "address[]"
        }
      ],
      "stateMutability": "view",
      "type": "function"
    },
    {
      "inputs": [
        {
          "internalType": "address",
          "name": "user",
          "type": "address"
        }
      ],
      "name": "getUserReviewScore",
      "outputs": [
        {
          "internalType": "uint256",
          "name": "",
          "type": "uint256"
        }
      ],
      "stateMutability": "view",
      "type": "function"
    },
    {
      "inputs": [],
      "name": "getUsers",
      "outputs": [
        {
          "internalType": "address[]",
          "name": "",
          "type": "address[]"
        }
      ],
      "stateMutability": "view",
      "type": "function"
    },
    {
      "inputs": [
        {
          "internalType": "address",
          "name": "user",
          "type": "address"
        }
      ],
      "name": "isAlreadyUser",
      "outputs": [
        {
          "internalType": "bool",
          "name": "",
          "type": "bool"
        }
      ],
      "stateMutability": "view",
      "type": "function"
    },
    {
      "inputs": [
        {
          "internalType": "uint256",
          "name": "",
          "type": "uint256"
        }
      ],
      "name": "repositories",
      "outputs": [
        {
          "internalType": "contract Repository",
          "name": "",
          "type": "address"
        }
      ],
      "stateMutability": "view",
      "type": "function"
    },
    {
      "inputs": [
        {
          "internalType": "uint256",
          "name": "",
          "type": "uint256"
        }
      ],
      "name": "reviews",
      "outputs": [
        {
          "internalType": "address",
          "name": "repository",
          "type": "address"
        },
        {
          "internalType": "address",
          "name": "reviewer",
          "type": "address"
        },
        {
          "internalType": "uint256",
          "name": "reviewerSkillLevel",
          "type": "uint256"
        },
        {
          "internalType": "string",
          "name": "contentIdentifier",
          "type": "string"
        },
        {
          "internalType": "uint256",
          "name": "rating",
          "type": "uint256"
        },
        {
          "internalType": "uint256",
          "name": "milestoneId",
          "type": "uint256"
        }
      ],
      "stateMutability": "view",
      "type": "function"
    },
    {
      "inputs": [],
      "name": "userCounter",
      "outputs": [
        {
          "internalType": "uint256",
          "name": "",
          "type": "uint256"
        }
      ],
      "stateMutability": "view",
      "type": "function"
    },
    {
      "inputs": [
        {
          "internalType": "uint256",
          "name": "",
          "type": "uint256"
        }
      ],
      "name": "users",
      "outputs": [
        {
          "internalType": "address",
          "name": "",
          "type": "address"
        }
      ],
      "stateMutability": "view",
      "type": "function"
    }
  ],
  "bytecode": "0x608060405234801561001057600080fd5b5061492f806100206000396000f3fe60806040523480156200001157600080fd5b5060043610620001145760003560e01c806384d0171211620000a3578063e83ddcea116200006e578063e83ddcea14620002b8578063e93f8e0014620002e3578063f0c37a5914620002fa578063f4b9cdcf146200030457600080fd5b806384d0171214620002275780639f468e8e1462000262578063a44ceba0146200028a578063e683c97b14620002a157600080fd5b80634e98144f11620000e45780634e98144f14620001aa5780637665270914620001b4578063772d52e714620001cb5780637fcc83be146200021d57600080fd5b8062ce8e3e14620001195780632f3e03a8146200013b578063365b98b21462000161578063421b2d8b1462000191575b600080fd5b6200012362000330565b6040516200013291906200149f565b60405180910390f35b620001526200014c36600462001293565b62000394565b604051620001329190620014ee565b6200017862000172366004620013ef565b62000626565b6040516001600160a01b03909116815260200162000132565b620001a8620001a236600462001293565b62000651565b005b62000123620006ca565b62000178620001c5366004620013ef565b62000957565b620001a8620001dc366004620012b9565b6001600160a01b0391821660009081526005602090815260408220600190810180549182018155835291200180546001600160a01b03191691909216179055565b6200012362000968565b620002536200023836600462001293565b6001600160a01b031660009081526003602052604090205490565b60405190815260200162000132565b620002796200027336600462001293565b620009ca565b604051901515815260200162000132565b620001a86200029b36600462001387565b620009f8565b620001a8620002b2366004620012f6565b62000b8c565b620002cf620002c9366004620013ef565b62000fec565b604051620001329695949392919062001456565b62000123620002f436600462001293565b620010d5565b6200025360015481565b620002536200031536600462001293565b6001600160a01b031660009081526004602052604090205490565b606060068054806020026020016040519081016040528092919081815260200182805480156200038a57602002820191906000526020600020905b81546001600160a01b031681526001909101906020018083116200036b575b5050505050905090565b6001600160a01b0381166000908152600360205260408120546060919067ffffffffffffffff811115620003d857634e487b7160e01b600052604160045260246000fd5b6040519080825280602002602001820160405280156200045757816020015b620004436040518060c0016040528060006001600160a01b0316815260200160006001600160a01b03168152602001600081526020016060815260200160008152602001600081525090565b815260200190600190039081620003f75790505b50905060005b6001600160a01b0384166000908152600360205260409020548110156200061f576001600160a01b038416600090815260036020526040902080546007919083908110620004bb57634e487b7160e01b600052603260045260246000fd5b906000526020600020015481548110620004e557634e487b7160e01b600052603260045260246000fd5b60009182526020918290206040805160c081018252600690930290910180546001600160a01b03908116845260018201541693830193909352600283015490820152600382018054919291606084019190620005419062001661565b80601f01602080910402602001604051908101604052809291908181526020018280546200056f9062001661565b8015620005c05780601f106200059457610100808354040283529160200191620005c0565b820191906000526020600020905b815481529060010190602001808311620005a257829003601f168201915b5050505050815260200160048201548152602001600582015481525050828281518110620005fe57634e487b7160e01b600052603260045260246000fd5b6020026020010181905250808062000616906200169e565b9150506200045d565b5092915050565b600681815481106200063757600080fd5b6000918252602090912001546001600160a01b0316905081565b6001805490600062000663836200169e565b9091555050600180546001600160a01b039092166000818152600560205260408120939093556006805492830181559092527ff652222313e28459528d920b65115c16c04f3efc82aaedc97be59f3f377c0d3f0180546001600160a01b0319169091179055565b60606000805b600054811015620007ad5760008181548110620006fd57634e487b7160e01b600052603260045260246000fd5b600091825260209182902001546040805163675dd99f60e11b815290516001600160a01b039092169263cebbb33e92600480840193829003018186803b1580156200074757600080fd5b505afa1580156200075c573d6000803e3d6000fd5b505050506040513d601f19601f8201168201806040525081019062000782919062001365565b1562000798578162000794816200169e565b9250505b80620007a4816200169e565b915050620006d0565b5060008167ffffffffffffffff811115620007d857634e487b7160e01b600052604160045260246000fd5b60405190808252806020026020018201604052801562000802578160200160208202803683370190505b50905060005b6000548110156200061f57600081815481106200083557634e487b7160e01b600052603260045260246000fd5b600091825260209182902001546040805163675dd99f60e11b815290516001600160a01b039092169263cebbb33e92600480840193829003018186803b1580156200087f57600080fd5b505afa15801562000894573d6000803e3d6000fd5b505050506040513d601f19601f82011682018060405250810190620008ba919062001365565b15620009425760008181548110620008e257634e487b7160e01b600052603260045260246000fd5b9060005260206000200160009054906101000a90046001600160a01b03168282815181106200092157634e487b7160e01b600052603260045260246000fd5b60200260200101906001600160a01b031690816001600160a01b0316815250505b806200094e816200169e565b91505062000808565b600081815481106200063757600080fd5b606060008054806020026020016040519081016040528092919081815260200182805480156200038a576020028201919060005260206000209081546001600160a01b031681526001909101906020018083116200036b575050505050905090565b6001600160a01b038116600090815260056020526040812054620009f057506000919050565b506001919050565b3360009081526005602052604090205462000a7d576001805490600062000a1f836200169e565b909155505060018054336000818152600560205260408120929092556006805493840181559091527ff652222313e28459528d920b65115c16c04f3efc82aaedc97be59f3f377c0d3f90910180546001600160a01b03191690911790555b600082823360405162000a909062001150565b62000a9e939291906200159e565b604051809103906000f08015801562000abb573d6000803e3d6000fd5b5060008054600181810183557f290decd9548b62a8d60345a988386fc84ba6bc95484008f6362f93160ef3e56390910180546001600160a01b0385166001600160a01b03199182168117909255818452600260209081526040808620805484168517905533808752600583528187208601805496870181558752919095209093018054909116909117905590519192507ff08a9e6a1811719026640608fa9b51435c1774014de0f8b5092b072c120205169162000b7f9186914291908690620015e1565b60405180910390a1505050565b6001600160a01b0380861660009081526002602090815260409182902054825163675dd99f60e11b8152925193169263cebbb33e926004808201939291829003018186803b15801562000bde57600080fd5b505afa15801562000bf3573d6000803e3d6000fd5b505050506040513d601f19601f8201168201806040525081019062000c19919062001365565b1515600114801562000cd457506001600160a01b03858116600090815260026020526040908190205490517f81672b4f000000000000000000000000000000000000000000000000000000008152600481018490529116906381672b4f9060240160206040518083038186803b15801562000c9357600080fd5b505afa15801562000ca8573d6000803e3d6000fd5b505050506040513d601f19601f8201168201806040525081019062000cce919062001365565b15156001145b1562000114573360009081526005602052604090205462000d5f576001805490600062000d01836200169e565b909155505060018054336000818152600560205260408120929092556006805493840181559091527ff652222313e28459528d920b65115c16c04f3efc82aaedc97be59f3f377c0d3f90910180546001600160a01b03191690911790555b6040805160c0810182526001600160a01b038088168252336020808401918252938301868152606084018981526080850189905260a0850187905260078054600181018255600091909152855160069091027fa66cc928b5edb82af9bd49922954155ab7b0942694bea4ce44661d9a8736c688810180549287166001600160a01b031993841617815594517fa66cc928b5edb82af9bd49922954155ab7b0942694bea4ce44661d9a8736c689820180549190971692169190911790945590517fa66cc928b5edb82af9bd49922954155ab7b0942694bea4ce44661d9a8736c68a84015551805193948594929362000e7f937fa66cc928b5edb82af9bd49922954155ab7b0942694bea4ce44661d9a8736c68b90910192909101906200115e565b506080820151600482015560a0909101516005909101556001600160a01b038616600090815260036020526040902060075462000ebf9060019062001647565b8154600181810184556000938452602080852090920192909255338352600490526040909120600754909162000ef59162001647565b815460018101835560009283526020808420909101919091556001600160a01b03888116835260029091526040918290205491517f43d598c2000000000000000000000000000000000000000000000000000000008152600481018590529116906343d598c290602401600060405180830381600087803b15801562000f7a57600080fd5b505af115801562000f8f573d6000803e3d6000fd5b50505050336001600160a01b0316866001600160a01b03167f73752c74877f26c371c119996bda7eac39a2063adea3cd7c6f1613853c4cb6ec85888860405162000fdc939291906200161c565b60405180910390a3505050505050565b6007818154811062000ffd57600080fd5b600091825260209091206006909102018054600182015460028301546003840180546001600160a01b039485169650929093169390929091620010409062001661565b80601f01602080910402602001604051908101604052809291908181526020018280546200106e9062001661565b8015620010bf5780601f106200109357610100808354040283529160200191620010bf565b820191906000526020600020905b815481529060010190602001808311620010a157829003601f168201915b5050505050908060040154908060050154905086565b6001600160a01b0381166000908152600560209081526040918290206001018054835181840281018401909452808452606093928301828280156200114457602002820191906000526020600020905b81546001600160a01b0316815260019091019060200180831162001125575b50505050509050919050565b6131f8806200170283390190565b8280546200116c9062001661565b90600052602060002090601f016020900481019282620011905760008555620011db565b82601f10620011ab57805160ff1916838001178555620011db565b82800160010185558215620011db579182015b82811115620011db578251825591602001919060010190620011be565b50620011e9929150620011ed565b5090565b5b80821115620011e95760008155600101620011ee565b600082601f83011262001215578081fd5b813567ffffffffffffffff80821115620012335762001233620016d2565b604051601f8301601f19908116603f011681019082821181831017156200125e576200125e620016d2565b8160405283815286602085880101111562001277578485fd5b8360208701602083013792830160200193909352509392505050565b600060208284031215620012a5578081fd5b8135620012b281620016e8565b9392505050565b60008060408385031215620012cc578081fd5b8235620012d981620016e8565b91506020830135620012eb81620016e8565b809150509250929050565b600080600080600060a086880312156200130e578081fd5b85356200131b81620016e8565b9450602086013567ffffffffffffffff81111562001337578182fd5b620013458882890162001204565b959895975050505060408401359360608101359360809091013592509050565b60006020828403121562001377578081fd5b81518015158114620012b2578182fd5b600080604083850312156200139a578182fd5b823567ffffffffffffffff80821115620013b2578384fd5b620013c08683870162001204565b93506020850135915080821115620013d6578283fd5b50620013e58582860162001204565b9150509250929050565b60006020828403121562001401578081fd5b5035919050565b60008151808452815b818110156200142f5760208185018101518683018201520162001411565b81811115620014415782602083870101525b50601f01601f19169290920160200192915050565b60006001600160a01b03808916835280881660208401525085604083015260c060608301526200148a60c083018662001408565b60808301949094525060a00152949350505050565b6020808252825182820181905260009190848201906040850190845b81811015620014e25783516001600160a01b031683529284019291840191600101620014bb565b50909695505050505050565b60006020808301818452808551808352604092508286019150828160051b870101848801865b838110156200159057603f19898403018552815160c06001600160a01b03808351168652808a840151168a8701525087820151888601526060808301518282880152620015648388018262001408565b6080858101519089015260a0948501519490970193909352505050938601939086019060010162001514565b509098975050505050505050565b606081526000620015b3606083018662001408565b8281036020840152620015c7818662001408565b9150506001600160a01b0383166040830152949350505050565b608081526000620015f6608083018762001408565b6020830195909552506001600160a01b0392831660408201529116606090910152919050565b83815260606020820152600062001637606083018562001408565b9050826040830152949350505050565b6000828210156200165c576200165c620016bc565b500390565b600181811c908216806200167657607f821691505b602082108114156200169857634e487b7160e01b600052602260045260246000fd5b50919050565b6000600019821415620016b557620016b5620016bc565b5060010190565b634e487b7160e01b600052601160045260246000fd5b634e487b7160e01b600052604160045260246000fd5b6001600160a01b0381168114620016fe57600080fd5b5056fe60806040523480156200001157600080fd5b50604051620031f8380380620031f8833981016040819052620000349162000695565b62000041600033620001cf565b60006001819055620000549082620001cf565b620000807fe2889e7308860b3fe8df0daa86fccfea4d71e43776719a57be28cf90b6db81e98262000270565b604080518082018252600581526427bbb732b960d91b60208083019182526001600160a01b03851660009081526002909152929092209051620000ca926001909201919062000560565b50600180546001600160a01b038316600081815260026020908152604082209390935560038054948501815590527fc2575a0e9e593c00f959f8c92f12db2869c3395a3b0502d05e2516446f71f85b90920180546001600160a01b031916909217909155835162000142916005919086019062000560565b5042600655600780546001600160a01b0319166001600160a01b03831617905581516200017790600890602085019062000560565b506006546007546040517f4d6e9c5367e86c0906b04a7d25d3d0cb37439bccaffbee2cdce979ae88c3fa0692620001be9287926001600160a01b03909116908790620007da565b60405180910390a150505062000917565b6000828152602081815260408083206001600160a01b038516845290915290205460ff166200026c576000828152602081815260408083206001600160a01b03851684529091529020805460ff191660011790556200022b3390565b6001600160a01b0316816001600160a01b0316837f2f8788117e7eff1d82e926ec794901d17c78024a50270940304540a733656f0d60405160405180910390a45b5050565b6000828152602081905260409020600101546200028d816200029e565b620002998383620001cf565b505050565b620002aa8133620002ad565b50565b6000828152602081815260408083206001600160a01b038516845290915290205460ff166200026c57620002ec816200034660201b62001ccb1760201c565b6200030283602062001cdd62000364821b17811c565b604051602001620003159291906200074c565b60408051601f198184030181529082905262461bcd60e51b82526200033d91600401620007c5565b60405180910390fd5b60606200035e6001600160a01b038316601462000364565b92915050565b60606000620003758360026200083f565b6200038290600262000824565b6001600160401b03811115620003a857634e487b7160e01b600052604160045260246000fd5b6040519080825280601f01601f191660200182016040528015620003d3576020820181803683370190505b509050600360fc1b81600081518110620003fd57634e487b7160e01b600052603260045260246000fd5b60200101906001600160f81b031916908160001a905350600f60fb1b816001815181106200043b57634e487b7160e01b600052603260045260246000fd5b60200101906001600160f81b031916908160001a9053506000620004618460026200083f565b6200046e90600162000824565b90505b600181111562000508576f181899199a1a9b1b9c1cb0b131b232b360811b85600f1660108110620004b257634e487b7160e01b600052603260045260246000fd5b1a60f81b828281518110620004d757634e487b7160e01b600052603260045260246000fd5b60200101906001600160f81b031916908160001a90535060049490941c93620005008162000894565b905062000471565b508315620005595760405162461bcd60e51b815260206004820181905260248201527f537472696e67733a20686578206c656e67746820696e73756666696369656e7460448201526064016200033d565b9392505050565b8280546200056e90620008ae565b90600052602060002090601f016020900481019282620005925760008555620005dd565b82601f10620005ad57805160ff1916838001178555620005dd565b82800160010185558215620005dd579182015b82811115620005dd578251825591602001919060010190620005c0565b50620005eb929150620005ef565b5090565b5b80821115620005eb5760008155600101620005f0565b600082601f83011262000617578081fd5b81516001600160401b038082111562000634576200063462000901565b604051601f8301601f19908116603f011681019082821181831017156200065f576200065f62000901565b8160405283815286602085880101111562000678578485fd5b6200068b84602083016020890162000861565b9695505050505050565b600080600060608486031215620006aa578283fd5b83516001600160401b0380821115620006c1578485fd5b620006cf8783880162000606565b94506020860151915080821115620006e5578384fd5b50620006f48682870162000606565b604086015190935090506001600160a01b038116811462000713578182fd5b809150509250925092565b600081518084526200073881602086016020860162000861565b601f01601f19169290920160200192915050565b7f416363657373436f6e74726f6c3a206163636f756e74200000000000000000008152600083516200078681601785016020880162000861565b7001034b99036b4b9b9b4b733903937b6329607d1b6017918401918201528351620007b981602884016020880162000861565b01602801949350505050565b6020815260006200055960208301846200071e565b608081526000620007ef60808301876200071e565b602083018690526001600160a01b038516604084015282810360608401526200081981856200071e565b979650505050505050565b600082198211156200083a576200083a620008eb565b500190565b60008160001904831182151516156200085c576200085c620008eb565b500290565b60005b838110156200087e57818101518382015260200162000864565b838111156200088e576000848401525b50505050565b600081620008a657620008a6620008eb565b506000190190565b600181811c90821680620008c357607f821691505b60208210811415620008e557634e487b7160e01b600052602260045260246000fd5b50919050565b634e487b7160e01b600052601160045260246000fd5b634e487b7160e01b600052604160045260246000fd5b6128d180620009276000396000f3fe608060405234801561001057600080fd5b50600436106102775760003560e01c80637ca8f61811610160578063cebbb33e116100d8578063e89e4ed61161008c578063f326206b11610071578063f326206b1461057b578063fde40cb61461058e578063fe2dfdab146105b157600080fd5b8063e89e4ed61461052e578063eafb79e21461055457600080fd5b8063d0a65fa0116100bd578063d0a65fa014610500578063d547741f14610508578063d72371541461051b57600080fd5b8063cebbb33e146104ea578063cf09e0d0146104f757600080fd5b80639974d85f1161012f578063a217fddf11610114578063a217fddf146104c4578063a8defe52146104cc578063af157c19146104d557600080fd5b80639974d85f1461049e5780639aaf9f08146104b157600080fd5b80637ca8f6181461042e57806381672b4f146104415780638da5cb5b1461045457806391d148541461046757600080fd5b80633cb5d100116101f357806358975919116101c25780635d0eaaaf116101a75780635d0eaaaf146103f25780636c273d34146104135780637284e4161461042657600080fd5b806358975919146103d45780635c43dd99146103dd57600080fd5b80633cb5d100146103635780633d8270f51461038e57806343d598c2146103ae5780634fde9197146103c157600080fd5b806321f0ef8e1161024a578063248a9ca31161022f578063248a9ca31461030c5780632f2ff15d1461033d57806336568abe1461035057600080fd5b806321f0ef8e146102f1578063227616a41461030457600080fd5b806301ffc9a71461027c578063042f2de0146102a457806306fdde03146102c75780630e6d1de9146102dc575b600080fd5b61028f61028a3660046122c2565b6105c6565b60405190151581526020015b60405180910390f35b6102c56102b2366004612247565b6009805460ff1916911515919091179055565b005b6102cf61065f565b60405161029b9190612606565b6102e46106ed565b60405161029b9190612646565b6102c56102ff3660046121fb565b6108c1565b61028f6108db565b61032f61031a36600461227f565b60009081526020819052604090206001015490565b60405190815260200161029b565b6102c561034b366004612297565b610976565b6102c561035e366004612297565b61099b565b61037661037136600461227f565b610a2c565b6040516001600160a01b03909116815260200161029b565b6103a161039c3660046121e1565b610a56565b60405161029b9190612619565b6102c56103bc36600461227f565b610b30565b6102c56103cf366004612302565b610c57565b61032f60015481565b6103e5610d97565b60405161029b9190612548565b6104056104003660046121e1565b610f54565b60405161029b9291906126ea565b6102c5610421366004612359565b610ff9565b6102cf6111a0565b61032f61043c36600461227f565b6111ad565b61028f61044f36600461227f565b6111ce565b600754610376906001600160a01b031681565b61028f610475366004612297565b6000918252602082815260408084206001600160a01b0393909316845291905290205460ff1690565b6102c56104ac3660046121e1565b61123e565b6102e46104bf36600461227f565b6112d9565b61032f600081565b61032f60045481565b6104dd6113e9565b60405161029b91906124c3565b60095461028f9060ff1681565b61032f60065481565b6103e561144b565b6102c5610516366004612297565b6117ef565b6102c56105293660046121fb565b611814565b61054161053c36600461227f565b6118f7565b60405161029b9796959493929190612722565b61032f7fe2889e7308860b3fe8df0daa86fccfea4d71e43776719a57be28cf90b6db81e981565b6102c56105893660046123c3565b611a5c565b6105a161059c36600461227f565b611b31565b60405161029b94939291906126a5565b6105b9611c74565b60405161029b9190612510565b60007fffffffff0000000000000000000000000000000000000000000000000000000082167f7965db0b00000000000000000000000000000000000000000000000000000000148061065957507f01ffc9a7000000000000000000000000000000000000000000000000000000007fffffffff000000000000000000000000000000000000000000000000000000008316145b92915050565b6005805461066c9061280b565b80601f01602080910402602001604051908101604052809291908181526020018280546106989061280b565b80156106e55780601f106106ba576101008083540402835291602001916106e5565b820191906000526020600020905b8154815290600101906020018083116106c857829003601f168201915b505050505081565b61072160405180608001604052806000815260200160006001600160a01b0316815260200160608152602001606081525090565b600c8054600b91600091610737906001906127ad565b8154811061075557634e487b7160e01b600052603260045260246000fd5b60009182526020808320909101548352828101939093526040918201902081516080810183528154815260018201546001600160a01b03169381019390935260028101805491928401916107a89061280b565b80601f01602080910402602001604051908101604052809291908181526020018280546107d49061280b565b80156108215780601f106107f657610100808354040283529160200191610821565b820191906000526020600020905b81548152906001019060200180831161080457829003601f168201915b5050505050815260200160038201805461083a9061280b565b80601f01602080910402602001604051908101604052809291908181526020018280546108669061280b565b80156108b35780601f10610888576101008083540402835291602001916108b3565b820191906000526020600020905b81548152906001019060200180831161089657829003601f168201915b505050505081525050905090565b60006108cc81611f0b565b6108d68383611814565b505050565b6000805b600a5481101561096e57600a818154811061090a57634e487b7160e01b600052603260045260246000fd5b906000526020600020906007020160010154600a828154811061093d57634e487b7160e01b600052603260045260246000fd5b9060005260206000209060070201600001541461095c57600191505090565b8061096681612846565b9150506108df565b506000905090565b60008281526020819052604090206001015461099181611f0b565b6108d68383611f15565b6001600160a01b0381163314610a1e5760405162461bcd60e51b815260206004820152602f60248201527f416363657373436f6e74726f6c3a2063616e206f6e6c792072656e6f756e636560448201527f20726f6c657320666f722073656c66000000000000000000000000000000000060648201526084015b60405180910390fd5b610a288282611fb3565b5050565b60038181548110610a3c57600080fd5b6000918252602090912001546001600160a01b0316905081565b6040805180820190915260008152606060208201526001600160a01b0382166000908152600260209081526040918290208251808401909352805483526001810180549192840191610aa79061280b565b80601f0160208091040260200160405190810160405280929190818152602001828054610ad39061280b565b8015610b205780601f10610af557610100808354040283529160200191610b20565b820191906000526020600020905b815481529060010190602001808311610b0357829003601f168201915b5050505050815250509050919050565b600a8181548110610b5157634e487b7160e01b600052603260045260246000fd5b600091825260208220600160079092020101805491610b6f83612846565b9190505550306001600160a01b031663227616a46040518163ffffffff1660e01b815260040160206040518083038186803b158015610bad57600080fd5b505afa158015610bc1573d6000803e3d6000fd5b505050506040513d601f19601f82011682018060405250810190610be59190612263565b610c54576040517f042f2de000000000000000000000000000000000000000000000000000000000815260006004820152309063042f2de090602401600060405180830381600087803b158015610c3b57600080fd5b505af1158015610c4f573d6000803e3d6000fd5b505050505b50565b7fe2889e7308860b3fe8df0daa86fccfea4d71e43776719a57be28cf90b6db81e9610c8181611f0b565b6040516bffffffffffffffffffffffff193360601b16602082015242603482015260009060540160408051601f1981840301815291815281516020928301206000818152600b84529190912042815560018101805473ffffffffffffffffffffffffffffffffffffffff191633179055865191935091610d089160028401918801906120a5565b508351610d1e90600383019060208701906120a5565b50600c80546001810182556000919091527fdf6966c971051c3d54ec59162606531493a51404a002842f56009d7e5cf4a8c7018290556040517ffefd27dee2120343aa0af195ac635be85abe526658ec8ce87dd5b8820241b2ce90610d8890339088904290612491565b60405180910390a15050505050565b6060600a805480602002602001604051908101604052809291908181526020016000905b82821015610f4b57838290600052602060002090600702016040518060e001604052908160008201548152602001600182015481526020016002820154815260200160038201548152602001600482018054610e169061280b565b80601f0160208091040260200160405190810160405280929190818152602001828054610e429061280b565b8015610e8f5780601f10610e6457610100808354040283529160200191610e8f565b820191906000526020600020905b815481529060010190602001808311610e7257829003601f168201915b50505050508152602001600582018054610ea89061280b565b80601f0160208091040260200160405190810160405280929190818152602001828054610ed49061280b565b8015610f215780601f10610ef657610100808354040283529160200191610f21565b820191906000526020600020905b815481529060010190602001808311610f0457829003601f168201915b50505091835250506006919091015460ff1615156020918201529082526001929092019101610dbb565b50505050905090565b60026020526000908152604090208054600182018054919291610f769061280b565b80601f0160208091040260200160405190810160405280929190818152602001828054610fa29061280b565b8015610fef5780601f10610fc457610100808354040283529160200191610fef565b820191906000526020600020905b815481529060010190602001808311610fd257829003601f168201915b5050505050905082565b600061100481611f0b565b6040805160e08101825260008082526020808301828152600a8054958501868152606086018b8152608087018b815260a088018b905260c0880187905260018901845592909552855160079097027fc65a7bb8d6351c1cf70c95a316cc6a92839c986682d98bc35f958f4883f9d2a8810197885592517fc65a7bb8d6351c1cf70c95a316cc6a92839c986682d98bc35f958f4883f9d2a9840155517fc65a7bb8d6351c1cf70c95a316cc6a92839c986682d98bc35f958f4883f9d2aa83015592517fc65a7bb8d6351c1cf70c95a316cc6a92839c986682d98bc35f958f4883f9d2ab82015591518051939485949093611123937fc65a7bb8d6351c1cf70c95a316cc6a92839c986682d98bc35f958f4883f9d2ac9091019201906120a5565b5060a0820151805161113f9160058401916020909101906120a5565b5060c091909101516006909101805460ff19169115159190911790556040818101516060830151608084015160a085015193517f82e42fbf8220b2498426e7be499eb02e405b6d697cac3dadb31c689cde1409c994610d8894939291612703565b6008805461066c9061280b565b600c81815481106111bd57600080fd5b600091825260209091200154905081565b6000600a82815481106111f157634e487b7160e01b600052603260045260246000fd5b906000526020600020906007020160010154600a838154811061122457634e487b7160e01b600052603260045260246000fd5b906000526020600020906007020160000154119050919050565b600061124981611f0b565b6112737fe2889e7308860b3fe8df0daa86fccfea4d71e43776719a57be28cf90b6db81e9836117ef565b6001600160a01b0382166000908152600260205260409020546003805490919081106112af57634e487b7160e01b600052603260045260246000fd5b6000918252602090912001805473ffffffffffffffffffffffffffffffffffffffff191690555050565b61130d60405180608001604052806000815260200160006001600160a01b0316815260200160608152602001606081525090565b6000828152600b602090815260409182902082516080810184528154815260018201546001600160a01b03169281019290925260028101805492939192918401916113579061280b565b80601f01602080910402602001604051908101604052809291908181526020018280546113839061280b565b80156113d05780601f106113a5576101008083540402835291602001916113d0565b820191906000526020600020905b8154815290600101906020018083116113b357829003601f168201915b50505050508152602001600382018054610aa79061280b565b6060600380548060200260200160405190810160405280929190818152602001828054801561144157602002820191906000526020600020905b81546001600160a01b03168152600190910190602001808311611423575b5050505050905090565b60606000805b600a548110156114e757600a818154811061147c57634e487b7160e01b600052603260045260246000fd5b906000526020600020906007020160000154600a82815481106114af57634e487b7160e01b600052603260045260246000fd5b90600052602060002090600702016001015410156114d557816114d181612846565b9250505b806114df81612846565b915050611451565b5060008167ffffffffffffffff81111561151157634e487b7160e01b600052604160045260246000fd5b60405190808252806020026020018201604052801561158457816020015b6115716040518060e001604052806000815260200160008152602001600081526020016000815260200160608152602001606081526020016000151581525090565b81526020019060019003908161152f5790505b5090506000805b600a548110156117e657600a81815481106115b657634e487b7160e01b600052603260045260246000fd5b906000526020600020906007020160000154600a82815481106115e957634e487b7160e01b600052603260045260246000fd5b90600052602060002090600702016001015410156117d457600a818154811061162257634e487b7160e01b600052603260045260246000fd5b90600052602060002090600702016040518060e0016040529081600082015481526020016001820154815260200160028201548152602001600382015481526020016004820180546116739061280b565b80601f016020809104026020016040519081016040528092919081815260200182805461169f9061280b565b80156116ec5780601f106116c1576101008083540402835291602001916116ec565b820191906000526020600020905b8154815290600101906020018083116116cf57829003601f168201915b505050505081526020016005820180546117059061280b565b80601f01602080910402602001604051908101604052809291908181526020018280546117319061280b565b801561177e5780601f106117535761010080835404028352916020019161177e565b820191906000526020600020905b81548152906001019060200180831161176157829003601f168201915b50505091835250506006919091015460ff16151560209091015283518490849081106117ba57634e487b7160e01b600052603260045260246000fd5b602002602001018190525081806117d090612846565b9250505b806117de81612846565b91505061158b565b50909392505050565b60008281526020819052604090206001015461180a81611f0b565b6108d68383611fb3565b600061181f81611f0b565b6118497fe2889e7308860b3fe8df0daa86fccfea4d71e43776719a57be28cf90b6db81e984610976565b6001805490600061185983612846565b9091555050600180546001600160a01b03851660009081526002602090815260409091209182558451611894939290920191908501906120a5565b5050600380546001810182556000919091527fc2575a0e9e593c00f959f8c92f12db2869c3395a3b0502d05e2516446f71f85b01805473ffffffffffffffffffffffffffffffffffffffff19166001600160a01b03939093169290921790915550565b600a818154811061190757600080fd5b90600052602060002090600702016000915090508060000154908060010154908060020154908060030154908060040180546119429061280b565b80601f016020809104026020016040519081016040528092919081815260200182805461196e9061280b565b80156119bb5780601f10611990576101008083540402835291602001916119bb565b820191906000526020600020905b81548152906001019060200180831161199e57829003601f168201915b5050505050908060050180546119d09061280b565b80601f01602080910402602001604051908101604052809291908181526020018280546119fc9061280b565b8015611a495780601f10611a1e57610100808354040283529160200191611a49565b820191906000526020600020905b815481529060010190602001808311611a2c57829003601f168201915b5050506006909301549192505060ff1687565b6000611a6781611f0b565b6001600a8481548110611a8a57634e487b7160e01b600052603260045260246000fd5b60009182526020909120600790910201600601805460ff19169115159190911790558115611af35781600a8481548110611ad457634e487b7160e01b600052603260045260246000fd5b60009182526020909120600790910201556009805460ff191660011790555b60408051848152602081018490527f1b7218c0ac23ea9cbe4df603d2b340fbf469a115b73ea3d11460727f445d6be1910160405180910390a1505050565b600b6020526000908152604090208054600182015460028301805492936001600160a01b0390921692611b639061280b565b80601f0160208091040260200160405190810160405280929190818152602001828054611b8f9061280b565b8015611bdc5780601f10611bb157610100808354040283529160200191611bdc565b820191906000526020600020905b815481529060010190602001808311611bbf57829003601f168201915b505050505090806003018054611bf19061280b565b80601f0160208091040260200160405190810160405280929190818152602001828054611c1d9061280b565b8015611c6a5780601f10611c3f57610100808354040283529160200191611c6a565b820191906000526020600020905b815481529060010190602001808311611c4d57829003601f168201915b5050505050905084565b6060600c80548060200260200160405190810160405280929190818152602001828054801561144157602002820191906000526020600020905b815481526020019060010190808311611cae575050505050905090565b60606106596001600160a01b03831660145b60606000611cec83600261278e565b611cf7906002612776565b67ffffffffffffffff811115611d1d57634e487b7160e01b600052604160045260246000fd5b6040519080825280601f01601f191660200182016040528015611d47576020820181803683370190505b5090507f300000000000000000000000000000000000000000000000000000000000000081600081518110611d8c57634e487b7160e01b600052603260045260246000fd5b60200101906001600160f81b031916908160001a9053507f780000000000000000000000000000000000000000000000000000000000000081600181518110611de557634e487b7160e01b600052603260045260246000fd5b60200101906001600160f81b031916908160001a9053506000611e0984600261278e565b611e14906001612776565b90505b6001811115611eb5577f303132333435363738396162636465660000000000000000000000000000000085600f1660108110611e6357634e487b7160e01b600052603260045260246000fd5b1a60f81b828281518110611e8757634e487b7160e01b600052603260045260246000fd5b60200101906001600160f81b031916908160001a90535060049490941c93611eae816127f4565b9050611e17565b508315611f045760405162461bcd60e51b815260206004820181905260248201527f537472696e67733a20686578206c656e67746820696e73756666696369656e746044820152606401610a15565b9392505050565b610c548133612032565b6000828152602081815260408083206001600160a01b038516845290915290205460ff16610a28576000828152602081815260408083206001600160a01b03851684529091529020805460ff19166001179055611f6f3390565b6001600160a01b0316816001600160a01b0316837f2f8788117e7eff1d82e926ec794901d17c78024a50270940304540a733656f0d60405160405180910390a45050565b6000828152602081815260408083206001600160a01b038516845290915290205460ff1615610a28576000828152602081815260408083206001600160a01b0385168085529252808320805460ff1916905551339285917ff6391f5c32d9c69d2a47ea670b442974b53935d1edc7fd64eb21e047a839171b9190a45050565b6000828152602081815260408083206001600160a01b038516845290915290205460ff16610a285761206381611ccb565b61206e836020611cdd565b60405160200161207f929190612410565b60408051601f198184030181529082905262461bcd60e51b8252610a1591600401612606565b8280546120b19061280b565b90600052602060002090601f0160209004810192826120d35760008555612119565b82601f106120ec57805160ff1916838001178555612119565b82800160010185558215612119579182015b828111156121195782518255916020019190600101906120fe565b50612125929150612129565b5090565b5b80821115612125576000815560010161212a565b80356001600160a01b038116811461215557600080fd5b919050565b600082601f83011261216a578081fd5b813567ffffffffffffffff8082111561218557612185612877565b604051601f8301601f19908116603f011681019082821181831017156121ad576121ad612877565b816040528381528660208588010111156121c5578485fd5b8360208701602083013792830160200193909352509392505050565b6000602082840312156121f2578081fd5b611f048261213e565b6000806040838503121561220d578081fd5b6122168361213e565b9150602083013567ffffffffffffffff811115612231578182fd5b61223d8582860161215a565b9150509250929050565b600060208284031215612258578081fd5b8135611f048161288d565b600060208284031215612274578081fd5b8151611f048161288d565b600060208284031215612290578081fd5b5035919050565b600080604083850312156122a9578182fd5b823591506122b96020840161213e565b90509250929050565b6000602082840312156122d3578081fd5b81357fffffffff0000000000000000000000000000000000000000000000000000000081168114611f04578182fd5b60008060408385031215612314578182fd5b823567ffffffffffffffff8082111561232b578384fd5b6123378683870161215a565b9350602085013591508082111561234c578283fd5b5061223d8582860161215a565b60008060006060848603121561236d578081fd5b83359250602084013567ffffffffffffffff8082111561238b578283fd5b6123978783880161215a565b935060408601359150808211156123ac578283fd5b506123b98682870161215a565b9150509250925092565b600080604083850312156123d5578182fd5b50508035926020909101359150565b600081518084526123fc8160208601602086016127c4565b601f01601f19169290920160200192915050565b7f416363657373436f6e74726f6c3a206163636f756e74200000000000000000008152600083516124488160178501602088016127c4565b7f206973206d697373696e6720726f6c652000000000000000000000000000000060179184019182015283516124858160288401602088016127c4565b01602801949350505050565b6001600160a01b03841681526060602082015260006124b360608301856123e4565b9050826040830152949350505050565b6020808252825182820181905260009190848201906040850190845b818110156125045783516001600160a01b0316835292840192918401916001016124df565b50909695505050505050565b6020808252825182820181905260009190848201906040850190845b818110156125045783518352928401929184019160010161252c565b60006020808301818452808551808352604092508286019150828160051b870101848801865b838110156125f857603f19898403018552815160e08151855288820151898601528782015188860152606080830151818701525060808083015182828801526125b9838801826123e4565b9250505060a080830151868303828801526125d483826123e4565b60c0948501511515979094019690965250509487019492509086019060010161256e565b509098975050505050505050565b602081526000611f0460208301846123e4565b60208152815160208201526000602083015160408084015261263e60608401826123e4565b949350505050565b60208152815160208201526001600160a01b036020830151166040820152600060408301516080606084015261267f60a08401826123e4565b90506060840151601f1984830301608085015261269c82826123e4565b95945050505050565b8481526001600160a01b03841660208201526080604082015260006126cd60808301856123e4565b82810360608401526126df81856123e4565b979650505050505050565b82815260406020820152600061263e60408301846123e4565b8481528360208201526080604082015260006126cd60808301856123e4565b87815286602082015285604082015284606082015260e06080820152600061274d60e08301866123e4565b82810360a084015261275f81866123e4565b91505082151560c083015298975050505050505050565b6000821982111561278957612789612861565b500190565b60008160001904831182151516156127a8576127a8612861565b500290565b6000828210156127bf576127bf612861565b500390565b60005b838110156127df5781810151838201526020016127c7565b838111156127ee576000848401525b50505050565b60008161280357612803612861565b506000190190565b600181811c9082168061281f57607f821691505b6020821081141561284057634e487b7160e01b600052602260045260246000fd5b50919050565b600060001982141561285a5761285a612861565b5060010190565b634e487b7160e01b600052601160045260246000fd5b634e487b7160e01b600052604160045260246000fd5b8015158114610c5457600080fdfea264697066735822122021c6b41cef33209a3044d374a738b5a9cb1d583e00082d6a633b95f5a650709d64736f6c63430008040033a26469706673582212209e67e79cdeb70046761c396612310d7f294c94d7bdfff1f23d7902ae65481ad364736f6c63430008040033",
  "linkReferences": {},
  "deployedLinkReferences": {}
}