{
  "_format": "hh-sol-artifact-1",
  "contractName": "RepositoryFactory",
  "sourceName": "contracts/RepositoryFactory.sol",
  "abi": [
    {
      "anonymous": false,
      "inputs": [
        {
          "indexed": false,
          "internalType": "string",
          "name": "name",
          "type": "string"
        },
        {
          "indexed": false,
          "internalType": "uint256",
          "name": "createdAt",
          "type": "uint256"
        },
        {
          "indexed": false,
          "internalType": "address",
          "name": "owner",
          "type": "address"
        }
      ],
      "name": "NewRepositorySet",
      "type": "event"
    },
    {
      "inputs": [
        {
          "internalType": "string",
          "name": "_name",
          "type": "string"
        },
        {
          "internalType": "string",
          "name": "_description",
          "type": "string"
        }
      ],
      "name": "createRepositoryContract",
      "outputs": [],
      "stateMutability": "nonpayable",
      "type": "function"
    },
    {
      "inputs": [
        {
          "internalType": "address",
          "name": "user",
          "type": "address"
        }
      ],
      "name": "getUserRepos",
      "outputs": [
        {
          "internalType": "contract Repository[]",
          "name": "",
          "type": "address[]"
        }
      ],
      "stateMutability": "view",
      "type": "function"
    },
    {
      "inputs": [],
      "name": "getUsers",
      "outputs": [
        {
          "internalType": "address[]",
          "name": "",
          "type": "address[]"
        }
      ],
      "stateMutability": "view",
      "type": "function"
    },
    {
      "inputs": [
        {
          "internalType": "uint256",
          "name": "",
          "type": "uint256"
        }
      ],
      "name": "repositories",
      "outputs": [
        {
          "internalType": "contract Repository",
          "name": "",
          "type": "address"
        }
      ],
      "stateMutability": "view",
      "type": "function"
    },
    {
      "inputs": [],
      "name": "userCounter",
      "outputs": [
        {
          "internalType": "uint256",
          "name": "",
          "type": "uint256"
        }
      ],
      "stateMutability": "view",
      "type": "function"
    },
    {
      "inputs": [
        {
          "internalType": "uint256",
          "name": "",
          "type": "uint256"
        }
      ],
      "name": "users",
      "outputs": [
        {
          "internalType": "address",
          "name": "",
          "type": "address"
        }
      ],
      "stateMutability": "view",
      "type": "function"
    }
  ],
  "bytecode": "0x608060405234801561001057600080fd5b50613a1f806100206000396000f3fe60806040523480156200001157600080fd5b5060043610620000695760003560e01c8062ce8e3e146200006e578063365b98b214620000905780637665270914620000c6578063a44ceba014620000fc578063e93f8e00146200011c578063f0c37a591462000152575b600080fd5b6200007862000174565b6040516200008791906200092a565b60405180910390f35b620000ae6004803603810190620000a8919062000743565b62000204565b604051620000bd91906200090d565b60405180910390f35b620000e46004803603810190620000de919062000743565b62000244565b604051620000f3919062000972565b60405180910390f35b6200011a6004803603810190620001149190620006d0565b62000284565b005b6200013a6004803603810190620001349190620006a4565b6200051e565b6040516200014991906200094e565b60405180910390f35b6200015c620005f0565b6040516200016b919062000a0e565b60405180910390f35b60606003805480602002602001604051908101604052809291908181526020018280548015620001fa57602002820191906000526020600020905b8160009054906101000a900473ffffffffffffffffffffffffffffffffffffffff1673ffffffffffffffffffffffffffffffffffffffff1681526020019060010190808311620001af575b5050505050905090565b600381815481106200021557600080fd5b906000526020600020016000915054906101000a900473ffffffffffffffffffffffffffffffffffffffff1681565b600081815481106200025557600080fd5b906000526020600020016000915054906101000a900473ffffffffffffffffffffffffffffffffffffffff1681565b6000600260003373ffffffffffffffffffffffffffffffffffffffff1673ffffffffffffffffffffffffffffffffffffffff168152602001908152602001600020600001541415620003975760016000815480929190620002e59062000be8565b9190505550600154600260003373ffffffffffffffffffffffffffffffffffffffff1673ffffffffffffffffffffffffffffffffffffffff168152602001908152602001600020600001819055506003339080600181540180825580915050600190039060005260206000200160009091909190916101000a81548173ffffffffffffffffffffffffffffffffffffffff021916908373ffffffffffffffffffffffffffffffffffffffff1602179055505b60008282604051620003a990620005f6565b620003b69291906200098f565b604051809103906000f080158015620003d3573d6000803e3d6000fd5b5090506000819080600181540180825580915050600190039060005260206000200160009091909190916101000a81548173ffffffffffffffffffffffffffffffffffffffff021916908373ffffffffffffffffffffffffffffffffffffffff160217905550600260003373ffffffffffffffffffffffffffffffffffffffff1673ffffffffffffffffffffffffffffffffffffffff168152602001908152602001600020600101819080600181540180825580915050600190039060005260206000200160009091909190916101000a81548173ffffffffffffffffffffffffffffffffffffffff021916908373ffffffffffffffffffffffffffffffffffffffff1602179055507fd4c2173365f5506ab1bd9e3309fb2c74350cffc8bd99a495d9536464f21e0e4b8342336040516200051193929190620009ca565b60405180910390a1505050565b6060600260008373ffffffffffffffffffffffffffffffffffffffff1673ffffffffffffffffffffffffffffffffffffffff168152602001908152602001600020600101805480602002602001604051908101604052809291908181526020018280548015620005e457602002820191906000526020600020905b8160009054906101000a900473ffffffffffffffffffffffffffffffffffffffff1673ffffffffffffffffffffffffffffffffffffffff168152602001906001019080831162000599575b50505050509050919050565b60015481565b612d108062000cda83390190565b60006200061b620006158462000a54565b62000a2b565b9050828152602081018484840111156200063457600080fd5b6200064184828562000b6d565b509392505050565b6000813590506200065a8162000ca5565b92915050565b600082601f8301126200067257600080fd5b81356200068484826020860162000604565b91505092915050565b6000813590506200069e8162000cbf565b92915050565b600060208284031215620006b757600080fd5b6000620006c78482850162000649565b91505092915050565b60008060408385031215620006e457600080fd5b600083013567ffffffffffffffff811115620006ff57600080fd5b6200070d8582860162000660565b925050602083013567ffffffffffffffff8111156200072b57600080fd5b620007398582860162000660565b9150509250929050565b6000602082840312156200075657600080fd5b600062000766848285016200068d565b91505092915050565b60006200077d8383620007a3565b60208301905092915050565b600062000797838362000899565b60208301905092915050565b620007ae8162000b07565b82525050565b620007bf8162000b07565b82525050565b6000620007d28262000aaa565b620007de818562000ae5565b9350620007eb8362000a8a565b8060005b83811015620008225781516200080688826200076f565b9750620008138362000acb565b925050600181019050620007ef565b5085935050505092915050565b60006200083c8262000ab5565b62000848818562000ae5565b9350620008558362000a9a565b8060005b838110156200088c57815162000870888262000789565b97506200087d8362000ad8565b92505060018101905062000859565b5085935050505092915050565b620008a48162000b45565b82525050565b620008b58162000b45565b82525050565b6000620008c88262000ac0565b620008d4818562000af6565b9350620008e681856020860162000b7c565b620008f18162000c94565b840191505092915050565b620009078162000b3b565b82525050565b6000602082019050620009246000830184620007b4565b92915050565b60006020820190508181036000830152620009468184620007c5565b905092915050565b600060208201905081810360008301526200096a81846200082f565b905092915050565b6000602082019050620009896000830184620008aa565b92915050565b60006040820190508181036000830152620009ab8185620008bb565b90508181036020830152620009c18184620008bb565b90509392505050565b60006060820190508181036000830152620009e68186620008bb565b9050620009f76020830185620008fc565b62000a066040830184620007b4565b949350505050565b600060208201905062000a256000830184620008fc565b92915050565b600062000a3762000a4a565b905062000a45828262000bb2565b919050565b6000604051905090565b600067ffffffffffffffff82111562000a725762000a7162000c65565b5b62000a7d8262000c94565b9050602081019050919050565b6000819050602082019050919050565b6000819050602082019050919050565b600081519050919050565b600081519050919050565b600081519050919050565b6000602082019050919050565b6000602082019050919050565b600082825260208201905092915050565b600082825260208201905092915050565b600062000b148262000b1b565b9050919050565b600073ffffffffffffffffffffffffffffffffffffffff82169050919050565b6000819050919050565b600062000b528262000b59565b9050919050565b600062000b668262000b1b565b9050919050565b82818337600083830152505050565b60005b8381101562000b9c57808201518184015260208101905062000b7f565b8381111562000bac576000848401525b50505050565b62000bbd8262000c94565b810181811067ffffffffffffffff8211171562000bdf5762000bde62000c65565b5b80604052505050565b600062000bf58262000b3b565b91507fffffffffffffffffffffffffffffffffffffffffffffffffffffffffffffffff82141562000c2b5762000c2a62000c36565b5b600182019050919050565b7f4e487b7100000000000000000000000000000000000000000000000000000000600052601160045260246000fd5b7f4e487b7100000000000000000000000000000000000000000000000000000000600052604160045260246000fd5b6000601f19601f8301169050919050565b62000cb08162000b07565b811462000cbc57600080fd5b50565b62000cca8162000b3b565b811462000cd657600080fd5b5056fe60806040523480156200001157600080fd5b5060405162002d1038038062002d10833981810160405281019062000037919062000998565b6040518060400160405280600d81526020017f41646d696e6973747261746f720000000000000000000000000000000000000081525060006001819055506200008a6000801b33620002a760201b60201c565b620000bc7fe2889e7308860b3fe8df0daa86fccfea4d71e43776719a57be28cf90b6db81e9336200039860201b60201c565b80600260003373ffffffffffffffffffffffffffffffffffffffff1673ffffffffffffffffffffffffffffffffffffffff16815260200190815260200160002060010190805190602001906200011492919062000876565b50600154600260003373ffffffffffffffffffffffffffffffffffffffff1673ffffffffffffffffffffffffffffffffffffffff168152602001908152602001600020600001819055506003339080600181540180825580915050600190039060005260206000200160009091909190916101000a81548173ffffffffffffffffffffffffffffffffffffffff021916908373ffffffffffffffffffffffffffffffffffffffff160217905550508160049080519060200190620001da92919062000876565b504260058190555033600660006101000a81548173ffffffffffffffffffffffffffffffffffffffff021916908373ffffffffffffffffffffffffffffffffffffffff16021790555080600790805190602001906200023b92919062000876565b507f4d6e9c5367e86c0906b04a7d25d3d0cb37439bccaffbee2cdce979ae88c3fa0682600554600660009054906101000a900473ffffffffffffffffffffffffffffffffffffffff168460405162000297949392919062000b80565b60405180910390a1505062000f69565b620002b98282620003d160201b60201c565b6200039457600160008084815260200190815260200160002060000160008373ffffffffffffffffffffffffffffffffffffffff1673ffffffffffffffffffffffffffffffffffffffff16815260200190815260200160002060006101000a81548160ff021916908315150217905550620003396200043b60201b60201c565b73ffffffffffffffffffffffffffffffffffffffff168173ffffffffffffffffffffffffffffffffffffffff16837f2f8788117e7eff1d82e926ec794901d17c78024a50270940304540a733656f0d60405160405180910390a45b5050565b620003a9826200044360201b60201c565b620003ba816200046260201b60201c565b620003cc8383620002a760201b60201c565b505050565b600080600084815260200190815260200160002060000160008373ffffffffffffffffffffffffffffffffffffffff1673ffffffffffffffffffffffffffffffffffffffff16815260200190815260200160002060009054906101000a900460ff16905092915050565b600033905090565b6000806000838152602001908152602001600020600101549050919050565b6200048381620004776200043b60201b60201c565b6200048660201b60201c565b50565b620004988282620003d160201b60201c565b6200052e57620004b3816200053260201b62000c981760201c565b620004ce8360001c60206200056760201b62000cc51760201c565b604051602001620004e192919062000b1a565b6040516020818303038152906040526040517f08c379a000000000000000000000000000000000000000000000000000000000815260040162000525919062000b5c565b60405180910390fd5b5050565b6060620005608273ffffffffffffffffffffffffffffffffffffffff16601460ff166200056760201b60201c565b9050919050565b6060600060028360026200057c919062000ce0565b62000588919062000c83565b67ffffffffffffffff811115620005c8577f4e487b7100000000000000000000000000000000000000000000000000000000600052604160045260246000fd5b6040519080825280601f01601f191660200182016040528015620005fb5781602001600182028036833780820191505090505b5090507f3000000000000000000000000000000000000000000000000000000000000000816000815181106200065a577f4e487b7100000000000000000000000000000000000000000000000000000000600052603260045260246000fd5b60200101907effffffffffffffffffffffffffffffffffffffffffffffffffffffffffffff1916908160001a9053507f780000000000000000000000000000000000000000000000000000000000000081600181518110620006e5577f4e487b7100000000000000000000000000000000000000000000000000000000600052603260045260246000fd5b60200101907effffffffffffffffffffffffffffffffffffffffffffffffffffffffffffff1916908160001a9053506000600184600262000727919062000ce0565b62000733919062000c83565b90505b600181111562000825577f3031323334353637383961626364656600000000000000000000000000000000600f8616601081106200079d577f4e487b7100000000000000000000000000000000000000000000000000000000600052603260045260246000fd5b1a60f81b828281518110620007db577f4e487b7100000000000000000000000000000000000000000000000000000000600052603260045260246000fd5b60200101907effffffffffffffffffffffffffffffffffffffffffffffffffffffffffffff1916908160001a905350600485901c9450806200081d9062000db5565b905062000736565b50600084146200086c576040517f08c379a0000000000000000000000000000000000000000000000000000000008152600401620008639062000bdb565b60405180910390fd5b8091505092915050565b828054620008849062000de4565b90600052602060002090601f016020900481019282620008a85760008555620008f4565b82601f10620008c357805160ff1916838001178555620008f4565b82800160010185558215620008f4579182015b82811115620008f3578251825591602001919060010190620008d6565b5b50905062000903919062000907565b5090565b5b808211156200092257600081600090555060010162000908565b5090565b60006200093d620009378462000c26565b62000bfd565b9050828152602081018484840111156200095657600080fd5b6200096384828562000d7f565b509392505050565b600082601f8301126200097d57600080fd5b81516200098f84826020860162000926565b91505092915050565b60008060408385031215620009ac57600080fd5b600083015167ffffffffffffffff811115620009c757600080fd5b620009d5858286016200096b565b925050602083015167ffffffffffffffff811115620009f357600080fd5b62000a01858286016200096b565b9150509250929050565b62000a168162000d41565b82525050565b600062000a298262000c5c565b62000a35818562000c67565b935062000a4781856020860162000d7f565b62000a528162000edd565b840191505092915050565b600062000a6a8262000c5c565b62000a76818562000c78565b935062000a8881856020860162000d7f565b80840191505092915050565b600062000aa360208362000c67565b915062000ab08262000eee565b602082019050919050565b600062000aca60178362000c78565b915062000ad78262000f17565b601782019050919050565b600062000af160118362000c78565b915062000afe8262000f40565b601182019050919050565b62000b148162000d75565b82525050565b600062000b278262000abb565b915062000b35828562000a5d565b915062000b428262000ae2565b915062000b50828462000a5d565b91508190509392505050565b6000602082019050818103600083015262000b78818462000a1c565b905092915050565b6000608082019050818103600083015262000b9c818762000a1c565b905062000bad602083018662000b09565b62000bbc604083018562000a0b565b818103606083015262000bd0818462000a1c565b905095945050505050565b6000602082019050818103600083015262000bf68162000a94565b9050919050565b600062000c0962000c1c565b905062000c17828262000e1a565b919050565b6000604051905090565b600067ffffffffffffffff82111562000c445762000c4362000eae565b5b62000c4f8262000edd565b9050602081019050919050565b600081519050919050565b600082825260208201905092915050565b600081905092915050565b600062000c908262000d75565b915062000c9d8362000d75565b9250827fffffffffffffffffffffffffffffffffffffffffffffffffffffffffffffffff0382111562000cd55762000cd462000e50565b5b828201905092915050565b600062000ced8262000d75565b915062000cfa8362000d75565b9250817fffffffffffffffffffffffffffffffffffffffffffffffffffffffffffffffff048311821515161562000d365762000d3562000e50565b5b828202905092915050565b600062000d4e8262000d55565b9050919050565b600073ffffffffffffffffffffffffffffffffffffffff82169050919050565b6000819050919050565b60005b8381101562000d9f57808201518184015260208101905062000d82565b8381111562000daf576000848401525b50505050565b600062000dc28262000d75565b9150600082141562000dd95762000dd862000e50565b5b600182039050919050565b6000600282049050600182168062000dfd57607f821691505b6020821081141562000e145762000e1362000e7f565b5b50919050565b62000e258262000edd565b810181811067ffffffffffffffff8211171562000e475762000e4662000eae565b5b80604052505050565b7f4e487b7100000000000000000000000000000000000000000000000000000000600052601160045260246000fd5b7f4e487b7100000000000000000000000000000000000000000000000000000000600052602260045260246000fd5b7f4e487b7100000000000000000000000000000000000000000000000000000000600052604160045260246000fd5b6000601f19601f8301169050919050565b7f537472696e67733a20686578206c656e67746820696e73756666696369656e74600082015250565b7f416363657373436f6e74726f6c3a206163636f756e7420000000000000000000600082015250565b7f206973206d697373696e6720726f6c6520000000000000000000000000000000600082015250565b611d978062000f796000396000f3fe608060405234801561001057600080fd5b506004361061012c5760003560e01c80638da5cb5b116100ad578063cf09e0d011610071578063cf09e0d014610358578063d547741f14610376578063d723715414610392578063eafb79e2146103ae578063fde40cb6146103cc5761012c565b80638da5cb5b146102b457806391d14854146102d25780639974d85f14610302578063a217fddf1461031e578063a54f5d331461033c5761012c565b8063365b98b2116100f4578063365b98b2146101e757806358975919146102175780635d0eaaaf146102355780637284e416146102665780637ca8f618146102845761012c565b806301ffc9a71461013157806306fdde0314610161578063248a9ca31461017f5780632f2ff15d146101af57806336568abe146101cb575b600080fd5b61014b600480360381019061014691906114cc565b6103fe565b604051610158919061177e565b60405180910390f35b610169610478565b60405161017691906117b4565b60405180910390f35b61019960048036038101906101949190611467565b610506565b6040516101a69190611799565b60405180910390f35b6101c960048036038101906101c49190611490565b610525565b005b6101e560048036038101906101e09190611490565b610546565b005b61020160048036038101906101fc9190611536565b6105c9565b60405161020e9190611725565b60405180910390f35b61021f610608565b60405161022c9190611816565b60405180910390f35b61024f600480360381019061024a91906113ea565b61060e565b60405161025d92919061186f565b60405180910390f35b61026e6106ba565b60405161027b91906117b4565b60405180910390f35b61029e60048036038101906102999190611536565b610748565b6040516102ab9190611799565b60405180910390f35b6102bc61076c565b6040516102c99190611725565b60405180910390f35b6102ec60048036038101906102e79190611490565b610792565b6040516102f9919061177e565b60405180910390f35b61031c600480360381019061031791906113ea565b6107fc565b005b6103266108e0565b6040516103339190611799565b60405180910390f35b610356600480360381019061035191906114f5565b6108e7565b005b610360610a24565b60405161036d9190611816565b60405180910390f35b610390600480360381019061038b9190611490565b610a2a565b005b6103ac60048036038101906103a79190611413565b610a4b565b005b6103b6610ba2565b6040516103c39190611799565b60405180910390f35b6103e660048036038101906103e19190611467565b610bc6565b6040516103f593929190611831565b60405180910390f35b60007f7965db0b000000000000000000000000000000000000000000000000000000007bffffffffffffffffffffffffffffffffffffffffffffffffffffffff1916827bffffffffffffffffffffffffffffffffffffffffffffffffffffffff19161480610471575061047082610fbf565b5b9050919050565b6004805461048590611ab6565b80601f01602080910402602001604051908101604052809291908181526020018280546104b190611ab6565b80156104fe5780601f106104d3576101008083540402835291602001916104fe565b820191906000526020600020905b8154815290600101906020018083116104e157829003601f168201915b505050505081565b6000806000838152602001908152602001600020600101549050919050565b61052e82610506565b61053781611029565b610541838361103d565b505050565b61054e61111d565b73ffffffffffffffffffffffffffffffffffffffff168173ffffffffffffffffffffffffffffffffffffffff16146105bb576040517f08c379a00000000000000000000000000000000000000000000000000000000081526004016105b2906117f6565b60405180910390fd5b6105c58282611125565b5050565b600381815481106105d957600080fd5b906000526020600020016000915054906101000a900473ffffffffffffffffffffffffffffffffffffffff1681565b60015481565b600260205280600052604060002060009150905080600001549080600101805461063790611ab6565b80601f016020809104026020016040519081016040528092919081815260200182805461066390611ab6565b80156106b05780601f10610685576101008083540402835291602001916106b0565b820191906000526020600020905b81548152906001019060200180831161069357829003601f168201915b5050505050905082565b600780546106c790611ab6565b80601f01602080910402602001604051908101604052809291908181526020018280546106f390611ab6565b80156107405780601f1061071557610100808354040283529160200191610740565b820191906000526020600020905b81548152906001019060200180831161072357829003601f168201915b505050505081565b6009818154811061075857600080fd5b906000526020600020016000915090505481565b600660009054906101000a900473ffffffffffffffffffffffffffffffffffffffff1681565b600080600084815260200190815260200160002060000160008373ffffffffffffffffffffffffffffffffffffffff1673ffffffffffffffffffffffffffffffffffffffff16815260200190815260200160002060009054906101000a900460ff16905092915050565b6000801b61080981611029565b6108337fe2889e7308860b3fe8df0daa86fccfea4d71e43776719a57be28cf90b6db81e983610a2a565b6003600260008473ffffffffffffffffffffffffffffffffffffffff1673ffffffffffffffffffffffffffffffffffffffff16815260200190815260200160002060000154815481106108af577f4e487b7100000000000000000000000000000000000000000000000000000000600052603260045260246000fd5b9060005260206000200160006101000a81549073ffffffffffffffffffffffffffffffffffffffff02191690555050565b6000801b81565b7fe2889e7308860b3fe8df0daa86fccfea4d71e43776719a57be28cf90b6db81e961091181611029565b600033426040516020016109269291906116bf565b6040516020818303038152906040528051906020012090506000600860008381526020019081526020016000209050428160000181905550338160010160006101000a81548173ffffffffffffffffffffffffffffffffffffffff021916908373ffffffffffffffffffffffffffffffffffffffff160217905550838160020190805190602001906109b992919061128b565b5060098290806001815401808255809150506001900390600052602060002001600090919091909150557ffefd27dee2120343aa0af195ac635be85abe526658ec8ce87dd5b8820241b2ce338542604051610a1693929190611740565b60405180910390a150505050565b60055481565b610a3382610506565b610a3c81611029565b610a468383611125565b505050565b6000801b610a5881611029565b610a827fe2889e7308860b3fe8df0daa86fccfea4d71e43776719a57be28cf90b6db81e984610525565b60016000815480929190610a9590611b19565b9190505550600154600260008573ffffffffffffffffffffffffffffffffffffffff1673ffffffffffffffffffffffffffffffffffffffff1681526020019081526020016000206000018190555081600260008573ffffffffffffffffffffffffffffffffffffffff1673ffffffffffffffffffffffffffffffffffffffff1681526020019081526020016000206001019080519060200190610b3992919061128b565b506003839080600181540180825580915050600190039060005260206000200160009091909190916101000a81548173ffffffffffffffffffffffffffffffffffffffff021916908373ffffffffffffffffffffffffffffffffffffffff160217905550505050565b7fe2889e7308860b3fe8df0daa86fccfea4d71e43776719a57be28cf90b6db81e981565b60086020528060005260406000206000915090508060000154908060010160009054906101000a900473ffffffffffffffffffffffffffffffffffffffff1690806002018054610c1590611ab6565b80601f0160208091040260200160405190810160405280929190818152602001828054610c4190611ab6565b8015610c8e5780601f10610c6357610100808354040283529160200191610c8e565b820191906000526020600020905b815481529060010190602001808311610c7157829003601f168201915b5050505050905083565b6060610cbe8273ffffffffffffffffffffffffffffffffffffffff16601460ff16610cc5565b9050919050565b606060006002836002610cd89190611972565b610ce2919061191c565b67ffffffffffffffff811115610d21577f4e487b7100000000000000000000000000000000000000000000000000000000600052604160045260246000fd5b6040519080825280601f01601f191660200182016040528015610d535781602001600182028036833780820191505090505b5090507f300000000000000000000000000000000000000000000000000000000000000081600081518110610db1577f4e487b7100000000000000000000000000000000000000000000000000000000600052603260045260246000fd5b60200101907effffffffffffffffffffffffffffffffffffffffffffffffffffffffffffff1916908160001a9053507f780000000000000000000000000000000000000000000000000000000000000081600181518110610e3b577f4e487b7100000000000000000000000000000000000000000000000000000000600052603260045260246000fd5b60200101907effffffffffffffffffffffffffffffffffffffffffffffffffffffffffffff1916908160001a90535060006001846002610e7b9190611972565b610e85919061191c565b90505b6001811115610f71577f3031323334353637383961626364656600000000000000000000000000000000600f861660108110610eed577f4e487b7100000000000000000000000000000000000000000000000000000000600052603260045260246000fd5b1a60f81b828281518110610f2a577f4e487b7100000000000000000000000000000000000000000000000000000000600052603260045260246000fd5b60200101907effffffffffffffffffffffffffffffffffffffffffffffffffffffffffffff1916908160001a905350600485901c945080610f6a90611a8c565b9050610e88565b5060008414610fb5576040517f08c379a0000000000000000000000000000000000000000000000000000000008152600401610fac906117d6565b60405180910390fd5b8091505092915050565b60007f01ffc9a7000000000000000000000000000000000000000000000000000000007bffffffffffffffffffffffffffffffffffffffffffffffffffffffff1916827bffffffffffffffffffffffffffffffffffffffffffffffffffffffff1916149050919050565b61103a8161103561111d565b611206565b50565b6110478282610792565b61111957600160008084815260200190815260200160002060000160008373ffffffffffffffffffffffffffffffffffffffff1673ffffffffffffffffffffffffffffffffffffffff16815260200190815260200160002060006101000a81548160ff0219169083151502179055506110be61111d565b73ffffffffffffffffffffffffffffffffffffffff168173ffffffffffffffffffffffffffffffffffffffff16837f2f8788117e7eff1d82e926ec794901d17c78024a50270940304540a733656f0d60405160405180910390a45b5050565b600033905090565b61112f8282610792565b1561120257600080600084815260200190815260200160002060000160008373ffffffffffffffffffffffffffffffffffffffff1673ffffffffffffffffffffffffffffffffffffffff16815260200190815260200160002060006101000a81548160ff0219169083151502179055506111a761111d565b73ffffffffffffffffffffffffffffffffffffffff168173ffffffffffffffffffffffffffffffffffffffff16837ff6391f5c32d9c69d2a47ea670b442974b53935d1edc7fd64eb21e047a839171b60405160405180910390a45b5050565b6112108282610792565b6112875761121d81610c98565b61122b8360001c6020610cc5565b60405160200161123c9291906116eb565b6040516020818303038152906040526040517f08c379a000000000000000000000000000000000000000000000000000000000815260040161127e91906117b4565b60405180910390fd5b5050565b82805461129790611ab6565b90600052602060002090601f0160209004810192826112b95760008555611300565b82601f106112d257805160ff1916838001178555611300565b82800160010185558215611300579182015b828111156112ff5782518255916020019190600101906112e4565b5b50905061130d9190611311565b5090565b5b8082111561132a576000816000905550600101611312565b5090565b600061134161133c846118c4565b61189f565b90508281526020810184848401111561135957600080fd5b611364848285611a4a565b509392505050565b60008135905061137b81611d05565b92915050565b60008135905061139081611d1c565b92915050565b6000813590506113a581611d33565b92915050565b600082601f8301126113bc57600080fd5b81356113cc84826020860161132e565b91505092915050565b6000813590506113e481611d4a565b92915050565b6000602082840312156113fc57600080fd5b600061140a8482850161136c565b91505092915050565b6000806040838503121561142657600080fd5b60006114348582860161136c565b925050602083013567ffffffffffffffff81111561145157600080fd5b61145d858286016113ab565b9150509250929050565b60006020828403121561147957600080fd5b600061148784828501611381565b91505092915050565b600080604083850312156114a357600080fd5b60006114b185828601611381565b92505060206114c28582860161136c565b9150509250929050565b6000602082840312156114de57600080fd5b60006114ec84828501611396565b91505092915050565b60006020828403121561150757600080fd5b600082013567ffffffffffffffff81111561152157600080fd5b61152d848285016113ab565b91505092915050565b60006020828403121561154857600080fd5b6000611556848285016113d5565b91505092915050565b611568816119cc565b82525050565b61157f61157a826119cc565b611b62565b82525050565b61158e816119de565b82525050565b61159d816119ea565b82525050565b60006115ae826118f5565b6115b88185611900565b93506115c8818560208601611a59565b6115d181611c1d565b840191505092915050565b60006115e7826118f5565b6115f18185611911565b9350611601818560208601611a59565b80840191505092915050565b600061161a602083611900565b915061162582611c3b565b602082019050919050565b600061163d601783611911565b915061164882611c64565b601782019050919050565b6000611660601183611911565b915061166b82611c8d565b601182019050919050565b6000611683602f83611900565b915061168e82611cb6565b604082019050919050565b6116a281611a40565b82525050565b6116b96116b482611a40565b611b86565b82525050565b60006116cb828561156e565b6014820191506116db82846116a8565b6020820191508190509392505050565b60006116f682611630565b915061170282856115dc565b915061170d82611653565b915061171982846115dc565b91508190509392505050565b600060208201905061173a600083018461155f565b92915050565b6000606082019050611755600083018661155f565b818103602083015261176781856115a3565b90506117766040830184611699565b949350505050565b60006020820190506117936000830184611585565b92915050565b60006020820190506117ae6000830184611594565b92915050565b600060208201905081810360008301526117ce81846115a3565b905092915050565b600060208201905081810360008301526117ef8161160d565b9050919050565b6000602082019050818103600083015261180f81611676565b9050919050565b600060208201905061182b6000830184611699565b92915050565b60006060820190506118466000830186611699565b611853602083018561155f565b818103604083015261186581846115a3565b9050949350505050565b60006040820190506118846000830185611699565b818103602083015261189681846115a3565b90509392505050565b60006118a96118ba565b90506118b58282611ae8565b919050565b6000604051905090565b600067ffffffffffffffff8211156118df576118de611bee565b5b6118e882611c1d565b9050602081019050919050565b600081519050919050565b600082825260208201905092915050565b600081905092915050565b600061192782611a40565b915061193283611a40565b9250827fffffffffffffffffffffffffffffffffffffffffffffffffffffffffffffffff0382111561196757611966611b90565b5b828201905092915050565b600061197d82611a40565b915061198883611a40565b9250817fffffffffffffffffffffffffffffffffffffffffffffffffffffffffffffffff04831182151516156119c1576119c0611b90565b5b828202905092915050565b60006119d782611a20565b9050919050565b60008115159050919050565b6000819050919050565b60007fffffffff0000000000000000000000000000000000000000000000000000000082169050919050565b600073ffffffffffffffffffffffffffffffffffffffff82169050919050565b6000819050919050565b82818337600083830152505050565b60005b83811015611a77578082015181840152602081019050611a5c565b83811115611a86576000848401525b50505050565b6000611a9782611a40565b91506000821415611aab57611aaa611b90565b5b600182039050919050565b60006002820490506001821680611ace57607f821691505b60208210811415611ae257611ae1611bbf565b5b50919050565b611af182611c1d565b810181811067ffffffffffffffff82111715611b1057611b0f611bee565b5b80604052505050565b6000611b2482611a40565b91507fffffffffffffffffffffffffffffffffffffffffffffffffffffffffffffffff821415611b5757611b56611b90565b5b600182019050919050565b6000611b6d82611b74565b9050919050565b6000611b7f82611c2e565b9050919050565b6000819050919050565b7f4e487b7100000000000000000000000000000000000000000000000000000000600052601160045260246000fd5b7f4e487b7100000000000000000000000000000000000000000000000000000000600052602260045260246000fd5b7f4e487b7100000000000000000000000000000000000000000000000000000000600052604160045260246000fd5b6000601f19601f8301169050919050565b60008160601b9050919050565b7f537472696e67733a20686578206c656e67746820696e73756666696369656e74600082015250565b7f416363657373436f6e74726f6c3a206163636f756e7420000000000000000000600082015250565b7f206973206d697373696e6720726f6c6520000000000000000000000000000000600082015250565b7f416363657373436f6e74726f6c3a2063616e206f6e6c792072656e6f756e636560008201527f20726f6c657320666f722073656c660000000000000000000000000000000000602082015250565b611d0e816119cc565b8114611d1957600080fd5b50565b611d25816119ea565b8114611d3057600080fd5b50565b611d3c816119f4565b8114611d4757600080fd5b50565b611d5381611a40565b8114611d5e57600080fd5b5056fea26469706673582212203bc1c59f85ab483ee5cbdbfbd80641f5747d1b69bff942d2a90a9e5b32aae95f64736f6c63430008040033a2646970667358221220119166a58d01a2cf420d5583a5eaac01704ec3957fc6d0e38df60d7880aec56264736f6c63430008040033",
  "linkReferences": {},
  "deployedLinkReferences": {}
}