{
  "_format": "hh-sol-artifact-1",
  "contractName": "RepositoryFactory",
  "sourceName": "contracts/RepositoryFactory.sol",
  "abi": [
    {
      "anonymous": false,
      "inputs": [
        {
          "indexed": false,
          "internalType": "string",
          "name": "name",
          "type": "string"
        },
        {
          "indexed": false,
          "internalType": "uint256",
          "name": "createdAt",
          "type": "uint256"
        },
        {
          "indexed": false,
          "internalType": "address",
          "name": "owner",
          "type": "address"
        }
      ],
      "name": "NewRepositorySet",
      "type": "event"
    },
    {
      "inputs": [
        {
          "internalType": "string",
          "name": "_name",
          "type": "string"
        }
      ],
      "name": "createRepositoryContract",
      "outputs": [],
      "stateMutability": "nonpayable",
      "type": "function"
    },
    {
      "inputs": [
        {
          "internalType": "address",
          "name": "user",
          "type": "address"
        }
      ],
      "name": "getUserRepos",
      "outputs": [
        {
          "internalType": "bytes32[]",
          "name": "",
          "type": "bytes32[]"
        }
      ],
      "stateMutability": "view",
      "type": "function"
    },
    {
      "inputs": [
        {
          "internalType": "uint256",
          "name": "",
          "type": "uint256"
        }
      ],
      "name": "repoHashes",
      "outputs": [
        {
          "internalType": "bytes32",
          "name": "",
          "type": "bytes32"
        }
      ],
      "stateMutability": "view",
      "type": "function"
    },
    {
      "inputs": [
        {
          "internalType": "bytes32",
          "name": "",
          "type": "bytes32"
        }
      ],
      "name": "repositories",
      "outputs": [
        {
          "internalType": "contract Repository",
          "name": "",
          "type": "address"
        }
      ],
      "stateMutability": "view",
      "type": "function"
    },
    {
      "inputs": [
        {
          "internalType": "uint256",
          "name": "",
          "type": "uint256"
        }
      ],
      "name": "users",
      "outputs": [
        {
          "internalType": "address",
          "name": "",
          "type": "address"
        }
      ],
      "stateMutability": "view",
      "type": "function"
    }
  ],
  "bytecode": "0x608060405234801561001057600080fd5b5061395b806100206000396000f3fe60806040523480156200001157600080fd5b50600436106200005e5760003560e01c80631f51fd711462000063578063365b98b214620000995780635341603314620000cf578063e0627ca81462000105578063e93f8e001462000125575b600080fd5b6200008160048036038101906200007b919062000574565b6200015b565b604051620000909190620007ef565b60405180910390f35b620000b76004803603810190620000b19190620005e5565b6200018e565b604051620000c6919062000791565b60405180910390f35b620000ed6004803603810190620000e79190620005e5565b620001ce565b604051620000fc9190620007d2565b60405180910390f35b6200012360048036038101906200011d9190620005a0565b620001f3565b005b6200014360048036038101906200013d919062000548565b620003e7565b604051620001529190620007ae565b60405180910390f35b60006020528060005260406000206000915054906101000a900473ffffffffffffffffffffffffffffffffffffffff1681565b600381815481106200019f57600080fd5b906000526020600020016000915054906101000a900473ffffffffffffffffffffffffffffffffffffffff1681565b60018181548110620001df57600080fd5b906000526020600020016000915090505481565b600081604051620002049062000483565b6200021091906200080c565b604051809103906000f0801580156200022d573d6000803e3d6000fd5b509050600033426040516020016200024792919062000761565b6040516020818303038152906040528051906020012090508160008083815260200190815260200160002060006101000a81548173ffffffffffffffffffffffffffffffffffffffff021916908373ffffffffffffffffffffffffffffffffffffffff1602179055506001819080600181540180825580915050600190039060005260206000200160009091909190915055600260003373ffffffffffffffffffffffffffffffffffffffff1673ffffffffffffffffffffffffffffffffffffffff1681526020019081526020016000206000018190806001815401808255809150506001900390600052602060002001600090919091909150556003339080600181540180825580915050600190039060005260206000200160009091909190916101000a81548173ffffffffffffffffffffffffffffffffffffffff021916908373ffffffffffffffffffffffffffffffffffffffff1602179055507fd4c2173365f5506ab1bd9e3309fb2c74350cffc8bd99a495d9536464f21e0e4b834233604051620003da9392919062000830565b60405180910390a1505050565b6060600260008373ffffffffffffffffffffffffffffffffffffffff1673ffffffffffffffffffffffffffffffffffffffff1681526020019081526020016000206000018054806020026020016040519081016040528092919081815260200182805480156200047757602002820191906000526020600020905b81548152602001906001019080831162000462575b50505050509050919050565b612e458062000ae183390190565b6000620004a8620004a2846200089d565b62000874565b905082815260208101848484011115620004c157600080fd5b620004ce84828562000998565b509392505050565b600081359050620004e78162000a92565b92915050565b600081359050620004fe8162000aac565b92915050565b600082601f8301126200051657600080fd5b81356200052884826020860162000491565b91505092915050565b600081359050620005428162000ac6565b92915050565b6000602082840312156200055b57600080fd5b60006200056b84828501620004d6565b91505092915050565b6000602082840312156200058757600080fd5b60006200059784828501620004ed565b91505092915050565b600060208284031215620005b357600080fd5b600082013567ffffffffffffffff811115620005ce57600080fd5b620005dc8482850162000504565b91505092915050565b600060208284031215620005f857600080fd5b6000620006088482850162000531565b91505092915050565b60006200061f8383620006c1565b60208301905092915050565b620006368162000928565b82525050565b620006516200064b8262000928565b62000a13565b82525050565b60006200066482620008e3565b62000670818562000906565b93506200067d83620008d3565b8060005b83811015620006b457815162000698888262000611565b9750620006a583620008f9565b92505060018101905062000681565b5085935050505092915050565b620006cc816200093c565b82525050565b620006dd816200093c565b82525050565b620006ee8162000970565b82525050565b60006200070182620008ee565b6200070d818562000917565b93506200071f818560208601620009a7565b6200072a8162000a74565b840191505092915050565b620007408162000966565b82525050565b6200075b620007558262000966565b62000a3b565b82525050565b60006200076f82856200063c565b60148201915062000781828462000746565b6020820191508190509392505050565b6000602082019050620007a860008301846200062b565b92915050565b60006020820190508181036000830152620007ca818462000657565b905092915050565b6000602082019050620007e96000830184620006d2565b92915050565b6000602082019050620008066000830184620006e3565b92915050565b60006020820190508181036000830152620008288184620006f4565b905092915050565b600060608201905081810360008301526200084c8186620006f4565b90506200085d602083018562000735565b6200086c60408301846200062b565b949350505050565b60006200088062000893565b90506200088e8282620009dd565b919050565b6000604051905090565b600067ffffffffffffffff821115620008bb57620008ba62000a45565b5b620008c68262000a74565b9050602081019050919050565b6000819050602082019050919050565b600081519050919050565b600081519050919050565b6000602082019050919050565b600082825260208201905092915050565b600082825260208201905092915050565b6000620009358262000946565b9050919050565b6000819050919050565b600073ffffffffffffffffffffffffffffffffffffffff82169050919050565b6000819050919050565b60006200097d8262000984565b9050919050565b6000620009918262000946565b9050919050565b82818337600083830152505050565b60005b83811015620009c7578082015181840152602081019050620009aa565b83811115620009d7576000848401525b50505050565b620009e88262000a74565b810181811067ffffffffffffffff8211171562000a0a5762000a0962000a45565b5b80604052505050565b600062000a208262000a27565b9050919050565b600062000a348262000a85565b9050919050565b6000819050919050565b7f4e487b7100000000000000000000000000000000000000000000000000000000600052604160045260246000fd5b6000601f19601f8301169050919050565b60008160601b9050919050565b62000a9d8162000928565b811462000aa957600080fd5b50565b62000ab7816200093c565b811462000ac357600080fd5b50565b62000ad18162000966565b811462000add57600080fd5b5056fe60806040523480156200001157600080fd5b5060405162002e4538038062002e458339818101604052810190620000379190620009b7565b6040518060400160405280600d81526020017f41646d696e6973747261746f720000000000000000000000000000000000000081525060006001819055506200008a6000801b33620002c660201b60201c565b620000bc7fe2889e7308860b3fe8df0daa86fccfea4d71e43776719a57be28cf90b6db81e933620003b760201b60201c565b80600260003373ffffffffffffffffffffffffffffffffffffffff1673ffffffffffffffffffffffffffffffffffffffff16815260200190815260200160002060010190805190602001906200011492919062000895565b50600154600260003373ffffffffffffffffffffffffffffffffffffffff1673ffffffffffffffffffffffffffffffffffffffff168152602001908152602001600020600001819055506003339080600181540180825580915050600190039060005260206000200160009091909190916101000a81548173ffffffffffffffffffffffffffffffffffffffff021916908373ffffffffffffffffffffffffffffffffffffffff1602179055507f5033203abc62f72bb5c4e773c4fbc6804f9bc8ca8b3ce912fbd5fd42b66f2a073382604051620001f492919062000b74565b60405180910390a15080600490805190602001906200021592919062000895565b504260058190555033600660006101000a81548173ffffffffffffffffffffffffffffffffffffffff021916908373ffffffffffffffffffffffffffffffffffffffff1602179055507f10bf240da85f4643cbc7ec93c02a4f18cef76f9179e3cc6187210b7dc3d43e3781600554600660009054906101000a900473ffffffffffffffffffffffffffffffffffffffff16604051620002b79392919062000be1565b60405180910390a15062000fdc565b620002d88282620003f060201b60201c565b620003b357600160008084815260200190815260200160002060000160008373ffffffffffffffffffffffffffffffffffffffff1673ffffffffffffffffffffffffffffffffffffffff16815260200190815260200160002060006101000a81548160ff021916908315150217905550620003586200045a60201b60201c565b73ffffffffffffffffffffffffffffffffffffffff168173ffffffffffffffffffffffffffffffffffffffff16837f2f8788117e7eff1d82e926ec794901d17c78024a50270940304540a733656f0d60405160405180910390a45b5050565b620003c8826200046260201b60201c565b620003d9816200048160201b60201c565b620003eb8383620002c660201b60201c565b505050565b600080600084815260200190815260200160002060000160008373ffffffffffffffffffffffffffffffffffffffff1673ffffffffffffffffffffffffffffffffffffffff16815260200190815260200160002060009054906101000a900460ff16905092915050565b600033905090565b6000806000838152602001908152602001600020600101549050919050565b620004a281620004966200045a60201b60201c565b620004a560201b60201c565b50565b620004b78282620003f060201b60201c565b6200054d57620004d2816200055160201b62000c511760201c565b620004ed8360001c60206200058660201b62000c7e1760201c565b6040516020016200050092919062000b32565b6040516020818303038152906040526040517f08c379a000000000000000000000000000000000000000000000000000000000815260040162000544919062000bbd565b60405180910390fd5b5050565b60606200057f8273ffffffffffffffffffffffffffffffffffffffff16601460ff166200058660201b60201c565b9050919050565b6060600060028360026200059b919062000d2a565b620005a7919062000ccd565b67ffffffffffffffff811115620005e7577f4e487b7100000000000000000000000000000000000000000000000000000000600052604160045260246000fd5b6040519080825280601f01601f1916602001820160405280156200061a5781602001600182028036833780820191505090505b5090507f30000000000000000000000000000000000000000000000000000000000000008160008151811062000679577f4e487b7100000000000000000000000000000000000000000000000000000000600052603260045260246000fd5b60200101907effffffffffffffffffffffffffffffffffffffffffffffffffffffffffffff1916908160001a9053507f78000000000000000000000000000000000000000000000000000000000000008160018151811062000704577f4e487b7100000000000000000000000000000000000000000000000000000000600052603260045260246000fd5b60200101907effffffffffffffffffffffffffffffffffffffffffffffffffffffffffffff1916908160001a9053506000600184600262000746919062000d2a565b62000752919062000ccd565b90505b600181111562000844577f3031323334353637383961626364656600000000000000000000000000000000600f861660108110620007bc577f4e487b7100000000000000000000000000000000000000000000000000000000600052603260045260246000fd5b1a60f81b828281518110620007fa577f4e487b7100000000000000000000000000000000000000000000000000000000600052603260045260246000fd5b60200101907effffffffffffffffffffffffffffffffffffffffffffffffffffffffffffff1916908160001a905350600485901c9450806200083c9062000dff565b905062000755565b50600084146200088b576040517f08c379a0000000000000000000000000000000000000000000000000000000008152600401620008829062000c25565b60405180910390fd5b8091505092915050565b828054620008a39062000e2e565b90600052602060002090601f016020900481019282620008c7576000855562000913565b82601f10620008e257805160ff191683800117855562000913565b8280016001018555821562000913579182015b8281111562000912578251825591602001919060010190620008f5565b5b50905062000922919062000926565b5090565b5b808211156200094157600081600090555060010162000927565b5090565b60006200095c620009568462000c70565b62000c47565b9050828152602081018484840111156200097557600080fd5b6200098284828562000dc9565b509392505050565b600082601f8301126200099c57600080fd5b8151620009ae84826020860162000945565b91505092915050565b600060208284031215620009ca57600080fd5b600082015167ffffffffffffffff811115620009e557600080fd5b620009f3848285016200098a565b91505092915050565b62000a078162000d8b565b82525050565b600062000a1a8262000ca6565b62000a26818562000cb1565b935062000a3881856020860162000dc9565b62000a438162000f27565b840191505092915050565b600062000a5b8262000ca6565b62000a67818562000cc2565b935062000a7981856020860162000dc9565b80840191505092915050565b600062000a9460208362000cb1565b915062000aa18262000f38565b602082019050919050565b600062000abb600b8362000cb1565b915062000ac88262000f61565b602082019050919050565b600062000ae260178362000cc2565b915062000aef8262000f8a565b601782019050919050565b600062000b0960118362000cc2565b915062000b168262000fb3565b601182019050919050565b62000b2c8162000dbf565b82525050565b600062000b3f8262000ad3565b915062000b4d828562000a4e565b915062000b5a8262000afa565b915062000b68828462000a4e565b91508190509392505050565b600060608201905062000b8b6000830185620009fc565b818103602083015262000b9f818462000a0d565b9050818103604083015262000bb48162000aac565b90509392505050565b6000602082019050818103600083015262000bd9818462000a0d565b905092915050565b6000606082019050818103600083015262000bfd818662000a0d565b905062000c0e602083018562000b21565b62000c1d6040830184620009fc565b949350505050565b6000602082019050818103600083015262000c408162000a85565b9050919050565b600062000c5362000c66565b905062000c61828262000e64565b919050565b6000604051905090565b600067ffffffffffffffff82111562000c8e5762000c8d62000ef8565b5b62000c998262000f27565b9050602081019050919050565b600081519050919050565b600082825260208201905092915050565b600081905092915050565b600062000cda8262000dbf565b915062000ce78362000dbf565b9250827fffffffffffffffffffffffffffffffffffffffffffffffffffffffffffffffff0382111562000d1f5762000d1e62000e9a565b5b828201905092915050565b600062000d378262000dbf565b915062000d448362000dbf565b9250817fffffffffffffffffffffffffffffffffffffffffffffffffffffffffffffffff048311821515161562000d805762000d7f62000e9a565b5b828202905092915050565b600062000d988262000d9f565b9050919050565b600073ffffffffffffffffffffffffffffffffffffffff82169050919050565b6000819050919050565b60005b8381101562000de957808201518184015260208101905062000dcc565b8381111562000df9576000848401525b50505050565b600062000e0c8262000dbf565b9150600082141562000e235762000e2262000e9a565b5b600182039050919050565b6000600282049050600182168062000e4757607f821691505b6020821081141562000e5e5762000e5d62000ec9565b5b50919050565b62000e6f8262000f27565b810181811067ffffffffffffffff8211171562000e915762000e9062000ef8565b5b80604052505050565b7f4e487b7100000000000000000000000000000000000000000000000000000000600052601160045260246000fd5b7f4e487b7100000000000000000000000000000000000000000000000000000000600052602260045260246000fd5b7f4e487b7100000000000000000000000000000000000000000000000000000000600052604160045260246000fd5b6000601f19601f8301169050919050565b7f537472696e67733a20686578206c656e67746820696e73756666696369656e74600082015250565b7f436f6e7472696275746f72000000000000000000000000000000000000000000600082015250565b7f416363657373436f6e74726f6c3a206163636f756e7420000000000000000000600082015250565b7f206973206d697373696e6720726f6c6520000000000000000000000000000000600082015250565b611e598062000fec6000396000f3fe608060405234801561001057600080fd5b50600436106101215760003560e01c80638da5cb5b116100ad578063cf09e0d011610071578063cf09e0d01461032f578063d547741f1461034d578063d723715414610369578063eafb79e214610385578063fde40cb6146103a357610121565b80638da5cb5b1461028b57806391d14854146102a95780639974d85f146102d9578063a217fddf146102f5578063a54f5d331461031357610121565b806336568abe116100f457806336568abe146101c0578063365b98b2146101dc578063589759191461020c5780635d0eaaaf1461022a5780637ca8f6181461025b57610121565b806301ffc9a71461012657806306fdde0314610156578063248a9ca3146101745780632f2ff15d146101a4575b600080fd5b610140600480360381019061013b9190611485565b6103d5565b60405161014d91906117ee565b60405180910390f35b61015e61044f565b60405161016b9190611824565b60405180910390f35b61018e60048036038101906101899190611420565b6104dd565b60405161019b9190611809565b60405180910390f35b6101be60048036038101906101b99190611449565b6104fc565b005b6101da60048036038101906101d59190611449565b61051d565b005b6101f660048036038101906101f191906114ef565b6105a0565b6040516102039190611724565b60405180910390f35b6102146105df565b6040516102219190611886565b60405180910390f35b610244600480360381019061023f91906113a3565b6105e5565b6040516102529291906118df565b60405180910390f35b610275600480360381019061027091906114ef565b610691565b6040516102829190611809565b60405180910390f35b6102936106b5565b6040516102a09190611724565b60405180910390f35b6102c360048036038101906102be9190611449565b6106db565b6040516102d091906117ee565b60405180910390f35b6102f360048036038101906102ee91906113a3565b610745565b005b6102fd610860565b60405161030a9190611809565b60405180910390f35b61032d600480360381019061032891906114ae565b610867565b005b6103376109a4565b6040516103449190611886565b60405180910390f35b61036760048036038101906103629190611449565b6109aa565b005b610383600480360381019061037e91906113cc565b6109cb565b005b61038d610b5b565b60405161039a9190611809565b60405180910390f35b6103bd60048036038101906103b89190611420565b610b7f565b6040516103cc939291906118a1565b60405180910390f35b60007f7965db0b000000000000000000000000000000000000000000000000000000007bffffffffffffffffffffffffffffffffffffffffffffffffffffffff1916827bffffffffffffffffffffffffffffffffffffffffffffffffffffffff19161480610448575061044782610f78565b5b9050919050565b6004805461045c90611b26565b80601f016020809104026020016040519081016040528092919081815260200182805461048890611b26565b80156104d55780601f106104aa576101008083540402835291602001916104d5565b820191906000526020600020905b8154815290600101906020018083116104b857829003601f168201915b505050505081565b6000806000838152602001908152602001600020600101549050919050565b610505826104dd565b61050e81610fe2565b6105188383610ff6565b505050565b6105256110d6565b73ffffffffffffffffffffffffffffffffffffffff168173ffffffffffffffffffffffffffffffffffffffff1614610592576040517f08c379a000000000000000000000000000000000000000000000000000000000815260040161058990611866565b60405180910390fd5b61059c82826110de565b5050565b600381815481106105b057600080fd5b906000526020600020016000915054906101000a900473ffffffffffffffffffffffffffffffffffffffff1681565b60015481565b600260205280600052604060002060009150905080600001549080600101805461060e90611b26565b80601f016020809104026020016040519081016040528092919081815260200182805461063a90611b26565b80156106875780601f1061065c57610100808354040283529160200191610687565b820191906000526020600020905b81548152906001019060200180831161066a57829003601f168201915b5050505050905082565b600881815481106106a157600080fd5b906000526020600020016000915090505481565b600660009054906101000a900473ffffffffffffffffffffffffffffffffffffffff1681565b600080600084815260200190815260200160002060000160008373ffffffffffffffffffffffffffffffffffffffff1673ffffffffffffffffffffffffffffffffffffffff16815260200190815260200160002060009054906101000a900460ff16905092915050565b6000801b61075281610fe2565b61077c7fe2889e7308860b3fe8df0daa86fccfea4d71e43776719a57be28cf90b6db81e9836109aa565b6003600260008473ffffffffffffffffffffffffffffffffffffffff1673ffffffffffffffffffffffffffffffffffffffff16815260200190815260200160002060000154815481106107f8577f4e487b7100000000000000000000000000000000000000000000000000000000600052603260045260246000fd5b9060005260206000200160006101000a81549073ffffffffffffffffffffffffffffffffffffffff02191690557f9f43a01c0d4ff5aff09b3b9b472df707ceefd3f948f8942f10fa1562a89213048260405161085491906117c0565b60405180910390a15050565b6000801b81565b7fe2889e7308860b3fe8df0daa86fccfea4d71e43776719a57be28cf90b6db81e961089181610fe2565b600033426040516020016108a69291906116be565b6040516020818303038152906040528051906020012090506000600760008381526020019081526020016000209050428160000181905550338160010160006101000a81548173ffffffffffffffffffffffffffffffffffffffff021916908373ffffffffffffffffffffffffffffffffffffffff16021790555083816002019080519060200190610939929190611244565b5060088290806001815401808255809150506001900390600052602060002001600090919091909150557ffefd27dee2120343aa0af195ac635be85abe526658ec8ce87dd5b8820241b2ce33854260405161099693929190611782565b60405180910390a150505050565b60055481565b6109b3826104dd565b6109bc81610fe2565b6109c683836110de565b505050565b6000801b6109d881610fe2565b610a027fe2889e7308860b3fe8df0daa86fccfea4d71e43776719a57be28cf90b6db81e9846104fc565b60016000815480929190610a1590611b89565b9190505550600154600260008573ffffffffffffffffffffffffffffffffffffffff1673ffffffffffffffffffffffffffffffffffffffff1681526020019081526020016000206000018190555081600260008573ffffffffffffffffffffffffffffffffffffffff1673ffffffffffffffffffffffffffffffffffffffff1681526020019081526020016000206001019080519060200190610ab9929190611244565b506003839080600181540180825580915050600190039060005260206000200160009091909190916101000a81548173ffffffffffffffffffffffffffffffffffffffff021916908373ffffffffffffffffffffffffffffffffffffffff1602179055507f5033203abc62f72bb5c4e773c4fbc6804f9bc8ca8b3ce912fbd5fd42b66f2a078383604051610b4e92919061173f565b60405180910390a1505050565b7fe2889e7308860b3fe8df0daa86fccfea4d71e43776719a57be28cf90b6db81e981565b60076020528060005260406000206000915090508060000154908060010160009054906101000a900473ffffffffffffffffffffffffffffffffffffffff1690806002018054610bce90611b26565b80601f0160208091040260200160405190810160405280929190818152602001828054610bfa90611b26565b8015610c475780601f10610c1c57610100808354040283529160200191610c47565b820191906000526020600020905b815481529060010190602001808311610c2a57829003601f168201915b5050505050905083565b6060610c778273ffffffffffffffffffffffffffffffffffffffff16601460ff16610c7e565b9050919050565b606060006002836002610c9191906119e2565b610c9b919061198c565b67ffffffffffffffff811115610cda577f4e487b7100000000000000000000000000000000000000000000000000000000600052604160045260246000fd5b6040519080825280601f01601f191660200182016040528015610d0c5781602001600182028036833780820191505090505b5090507f300000000000000000000000000000000000000000000000000000000000000081600081518110610d6a577f4e487b7100000000000000000000000000000000000000000000000000000000600052603260045260246000fd5b60200101907effffffffffffffffffffffffffffffffffffffffffffffffffffffffffffff1916908160001a9053507f780000000000000000000000000000000000000000000000000000000000000081600181518110610df4577f4e487b7100000000000000000000000000000000000000000000000000000000600052603260045260246000fd5b60200101907effffffffffffffffffffffffffffffffffffffffffffffffffffffffffffff1916908160001a90535060006001846002610e3491906119e2565b610e3e919061198c565b90505b6001811115610f2a577f3031323334353637383961626364656600000000000000000000000000000000600f861660108110610ea6577f4e487b7100000000000000000000000000000000000000000000000000000000600052603260045260246000fd5b1a60f81b828281518110610ee3577f4e487b7100000000000000000000000000000000000000000000000000000000600052603260045260246000fd5b60200101907effffffffffffffffffffffffffffffffffffffffffffffffffffffffffffff1916908160001a905350600485901c945080610f2390611afc565b9050610e41565b5060008414610f6e576040517f08c379a0000000000000000000000000000000000000000000000000000000008152600401610f6590611846565b60405180910390fd5b8091505092915050565b60007f01ffc9a7000000000000000000000000000000000000000000000000000000007bffffffffffffffffffffffffffffffffffffffffffffffffffffffff1916827bffffffffffffffffffffffffffffffffffffffffffffffffffffffff1916149050919050565b610ff381610fee6110d6565b6111bf565b50565b61100082826106db565b6110d257600160008084815260200190815260200160002060000160008373ffffffffffffffffffffffffffffffffffffffff1673ffffffffffffffffffffffffffffffffffffffff16815260200190815260200160002060006101000a81548160ff0219169083151502179055506110776110d6565b73ffffffffffffffffffffffffffffffffffffffff168173ffffffffffffffffffffffffffffffffffffffff16837f2f8788117e7eff1d82e926ec794901d17c78024a50270940304540a733656f0d60405160405180910390a45b5050565b600033905090565b6110e882826106db565b156111bb57600080600084815260200190815260200160002060000160008373ffffffffffffffffffffffffffffffffffffffff1673ffffffffffffffffffffffffffffffffffffffff16815260200190815260200160002060006101000a81548160ff0219169083151502179055506111606110d6565b73ffffffffffffffffffffffffffffffffffffffff168173ffffffffffffffffffffffffffffffffffffffff16837ff6391f5c32d9c69d2a47ea670b442974b53935d1edc7fd64eb21e047a839171b60405160405180910390a45b5050565b6111c982826106db565b611240576111d681610c51565b6111e48360001c6020610c7e565b6040516020016111f59291906116ea565b6040516020818303038152906040526040517f08c379a00000000000000000000000000000000000000000000000000000000081526004016112379190611824565b60405180910390fd5b5050565b82805461125090611b26565b90600052602060002090601f01602090048101928261127257600085556112b9565b82601f1061128b57805160ff19168380011785556112b9565b828001600101855582156112b9579182015b828111156112b857825182559160200191906001019061129d565b5b5090506112c691906112ca565b5090565b5b808211156112e35760008160009055506001016112cb565b5090565b60006112fa6112f584611934565b61190f565b90508281526020810184848401111561131257600080fd5b61131d848285611aba565b509392505050565b60008135905061133481611dc7565b92915050565b60008135905061134981611dde565b92915050565b60008135905061135e81611df5565b92915050565b600082601f83011261137557600080fd5b81356113858482602086016112e7565b91505092915050565b60008135905061139d81611e0c565b92915050565b6000602082840312156113b557600080fd5b60006113c384828501611325565b91505092915050565b600080604083850312156113df57600080fd5b60006113ed85828601611325565b925050602083013567ffffffffffffffff81111561140a57600080fd5b61141685828601611364565b9150509250929050565b60006020828403121561143257600080fd5b60006114408482850161133a565b91505092915050565b6000806040838503121561145c57600080fd5b600061146a8582860161133a565b925050602061147b85828601611325565b9150509250929050565b60006020828403121561149757600080fd5b60006114a58482850161134f565b91505092915050565b6000602082840312156114c057600080fd5b600082013567ffffffffffffffff8111156114da57600080fd5b6114e684828501611364565b91505092915050565b60006020828403121561150157600080fd5b600061150f8482850161138e565b91505092915050565b61152181611a3c565b82525050565b61153861153382611a3c565b611bd2565b82525050565b61154781611a4e565b82525050565b61155681611a5a565b82525050565b600061156782611965565b6115718185611970565b9350611581818560208601611ac9565b61158a81611c8d565b840191505092915050565b60006115a082611965565b6115aa8185611981565b93506115ba818560208601611ac9565b80840191505092915050565b60006115d3602083611970565b91506115de82611cab565b602082019050919050565b60006115f6600b83611970565b915061160182611cd4565b602082019050919050565b6000611619600d83611970565b915061162482611cfd565b602082019050919050565b600061163c601783611981565b915061164782611d26565b601782019050919050565b600061165f601183611981565b915061166a82611d4f565b601182019050919050565b6000611682602f83611970565b915061168d82611d78565b604082019050919050565b6116a181611ab0565b82525050565b6116b86116b382611ab0565b611bf6565b82525050565b60006116ca8285611527565b6014820191506116da82846116a7565b6020820191508190509392505050565b60006116f58261162f565b91506117018285611595565b915061170c82611652565b91506117188284611595565b91508190509392505050565b60006020820190506117396000830184611518565b92915050565b60006060820190506117546000830185611518565b8181036020830152611766818461155c565b905081810360408301526117798161160c565b90509392505050565b60006060820190506117976000830186611518565b81810360208301526117a9818561155c565b90506117b86040830184611698565b949350505050565b60006040820190506117d56000830184611518565b81810360208301526117e6816115e9565b905092915050565b6000602082019050611803600083018461153e565b92915050565b600060208201905061181e600083018461154d565b92915050565b6000602082019050818103600083015261183e818461155c565b905092915050565b6000602082019050818103600083015261185f816115c6565b9050919050565b6000602082019050818103600083015261187f81611675565b9050919050565b600060208201905061189b6000830184611698565b92915050565b60006060820190506118b66000830186611698565b6118c36020830185611518565b81810360408301526118d5818461155c565b9050949350505050565b60006040820190506118f46000830185611698565b8181036020830152611906818461155c565b90509392505050565b600061191961192a565b90506119258282611b58565b919050565b6000604051905090565b600067ffffffffffffffff82111561194f5761194e611c5e565b5b61195882611c8d565b9050602081019050919050565b600081519050919050565b600082825260208201905092915050565b600081905092915050565b600061199782611ab0565b91506119a283611ab0565b9250827fffffffffffffffffffffffffffffffffffffffffffffffffffffffffffffffff038211156119d7576119d6611c00565b5b828201905092915050565b60006119ed82611ab0565b91506119f883611ab0565b9250817fffffffffffffffffffffffffffffffffffffffffffffffffffffffffffffffff0483118215151615611a3157611a30611c00565b5b828202905092915050565b6000611a4782611a90565b9050919050565b60008115159050919050565b6000819050919050565b60007fffffffff0000000000000000000000000000000000000000000000000000000082169050919050565b600073ffffffffffffffffffffffffffffffffffffffff82169050919050565b6000819050919050565b82818337600083830152505050565b60005b83811015611ae7578082015181840152602081019050611acc565b83811115611af6576000848401525b50505050565b6000611b0782611ab0565b91506000821415611b1b57611b1a611c00565b5b600182039050919050565b60006002820490506001821680611b3e57607f821691505b60208210811415611b5257611b51611c2f565b5b50919050565b611b6182611c8d565b810181811067ffffffffffffffff82111715611b8057611b7f611c5e565b5b80604052505050565b6000611b9482611ab0565b91507fffffffffffffffffffffffffffffffffffffffffffffffffffffffffffffffff821415611bc757611bc6611c00565b5b600182019050919050565b6000611bdd82611be4565b9050919050565b6000611bef82611c9e565b9050919050565b6000819050919050565b7f4e487b7100000000000000000000000000000000000000000000000000000000600052601160045260246000fd5b7f4e487b7100000000000000000000000000000000000000000000000000000000600052602260045260246000fd5b7f4e487b7100000000000000000000000000000000000000000000000000000000600052604160045260246000fd5b6000601f19601f8301169050919050565b60008160601b9050919050565b7f537472696e67733a20686578206c656e67746820696e73756666696369656e74600082015250565b7f436f6e7472696275746f72000000000000000000000000000000000000000000600082015250565b7f41646d696e6973747261746f7200000000000000000000000000000000000000600082015250565b7f416363657373436f6e74726f6c3a206163636f756e7420000000000000000000600082015250565b7f206973206d697373696e6720726f6c6520000000000000000000000000000000600082015250565b7f416363657373436f6e74726f6c3a2063616e206f6e6c792072656e6f756e636560008201527f20726f6c657320666f722073656c660000000000000000000000000000000000602082015250565b611dd081611a3c565b8114611ddb57600080fd5b50565b611de781611a5a565b8114611df257600080fd5b50565b611dfe81611a64565b8114611e0957600080fd5b50565b611e1581611ab0565b8114611e2057600080fd5b5056fea2646970667358221220706ee73e66c2fd82fce38702467aae2b2de9fbf62ba317c4d5285be941c638f564736f6c63430008040033a26469706673582212209f9f90498908786c80ba591875ae066f65c4986bab96817e85330a215ff6f0fa64736f6c63430008040033",
  "linkReferences": {},
  "deployedLinkReferences": {}
}