{
  "_format": "hh-sol-artifact-1",
  "contractName": "WavePortal",
  "sourceName": "contracts/WavePortal.sol",
  "abi": [
    {
      "inputs": [],
      "stateMutability": "payable",
      "type": "constructor"
    },
    {
      "anonymous": false,
      "inputs": [
        {
          "indexed": true,
          "internalType": "address",
          "name": "from",
          "type": "address"
        },
        {
          "indexed": false,
          "internalType": "string",
          "name": "message",
          "type": "string"
        },
        {
          "indexed": false,
          "internalType": "uint256",
          "name": "timestamp",
          "type": "uint256"
        }
      ],
      "name": "NewWave",
      "type": "event"
    },
    {
      "anonymous": false,
      "inputs": [
        {
          "indexed": false,
          "internalType": "address",
          "name": "receiver",
          "type": "address"
        },
        {
          "indexed": false,
          "internalType": "uint256",
          "name": "amount",
          "type": "uint256"
        }
      ],
      "name": "PrizeMoneySent",
      "type": "event"
    },
    {
      "inputs": [],
      "name": "getAllWaves",
      "outputs": [
        {
          "components": [
            {
              "internalType": "address",
              "name": "waver",
              "type": "address"
            },
            {
              "internalType": "string",
              "name": "message",
              "type": "string"
            },
            {
              "internalType": "uint256",
              "name": "timestamp",
              "type": "uint256"
            }
          ],
          "internalType": "struct WavePortal.Wave[]",
          "name": "",
          "type": "tuple[]"
        }
      ],
      "stateMutability": "view",
      "type": "function"
    },
    {
      "inputs": [],
      "name": "getBalance",
      "outputs": [
        {
          "internalType": "uint256",
          "name": "",
          "type": "uint256"
        }
      ],
      "stateMutability": "view",
      "type": "function"
    },
    {
      "inputs": [],
      "name": "owner",
      "outputs": [
        {
          "internalType": "address payable",
          "name": "",
          "type": "address"
        }
      ],
      "stateMutability": "view",
      "type": "function"
    },
    {
      "inputs": [],
      "name": "totalWaveCount",
      "outputs": [
        {
          "internalType": "uint256",
          "name": "",
          "type": "uint256"
        }
      ],
      "stateMutability": "view",
      "type": "function"
    },
    {
      "inputs": [
        {
          "internalType": "string",
          "name": "_message",
          "type": "string"
        }
      ],
      "name": "wave",
      "outputs": [],
      "stateMutability": "payable",
      "type": "function"
    },
    {
      "inputs": [
        {
          "internalType": "uint256",
          "name": "",
          "type": "uint256"
        }
      ],
      "name": "waves",
      "outputs": [
        {
          "internalType": "address",
          "name": "waver",
          "type": "address"
        },
        {
          "internalType": "string",
          "name": "message",
          "type": "string"
        },
        {
          "internalType": "uint256",
          "name": "timestamp",
          "type": "uint256"
        }
      ],
      "stateMutability": "view",
      "type": "function"
    },
    {
      "inputs": [],
      "name": "withdraw",
      "outputs": [],
      "stateMutability": "payable",
      "type": "function"
    }
  ],
  "bytecode": "0x600380546001600160a01b0319163317905560e06040526024608081815261003691610d9760a03961003b60201b6108231760201c565b6100f9565b6100828160405160240161004f91906100a6565b60408051601f198184030181529190526020810180516001600160e01b0390811663104c13eb60e21b1790915261008516565b50565b80516a636f6e736f6c652e6c6f67602083016000808483855afa5050505050565b6000602080835283518082850152825b818110156100d2578581018301518582016040015282016100b6565b818111156100e35783604083870101525b50601f01601f1916929092016040019392505050565b610c8f806101086000396000f3fe6080604052600436106100705760003560e01c80638da5cb5b1161004e5780638da5cb5b146100b4578063bd43a908146100ec578063c781267a1461010e578063e933f5c31461013d57600080fd5b806312065fe0146100755780633ccfd60b14610097578063449d46c0146100a1575b600080fd5b34801561008157600080fd5b50475b6040519081526020015b60405180910390f35b61009f610153565b005b61009f6100af3660046109c0565b6102b1565b3480156100c057600080fd5b506003546100d4906001600160a01b031681565b6040516001600160a01b03909116815260200161008e565b3480156100f857600080fd5b5061010161064a565b60405161008e9190610aff565b34801561011a57600080fd5b5061012e610129366004610a6a565b61075b565b60405161008e93929190610acd565b34801561014957600080fd5b5061008460005481565b6003546001600160a01b031633146101d85760405162461bcd60e51b815260206004820152602e60248201527f546869732063616e206f6e6c792062652063616c6c656420627920746865206360448201527f6f6e7472616374206f776e65722100000000000000000000000000000000000060648201526084015b60405180910390fd5b6040517f7472616e7366657265642066696e616e63696572000000000000000000000000815247906000903390839060140160006040518083038185875af1925050503d8060008114610247576040519150601f19603f3d011682016040523d82523d6000602084013e61024c565b606091505b50509050806102ad5760405162461bcd60e51b815260206004820152602760248201527f4661696c656420746f207769746864726177206d6f6e65792066726f6d20636f604482015266373a3930b1ba1760c91b60648201526084016101cf565b5050565b60016000808282546102c39190610bc4565b9091555050604080516060810182523381526020808201848152429383019390935260018054808201825560009190915282517fb10e2d527612073b26eecdfd717e6a320cf44b4afac2b0732d9fcbe2b7fa0cf6600390920291820180547fffffffffffffffffffffffff0000000000000000000000000000000000000000166001600160a01b039092169190911781559351805193948594909361038c937fb10e2d527612073b26eecdfd717e6a320cf44b4afac2b0732d9fcbe2b7fa0cf701920190610927565b506040918201516002909101558051808201909152600381527f6d73670000000000000000000000000000000000000000000000000000000000602082015266b1a2bc2ec50000906103de9034610897565b8034146103ea57600080fd5b336001600160a01b03167f6728ef66814a55b797863bf8ffcd954b19cbca4ed4f0e6cf04c980705fd82c368442604051610425929190610ba2565b60405180910390a26000606460025442446104409190610bc4565b61044a9190610bc4565b6104549190610c23565b90506104956040518060400160405280601681526020017f52616e646f6d20232067656e6572617465643a2025730000000000000000000081525082610897565b60028190556032811015610644576104e16040518060400160405280601b81526020017f77696e6e65722077696e6e657220636869636b656e2064696e6e610000000000815250610823565b6706f05b59d3b20000478111156105605760405162461bcd60e51b815260206004820152603560248201527f547279696e6720746f207769746864726177206d6f7265206d6f6e657920746860448201527f616e207468657920636f6e7472616374206861732e000000000000000000000060648201526084016101cf565b604051600090339083908381818185875af1925050503d80600081146105a2576040519150601f19603f3d011682016040523d82523d6000602084013e6105a7565b606091505b50509050806106085760405162461bcd60e51b815260206004820152602760248201527f4661696c656420746f207769746864726177206d6f6e65792066726f6d20636f604482015266373a3930b1ba1760c91b60648201526084016101cf565b60408051338152602081018490527f91a1effa1fdfb2637c318a79fd134e723580ac0f2f6d001dfc2688905d7d04ab910160405180910390a150505b50505050565b60606001805480602002602001604051908101604052809291908181526020016000905b8282101561075257600084815260209081902060408051606081019091526003850290910180546001600160a01b0316825260018101805492939192918401916106b790610be8565b80601f01602080910402602001604051908101604052809291908181526020018280546106e390610be8565b80156107305780601f1061070557610100808354040283529160200191610730565b820191906000526020600020905b81548152906001019060200180831161071357829003601f168201915b505050505081526020016002820154815250508152602001906001019061066e565b50505050905090565b6001818154811061076b57600080fd5b6000918252602090912060039091020180546001820180546001600160a01b0390921693509061079a90610be8565b80601f01602080910402602001604051908101604052809291908181526020018280546107c690610be8565b80156108135780601f106107e857610100808354040283529160200191610813565b820191906000526020600020905b8154815290600101906020018083116107f657829003601f168201915b5050505050908060020154905083565b610894816040516024016108379190610b88565b60408051601f198184030181529190526020810180517bffffffffffffffffffffffffffffffffffffffffffffffffffffffff167f41304fac00000000000000000000000000000000000000000000000000000000179052610906565b50565b6102ad82826040516024016108ad929190610ba2565b60408051601f198184030181529190526020810180517bffffffffffffffffffffffffffffffffffffffffffffffffffffffff167fb60e72cc000000000000000000000000000000000000000000000000000000001790525b80516a636f6e736f6c652e6c6f67602083016000808483855afa5050505050565b82805461093390610be8565b90600052602060002090601f016020900481019282610955576000855561099b565b82601f1061096e57805160ff191683800117855561099b565b8280016001018555821561099b579182015b8281111561099b578251825591602001919060010190610980565b506109a79291506109ab565b5090565b5b808211156109a757600081556001016109ac565b6000602082840312156109d1578081fd5b813567ffffffffffffffff808211156109e8578283fd5b818401915084601f8301126109fb578283fd5b813581811115610a0d57610a0d610c43565b604051601f8201601f19908116603f01168101908382118183101715610a3557610a35610c43565b81604052828152876020848701011115610a4d578586fd5b826020860160208301379182016020019490945295945050505050565b600060208284031215610a7b578081fd5b5035919050565b60008151808452815b81811015610aa757602081850181015186830182015201610a8b565b81811115610ab85782602083870101525b50601f01601f19169290920160200192915050565b6001600160a01b0384168152606060208201526000610aef6060830185610a82565b9050826040830152949350505050565b60006020808301818452808551808352604092508286019150828160051b870101848801865b83811015610b7a57603f19898403018552815160606001600160a01b03825116855288820151818a870152610b5c82870182610a82565b92890151958901959095525094870194925090860190600101610b25565b509098975050505050505050565b602081526000610b9b6020830184610a82565b9392505050565b604081526000610bb56040830185610a82565b90508260208301529392505050565b60008219821115610be357634e487b7160e01b81526011600452602481fd5b500190565b600181811c90821680610bfc57607f821691505b60208210811415610c1d57634e487b7160e01b600052602260045260246000fd5b50919050565b600082610c3e57634e487b7160e01b81526012600452602481fd5b500690565b634e487b7160e01b600052604160045260246000fdfea264697066735822122002b5aa833aaafdb20ea42e1d6870fdaa891b726f590efe7c798a1ead1cca600f64736f6c63430008040033596f20796f2c204920616d206120636f6e747261637420616d204920616d20736d617274",
  "linkReferences": {},
  "deployedLinkReferences": {}
}