{
  "_format": "hh-sol-artifact-1",
  "contractName": "WavePortal",
  "sourceName": "contracts/WavePortal.sol",
  "abi": [
    {
      "inputs": [],
      "stateMutability": "payable",
      "type": "constructor"
    },
    {
      "anonymous": false,
      "inputs": [
        {
          "indexed": true,
          "internalType": "address",
          "name": "from",
          "type": "address"
        },
        {
          "indexed": false,
          "internalType": "string",
          "name": "message",
          "type": "string"
        },
        {
          "indexed": false,
          "internalType": "uint256",
          "name": "timestamp",
          "type": "uint256"
        }
      ],
      "name": "NewWave",
      "type": "event"
    },
    {
      "anonymous": false,
      "inputs": [
        {
          "indexed": false,
          "internalType": "address",
          "name": "receiver",
          "type": "address"
        },
        {
          "indexed": false,
          "internalType": "uint256",
          "name": "amount",
          "type": "uint256"
        }
      ],
      "name": "PrizeMoneySent",
      "type": "event"
    },
    {
      "inputs": [],
      "name": "getAllWaves",
      "outputs": [
        {
          "components": [
            {
              "internalType": "address",
              "name": "waver",
              "type": "address"
            },
            {
              "internalType": "string",
              "name": "message",
              "type": "string"
            },
            {
              "internalType": "uint256",
              "name": "timestamp",
              "type": "uint256"
            }
          ],
          "internalType": "struct WavePortal.Wave[]",
          "name": "",
          "type": "tuple[]"
        }
      ],
      "stateMutability": "view",
      "type": "function"
    },
    {
      "inputs": [],
      "name": "getBalance",
      "outputs": [
        {
          "internalType": "uint256",
          "name": "",
          "type": "uint256"
        }
      ],
      "stateMutability": "view",
      "type": "function"
    },
    {
      "inputs": [],
      "name": "owner",
      "outputs": [
        {
          "internalType": "address payable",
          "name": "",
          "type": "address"
        }
      ],
      "stateMutability": "view",
      "type": "function"
    },
    {
      "inputs": [],
      "name": "totalWaveCount",
      "outputs": [
        {
          "internalType": "uint256",
          "name": "",
          "type": "uint256"
        }
      ],
      "stateMutability": "view",
      "type": "function"
    },
    {
      "inputs": [
        {
          "internalType": "string",
          "name": "_message",
          "type": "string"
        }
      ],
      "name": "wave",
      "outputs": [],
      "stateMutability": "payable",
      "type": "function"
    },
    {
      "inputs": [
        {
          "internalType": "uint256",
          "name": "",
          "type": "uint256"
        }
      ],
      "name": "waves",
      "outputs": [
        {
          "internalType": "address",
          "name": "waver",
          "type": "address"
        },
        {
          "internalType": "string",
          "name": "message",
          "type": "string"
        },
        {
          "internalType": "uint256",
          "name": "timestamp",
          "type": "uint256"
        }
      ],
      "stateMutability": "view",
      "type": "function"
    },
    {
      "inputs": [],
      "name": "withdraw",
      "outputs": [],
      "stateMutability": "payable",
      "type": "function"
    }
  ],
  "bytecode": "0x608060405233600360006101000a81548173ffffffffffffffffffffffffffffffffffffffff021916908373ffffffffffffffffffffffffffffffffffffffff1602179055506200007460405180606001604052806024815260200162001611602491396200007a60201b620008b71760201c565b6200020e565b6200011a8160405160240162000091919062000187565b6040516020818303038152906040527f41304fac000000000000000000000000000000000000000000000000000000007bffffffffffffffffffffffffffffffffffffffffffffffffffffffff19166020820180517bffffffffffffffffffffffffffffffffffffffffffffffffffffffff83818316178352505050506200011d60201b60201c565b50565b60008151905060006a636f6e736f6c652e6c6f679050602083016000808483855afa5050505050565b60006200015382620001ab565b6200015f8185620001b6565b935062000171818560208601620001c7565b6200017c81620001fd565b840191505092915050565b60006020820190508181036000830152620001a3818462000146565b905092915050565b600081519050919050565b600082825260208201905092915050565b60005b83811015620001e7578082015181840152602081019050620001ca565b83811115620001f7576000848401525b50505050565b6000601f19601f8301169050919050565b6113f3806200021e6000396000f3fe6080604052600436106100705760003560e01c80638da5cb5b1161004e5780638da5cb5b146100c6578063bd43a908146100f1578063c781267a1461011c578063e933f5c31461015b57610070565b806312065fe0146100755780633ccfd60b146100a0578063449d46c0146100aa575b600080fd5b34801561008157600080fd5b5061008a610186565b6040516100979190610f64565b60405180910390f35b6100a861018e565b005b6100c460048036038101906100bf9190610b35565b6102d3565b005b3480156100d257600080fd5b506100db610658565b6040516100e89190610e0e565b60405180910390f35b3480156100fd57600080fd5b5061010661067e565b6040516101139190610e90565b60405180910390f35b34801561012857600080fd5b50610143600480360381019061013e9190610b76565b6107cf565b60405161015293929190610e29565b60405180910390f35b34801561016757600080fd5b506101706108b1565b60405161017d9190610f64565b60405180910390f35b600047905090565b600360009054906101000a900473ffffffffffffffffffffffffffffffffffffffff1673ffffffffffffffffffffffffffffffffffffffff163373ffffffffffffffffffffffffffffffffffffffff161461021e576040517f08c379a000000000000000000000000000000000000000000000000000000000815260040161021590610f04565b60405180910390fd5b600047905060003373ffffffffffffffffffffffffffffffffffffffff168260405161024990610de4565b60006040518083038185875af1925050503d8060008114610286576040519150601f19603f3d011682016040523d82523d6000602084013e61028b565b606091505b50509050806102cf576040517f08c379a00000000000000000000000000000000000000000000000000000000081526004016102c690610f24565b60405180910390fd5b5050565b60016000808282546102e59190611046565b92505081905550600060405180606001604052803373ffffffffffffffffffffffffffffffffffffffff168152602001838152602001428152509050600181908060018154018082558091505060019003906000526020600020906003020160009091909190915060008201518160000160006101000a81548173ffffffffffffffffffffffffffffffffffffffff021916908373ffffffffffffffffffffffffffffffffffffffff16021790555060208201518160010190805190602001906103b0929190610a15565b50604082015181600201555050600066b1a2bc2ec5000090506104086040518060400160405280600381526020017f6d7367000000000000000000000000000000000000000000000000000000000081525034610950565b80341461041457600080fd5b3373ffffffffffffffffffffffffffffffffffffffff167f6728ef66814a55b797863bf8ffcd954b19cbca4ed4f0e6cf04c980705fd82c36844260405161045c929190610ed4565b60405180910390a26000606460025442446104779190611046565b6104819190611046565b61048b919061118f565b90506104cc6040518060400160405280601681526020017f52616e646f6d20232067656e6572617465643a2025730000000000000000000081525082610950565b8060028190555060328110156106525761051a6040518060400160405280601b81526020017f77696e6e65722077696e6e657220636869636b656e2064696e6e6100000000008152506108b7565b60006706f05b59d3b2000090504781111561056a576040517f08c379a000000000000000000000000000000000000000000000000000000000815260040161056190610f44565b60405180910390fd5b60003373ffffffffffffffffffffffffffffffffffffffff168260405161059090610df9565b60006040518083038185875af1925050503d80600081146105cd576040519150601f19603f3d011682016040523d82523d6000602084013e6105d2565b606091505b5050905080610616576040517f08c379a000000000000000000000000000000000000000000000000000000000815260040161060d90610f24565b60405180910390fd5b7f91a1effa1fdfb2637c318a79fd134e723580ac0f2f6d001dfc2688905d7d04ab3383604051610647929190610e67565b60405180910390a150505b50505050565b600360009054906101000a900473ffffffffffffffffffffffffffffffffffffffff1681565b60606001805480602002602001604051908101604052809291908181526020016000905b828210156107c657838290600052602060002090600302016040518060600160405290816000820160009054906101000a900473ffffffffffffffffffffffffffffffffffffffff1673ffffffffffffffffffffffffffffffffffffffff1673ffffffffffffffffffffffffffffffffffffffff16815260200160018201805461072b9061112c565b80601f01602080910402602001604051908101604052809291908181526020018280546107579061112c565b80156107a45780601f10610779576101008083540402835291602001916107a4565b820191906000526020600020905b81548152906001019060200180831161078757829003601f168201915b50505050508152602001600282015481525050815260200190600101906106a2565b50505050905090565b600181815481106107df57600080fd5b90600052602060002090600302016000915090508060000160009054906101000a900473ffffffffffffffffffffffffffffffffffffffff16908060010180546108289061112c565b80601f01602080910402602001604051908101604052809291908181526020018280546108549061112c565b80156108a15780601f10610876576101008083540402835291602001916108a1565b820191906000526020600020905b81548152906001019060200180831161088457829003601f168201915b5050505050908060020154905083565b60005481565b61094d816040516024016108cb9190610eb2565b6040516020818303038152906040527f41304fac000000000000000000000000000000000000000000000000000000007bffffffffffffffffffffffffffffffffffffffffffffffffffffffff19166020820180517bffffffffffffffffffffffffffffffffffffffffffffffffffffffff83818316178352505050506109ec565b50565b6109e88282604051602401610966929190610ed4565b6040516020818303038152906040527fb60e72cc000000000000000000000000000000000000000000000000000000007bffffffffffffffffffffffffffffffffffffffffffffffffffffffff19166020820180517bffffffffffffffffffffffffffffffffffffffffffffffffffffffff83818316178352505050506109ec565b5050565b60008151905060006a636f6e736f6c652e6c6f679050602083016000808483855afa5050505050565b828054610a219061112c565b90600052602060002090601f016020900481019282610a435760008555610a8a565b82601f10610a5c57805160ff1916838001178555610a8a565b82800160010185558215610a8a579182015b82811115610a89578251825591602001919060010190610a6e565b5b509050610a979190610a9b565b5090565b5b80821115610ab4576000816000905550600101610a9c565b5090565b6000610acb610ac684610fa4565b610f7f565b905082815260208101848484011115610ae357600080fd5b610aee8482856110ea565b509392505050565b600082601f830112610b0757600080fd5b8135610b17848260208601610ab8565b91505092915050565b600081359050610b2f816113a6565b92915050565b600060208284031215610b4757600080fd5b600082013567ffffffffffffffff811115610b6157600080fd5b610b6d84828501610af6565b91505092915050565b600060208284031215610b8857600080fd5b6000610b9684828501610b20565b91505092915050565b6000610bab8383610d76565b905092915050565b610bbc816110ae565b82525050565b610bcb8161109c565b82525050565b610bda8161109c565b82525050565b6000610beb82610fe5565b610bf58185611008565b935083602082028501610c0785610fd5565b8060005b85811015610c435784840389528151610c248582610b9f565b9450610c2f83610ffb565b925060208a01995050600181019050610c0b565b50829750879550505050505092915050565b6000610c6082610ff0565b610c6a8185611024565b9350610c7a8185602086016110f9565b610c838161127c565b840191505092915050565b6000610c9982610ff0565b610ca38185611035565b9350610cb38185602086016110f9565b610cbc8161127c565b840191505092915050565b6000610cd4601483611019565b9150610cdf8261128d565b601482019050919050565b6000610cf7602e83611035565b9150610d02826112b6565b604082019050919050565b6000610d1a602783611035565b9150610d2582611305565b604082019050919050565b6000610d3d603583611035565b9150610d4882611354565b604082019050919050565b6000610d60600083611019565b9150610d6b826113a3565b600082019050919050565b6000606083016000830151610d8e6000860182610bc2565b5060208301518482036020860152610da68282610c55565b9150506040830151610dbb6040860182610dc6565b508091505092915050565b610dcf816110e0565b82525050565b610dde816110e0565b82525050565b6000610def82610cc7565b9150819050919050565b6000610e0482610d53565b9150819050919050565b6000602082019050610e236000830184610bb3565b92915050565b6000606082019050610e3e6000830186610bd1565b8181036020830152610e508185610c8e565b9050610e5f6040830184610dd5565b949350505050565b6000604082019050610e7c6000830185610bd1565b610e896020830184610dd5565b9392505050565b60006020820190508181036000830152610eaa8184610be0565b905092915050565b60006020820190508181036000830152610ecc8184610c8e565b905092915050565b60006040820190508181036000830152610eee8185610c8e565b9050610efd6020830184610dd5565b9392505050565b60006020820190508181036000830152610f1d81610cea565b9050919050565b60006020820190508181036000830152610f3d81610d0d565b9050919050565b60006020820190508181036000830152610f5d81610d30565b9050919050565b6000602082019050610f796000830184610dd5565b92915050565b6000610f89610f9a565b9050610f95828261115e565b919050565b6000604051905090565b600067ffffffffffffffff821115610fbf57610fbe61124d565b5b610fc88261127c565b9050602081019050919050565b6000819050602082019050919050565b600081519050919050565b600081519050919050565b6000602082019050919050565b600082825260208201905092915050565b600081905092915050565b600082825260208201905092915050565b600082825260208201905092915050565b6000611051826110e0565b915061105c836110e0565b9250827fffffffffffffffffffffffffffffffffffffffffffffffffffffffffffffffff03821115611091576110906111c0565b5b828201905092915050565b60006110a7826110c0565b9050919050565b60006110b9826110c0565b9050919050565b600073ffffffffffffffffffffffffffffffffffffffff82169050919050565b6000819050919050565b82818337600083830152505050565b60005b838110156111175780820151818401526020810190506110fc565b83811115611126576000848401525b50505050565b6000600282049050600182168061114457607f821691505b602082108114156111585761115761121e565b5b50919050565b6111678261127c565b810181811067ffffffffffffffff821117156111865761118561124d565b5b80604052505050565b600061119a826110e0565b91506111a5836110e0565b9250826111b5576111b46111ef565b5b828206905092915050565b7f4e487b7100000000000000000000000000000000000000000000000000000000600052601160045260246000fd5b7f4e487b7100000000000000000000000000000000000000000000000000000000600052601260045260246000fd5b7f4e487b7100000000000000000000000000000000000000000000000000000000600052602260045260246000fd5b7f4e487b7100000000000000000000000000000000000000000000000000000000600052604160045260246000fd5b6000601f19601f8301169050919050565b7f7472616e7366657265642066696e616e63696572000000000000000000000000600082015250565b7f546869732063616e206f6e6c792062652063616c6c656420627920746865206360008201527f6f6e7472616374206f776e657221000000000000000000000000000000000000602082015250565b7f4661696c656420746f207769746864726177206d6f6e65792066726f6d20636f60008201527f6e74726163742e00000000000000000000000000000000000000000000000000602082015250565b7f547279696e6720746f207769746864726177206d6f7265206d6f6e657920746860008201527f616e207468657920636f6e7472616374206861732e0000000000000000000000602082015250565b50565b6113af816110e0565b81146113ba57600080fd5b5056fea2646970667358221220804ed9bc6a1e2bd514346a3533e81716e8d13953c88914d259569a433852a98464736f6c63430008040033596f20796f2c204920616d206120636f6e747261637420616d204920616d20736d617274",
  "linkReferences": {},
  "deployedLinkReferences": {}
}