{
  "_format": "hh-sol-artifact-1",
  "contractName": "MyGovernor",
  "sourceName": "contracts/GrantController.sol",
  "abi": [
    {
      "inputs": [
        {
          "internalType": "contract IVotes",
          "name": "_token",
          "type": "address"
        },
        {
          "internalType": "contract TimelockController",
          "name": "_timelock",
          "type": "address"
        }
      ],
      "stateMutability": "nonpayable",
      "type": "constructor"
    },
    {
      "inputs": [],
      "name": "Empty",
      "type": "error"
    },
    {
      "anonymous": false,
      "inputs": [
        {
          "indexed": false,
          "internalType": "uint256",
          "name": "proposalId",
          "type": "uint256"
        }
      ],
      "name": "ProposalCanceled",
      "type": "event"
    },
    {
      "anonymous": false,
      "inputs": [
        {
          "indexed": false,
          "internalType": "uint256",
          "name": "proposalId",
          "type": "uint256"
        },
        {
          "indexed": false,
          "internalType": "address",
          "name": "proposer",
          "type": "address"
        },
        {
          "indexed": false,
          "internalType": "address[]",
          "name": "targets",
          "type": "address[]"
        },
        {
          "indexed": false,
          "internalType": "uint256[]",
          "name": "values",
          "type": "uint256[]"
        },
        {
          "indexed": false,
          "internalType": "string[]",
          "name": "signatures",
          "type": "string[]"
        },
        {
          "indexed": false,
          "internalType": "bytes[]",
          "name": "calldatas",
          "type": "bytes[]"
        },
        {
          "indexed": false,
          "internalType": "uint256",
          "name": "startBlock",
          "type": "uint256"
        },
        {
          "indexed": false,
          "internalType": "uint256",
          "name": "endBlock",
          "type": "uint256"
        },
        {
          "indexed": false,
          "internalType": "string",
          "name": "description",
          "type": "string"
        }
      ],
      "name": "ProposalCreated",
      "type": "event"
    },
    {
      "anonymous": false,
      "inputs": [
        {
          "indexed": false,
          "internalType": "uint256",
          "name": "proposalId",
          "type": "uint256"
        }
      ],
      "name": "ProposalExecuted",
      "type": "event"
    },
    {
      "anonymous": false,
      "inputs": [
        {
          "indexed": false,
          "internalType": "uint256",
          "name": "proposalId",
          "type": "uint256"
        },
        {
          "indexed": false,
          "internalType": "uint256",
          "name": "eta",
          "type": "uint256"
        }
      ],
      "name": "ProposalQueued",
      "type": "event"
    },
    {
      "anonymous": false,
      "inputs": [
        {
          "indexed": false,
          "internalType": "uint256",
          "name": "oldProposalThreshold",
          "type": "uint256"
        },
        {
          "indexed": false,
          "internalType": "uint256",
          "name": "newProposalThreshold",
          "type": "uint256"
        }
      ],
      "name": "ProposalThresholdSet",
      "type": "event"
    },
    {
      "anonymous": false,
      "inputs": [
        {
          "indexed": false,
          "internalType": "uint256",
          "name": "oldQuorumNumerator",
          "type": "uint256"
        },
        {
          "indexed": false,
          "internalType": "uint256",
          "name": "newQuorumNumerator",
          "type": "uint256"
        }
      ],
      "name": "QuorumNumeratorUpdated",
      "type": "event"
    },
    {
      "anonymous": false,
      "inputs": [
        {
          "indexed": false,
          "internalType": "address",
          "name": "oldTimelock",
          "type": "address"
        },
        {
          "indexed": false,
          "internalType": "address",
          "name": "newTimelock",
          "type": "address"
        }
      ],
      "name": "TimelockChange",
      "type": "event"
    },
    {
      "anonymous": false,
      "inputs": [
        {
          "indexed": true,
          "internalType": "address",
          "name": "voter",
          "type": "address"
        },
        {
          "indexed": false,
          "internalType": "uint256",
          "name": "proposalId",
          "type": "uint256"
        },
        {
          "indexed": false,
          "internalType": "uint8",
          "name": "support",
          "type": "uint8"
        },
        {
          "indexed": false,
          "internalType": "uint256",
          "name": "weight",
          "type": "uint256"
        },
        {
          "indexed": false,
          "internalType": "string",
          "name": "reason",
          "type": "string"
        }
      ],
      "name": "VoteCast",
      "type": "event"
    },
    {
      "anonymous": false,
      "inputs": [
        {
          "indexed": true,
          "internalType": "address",
          "name": "voter",
          "type": "address"
        },
        {
          "indexed": false,
          "internalType": "uint256",
          "name": "proposalId",
          "type": "uint256"
        },
        {
          "indexed": false,
          "internalType": "uint8",
          "name": "support",
          "type": "uint8"
        },
        {
          "indexed": false,
          "internalType": "uint256",
          "name": "weight",
          "type": "uint256"
        },
        {
          "indexed": false,
          "internalType": "string",
          "name": "reason",
          "type": "string"
        },
        {
          "indexed": false,
          "internalType": "bytes",
          "name": "params",
          "type": "bytes"
        }
      ],
      "name": "VoteCastWithParams",
      "type": "event"
    },
    {
      "anonymous": false,
      "inputs": [
        {
          "indexed": false,
          "internalType": "uint256",
          "name": "oldVotingDelay",
          "type": "uint256"
        },
        {
          "indexed": false,
          "internalType": "uint256",
          "name": "newVotingDelay",
          "type": "uint256"
        }
      ],
      "name": "VotingDelaySet",
      "type": "event"
    },
    {
      "anonymous": false,
      "inputs": [
        {
          "indexed": false,
          "internalType": "uint256",
          "name": "oldVotingPeriod",
          "type": "uint256"
        },
        {
          "indexed": false,
          "internalType": "uint256",
          "name": "newVotingPeriod",
          "type": "uint256"
        }
      ],
      "name": "VotingPeriodSet",
      "type": "event"
    },
    {
      "inputs": [],
      "name": "BALLOT_TYPEHASH",
      "outputs": [
        {
          "internalType": "bytes32",
          "name": "",
          "type": "bytes32"
        }
      ],
      "stateMutability": "view",
      "type": "function"
    },
    {
      "inputs": [],
      "name": "COUNTING_MODE",
      "outputs": [
        {
          "internalType": "string",
          "name": "",
          "type": "string"
        }
      ],
      "stateMutability": "pure",
      "type": "function"
    },
    {
      "inputs": [],
      "name": "EXTENDED_BALLOT_TYPEHASH",
      "outputs": [
        {
          "internalType": "bytes32",
          "name": "",
          "type": "bytes32"
        }
      ],
      "stateMutability": "view",
      "type": "function"
    },
    {
      "inputs": [
        {
          "internalType": "uint256",
          "name": "proposalId",
          "type": "uint256"
        },
        {
          "internalType": "uint8",
          "name": "support",
          "type": "uint8"
        }
      ],
      "name": "castVote",
      "outputs": [
        {
          "internalType": "uint256",
          "name": "",
          "type": "uint256"
        }
      ],
      "stateMutability": "nonpayable",
      "type": "function"
    },
    {
      "inputs": [
        {
          "internalType": "uint256",
          "name": "proposalId",
          "type": "uint256"
        },
        {
          "internalType": "uint8",
          "name": "support",
          "type": "uint8"
        },
        {
          "internalType": "uint8",
          "name": "v",
          "type": "uint8"
        },
        {
          "internalType": "bytes32",
          "name": "r",
          "type": "bytes32"
        },
        {
          "internalType": "bytes32",
          "name": "s",
          "type": "bytes32"
        }
      ],
      "name": "castVoteBySig",
      "outputs": [
        {
          "internalType": "uint256",
          "name": "",
          "type": "uint256"
        }
      ],
      "stateMutability": "nonpayable",
      "type": "function"
    },
    {
      "inputs": [
        {
          "internalType": "uint256",
          "name": "proposalId",
          "type": "uint256"
        },
        {
          "internalType": "uint8",
          "name": "support",
          "type": "uint8"
        },
        {
          "internalType": "string",
          "name": "reason",
          "type": "string"
        }
      ],
      "name": "castVoteWithReason",
      "outputs": [
        {
          "internalType": "uint256",
          "name": "",
          "type": "uint256"
        }
      ],
      "stateMutability": "nonpayable",
      "type": "function"
    },
    {
      "inputs": [
        {
          "internalType": "uint256",
          "name": "proposalId",
          "type": "uint256"
        },
        {
          "internalType": "uint8",
          "name": "support",
          "type": "uint8"
        },
        {
          "internalType": "string",
          "name": "reason",
          "type": "string"
        },
        {
          "internalType": "bytes",
          "name": "params",
          "type": "bytes"
        }
      ],
      "name": "castVoteWithReasonAndParams",
      "outputs": [
        {
          "internalType": "uint256",
          "name": "",
          "type": "uint256"
        }
      ],
      "stateMutability": "nonpayable",
      "type": "function"
    },
    {
      "inputs": [
        {
          "internalType": "uint256",
          "name": "proposalId",
          "type": "uint256"
        },
        {
          "internalType": "uint8",
          "name": "support",
          "type": "uint8"
        },
        {
          "internalType": "string",
          "name": "reason",
          "type": "string"
        },
        {
          "internalType": "bytes",
          "name": "params",
          "type": "bytes"
        },
        {
          "internalType": "uint8",
          "name": "v",
          "type": "uint8"
        },
        {
          "internalType": "bytes32",
          "name": "r",
          "type": "bytes32"
        },
        {
          "internalType": "bytes32",
          "name": "s",
          "type": "bytes32"
        }
      ],
      "name": "castVoteWithReasonAndParamsBySig",
      "outputs": [
        {
          "internalType": "uint256",
          "name": "",
          "type": "uint256"
        }
      ],
      "stateMutability": "nonpayable",
      "type": "function"
    },
    {
      "inputs": [
        {
          "internalType": "address[]",
          "name": "targets",
          "type": "address[]"
        },
        {
          "internalType": "uint256[]",
          "name": "values",
          "type": "uint256[]"
        },
        {
          "internalType": "bytes[]",
          "name": "calldatas",
          "type": "bytes[]"
        },
        {
          "internalType": "bytes32",
          "name": "descriptionHash",
          "type": "bytes32"
        }
      ],
      "name": "execute",
      "outputs": [
        {
          "internalType": "uint256",
          "name": "",
          "type": "uint256"
        }
      ],
      "stateMutability": "payable",
      "type": "function"
    },
    {
      "inputs": [
        {
          "internalType": "address",
          "name": "account",
          "type": "address"
        },
        {
          "internalType": "uint256",
          "name": "blockNumber",
          "type": "uint256"
        }
      ],
      "name": "getVotes",
      "outputs": [
        {
          "internalType": "uint256",
          "name": "",
          "type": "uint256"
        }
      ],
      "stateMutability": "view",
      "type": "function"
    },
    {
      "inputs": [
        {
          "internalType": "address",
          "name": "account",
          "type": "address"
        },
        {
          "internalType": "uint256",
          "name": "blockNumber",
          "type": "uint256"
        },
        {
          "internalType": "bytes",
          "name": "params",
          "type": "bytes"
        }
      ],
      "name": "getVotesWithParams",
      "outputs": [
        {
          "internalType": "uint256",
          "name": "",
          "type": "uint256"
        }
      ],
      "stateMutability": "view",
      "type": "function"
    },
    {
      "inputs": [
        {
          "internalType": "uint256",
          "name": "proposalId",
          "type": "uint256"
        },
        {
          "internalType": "address",
          "name": "account",
          "type": "address"
        }
      ],
      "name": "hasVoted",
      "outputs": [
        {
          "internalType": "bool",
          "name": "",
          "type": "bool"
        }
      ],
      "stateMutability": "view",
      "type": "function"
    },
    {
      "inputs": [
        {
          "internalType": "address[]",
          "name": "targets",
          "type": "address[]"
        },
        {
          "internalType": "uint256[]",
          "name": "values",
          "type": "uint256[]"
        },
        {
          "internalType": "bytes[]",
          "name": "calldatas",
          "type": "bytes[]"
        },
        {
          "internalType": "bytes32",
          "name": "descriptionHash",
          "type": "bytes32"
        }
      ],
      "name": "hashProposal",
      "outputs": [
        {
          "internalType": "uint256",
          "name": "",
          "type": "uint256"
        }
      ],
      "stateMutability": "pure",
      "type": "function"
    },
    {
      "inputs": [],
      "name": "name",
      "outputs": [
        {
          "internalType": "string",
          "name": "",
          "type": "string"
        }
      ],
      "stateMutability": "view",
      "type": "function"
    },
    {
      "inputs": [
        {
          "internalType": "address",
          "name": "",
          "type": "address"
        },
        {
          "internalType": "address",
          "name": "",
          "type": "address"
        },
        {
          "internalType": "uint256[]",
          "name": "",
          "type": "uint256[]"
        },
        {
          "internalType": "uint256[]",
          "name": "",
          "type": "uint256[]"
        },
        {
          "internalType": "bytes",
          "name": "",
          "type": "bytes"
        }
      ],
      "name": "onERC1155BatchReceived",
      "outputs": [
        {
          "internalType": "bytes4",
          "name": "",
          "type": "bytes4"
        }
      ],
      "stateMutability": "nonpayable",
      "type": "function"
    },
    {
      "inputs": [
        {
          "internalType": "address",
          "name": "",
          "type": "address"
        },
        {
          "internalType": "address",
          "name": "",
          "type": "address"
        },
        {
          "internalType": "uint256",
          "name": "",
          "type": "uint256"
        },
        {
          "internalType": "uint256",
          "name": "",
          "type": "uint256"
        },
        {
          "internalType": "bytes",
          "name": "",
          "type": "bytes"
        }
      ],
      "name": "onERC1155Received",
      "outputs": [
        {
          "internalType": "bytes4",
          "name": "",
          "type": "bytes4"
        }
      ],
      "stateMutability": "nonpayable",
      "type": "function"
    },
    {
      "inputs": [
        {
          "internalType": "address",
          "name": "",
          "type": "address"
        },
        {
          "internalType": "address",
          "name": "",
          "type": "address"
        },
        {
          "internalType": "uint256",
          "name": "",
          "type": "uint256"
        },
        {
          "internalType": "bytes",
          "name": "",
          "type": "bytes"
        }
      ],
      "name": "onERC721Received",
      "outputs": [
        {
          "internalType": "bytes4",
          "name": "",
          "type": "bytes4"
        }
      ],
      "stateMutability": "nonpayable",
      "type": "function"
    },
    {
      "inputs": [
        {
          "internalType": "uint256",
          "name": "proposalId",
          "type": "uint256"
        }
      ],
      "name": "proposalDeadline",
      "outputs": [
        {
          "internalType": "uint256",
          "name": "",
          "type": "uint256"
        }
      ],
      "stateMutability": "view",
      "type": "function"
    },
    {
      "inputs": [
        {
          "internalType": "uint256",
          "name": "proposalId",
          "type": "uint256"
        }
      ],
      "name": "proposalEta",
      "outputs": [
        {
          "internalType": "uint256",
          "name": "",
          "type": "uint256"
        }
      ],
      "stateMutability": "view",
      "type": "function"
    },
    {
      "inputs": [
        {
          "internalType": "uint256",
          "name": "proposalId",
          "type": "uint256"
        }
      ],
      "name": "proposalSnapshot",
      "outputs": [
        {
          "internalType": "uint256",
          "name": "",
          "type": "uint256"
        }
      ],
      "stateMutability": "view",
      "type": "function"
    },
    {
      "inputs": [],
      "name": "proposalThreshold",
      "outputs": [
        {
          "internalType": "uint256",
          "name": "",
          "type": "uint256"
        }
      ],
      "stateMutability": "view",
      "type": "function"
    },
    {
      "inputs": [
        {
          "internalType": "uint256",
          "name": "proposalId",
          "type": "uint256"
        }
      ],
      "name": "proposalVotes",
      "outputs": [
        {
          "internalType": "uint256",
          "name": "againstVotes",
          "type": "uint256"
        },
        {
          "internalType": "uint256",
          "name": "forVotes",
          "type": "uint256"
        },
        {
          "internalType": "uint256",
          "name": "abstainVotes",
          "type": "uint256"
        }
      ],
      "stateMutability": "view",
      "type": "function"
    },
    {
      "inputs": [
        {
          "internalType": "address[]",
          "name": "targets",
          "type": "address[]"
        },
        {
          "internalType": "uint256[]",
          "name": "values",
          "type": "uint256[]"
        },
        {
          "internalType": "bytes[]",
          "name": "calldatas",
          "type": "bytes[]"
        },
        {
          "internalType": "string",
          "name": "description",
          "type": "string"
        }
      ],
      "name": "propose",
      "outputs": [
        {
          "internalType": "uint256",
          "name": "",
          "type": "uint256"
        }
      ],
      "stateMutability": "nonpayable",
      "type": "function"
    },
    {
      "inputs": [
        {
          "internalType": "address[]",
          "name": "targets",
          "type": "address[]"
        },
        {
          "internalType": "uint256[]",
          "name": "values",
          "type": "uint256[]"
        },
        {
          "internalType": "bytes[]",
          "name": "calldatas",
          "type": "bytes[]"
        },
        {
          "internalType": "bytes32",
          "name": "descriptionHash",
          "type": "bytes32"
        }
      ],
      "name": "queue",
      "outputs": [
        {
          "internalType": "uint256",
          "name": "",
          "type": "uint256"
        }
      ],
      "stateMutability": "nonpayable",
      "type": "function"
    },
    {
      "inputs": [
        {
          "internalType": "uint256",
          "name": "blockNumber",
          "type": "uint256"
        }
      ],
      "name": "quorum",
      "outputs": [
        {
          "internalType": "uint256",
          "name": "",
          "type": "uint256"
        }
      ],
      "stateMutability": "view",
      "type": "function"
    },
    {
      "inputs": [],
      "name": "quorumDenominator",
      "outputs": [
        {
          "internalType": "uint256",
          "name": "",
          "type": "uint256"
        }
      ],
      "stateMutability": "view",
      "type": "function"
    },
    {
      "inputs": [
        {
          "internalType": "uint256",
          "name": "blockNumber",
          "type": "uint256"
        }
      ],
      "name": "quorumNumerator",
      "outputs": [
        {
          "internalType": "uint256",
          "name": "",
          "type": "uint256"
        }
      ],
      "stateMutability": "view",
      "type": "function"
    },
    {
      "inputs": [],
      "name": "quorumNumerator",
      "outputs": [
        {
          "internalType": "uint256",
          "name": "",
          "type": "uint256"
        }
      ],
      "stateMutability": "view",
      "type": "function"
    },
    {
      "inputs": [
        {
          "internalType": "address",
          "name": "target",
          "type": "address"
        },
        {
          "internalType": "uint256",
          "name": "value",
          "type": "uint256"
        },
        {
          "internalType": "bytes",
          "name": "data",
          "type": "bytes"
        }
      ],
      "name": "relay",
      "outputs": [],
      "stateMutability": "payable",
      "type": "function"
    },
    {
      "inputs": [
        {
          "internalType": "uint256",
          "name": "newProposalThreshold",
          "type": "uint256"
        }
      ],
      "name": "setProposalThreshold",
      "outputs": [],
      "stateMutability": "nonpayable",
      "type": "function"
    },
    {
      "inputs": [
        {
          "internalType": "uint256",
          "name": "newVotingDelay",
          "type": "uint256"
        }
      ],
      "name": "setVotingDelay",
      "outputs": [],
      "stateMutability": "nonpayable",
      "type": "function"
    },
    {
      "inputs": [
        {
          "internalType": "uint256",
          "name": "newVotingPeriod",
          "type": "uint256"
        }
      ],
      "name": "setVotingPeriod",
      "outputs": [],
      "stateMutability": "nonpayable",
      "type": "function"
    },
    {
      "inputs": [
        {
          "internalType": "uint256",
          "name": "proposalId",
          "type": "uint256"
        }
      ],
      "name": "state",
      "outputs": [
        {
          "internalType": "enum IGovernor.ProposalState",
          "name": "",
          "type": "uint8"
        }
      ],
      "stateMutability": "view",
      "type": "function"
    },
    {
      "inputs": [
        {
          "internalType": "bytes4",
          "name": "interfaceId",
          "type": "bytes4"
        }
      ],
      "name": "supportsInterface",
      "outputs": [
        {
          "internalType": "bool",
          "name": "",
          "type": "bool"
        }
      ],
      "stateMutability": "view",
      "type": "function"
    },
    {
      "inputs": [],
      "name": "timelock",
      "outputs": [
        {
          "internalType": "address",
          "name": "",
          "type": "address"
        }
      ],
      "stateMutability": "view",
      "type": "function"
    },
    {
      "inputs": [],
      "name": "token",
      "outputs": [
        {
          "internalType": "contract IVotes",
          "name": "",
          "type": "address"
        }
      ],
      "stateMutability": "view",
      "type": "function"
    },
    {
      "inputs": [
        {
          "internalType": "uint256",
          "name": "newQuorumNumerator",
          "type": "uint256"
        }
      ],
      "name": "updateQuorumNumerator",
      "outputs": [],
      "stateMutability": "nonpayable",
      "type": "function"
    },
    {
      "inputs": [
        {
          "internalType": "contract TimelockController",
          "name": "newTimelock",
          "type": "address"
        }
      ],
      "name": "updateTimelock",
      "outputs": [],
      "stateMutability": "nonpayable",
      "type": "function"
    },
    {
      "inputs": [],
      "name": "version",
      "outputs": [
        {
          "internalType": "string",
          "name": "",
          "type": "string"
        }
      ],
      "stateMutability": "view",
      "type": "function"
    },
    {
      "inputs": [],
      "name": "votingDelay",
      "outputs": [
        {
          "internalType": "uint256",
          "name": "",
          "type": "uint256"
        }
      ],
      "stateMutability": "view",
      "type": "function"
    },
    {
      "inputs": [],
      "name": "votingPeriod",
      "outputs": [
        {
          "internalType": "uint256",
          "name": "",
          "type": "uint256"
        }
      ],
      "stateMutability": "view",
      "type": "function"
    },
    {
      "stateMutability": "payable",
      "type": "receive"
    }
  ],
  "bytecode": "0x6101606040523480156200001257600080fd5b5060405162007fc238038062007fc2833981810160405281019062000038919062000cc6565b80603383600161c4e060006040518060400160405280600a81526020017f4d79476f7665726e6f7200000000000000000000000000000000000000000000815250806200008a620001f460201b60201c565b60008280519060200120905060008280519060200120905060007f8b73c3c69bb8fe3d512ecc4cf759cc79239f7b179b0ffacaa9a75d522b39400f90508260e081815250508161010081815250504660a08181525050620000f38184846200023160201b60201c565b608081815250503073ffffffffffffffffffffffffffffffffffffffff1660c08173ffffffffffffffffffffffffffffffffffffffff1660601b81525050806101208181525050505050505080600090805190602001906200015792919062000be8565b50506200016a836200026d60201b60201c565b6200017b82620002b460201b60201c565b6200018c816200034160201b60201c565b5050508073ffffffffffffffffffffffffffffffffffffffff166101408173ffffffffffffffffffffffffffffffffffffffff1660601b8152505050620001d9816200038860201b60201c565b50620001eb816200056760201b60201c565b50505062001281565b60606040518060400160405280600181526020017f3100000000000000000000000000000000000000000000000000000000000000815250905090565b600083838346306040516020016200024e95949392919062000e2a565b6040516020818303038152906040528051906020012090509392505050565b7fc565b045403dc03c2eea82b81a0465edad9e2e7fc4d97e11421c209da93d7a9360045482604051620002a292919062000f31565b60405180910390a18060048190555050565b60008111620002fa576040517f08c379a0000000000000000000000000000000000000000000000000000000008152600401620002f19062000ea9565b60405180910390fd5b7f7e3f7f0708a84de9203036abaa450dccc85ad5ff52f78c170f3edb55cf5e8828600554826040516200032f92919062000f31565b60405180910390a18060058190555050565b7fccb45da8d5717e6c4544694297c4ba5cf151d455c9bb0ed4fc7a38411bc05461600654826040516200037692919062000f31565b60405180910390a18060068190555050565b620003986200060860201b60201c565b811115620003dd576040517f08c379a0000000000000000000000000000000000000000000000000000000008152600401620003d49062000e87565b60405180910390fd5b6000620003ef6200061160201b60201c565b9050600081141580156200040b57506000600960000180549050145b156200050b5760096000016040518060400160405280600063ffffffff16815260200162000444846200066760201b62001fdd1760201c565b7bffffffffffffffffffffffffffffffffffffffffffffffffffffffff168152509080600181540180825580915050600190039060005260206000200160009091909190915060008201518160000160006101000a81548163ffffffff021916908363ffffffff16021790555060208201518160000160046101000a8154817bffffffffffffffffffffffffffffffffffffffffffffffffffffffff02191690837bffffffffffffffffffffffffffffffffffffffffffffffffffffffff16021790555050505b62000526826009620006d560201b620020481790919060201c565b50507f0553476bf02ef2726e8ce5ced78d63e26e602e4a2257b1f559418e24b463399781836040516200055b92919062000f31565b60405180910390a15050565b7f08f74ea46ef7894f65eabfb5e6e695de773a000b47c529ab559178069b226401600a60009054906101000a900473ffffffffffffffffffffffffffffffffffffffff1682604051620005bc92919062000dfd565b60405180910390a180600a60006101000a81548173ffffffffffffffffffffffffffffffffffffffff021916908373ffffffffffffffffffffffffffffffffffffffff16021790555050565b60006064905090565b600080600960000180549050146200065e576200063a60096200076560201b620020b61760201c565b7bffffffffffffffffffffffffffffffffffffffffffffffffffffffff1662000662565b6008545b905090565b60007bffffffffffffffffffffffffffffffffffffffffffffffffffffffff8016821115620006cd576040517f08c379a0000000000000000000000000000000000000000000000000000000008152600401620006c49062000ecb565b60405180910390fd5b819050919050565b6000806200071884600001620006f643620007db60201b620021201760201c565b6200070c866200066760201b62001fdd1760201c565b6200083160201b60201c565b817bffffffffffffffffffffffffffffffffffffffffffffffffffffffff169150807bffffffffffffffffffffffffffffffffffffffffffffffffffffffff169050915091509250929050565b6000808260000180549050905060008114620007d0576200079e8360000160018362000792919062000f6f565b62000bd360201b60201c565b60000160049054906101000a90047bffffffffffffffffffffffffffffffffffffffffffffffffffffffff16620007d3565b60005b915050919050565b600063ffffffff801682111562000829576040517f08c379a0000000000000000000000000000000000000000000000000000000008152600401620008209062000f0f565b60405180910390fd5b819050919050565b600080600085805490509050600081111562000ae357600062000869876001846200085d919062000f6f565b62000bd360201b60201c565b6040518060400160405290816000820160009054906101000a900463ffffffff1663ffffffff1663ffffffff1681526020016000820160049054906101000a90047bffffffffffffffffffffffffffffffffffffffffffffffffffffffff167bffffffffffffffffffffffffffffffffffffffffffffffffffffffff167bffffffffffffffffffffffffffffffffffffffffffffffffffffffff168152505090508563ffffffff16816000015163ffffffff16111562000960576040517f08c379a0000000000000000000000000000000000000000000000000000000008152600401620009579062000eed565b60405180910390fd5b8563ffffffff16816000015163ffffffff161415620009f157846200099a886001856200098e919062000f6f565b62000bd360201b60201c565b60000160046101000a8154817bffffffffffffffffffffffffffffffffffffffffffffffffffffffff02191690837bffffffffffffffffffffffffffffffffffffffffffffffffffffffff16021790555062000ad1565b8660405180604001604052808863ffffffff168152602001877bffffffffffffffffffffffffffffffffffffffffffffffffffffffff168152509080600181540180825580915050600190039060005260206000200160009091909190915060008201518160000160006101000a81548163ffffffff021916908363ffffffff16021790555060208201518160000160046101000a8154817bffffffffffffffffffffffffffffffffffffffffffffffffffffffff02191690837bffffffffffffffffffffffffffffffffffffffffffffffffffffffff16021790555050505b80602001518593509350505062000bcb565b8560405180604001604052808763ffffffff168152602001867bffffffffffffffffffffffffffffffffffffffffffffffffffffffff168152509080600181540180825580915050600190039060005260206000200160009091909190915060008201518160000160006101000a81548163ffffffff021916908363ffffffff16021790555060208201518160000160046101000a8154817bffffffffffffffffffffffffffffffffffffffffffffffffffffffff02191690837bffffffffffffffffffffffffffffffffffffffffffffffffffffffff160217905550505060008492509250505b935093915050565b60008260005281602060002001905092915050565b82805462000bf6906200102e565b90600052602060002090601f01602090048101928262000c1a576000855562000c66565b82601f1062000c3557805160ff191683800117855562000c66565b8280016001018555821562000c66579182015b8281111562000c6557825182559160200191906001019062000c48565b5b50905062000c75919062000c79565b5090565b5b8082111562000c9457600081600090555060010162000c7a565b5090565b60008151905062000ca9816200124d565b92915050565b60008151905062000cc08162001267565b92915050565b6000806040838503121562000cda57600080fd5b600062000cea8582860162000c98565b925050602062000cfd8582860162000caf565b9150509250929050565b62000d128162000faa565b82525050565b62000d238162000fd2565b82525050565b600062000d3860438362000f5e565b915062000d4582620010c2565b606082019050919050565b600062000d5f60278362000f5e565b915062000d6c8262001137565b604082019050919050565b600062000d8660278362000f5e565b915062000d938262001186565b604082019050919050565b600062000dad60178362000f5e565b915062000dba82620011d5565b602082019050919050565b600062000dd460268362000f5e565b915062000de182620011fe565b604082019050919050565b62000df78162001024565b82525050565b600060408201905062000e14600083018562000d07565b62000e23602083018462000d07565b9392505050565b600060a08201905062000e41600083018862000d18565b62000e50602083018762000d18565b62000e5f604083018662000d18565b62000e6e606083018562000dec565b62000e7d608083018462000d07565b9695505050505050565b6000602082019050818103600083015262000ea28162000d29565b9050919050565b6000602082019050818103600083015262000ec48162000d50565b9050919050565b6000602082019050818103600083015262000ee68162000d77565b9050919050565b6000602082019050818103600083015262000f088162000d9e565b9050919050565b6000602082019050818103600083015262000f2a8162000dc5565b9050919050565b600060408201905062000f48600083018562000dec565b62000f57602083018462000dec565b9392505050565b600082825260208201905092915050565b600062000f7c8262001024565b915062000f898362001024565b92508282101562000f9f5762000f9e62001064565b5b828203905092915050565b600062000fb78262001004565b9050919050565b600062000fcb8262001004565b9050919050565b6000819050919050565b600062000fe98262000faa565b9050919050565b600062000ffd8262000fbe565b9050919050565b600073ffffffffffffffffffffffffffffffffffffffff82169050919050565b6000819050919050565b600060028204905060018216806200104757607f821691505b602082108114156200105e576200105d62001093565b5b50919050565b7f4e487b7100000000000000000000000000000000000000000000000000000000600052601160045260246000fd5b7f4e487b7100000000000000000000000000000000000000000000000000000000600052602260045260246000fd5b7f476f7665726e6f72566f74657351756f72756d4672616374696f6e3a2071756f60008201527f72756d4e756d657261746f72206f7665722071756f72756d44656e6f6d696e6160208201527f746f720000000000000000000000000000000000000000000000000000000000604082015250565b7f476f7665726e6f7253657474696e67733a20766f74696e6720706572696f642060008201527f746f6f206c6f7700000000000000000000000000000000000000000000000000602082015250565b7f53616665436173743a2076616c756520646f65736e27742066697420696e203260008201527f3234206269747300000000000000000000000000000000000000000000000000602082015250565b7f436865636b706f696e743a20696e76616c6964206b6579000000000000000000600082015250565b7f53616665436173743a2076616c756520646f65736e27742066697420696e203360008201527f3220626974730000000000000000000000000000000000000000000000000000602082015250565b620012588162000fdc565b81146200126457600080fd5b50565b620012728162000ff0565b81146200127e57600080fd5b50565b60805160a05160c05160601c60e05161010051610120516101405160601c616cd2620012f060003960008181611fbb01528181612f8e015261320401526000613875015260006138b701526000613896015260006137cb015260006138210152600061384a0152616cd26000f3fe60806040526004361061024a5760003560e01c80637b3c71d311610139578063c28bc2fa116100b6578063ea0217cf1161007a578063ea0217cf146109be578063eb9019d4146109e7578063ece40cc114610a24578063f23a6e6114610a4d578063f8ce560a14610a8a578063fc0c546a14610ac757610290565b8063c28bc2fa146108e4578063c59057e414610900578063d33219b41461093d578063dd4e2ba514610968578063deaaa7cc1461099357610290565b8063a890c910116100fd578063a890c910146107d9578063ab58fb8e14610802578063b58131b01461083f578063bc197c811461086a578063c01f9e37146108a757610290565b80637b3c71d3146106cc5780637d5e81e21461070957806397c3d334146107465780639a802a6d14610771578063a7713a70146107ae57610290565b80633932abb1116101c757806354fd4d501161018b57806354fd4d50146105c157806356781388146105ec5780635f398a141461062957806360c4247f1461066657806370b0f660146106a357610290565b80633932abb1146104a05780633bccf4fd146104cb5780633e4f49e6146105085780634385963214610545578063544ffc9c1461058257610290565b8063150b7a021161020e578063150b7a021461038e578063160cbed7146103cb5780632656227d146104085780632d63f693146104385780632fe3e2611461047557610290565b806301ffc9a71461029557806302a251a3146102d257806303420181146102fd57806306f3f9e61461033a57806306fdde031461036357610290565b36610290573073ffffffffffffffffffffffffffffffffffffffff1661026e610af2565b73ffffffffffffffffffffffffffffffffffffffff161461028e57600080fd5b005b600080fd5b3480156102a157600080fd5b506102bc60048036038101906102b79190614d27565b610b01565b6040516102c99190615936565b60405180910390f35b3480156102de57600080fd5b506102e7610b13565b6040516102f49190615d81565b60405180910390f35b34801561030957600080fd5b50610324600480360381019061031f9190614f47565b610b22565b6040516103319190615d81565b60405180910390f35b34801561034657600080fd5b50610361600480360381019061035c9190614d79565b610c07565b005b34801561036f57600080fd5b50610378610d03565b6040516103859190615adf565b60405180910390f35b34801561039a57600080fd5b506103b560048036038101906103b0919061494e565b610d95565b6040516103c29190615a8e565b60405180910390f35b3480156103d757600080fd5b506103f260048036038101906103ed9190614b67565b610da9565b6040516103ff9190615d81565b60405180910390f35b610422600480360381019061041d9190614b67565b6110cd565b60405161042f9190615d81565b60405180910390f35b34801561044457600080fd5b5061045f600480360381019061045a9190614d79565b6112b2565b60405161046c9190615d81565b60405180910390f35b34801561048157600080fd5b5061048a611320565b6040516104979190615951565b60405180910390f35b3480156104ac57600080fd5b506104b5611344565b6040516104c29190615d81565b60405180910390f35b3480156104d757600080fd5b506104f260048036038101906104ed9190615019565b611353565b6040516104ff9190615d81565b60405180910390f35b34801561051457600080fd5b5061052f600480360381019061052a9190614d79565b6113dd565b60405161053c9190615ac4565b60405180910390f35b34801561055157600080fd5b5061056c60048036038101906105679190614dcb565b6113ef565b6040516105799190615936565b60405180910390f35b34801561058e57600080fd5b506105a960048036038101906105a49190614d79565b61145a565b6040516105b893929190615e75565b60405180910390f35b3480156105cd57600080fd5b506105d6611492565b6040516105e39190615adf565b60405180910390f35b3480156105f857600080fd5b50610613600480360381019061060e9190614e07565b6114cf565b6040516106209190615d81565b60405180910390f35b34801561063557600080fd5b50610650600480360381019061064b9190614eaf565b611500565b60405161065d9190615d81565b60405180910390f35b34801561067257600080fd5b5061068d60048036038101906106889190614d79565b61156a565b60405161069a9190615d81565b60405180910390f35b3480156106af57600080fd5b506106ca60048036038101906106c59190614d79565b6116dd565b005b3480156106d857600080fd5b506106f360048036038101906106ee9190614e43565b6117d9565b6040516107009190615d81565b60405180910390f35b34801561071557600080fd5b50610730600480360381019061072b9190614c12565b611841565b60405161073d9190615d81565b60405180910390f35b34801561075257600080fd5b5061075b611859565b6040516107689190615d81565b60405180910390f35b34801561077d57600080fd5b5061079860048036038101906107939190614b00565b611862565b6040516107a59190615d81565b60405180910390f35b3480156107ba57600080fd5b506107c3611878565b6040516107d09190615d81565b60405180910390f35b3480156107e557600080fd5b5061080060048036038101906107fb9190614d50565b6118bf565b005b34801561080e57600080fd5b5061082960048036038101906108249190614d79565b6119bb565b6040516108369190615d81565b60405180910390f35b34801561084b57600080fd5b50610854611a97565b6040516108619190615d81565b60405180910390f35b34801561087657600080fd5b50610891600480360381019061088c919061488f565b611aa6565b60405161089e9190615a8e565b60405180910390f35b3480156108b357600080fd5b506108ce60048036038101906108c99190614d79565b611abb565b6040516108db9190615d81565b60405180910390f35b6108fe60048036038101906108f99190614a94565b611b29565b005b34801561090c57600080fd5b5061092760048036038101906109229190614b67565b611cb7565b6040516109349190615d81565b60405180910390f35b34801561094957600080fd5b50610952611cf3565b60405161095f9190615791565b60405180910390f35b34801561097457600080fd5b5061097d611d1d565b60405161098a9190615adf565b60405180910390f35b34801561099f57600080fd5b506109a8611d5a565b6040516109b59190615951565b60405180910390f35b3480156109ca57600080fd5b506109e560048036038101906109e09190614d79565b611d7e565b005b3480156109f357600080fd5b50610a0e6004803603810190610a099190614a58565b611e7a565b604051610a1b9190615d81565b60405180910390f35b348015610a3057600080fd5b50610a4b6004803603810190610a469190614d79565b611e96565b005b348015610a5957600080fd5b50610a746004803603810190610a6f91906149c9565b611f92565b604051610a819190615a8e565b60405180910390f35b348015610a9657600080fd5b50610ab16004803603810190610aac9190614d79565b611fa7565b604051610abe9190615d81565b60405180910390f35b348015610ad357600080fd5b50610adc611fb9565b604051610ae99190615aa9565b60405180910390f35b6000610afc612173565b905090565b6000610b0c8261219d565b9050919050565b6000610b1d612217565b905090565b600080610ba5610b9d7fb3b3f3b703cd84ce352197dcff232b1b5d3cfb2025ce47cf04742d0651f1af888c8c8c8c604051610b5e929190615741565b60405180910390208b80519060200120604051602001610b829594939291906159f6565b60405160208183030381529060405280519060200120612221565b86868661223b565b9050610bf88a828b8b8b8080601f016020809104026020016040519081016040528093929190818152602001838380828437600081840152601f19601f820116905080830192505050505050508a612266565b91505098975050505050505050565b610c0f610af2565b73ffffffffffffffffffffffffffffffffffffffff16610c2d61246f565b73ffffffffffffffffffffffffffffffffffffffff1614610c83576040517f08c379a0000000000000000000000000000000000000000000000000000000008152600401610c7a90615b21565b60405180910390fd5b3073ffffffffffffffffffffffffffffffffffffffff16610ca2610af2565b73ffffffffffffffffffffffffffffffffffffffff1614610cf7576000610cc7612477565b604051610cd5929190615741565b604051809103902090505b80610ceb6002612484565b14610cf557610ce0565b505b610d0081612560565b50565b606060008054610d129061648f565b80601f0160208091040260200160405190810160405280929190818152602001828054610d3e9061648f565b8015610d8b5780601f10610d6057610100808354040283529160200191610d8b565b820191906000526020600020905b815481529060010190602001808311610d6e57829003601f168201915b5050505050905090565b600063150b7a0260e01b9050949350505050565b600080610db886868686611cb7565b905060046007811115610df4577f4e487b7100000000000000000000000000000000000000000000000000000000600052602160045260246000fd5b610dfd826113dd565b6007811115610e35577f4e487b7100000000000000000000000000000000000000000000000000000000600052602160045260246000fd5b14610e75576040517f08c379a0000000000000000000000000000000000000000000000000000000008152600401610e6c90615ca1565b60405180910390fd5b6000600a60009054906101000a900473ffffffffffffffffffffffffffffffffffffffff1673ffffffffffffffffffffffffffffffffffffffff1663f27a0c926040518163ffffffff1660e01b815260040160206040518083038186803b158015610edf57600080fd5b505afa158015610ef3573d6000803e3d6000fd5b505050506040513d601f19601f82011682018060405250810190610f179190614da2565b9050600a60009054906101000a900473ffffffffffffffffffffffffffffffffffffffff1673ffffffffffffffffffffffffffffffffffffffff1663b1c5f4278888886000896040518663ffffffff1660e01b8152600401610f7d959493929190615858565b60206040518083038186803b158015610f9557600080fd5b505afa158015610fa9573d6000803e3d6000fd5b505050506040513d601f19601f82011682018060405250810190610fcd9190614cfe565b600b600084815260200190815260200160002081905550600a60009054906101000a900473ffffffffffffffffffffffffffffffffffffffff1673ffffffffffffffffffffffffffffffffffffffff16638f2a0bb0888888600089876040518763ffffffff1660e01b815260040161104a969594939291906158c0565b600060405180830381600087803b15801561106457600080fd5b505af1158015611078573d6000803e3d6000fd5b505050507f9a2e42fd6722813d69113e7d0079d3d940171428df7373df9c7f7617cfda28928282426110aa91906161b8565b6040516110b8929190615e4c565b60405180910390a18192505050949350505050565b6000806110dc86868686611cb7565b905060006110e9826113dd565b905060046007811115611125577f4e487b7100000000000000000000000000000000000000000000000000000000600052602160045260246000fd5b81600781111561115e577f4e487b7100000000000000000000000000000000000000000000000000000000600052602160045260246000fd5b14806111da57506005600781111561119f577f4e487b7100000000000000000000000000000000000000000000000000000000600052602160045260246000fd5b8160078111156111d8577f4e487b7100000000000000000000000000000000000000000000000000000000600052602160045260246000fd5b145b611219576040517f08c379a000000000000000000000000000000000000000000000000000000000815260040161121090615ca1565b60405180910390fd5b600180600084815260200190815260200160002060020160006101000a81548160ff0219169083151502179055507f712ae1383f79ac853f8d882153778e0260ef8f03b504e2866e0593e04d2b291f826040516112769190615d81565b60405180910390a161128b8288888888612714565b6112988288888888612844565b6112a58288888888612858565b8192505050949350505050565b600061130f600160008481526020019081526020016000206000016040518060200160405290816000820160009054906101000a900467ffffffffffffffff1667ffffffffffffffff1667ffffffffffffffff16815250506128b3565b67ffffffffffffffff169050919050565b7fb3b3f3b703cd84ce352197dcff232b1b5d3cfb2025ce47cf04742d0651f1af8881565b600061134e6128c1565b905090565b6000806113b46113ac7f150214d74d59b7d1e90c73fc22ef3d991dd0a76b046543d4d80ab92d2a50328f8989604051602001611391939291906159bf565b60405160208183030381529060405280519060200120612221565b86868661223b565b90506113d1878288604051806020016040528060008152506128cb565b91505095945050505050565b60006113e8826128eb565b9050919050565b60006007600084815260200190815260200160002060030160008373ffffffffffffffffffffffffffffffffffffffff1673ffffffffffffffffffffffffffffffffffffffff16815260200190815260200160002060009054906101000a900460ff16905092915050565b600080600080600760008681526020019081526020016000209050806000015481600101548260020154935093509350509193909250565b60606040518060400160405280600181526020017f3100000000000000000000000000000000000000000000000000000000000000815250905090565b6000806114da61246f565b90506114f7848285604051806020016040528060008152506128cb565b91505092915050565b60008061150b61246f565b905061155e87828888888080601f016020809104026020016040519081016040528093929190818152602001838380828437600081840152601f19601f8201169050808301925050505050505087612266565b91505095945050505050565b6000806009600001805490509050600081141561158c576008549150506116d8565b600060096000016001836115a091906162d7565b815481106115d7577f4e487b7100000000000000000000000000000000000000000000000000000000600052603260045260246000fd5b906000526020600020016040518060400160405290816000820160009054906101000a900463ffffffff1663ffffffff1663ffffffff1681526020016000820160049054906101000a90047bffffffffffffffffffffffffffffffffffffffffffffffffffffffff167bffffffffffffffffffffffffffffffffffffffffffffffffffffffff167bffffffffffffffffffffffffffffffffffffffffffffffffffffffff1681525050905083816000015163ffffffff16116116bf5780602001517bffffffffffffffffffffffffffffffffffffffffffffffffffffffff16925050506116d8565b6116d3846009612b2990919063ffffffff16565b925050505b919050565b6116e5610af2565b73ffffffffffffffffffffffffffffffffffffffff1661170361246f565b73ffffffffffffffffffffffffffffffffffffffff1614611759576040517f08c379a000000000000000000000000000000000000000000000000000000000815260040161175090615b21565b60405180910390fd5b3073ffffffffffffffffffffffffffffffffffffffff16611778610af2565b73ffffffffffffffffffffffffffffffffffffffff16146117cd57600061179d612477565b6040516117ab929190615741565b604051809103902090505b806117c16002612484565b146117cb576117b6565b505b6117d681612c18565b50565b6000806117e461246f565b905061183686828787878080601f016020809104026020016040519081016040528093929190818152602001838380828437600081840152601f19601f820116905080830192505050505050506128cb565b915050949350505050565b600061184f85858585612c5d565b9050949350505050565b60006064905090565b600061186f848484612f8a565b90509392505050565b600080600960000180549050146118b65761189360096120b6565b7bffffffffffffffffffffffffffffffffffffffffffffffffffffffff166118ba565b6008545b905090565b6118c7610af2565b73ffffffffffffffffffffffffffffffffffffffff166118e561246f565b73ffffffffffffffffffffffffffffffffffffffff161461193b576040517f08c379a000000000000000000000000000000000000000000000000000000000815260040161193290615b21565b60405180910390fd5b3073ffffffffffffffffffffffffffffffffffffffff1661195a610af2565b73ffffffffffffffffffffffffffffffffffffffff16146119af57600061197f612477565b60405161198d929190615741565b604051809103902090505b806119a36002612484565b146119ad57611998565b505b6119b881613040565b50565b600080600a60009054906101000a900473ffffffffffffffffffffffffffffffffffffffff1673ffffffffffffffffffffffffffffffffffffffff1663d45c4435600b6000868152602001908152602001600020546040518263ffffffff1660e01b8152600401611a2c9190615951565b60206040518083038186803b158015611a4457600080fd5b505afa158015611a58573d6000803e3d6000fd5b505050506040513d601f19601f82011682018060405250810190611a7c9190614da2565b905060018114611a8c5780611a8f565b60005b915050919050565b6000611aa16130df565b905090565b600063bc197c8160e01b905095945050505050565b6000611b18600160008481526020019081526020016000206001016040518060200160405290816000820160009054906101000a900467ffffffffffffffff1667ffffffffffffffff1667ffffffffffffffff16815250506128b3565b67ffffffffffffffff169050919050565b611b31610af2565b73ffffffffffffffffffffffffffffffffffffffff16611b4f61246f565b73ffffffffffffffffffffffffffffffffffffffff1614611ba5576040517f08c379a0000000000000000000000000000000000000000000000000000000008152600401611b9c90615b21565b60405180910390fd5b3073ffffffffffffffffffffffffffffffffffffffff16611bc4610af2565b73ffffffffffffffffffffffffffffffffffffffff1614611c19576000611be9612477565b604051611bf7929190615741565b604051809103902090505b80611c0d6002612484565b14611c1757611c02565b505b6000808573ffffffffffffffffffffffffffffffffffffffff16858585604051611c44929190615741565b60006040518083038185875af1925050503d8060008114611c81576040519150601f19603f3d011682016040523d82523d6000602084013e611c86565b606091505b5091509150611cae8282604051806060016040528060288152602001616c75602891396130e9565b50505050505050565b600084848484604051602001611cd094939291906157fe565b6040516020818303038152906040528051906020012060001c9050949350505050565b6000600a60009054906101000a900473ffffffffffffffffffffffffffffffffffffffff16905090565b60606040518060400160405280602081526020017f737570706f72743d627261766f2671756f72756d3d666f722c6162737461696e815250905090565b7f150214d74d59b7d1e90c73fc22ef3d991dd0a76b046543d4d80ab92d2a50328f81565b611d86610af2565b73ffffffffffffffffffffffffffffffffffffffff16611da461246f565b73ffffffffffffffffffffffffffffffffffffffff1614611dfa576040517f08c379a0000000000000000000000000000000000000000000000000000000008152600401611df190615b21565b60405180910390fd5b3073ffffffffffffffffffffffffffffffffffffffff16611e19610af2565b73ffffffffffffffffffffffffffffffffffffffff1614611e6e576000611e3e612477565b604051611e4c929190615741565b604051809103902090505b80611e626002612484565b14611e6c57611e57565b505b611e778161310b565b50565b6000611e8e8383611e89613193565b612f8a565b905092915050565b611e9e610af2565b73ffffffffffffffffffffffffffffffffffffffff16611ebc61246f565b73ffffffffffffffffffffffffffffffffffffffff1614611f12576040517f08c379a0000000000000000000000000000000000000000000000000000000008152600401611f0990615b21565b60405180910390fd5b3073ffffffffffffffffffffffffffffffffffffffff16611f31610af2565b73ffffffffffffffffffffffffffffffffffffffff1614611f86576000611f56612477565b604051611f64929190615741565b604051809103902090505b80611f7a6002612484565b14611f8457611f6f565b505b611f8f816131aa565b50565b600063f23a6e6160e01b905095945050505050565b6000611fb2826131ef565b9050919050565b7f000000000000000000000000000000000000000000000000000000000000000081565b60007bffffffffffffffffffffffffffffffffffffffffffffffffffffffff8016821115612040576040517f08c379a000000000000000000000000000000000000000000000000000000000815260040161203790615c81565b60405180910390fd5b819050919050565b6000806120698460000161205b43612120565b61206486611fdd565b6132c6565b817bffffffffffffffffffffffffffffffffffffffffffffffffffffffff169150807bffffffffffffffffffffffffffffffffffffffffffffffffffffffff169050915091509250929050565b6000808260000180549050905060008114612115576120e4836000016001836120df91906162d7565b61364d565b60000160049054906101000a90047bffffffffffffffffffffffffffffffffffffffffffffffffffffffff16612118565b60005b915050919050565b600063ffffffff801682111561216b576040517f08c379a000000000000000000000000000000000000000000000000000000000815260040161216290615d41565b60405180910390fd5b819050919050565b6000600a60009054906101000a900473ffffffffffffffffffffffffffffffffffffffff16905090565b60007f6e665ced000000000000000000000000000000000000000000000000000000007bffffffffffffffffffffffffffffffffffffffffffffffffffffffff1916827bffffffffffffffffffffffffffffffffffffffffffffffffffffffff19161480612210575061220f82613662565b5b9050919050565b6000600554905090565b600061223461222e6137c7565b836138e1565b9050919050565b600080600061224c87878787613914565b91509150612259816139f7565b8192505050949350505050565b600080600160008881526020019081526020016000209050600160078111156122b8577f4e487b7100000000000000000000000000000000000000000000000000000000600052602160045260246000fd5b6122c1886113dd565b60078111156122f9577f4e487b7100000000000000000000000000000000000000000000000000000000600052602160045260246000fd5b14612339576040517f08c379a000000000000000000000000000000000000000000000000000000000815260040161233090615c01565b60405180910390fd5b600061239887612388846000016040518060200160405290816000820160009054906101000a900467ffffffffffffffff1667ffffffffffffffff1667ffffffffffffffff16815250506128b3565b67ffffffffffffffff1686612f8a565b90506123a78888888488613c95565b60008451141561240a578673ffffffffffffffffffffffffffffffffffffffff167fb8e138887d0aa13bab447e82de9d5c1777041ecd21ca36ba824ff1e6c07ddda4898884896040516123fd9493929190615eac565b60405180910390a2612461565b8673ffffffffffffffffffffffffffffffffffffffff167fe2babfbac5889a709b63bb7f598b324e08bc5a4fb9ec647fb3cbc9ec07eb87128988848989604051612458959493929190615ef8565b60405180910390a25b809250505095945050505050565b600033905090565b3660008036915091509091565b600061248f82613f0e565b156124c6576040517f3db2a12a00000000000000000000000000000000000000000000000000000000815260040160405180910390fd5b60008260000160009054906101000a9004600f0b905082600101600082600f0b600f0b815260200190815260200160002054915082600101600082600f0b600f0b815260200190815260200160002060009055600181018360000160006101000a8154816fffffffffffffffffffffffffffffffff0219169083600f0b6fffffffffffffffffffffffffffffffff16021790555050919050565b612568611859565b8111156125aa576040517f08c379a00000000000000000000000000000000000000000000000000000000081526004016125a190615b41565b60405180910390fd5b60006125b4611878565b9050600081141580156125cf57506000600960000180549050145b156126c15760096000016040518060400160405280600063ffffffff1681526020016125fa84611fdd565b7bffffffffffffffffffffffffffffffffffffffffffffffffffffffff168152509080600181540180825580915050600190039060005260206000200160009091909190915060008201518160000160006101000a81548163ffffffff021916908363ffffffff16021790555060208201518160000160046101000a8154817bffffffffffffffffffffffffffffffffffffffffffffffffffffffff02191690837bffffffffffffffffffffffffffffffffffffffffffffffffffffffff16021790555050505b6126d582600961204890919063ffffffff16565b50507f0553476bf02ef2726e8ce5ced78d63e26e602e4a2257b1f559418e24b46339978183604051612708929190615e4c565b60405180910390a15050565b3073ffffffffffffffffffffffffffffffffffffffff16612733610af2565b73ffffffffffffffffffffffffffffffffffffffff161461283d5760005b845181101561283b573073ffffffffffffffffffffffffffffffffffffffff168582815181106127aa577f4e487b7100000000000000000000000000000000000000000000000000000000600052603260045260246000fd5b602002602001015173ffffffffffffffffffffffffffffffffffffffff16141561282a5761282983828151811061280a577f4e487b7100000000000000000000000000000000000000000000000000000000600052603260045260246000fd5b6020026020010151805190602001206002613f4390919063ffffffff16565b5b80612834906164f2565b9050612751565b505b5050505050565b6128518585858585613fbf565b5050505050565b3073ffffffffffffffffffffffffffffffffffffffff16612877610af2565b73ffffffffffffffffffffffffffffffffffffffff16146128ac5761289c6002613f0e565b6128ab576128aa600261405d565b5b5b5050505050565b600081600001519050919050565b6000600454905090565b60006128e1858585856128dc613193565b612266565b9050949350505050565b6000806128f7836140de565b905060046007811115612933577f4e487b7100000000000000000000000000000000000000000000000000000000600052602160045260246000fd5b81600781111561296c577f4e487b7100000000000000000000000000000000000000000000000000000000600052602160045260246000fd5b1461297a5780915050612b24565b6000600b60008581526020019081526020016000205490506000801b8114156129a7578192505050612b24565b600a60009054906101000a900473ffffffffffffffffffffffffffffffffffffffff1673ffffffffffffffffffffffffffffffffffffffff16632ab0f529826040518263ffffffff1660e01b8152600401612a029190615951565b60206040518083038186803b158015612a1a57600080fd5b505afa158015612a2e573d6000803e3d6000fd5b505050506040513d601f19601f82011682018060405250810190612a529190614cd5565b15612a6257600792505050612b24565b600a60009054906101000a900473ffffffffffffffffffffffffffffffffffffffff1673ffffffffffffffffffffffffffffffffffffffff1663584b153e826040518263ffffffff1660e01b8152600401612abd9190615951565b60206040518083038186803b158015612ad557600080fd5b505afa158015612ae9573d6000803e3d6000fd5b505050506040513d601f19601f82011682018060405250810190612b0d9190614cd5565b15612b1d57600592505050612b24565b6002925050505b919050565b6000438210612b6d576040517f08c379a0000000000000000000000000000000000000000000000000000000008152600401612b6490615c21565b60405180910390fd5b6000612b7883612120565b90506000846000018054905090506000612b9886600001846000856141f3565b905060008114612bec57612bbb86600001600183612bb691906162d7565b61364d565b60000160049054906101000a90047bffffffffffffffffffffffffffffffffffffffffffffffffffffffff16612bef565b60005b7bffffffffffffffffffffffffffffffffffffffffffffffffffffffff16935050505092915050565b7fc565b045403dc03c2eea82b81a0465edad9e2e7fc4d97e11421c209da93d7a9360045482604051612c4b929190615e4c565b60405180910390a18060048190555050565b6000612c67611a97565b612c84612c7261246f565b600143612c7f91906162d7565b611e7a565b1015612cc5576040517f08c379a0000000000000000000000000000000000000000000000000000000008152600401612cbc90615d61565b60405180910390fd5b6000612cda8686868680519060200120611cb7565b90508451865114612d20576040517f08c379a0000000000000000000000000000000000000000000000000000000008152600401612d1790615b81565b60405180910390fd5b8351865114612d64576040517f08c379a0000000000000000000000000000000000000000000000000000000008152600401612d5b90615b81565b60405180910390fd5b6000865111612da8576040517f08c379a0000000000000000000000000000000000000000000000000000000008152600401612d9f90615c41565b60405180910390fd5b6000600160008381526020019081526020016000209050612e08816000016040518060200160405290816000820160009054906101000a900467ffffffffffffffff1667ffffffffffffffff1667ffffffffffffffff1681525050614266565b612e47576040517f08c379a0000000000000000000000000000000000000000000000000000000008152600401612e3e90615d21565b60405180910390fd5b6000612e59612e54611344565b614280565b612e6243614280565b612e6c919061620e565b90506000612e80612e7b610b13565b614280565b82612e8b919061620e565b9050612ea382846000016142d790919063ffffffff16565b612eb981846001016142d790919063ffffffff16565b7f7d84a6263ae0d98d3329bd7b46bb4e8d6f98cd35a7adb45c274c8b7fd5ebd5e084612ee361246f565b8b8b8d5167ffffffffffffffff811115612f26577f4e487b7100000000000000000000000000000000000000000000000000000000600052604160045260246000fd5b604051908082528060200260200182016040528015612f5957816020015b6060815260200190600190039081612f445790505b508c88888e604051612f7399989796959493929190615d9c565b60405180910390a183945050505050949350505050565b60007f000000000000000000000000000000000000000000000000000000000000000073ffffffffffffffffffffffffffffffffffffffff16633a46b1a885856040518363ffffffff1660e01b8152600401612fe79291906157d5565b60206040518083038186803b158015612fff57600080fd5b505afa158015613013573d6000803e3d6000fd5b505050506040513d601f19601f820116820180604052508101906130379190614da2565b90509392505050565b7f08f74ea46ef7894f65eabfb5e6e695de773a000b47c529ab559178069b226401600a60009054906101000a900473ffffffffffffffffffffffffffffffffffffffff16826040516130939291906157ac565b60405180910390a180600a60006101000a81548173ffffffffffffffffffffffffffffffffffffffff021916908373ffffffffffffffffffffffffffffffffffffffff16021790555050565b6000600654905090565b606083156130f957829050613104565b6131038383614306565b5b9392505050565b6000811161314e576040517f08c379a000000000000000000000000000000000000000000000000000000000815260040161314590615ba1565b60405180910390fd5b7f7e3f7f0708a84de9203036abaa450dccc85ad5ff52f78c170f3edb55cf5e882860055482604051613181929190615e4c565b60405180910390a18060058190555050565b606060405180602001604052806000815250905090565b7fccb45da8d5717e6c4544694297c4ba5cf151d455c9bb0ed4fc7a38411bc05461600654826040516131dd929190615e4c565b60405180910390a18060068190555050565b60006131f9611859565b6132028361156a565b7f000000000000000000000000000000000000000000000000000000000000000073ffffffffffffffffffffffffffffffffffffffff16638e539e8c856040518263ffffffff1660e01b815260040161325b9190615d81565b60206040518083038186803b15801561327357600080fd5b505afa158015613287573d6000803e3d6000fd5b505050506040513d601f19601f820116820180604052508101906132ab9190614da2565b6132b5919061627d565b6132bf919061624c565b9050919050565b600080600085805490509050600081111561355d5760006132f3876001846132ee91906162d7565b61364d565b6040518060400160405290816000820160009054906101000a900463ffffffff1663ffffffff1663ffffffff1681526020016000820160049054906101000a90047bffffffffffffffffffffffffffffffffffffffffffffffffffffffff167bffffffffffffffffffffffffffffffffffffffffffffffffffffffff167bffffffffffffffffffffffffffffffffffffffffffffffffffffffff168152505090508563ffffffff16816000015163ffffffff1611156133e7576040517f08c379a00000000000000000000000000000000000000000000000000000000081526004016133de90615cc1565b60405180910390fd5b8563ffffffff16816000015163ffffffff16141561346c57846134168860018561341191906162d7565b61364d565b60000160046101000a8154817bffffffffffffffffffffffffffffffffffffffffffffffffffffffff02191690837bffffffffffffffffffffffffffffffffffffffffffffffffffffffff16021790555061354c565b8660405180604001604052808863ffffffff168152602001877bffffffffffffffffffffffffffffffffffffffffffffffffffffffff168152509080600181540180825580915050600190039060005260206000200160009091909190915060008201518160000160006101000a81548163ffffffff021916908363ffffffff16021790555060208201518160000160046101000a8154817bffffffffffffffffffffffffffffffffffffffffffffffffffffffff02191690837bffffffffffffffffffffffffffffffffffffffffffffffffffffffff16021790555050505b806020015185935093505050613645565b8560405180604001604052808763ffffffff168152602001867bffffffffffffffffffffffffffffffffffffffffffffffffffffffff168152509080600181540180825580915050600190039060005260206000200160009091909190915060008201518160000160006101000a81548163ffffffff021916908363ffffffff16021790555060208201518160000160046101000a8154817bffffffffffffffffffffffffffffffffffffffffffffffffffffffff02191690837bffffffffffffffffffffffffffffffffffffffffffffffffffffffff160217905550505060008492509250505b935093915050565b60008260005281602060002001905092915050565b6000639a802a6d60e01b630342018160e01b635f398a1460e01b7f79dd796f000000000000000000000000000000000000000000000000000000001818187bffffffffffffffffffffffffffffffffffffffffffffffffffffffff1916827bffffffffffffffffffffffffffffffffffffffffffffffffffffffff1916148061374857507f79dd796f000000000000000000000000000000000000000000000000000000007bffffffffffffffffffffffffffffffffffffffffffffffffffffffff1916827bffffffffffffffffffffffffffffffffffffffffffffffffffffffff1916145b806137b057507f4e2312e0000000000000000000000000000000000000000000000000000000007bffffffffffffffffffffffffffffffffffffffffffffffffffffffff1916827bffffffffffffffffffffffffffffffffffffffffffffffffffffffff1916145b806137c057506137bf82614356565b5b9050919050565b60007f000000000000000000000000000000000000000000000000000000000000000073ffffffffffffffffffffffffffffffffffffffff163073ffffffffffffffffffffffffffffffffffffffff1614801561384357507f000000000000000000000000000000000000000000000000000000000000000046145b15613870577f000000000000000000000000000000000000000000000000000000000000000090506138de565b6138db7f00000000000000000000000000000000000000000000000000000000000000007f00000000000000000000000000000000000000000000000000000000000000007f00000000000000000000000000000000000000000000000000000000000000006143c0565b90505b90565b600082826040516020016138f692919061575a565b60405160208183030381529060405280519060200120905092915050565b6000807f7fffffffffffffffffffffffffffffff5d576e7357a4501ddfe92f46681b20a08360001c111561394f5760006003915091506139ee565b6000600187878787604051600081526020016040526040516139749493929190615a49565b6020604051602081039080840390855afa158015613996573d6000803e3d6000fd5b505050602060405103519050600073ffffffffffffffffffffffffffffffffffffffff168173ffffffffffffffffffffffffffffffffffffffff1614156139e5576000600192509250506139ee565b80600092509250505b94509492505050565b60006004811115613a31577f4e487b7100000000000000000000000000000000000000000000000000000000600052602160045260246000fd5b816004811115613a6a577f4e487b7100000000000000000000000000000000000000000000000000000000600052602160045260246000fd5b1415613a7557613c92565b60016004811115613aaf577f4e487b7100000000000000000000000000000000000000000000000000000000600052602160045260246000fd5b816004811115613ae8577f4e487b7100000000000000000000000000000000000000000000000000000000600052602160045260246000fd5b1415613b29576040517f08c379a0000000000000000000000000000000000000000000000000000000008152600401613b2090615b01565b60405180910390fd5b60026004811115613b63577f4e487b7100000000000000000000000000000000000000000000000000000000600052602160045260246000fd5b816004811115613b9c577f4e487b7100000000000000000000000000000000000000000000000000000000600052602160045260246000fd5b1415613bdd576040517f08c379a0000000000000000000000000000000000000000000000000000000008152600401613bd490615b61565b60405180910390fd5b60036004811115613c17577f4e487b7100000000000000000000000000000000000000000000000000000000600052602160045260246000fd5b816004811115613c50577f4e487b7100000000000000000000000000000000000000000000000000000000600052602160045260246000fd5b1415613c91576040517f08c379a0000000000000000000000000000000000000000000000000000000008152600401613c8890615bc1565b60405180910390fd5b5b50565b60006007600087815260200190815260200160002090508060030160008673ffffffffffffffffffffffffffffffffffffffff1673ffffffffffffffffffffffffffffffffffffffff16815260200190815260200160002060009054906101000a900460ff1615613d3b576040517f08c379a0000000000000000000000000000000000000000000000000000000008152600401613d3290615be1565b60405180910390fd5b60018160030160008773ffffffffffffffffffffffffffffffffffffffff1673ffffffffffffffffffffffffffffffffffffffff16815260200190815260200160002060006101000a81548160ff02191690831515021790555060006002811115613dcf577f4e487b7100000000000000000000000000000000000000000000000000000000600052602160045260246000fd5b60ff168460ff161415613dfc5782816000016000828254613df091906161b8565b92505081905550613f06565b60016002811115613e36577f4e487b7100000000000000000000000000000000000000000000000000000000600052602160045260246000fd5b60ff168460ff161415613e635782816001016000828254613e5791906161b8565b92505081905550613f05565b600280811115613e9c577f4e487b7100000000000000000000000000000000000000000000000000000000600052602160045260246000fd5b60ff168460ff161415613ec95782816002016000828254613ebd91906161b8565b92505081905550613f04565b6040517f08c379a0000000000000000000000000000000000000000000000000000000008152600401613efb90615d01565b60405180910390fd5b5b5b505050505050565b60008160000160009054906101000a9004600f0b600f0b8260000160109054906101000a9004600f0b600f0b13159050919050565b60008260000160109054906101000a9004600f0b90508183600101600083600f0b600f0b815260200190815260200160002081905550600181018360000160106101000a8154816fffffffffffffffffffffffffffffffff0219169083600f0b6fffffffffffffffffffffffffffffffff160217905550505050565b600a60009054906101000a900473ffffffffffffffffffffffffffffffffffffffff1673ffffffffffffffffffffffffffffffffffffffff1663e38335e5348686866000876040518763ffffffff1660e01b8152600401614024959493929190615858565b6000604051808303818588803b15801561403d57600080fd5b505af1158015614051573d6000803e3d6000fd5b50505050505050505050565b60008160000160006101000a8154816fffffffffffffffffffffffffffffffff0219169083600f0b6fffffffffffffffffffffffffffffffff16021790555060008160000160106101000a8154816fffffffffffffffffffffffffffffffff0219169083600f0b6fffffffffffffffffffffffffffffffff16021790555050565b6000806001600084815260200190815260200160002090508060020160009054906101000a900460ff16156141175760079150506141ee565b8060020160019054906101000a900460ff16156141385760029150506141ee565b6000614143846112b2565b90506000811415614189576040517f08c379a000000000000000000000000000000000000000000000000000000000815260040161418090615ce1565b60405180910390fd5b43811061419b576000925050506141ee565b60006141a685611abb565b90504381106141bb57600193505050506141ee565b6141c4856143fa565b80156141d557506141d485614441565b5b156141e657600493505050506141ee565b600393505050505b919050565b60005b8183101561425b57600061420a848461446c565b90508463ffffffff1661421d878361364d565b60000160009054906101000a900463ffffffff1663ffffffff16111561424557809250614255565b60018161425291906161b8565b93505b506141f6565b819050949350505050565b600080826000015167ffffffffffffffff16149050919050565b600067ffffffffffffffff80168211156142cf576040517f08c379a00000000000000000000000000000000000000000000000000000000081526004016142c690615c61565b60405180910390fd5b819050919050565b808260000160006101000a81548167ffffffffffffffff021916908367ffffffffffffffff1602179055505050565b6000825111156143195781518083602001fd5b806040517f08c379a000000000000000000000000000000000000000000000000000000000815260040161434d9190615adf565b60405180910390fd5b60007f01ffc9a7000000000000000000000000000000000000000000000000000000007bffffffffffffffffffffffffffffffffffffffffffffffffffffffff1916827bffffffffffffffffffffffffffffffffffffffffffffffffffffffff1916149050919050565b600083838346306040516020016143db95949392919061596c565b6040516020818303038152906040528051906020012090509392505050565b6000806007600084815260200190815260200160002090508060020154816001015461442691906161b8565b614437614432856112b2565b611fa7565b1115915050919050565b6000806007600084815260200190815260200160002090508060000154816001015411915050919050565b6000600282841861447d919061624c565b82841661448a91906161b8565b905092915050565b60006144a56144a084615f7e565b615f59565b905080838252602082019050828560208602820111156144c457600080fd5b60005b858110156144f457816144da888261466c565b8452602084019350602083019250506001810190506144c7565b5050509392505050565b600061451161450c84615faa565b615f59565b9050808382526020820190508285602086028201111561453057600080fd5b60005b8581101561457a57813567ffffffffffffffff81111561455257600080fd5b80860161455f898261479d565b85526020850194506020840193505050600181019050614533565b5050509392505050565b600061459761459284615fd6565b615f59565b905080838252602082019050828560208602820111156145b657600080fd5b60005b858110156145e657816145cc8882614850565b8452602084019350602083019250506001810190506145b9565b5050509392505050565b60006146036145fe84616002565b615f59565b90508281526020810184848401111561461b57600080fd5b61462684828561644d565b509392505050565b600061464161463c84616033565b615f59565b90508281526020810184848401111561465957600080fd5b61466484828561644d565b509392505050565b60008135905061467b81616bd3565b92915050565b600082601f83011261469257600080fd5b81356146a2848260208601614492565b91505092915050565b600082601f8301126146bc57600080fd5b81356146cc8482602086016144fe565b91505092915050565b600082601f8301126146e657600080fd5b81356146f6848260208601614584565b91505092915050565b60008151905061470e81616bea565b92915050565b60008135905061472381616c01565b92915050565b60008151905061473881616c01565b92915050565b60008135905061474d81616c18565b92915050565b60008083601f84011261476557600080fd5b8235905067ffffffffffffffff81111561477e57600080fd5b60208301915083600182028301111561479657600080fd5b9250929050565b600082601f8301126147ae57600080fd5b81356147be8482602086016145f0565b91505092915050565b6000813590506147d681616c2f565b92915050565b60008083601f8401126147ee57600080fd5b8235905067ffffffffffffffff81111561480757600080fd5b60208301915083600182028301111561481f57600080fd5b9250929050565b600082601f83011261483757600080fd5b813561484784826020860161462e565b91505092915050565b60008135905061485f81616c46565b92915050565b60008151905061487481616c46565b92915050565b60008135905061488981616c5d565b92915050565b600080600080600060a086880312156148a757600080fd5b60006148b58882890161466c565b95505060206148c68882890161466c565b945050604086013567ffffffffffffffff8111156148e357600080fd5b6148ef888289016146d5565b935050606086013567ffffffffffffffff81111561490c57600080fd5b614918888289016146d5565b925050608086013567ffffffffffffffff81111561493557600080fd5b6149418882890161479d565b9150509295509295909350565b6000806000806080858703121561496457600080fd5b60006149728782880161466c565b94505060206149838782880161466c565b935050604061499487828801614850565b925050606085013567ffffffffffffffff8111156149b157600080fd5b6149bd8782880161479d565b91505092959194509250565b600080600080600060a086880312156149e157600080fd5b60006149ef8882890161466c565b9550506020614a008882890161466c565b9450506040614a1188828901614850565b9350506060614a2288828901614850565b925050608086013567ffffffffffffffff811115614a3f57600080fd5b614a4b8882890161479d565b9150509295509295909350565b60008060408385031215614a6b57600080fd5b6000614a798582860161466c565b9250506020614a8a85828601614850565b9150509250929050565b60008060008060608587031215614aaa57600080fd5b6000614ab88782880161466c565b9450506020614ac987828801614850565b935050604085013567ffffffffffffffff811115614ae657600080fd5b614af287828801614753565b925092505092959194509250565b600080600060608486031215614b1557600080fd5b6000614b238682870161466c565b9350506020614b3486828701614850565b925050604084013567ffffffffffffffff811115614b5157600080fd5b614b5d8682870161479d565b9150509250925092565b60008060008060808587031215614b7d57600080fd5b600085013567ffffffffffffffff811115614b9757600080fd5b614ba387828801614681565b945050602085013567ffffffffffffffff811115614bc057600080fd5b614bcc878288016146d5565b935050604085013567ffffffffffffffff811115614be957600080fd5b614bf5878288016146ab565b9250506060614c0687828801614714565b91505092959194509250565b60008060008060808587031215614c2857600080fd5b600085013567ffffffffffffffff811115614c4257600080fd5b614c4e87828801614681565b945050602085013567ffffffffffffffff811115614c6b57600080fd5b614c77878288016146d5565b935050604085013567ffffffffffffffff811115614c9457600080fd5b614ca0878288016146ab565b925050606085013567ffffffffffffffff811115614cbd57600080fd5b614cc987828801614826565b91505092959194509250565b600060208284031215614ce757600080fd5b6000614cf5848285016146ff565b91505092915050565b600060208284031215614d1057600080fd5b6000614d1e84828501614729565b91505092915050565b600060208284031215614d3957600080fd5b6000614d478482850161473e565b91505092915050565b600060208284031215614d6257600080fd5b6000614d70848285016147c7565b91505092915050565b600060208284031215614d8b57600080fd5b6000614d9984828501614850565b91505092915050565b600060208284031215614db457600080fd5b6000614dc284828501614865565b91505092915050565b60008060408385031215614dde57600080fd5b6000614dec85828601614850565b9250506020614dfd8582860161466c565b9150509250929050565b60008060408385031215614e1a57600080fd5b6000614e2885828601614850565b9250506020614e398582860161487a565b9150509250929050565b60008060008060608587031215614e5957600080fd5b6000614e6787828801614850565b9450506020614e788782880161487a565b935050604085013567ffffffffffffffff811115614e9557600080fd5b614ea1878288016147dc565b925092505092959194509250565b600080600080600060808688031215614ec757600080fd5b6000614ed588828901614850565b9550506020614ee68882890161487a565b945050604086013567ffffffffffffffff811115614f0357600080fd5b614f0f888289016147dc565b9350935050606086013567ffffffffffffffff811115614f2e57600080fd5b614f3a8882890161479d565b9150509295509295909350565b60008060008060008060008060e0898b031215614f6357600080fd5b6000614f718b828c01614850565b9850506020614f828b828c0161487a565b975050604089013567ffffffffffffffff811115614f9f57600080fd5b614fab8b828c016147dc565b9650965050606089013567ffffffffffffffff811115614fca57600080fd5b614fd68b828c0161479d565b9450506080614fe78b828c0161487a565b93505060a0614ff88b828c01614714565b92505060c06150098b828c01614714565b9150509295985092959890939650565b600080600080600060a0868803121561503157600080fd5b600061503f88828901614850565b95505060206150508882890161487a565b94505060406150618882890161487a565b935050606061507288828901614714565b925050608061508388828901614714565b9150509295509295909350565b600061509c83836150e8565b60208301905092915050565b60006150b48383615315565b905092915050565b60006150c883836153b4565b905092915050565b60006150dc8383615705565b60208301905092915050565b6150f18161630b565b82525050565b6151008161630b565b82525050565b6000615111826160a4565b61511b818561611a565b935061512683616064565b8060005b8381101561515757815161513e8882615090565b9750615149836160e6565b92505060018101905061512a565b5085935050505092915050565b600061516f826160af565b615179818561612b565b93508360208202850161518b85616074565b8060005b858110156151c757848403895281516151a885826150a8565b94506151b3836160f3565b925060208a0199505060018101905061518f565b50829750879550505050505092915050565b60006151e4826160ba565b6151ee818561613c565b93508360208202850161520085616084565b8060005b8581101561523c578484038952815161521d85826150bc565b945061522883616100565b925060208a01995050600181019050615204565b50829750879550505050505092915050565b6000615259826160c5565b615263818561614d565b935061526e83616094565b8060005b8381101561529f57815161528688826150d0565b97506152918361610d565b925050600181019050615272565b5085935050505092915050565b6152b58161632f565b82525050565b6152c48161633b565b82525050565b6152db6152d68261633b565b61653b565b82525050565b6152ea81616345565b82525050565b60006152fc8385616180565b935061530983858461644d565b82840190509392505050565b6000615320826160d0565b61532a818561615e565b935061533a81856020860161645c565b61534381616630565b840191505092915050565b6000615359826160d0565b615363818561616f565b935061537381856020860161645c565b61537c81616630565b840191505092915050565b615390816163eb565b82525050565b61539f8161640f565b82525050565b6153ae81616421565b82525050565b60006153bf826160db565b6153c9818561618b565b93506153d981856020860161645c565b6153e281616630565b840191505092915050565b60006153f8826160db565b615402818561619c565b935061541281856020860161645c565b61541b81616630565b840191505092915050565b600061543360188361619c565b915061543e8261664e565b602082019050919050565b600061545660188361619c565b915061546182616677565b602082019050919050565b600061547960438361619c565b9150615484826166a0565b606082019050919050565b600061549c601f8361619c565b91506154a782616715565b602082019050919050565b60006154bf6002836161ad565b91506154ca8261673e565b600282019050919050565b60006154e260218361619c565b91506154ed82616767565b604082019050919050565b600061550560278361619c565b9150615510826167b6565b604082019050919050565b600061552860228361619c565b915061553382616805565b604082019050919050565b600061554b60278361619c565b915061555682616854565b604082019050919050565b600061556e60238361619c565b9150615579826168a3565b604082019050919050565b600061559160208361619c565b915061559c826168f2565b602082019050919050565b60006155b460188361619c565b91506155bf8261691b565b602082019050919050565b60006155d760268361619c565b91506155e282616944565b604082019050919050565b60006155fa60278361619c565b915061560582616993565b604082019050919050565b600061561d60218361619c565b9150615628826169e2565b604082019050919050565b600061564060178361619c565b915061564b82616a31565b602082019050919050565b6000615663601d8361619c565b915061566e82616a5a565b602082019050919050565b600061568660358361619c565b915061569182616a83565b604082019050919050565b60006156a960218361619c565b91506156b482616ad2565b604082019050919050565b60006156cc60268361619c565b91506156d782616b21565b604082019050919050565b60006156ef60318361619c565b91506156fa82616b70565b604082019050919050565b61570e816163c0565b82525050565b61571d816163c0565b82525050565b61572c8161643b565b82525050565b61573b816163de565b82525050565b600061574e8284866152f0565b91508190509392505050565b6000615765826154b2565b915061577182856152ca565b60208201915061578182846152ca565b6020820191508190509392505050565b60006020820190506157a660008301846150f7565b92915050565b60006040820190506157c160008301856150f7565b6157ce60208301846150f7565b9392505050565b60006040820190506157ea60008301856150f7565b6157f76020830184615714565b9392505050565b600060808201905081810360008301526158188187615106565b9050818103602083015261582c818661524e565b905081810360408301526158408185615164565b905061584f60608301846152bb565b95945050505050565b600060a08201905081810360008301526158728188615106565b90508181036020830152615886818761524e565b9050818103604083015261589a8186615164565b90506158a960608301856153a5565b6158b660808301846152bb565b9695505050505050565b600060c08201905081810360008301526158da8189615106565b905081810360208301526158ee818861524e565b905081810360408301526159028187615164565b905061591160608301866153a5565b61591e60808301856152bb565b61592b60a0830184615714565b979650505050505050565b600060208201905061594b60008301846152ac565b92915050565b600060208201905061596660008301846152bb565b92915050565b600060a08201905061598160008301886152bb565b61598e60208301876152bb565b61599b60408301866152bb565b6159a86060830185615714565b6159b560808301846150f7565b9695505050505050565b60006060820190506159d460008301866152bb565b6159e16020830185615714565b6159ee6040830184615732565b949350505050565b600060a082019050615a0b60008301886152bb565b615a186020830187615714565b615a256040830186615732565b615a3260608301856152bb565b615a3f60808301846152bb565b9695505050505050565b6000608082019050615a5e60008301876152bb565b615a6b6020830186615732565b615a7860408301856152bb565b615a8560608301846152bb565b95945050505050565b6000602082019050615aa360008301846152e1565b92915050565b6000602082019050615abe6000830184615387565b92915050565b6000602082019050615ad96000830184615396565b92915050565b60006020820190508181036000830152615af981846153ed565b905092915050565b60006020820190508181036000830152615b1a81615426565b9050919050565b60006020820190508181036000830152615b3a81615449565b9050919050565b60006020820190508181036000830152615b5a8161546c565b9050919050565b60006020820190508181036000830152615b7a8161548f565b9050919050565b60006020820190508181036000830152615b9a816154d5565b9050919050565b60006020820190508181036000830152615bba816154f8565b9050919050565b60006020820190508181036000830152615bda8161551b565b9050919050565b60006020820190508181036000830152615bfa8161553e565b9050919050565b60006020820190508181036000830152615c1a81615561565b9050919050565b60006020820190508181036000830152615c3a81615584565b9050919050565b60006020820190508181036000830152615c5a816155a7565b9050919050565b60006020820190508181036000830152615c7a816155ca565b9050919050565b60006020820190508181036000830152615c9a816155ed565b9050919050565b60006020820190508181036000830152615cba81615610565b9050919050565b60006020820190508181036000830152615cda81615633565b9050919050565b60006020820190508181036000830152615cfa81615656565b9050919050565b60006020820190508181036000830152615d1a81615679565b9050919050565b60006020820190508181036000830152615d3a8161569c565b9050919050565b60006020820190508181036000830152615d5a816156bf565b9050919050565b60006020820190508181036000830152615d7a816156e2565b9050919050565b6000602082019050615d966000830184615714565b92915050565b600061012082019050615db2600083018c615714565b615dbf602083018b6150f7565b8181036040830152615dd1818a615106565b90508181036060830152615de5818961524e565b90508181036080830152615df981886151d9565b905081810360a0830152615e0d8187615164565b9050615e1c60c0830186615723565b615e2960e0830185615723565b818103610100830152615e3c81846153ed565b90509a9950505050505050505050565b6000604082019050615e616000830185615714565b615e6e6020830184615714565b9392505050565b6000606082019050615e8a6000830186615714565b615e976020830185615714565b615ea46040830184615714565b949350505050565b6000608082019050615ec16000830187615714565b615ece6020830186615732565b615edb6040830185615714565b8181036060830152615eed81846153ed565b905095945050505050565b600060a082019050615f0d6000830188615714565b615f1a6020830187615732565b615f276040830186615714565b8181036060830152615f3981856153ed565b90508181036080830152615f4d818461534e565b90509695505050505050565b6000615f63615f74565b9050615f6f82826164c1565b919050565b6000604051905090565b600067ffffffffffffffff821115615f9957615f98616601565b5b602082029050602081019050919050565b600067ffffffffffffffff821115615fc557615fc4616601565b5b602082029050602081019050919050565b600067ffffffffffffffff821115615ff157615ff0616601565b5b602082029050602081019050919050565b600067ffffffffffffffff82111561601d5761601c616601565b5b61602682616630565b9050602081019050919050565b600067ffffffffffffffff82111561604e5761604d616601565b5b61605782616630565b9050602081019050919050565b6000819050602082019050919050565b6000819050602082019050919050565b6000819050602082019050919050565b6000819050602082019050919050565b600081519050919050565b600081519050919050565b600081519050919050565b600081519050919050565b600081519050919050565b600081519050919050565b6000602082019050919050565b6000602082019050919050565b6000602082019050919050565b6000602082019050919050565b600082825260208201905092915050565b600082825260208201905092915050565b600082825260208201905092915050565b600082825260208201905092915050565b600082825260208201905092915050565b600082825260208201905092915050565b600081905092915050565b600082825260208201905092915050565b600082825260208201905092915050565b600081905092915050565b60006161c3826163c0565b91506161ce836163c0565b9250827fffffffffffffffffffffffffffffffffffffffffffffffffffffffffffffffff0382111561620357616202616545565b5b828201905092915050565b6000616219826163ca565b9150616224836163ca565b92508267ffffffffffffffff0382111561624157616240616545565b5b828201905092915050565b6000616257826163c0565b9150616262836163c0565b92508261627257616271616574565b5b828204905092915050565b6000616288826163c0565b9150616293836163c0565b9250817fffffffffffffffffffffffffffffffffffffffffffffffffffffffffffffffff04831182151516156162cc576162cb616545565b5b828202905092915050565b60006162e2826163c0565b91506162ed836163c0565b925082821015616300576162ff616545565b5b828203905092915050565b6000616316826163a0565b9050919050565b6000616328826163a0565b9050919050565b60008115159050919050565b6000819050919050565b60007fffffffff0000000000000000000000000000000000000000000000000000000082169050919050565b600061637c8261631d565b9050919050565b600081905061639182616bbf565b919050565b6000819050919050565b600073ffffffffffffffffffffffffffffffffffffffff82169050919050565b6000819050919050565b600067ffffffffffffffff82169050919050565b600060ff82169050919050565b60006163f6826163fd565b9050919050565b6000616408826163a0565b9050919050565b600061641a82616383565b9050919050565b600061643461642f83616396565b616641565b9050919050565b6000616446826163ca565b9050919050565b82818337600083830152505050565b60005b8381101561647a57808201518184015260208101905061645f565b83811115616489576000848401525b50505050565b600060028204905060018216806164a757607f821691505b602082108114156164bb576164ba6165d2565b5b50919050565b6164ca82616630565b810181811067ffffffffffffffff821117156164e9576164e8616601565b5b80604052505050565b60006164fd826163c0565b91507fffffffffffffffffffffffffffffffffffffffffffffffffffffffffffffffff8214156165305761652f616545565b5b600182019050919050565b6000819050919050565b7f4e487b7100000000000000000000000000000000000000000000000000000000600052601160045260246000fd5b7f4e487b7100000000000000000000000000000000000000000000000000000000600052601260045260246000fd5b7f4e487b7100000000000000000000000000000000000000000000000000000000600052602160045260246000fd5b7f4e487b7100000000000000000000000000000000000000000000000000000000600052602260045260246000fd5b7f4e487b7100000000000000000000000000000000000000000000000000000000600052604160045260246000fd5b6000601f19601f8301169050919050565b60008160001b9050919050565b7f45434453413a20696e76616c6964207369676e61747572650000000000000000600082015250565b7f476f7665726e6f723a206f6e6c79476f7665726e616e63650000000000000000600082015250565b7f476f7665726e6f72566f74657351756f72756d4672616374696f6e3a2071756f60008201527f72756d4e756d657261746f72206f7665722071756f72756d44656e6f6d696e6160208201527f746f720000000000000000000000000000000000000000000000000000000000604082015250565b7f45434453413a20696e76616c6964207369676e6174757265206c656e67746800600082015250565b7f1901000000000000000000000000000000000000000000000000000000000000600082015250565b7f476f7665726e6f723a20696e76616c69642070726f706f73616c206c656e677460008201527f6800000000000000000000000000000000000000000000000000000000000000602082015250565b7f476f7665726e6f7253657474696e67733a20766f74696e6720706572696f642060008201527f746f6f206c6f7700000000000000000000000000000000000000000000000000602082015250565b7f45434453413a20696e76616c6964207369676e6174757265202773272076616c60008201527f7565000000000000000000000000000000000000000000000000000000000000602082015250565b7f476f7665726e6f72566f74696e6753696d706c653a20766f746520616c72656160008201527f6479206361737400000000000000000000000000000000000000000000000000602082015250565b7f476f7665726e6f723a20766f7465206e6f742063757272656e746c792061637460008201527f6976650000000000000000000000000000000000000000000000000000000000602082015250565b7f436865636b706f696e74733a20626c6f636b206e6f7420796574206d696e6564600082015250565b7f476f7665726e6f723a20656d7074792070726f706f73616c0000000000000000600082015250565b7f53616665436173743a2076616c756520646f65736e27742066697420696e203660008201527f3420626974730000000000000000000000000000000000000000000000000000602082015250565b7f53616665436173743a2076616c756520646f65736e27742066697420696e203260008201527f3234206269747300000000000000000000000000000000000000000000000000602082015250565b7f476f7665726e6f723a2070726f706f73616c206e6f742073756363657373667560008201527f6c00000000000000000000000000000000000000000000000000000000000000602082015250565b7f436865636b706f696e743a20696e76616c6964206b6579000000000000000000600082015250565b7f476f7665726e6f723a20756e6b6e6f776e2070726f706f73616c206964000000600082015250565b7f476f7665726e6f72566f74696e6753696d706c653a20696e76616c696420766160008201527f6c756520666f7220656e756d20566f7465547970650000000000000000000000602082015250565b7f476f7665726e6f723a2070726f706f73616c20616c726561647920657869737460008201527f7300000000000000000000000000000000000000000000000000000000000000602082015250565b7f53616665436173743a2076616c756520646f65736e27742066697420696e203360008201527f3220626974730000000000000000000000000000000000000000000000000000602082015250565b7f476f7665726e6f723a2070726f706f73657220766f7465732062656c6f77207060008201527f726f706f73616c207468726573686f6c64000000000000000000000000000000602082015250565b60088110616bd057616bcf6165a3565b5b50565b616bdc8161630b565b8114616be757600080fd5b50565b616bf38161632f565b8114616bfe57600080fd5b50565b616c0a8161633b565b8114616c1557600080fd5b50565b616c2181616345565b8114616c2c57600080fd5b50565b616c3881616371565b8114616c4357600080fd5b50565b616c4f816163c0565b8114616c5a57600080fd5b50565b616c66816163de565b8114616c7157600080fd5b5056fe476f7665726e6f723a2072656c617920726576657274656420776974686f7574206d657373616765a26469706673582212206c0cbb905c6dd9b87128179b5f63c630ea30220e5ceedf621becb0298ad9286e64736f6c63430008040033",
  "linkReferences": {},
  "deployedLinkReferences": {}
}