{
  "_format": "hh-sol-artifact-1",
  "contractName": "TimelockController",
  "sourceName": "@openzeppelin/contracts/governance/TimelockController.sol",
  "abi": [
    {
      "inputs": [
        {
          "internalType": "uint256",
          "name": "minDelay",
          "type": "uint256"
        },
        {
          "internalType": "address[]",
          "name": "proposers",
          "type": "address[]"
        },
        {
          "internalType": "address[]",
          "name": "executors",
          "type": "address[]"
        },
        {
          "internalType": "address",
          "name": "admin",
          "type": "address"
        }
      ],
      "stateMutability": "nonpayable",
      "type": "constructor"
    },
    {
      "anonymous": false,
      "inputs": [
        {
          "indexed": true,
          "internalType": "bytes32",
          "name": "id",
          "type": "bytes32"
        },
        {
          "indexed": true,
          "internalType": "uint256",
          "name": "index",
          "type": "uint256"
        },
        {
          "indexed": false,
          "internalType": "address",
          "name": "target",
          "type": "address"
        },
        {
          "indexed": false,
          "internalType": "uint256",
          "name": "value",
          "type": "uint256"
        },
        {
          "indexed": false,
          "internalType": "bytes",
          "name": "data",
          "type": "bytes"
        }
      ],
      "name": "CallExecuted",
      "type": "event"
    },
    {
      "anonymous": false,
      "inputs": [
        {
          "indexed": true,
          "internalType": "bytes32",
          "name": "id",
          "type": "bytes32"
        },
        {
          "indexed": true,
          "internalType": "uint256",
          "name": "index",
          "type": "uint256"
        },
        {
          "indexed": false,
          "internalType": "address",
          "name": "target",
          "type": "address"
        },
        {
          "indexed": false,
          "internalType": "uint256",
          "name": "value",
          "type": "uint256"
        },
        {
          "indexed": false,
          "internalType": "bytes",
          "name": "data",
          "type": "bytes"
        },
        {
          "indexed": false,
          "internalType": "bytes32",
          "name": "predecessor",
          "type": "bytes32"
        },
        {
          "indexed": false,
          "internalType": "uint256",
          "name": "delay",
          "type": "uint256"
        }
      ],
      "name": "CallScheduled",
      "type": "event"
    },
    {
      "anonymous": false,
      "inputs": [
        {
          "indexed": true,
          "internalType": "bytes32",
          "name": "id",
          "type": "bytes32"
        }
      ],
      "name": "Cancelled",
      "type": "event"
    },
    {
      "anonymous": false,
      "inputs": [
        {
          "indexed": false,
          "internalType": "uint256",
          "name": "oldDuration",
          "type": "uint256"
        },
        {
          "indexed": false,
          "internalType": "uint256",
          "name": "newDuration",
          "type": "uint256"
        }
      ],
      "name": "MinDelayChange",
      "type": "event"
    },
    {
      "anonymous": false,
      "inputs": [
        {
          "indexed": true,
          "internalType": "bytes32",
          "name": "role",
          "type": "bytes32"
        },
        {
          "indexed": true,
          "internalType": "bytes32",
          "name": "previousAdminRole",
          "type": "bytes32"
        },
        {
          "indexed": true,
          "internalType": "bytes32",
          "name": "newAdminRole",
          "type": "bytes32"
        }
      ],
      "name": "RoleAdminChanged",
      "type": "event"
    },
    {
      "anonymous": false,
      "inputs": [
        {
          "indexed": true,
          "internalType": "bytes32",
          "name": "role",
          "type": "bytes32"
        },
        {
          "indexed": true,
          "internalType": "address",
          "name": "account",
          "type": "address"
        },
        {
          "indexed": true,
          "internalType": "address",
          "name": "sender",
          "type": "address"
        }
      ],
      "name": "RoleGranted",
      "type": "event"
    },
    {
      "anonymous": false,
      "inputs": [
        {
          "indexed": true,
          "internalType": "bytes32",
          "name": "role",
          "type": "bytes32"
        },
        {
          "indexed": true,
          "internalType": "address",
          "name": "account",
          "type": "address"
        },
        {
          "indexed": true,
          "internalType": "address",
          "name": "sender",
          "type": "address"
        }
      ],
      "name": "RoleRevoked",
      "type": "event"
    },
    {
      "inputs": [],
      "name": "CANCELLER_ROLE",
      "outputs": [
        {
          "internalType": "bytes32",
          "name": "",
          "type": "bytes32"
        }
      ],
      "stateMutability": "view",
      "type": "function"
    },
    {
      "inputs": [],
      "name": "DEFAULT_ADMIN_ROLE",
      "outputs": [
        {
          "internalType": "bytes32",
          "name": "",
          "type": "bytes32"
        }
      ],
      "stateMutability": "view",
      "type": "function"
    },
    {
      "inputs": [],
      "name": "EXECUTOR_ROLE",
      "outputs": [
        {
          "internalType": "bytes32",
          "name": "",
          "type": "bytes32"
        }
      ],
      "stateMutability": "view",
      "type": "function"
    },
    {
      "inputs": [],
      "name": "PROPOSER_ROLE",
      "outputs": [
        {
          "internalType": "bytes32",
          "name": "",
          "type": "bytes32"
        }
      ],
      "stateMutability": "view",
      "type": "function"
    },
    {
      "inputs": [],
      "name": "TIMELOCK_ADMIN_ROLE",
      "outputs": [
        {
          "internalType": "bytes32",
          "name": "",
          "type": "bytes32"
        }
      ],
      "stateMutability": "view",
      "type": "function"
    },
    {
      "inputs": [
        {
          "internalType": "bytes32",
          "name": "id",
          "type": "bytes32"
        }
      ],
      "name": "cancel",
      "outputs": [],
      "stateMutability": "nonpayable",
      "type": "function"
    },
    {
      "inputs": [
        {
          "internalType": "address",
          "name": "target",
          "type": "address"
        },
        {
          "internalType": "uint256",
          "name": "value",
          "type": "uint256"
        },
        {
          "internalType": "bytes",
          "name": "payload",
          "type": "bytes"
        },
        {
          "internalType": "bytes32",
          "name": "predecessor",
          "type": "bytes32"
        },
        {
          "internalType": "bytes32",
          "name": "salt",
          "type": "bytes32"
        }
      ],
      "name": "execute",
      "outputs": [],
      "stateMutability": "payable",
      "type": "function"
    },
    {
      "inputs": [
        {
          "internalType": "address[]",
          "name": "targets",
          "type": "address[]"
        },
        {
          "internalType": "uint256[]",
          "name": "values",
          "type": "uint256[]"
        },
        {
          "internalType": "bytes[]",
          "name": "payloads",
          "type": "bytes[]"
        },
        {
          "internalType": "bytes32",
          "name": "predecessor",
          "type": "bytes32"
        },
        {
          "internalType": "bytes32",
          "name": "salt",
          "type": "bytes32"
        }
      ],
      "name": "executeBatch",
      "outputs": [],
      "stateMutability": "payable",
      "type": "function"
    },
    {
      "inputs": [],
      "name": "getMinDelay",
      "outputs": [
        {
          "internalType": "uint256",
          "name": "duration",
          "type": "uint256"
        }
      ],
      "stateMutability": "view",
      "type": "function"
    },
    {
      "inputs": [
        {
          "internalType": "bytes32",
          "name": "role",
          "type": "bytes32"
        }
      ],
      "name": "getRoleAdmin",
      "outputs": [
        {
          "internalType": "bytes32",
          "name": "",
          "type": "bytes32"
        }
      ],
      "stateMutability": "view",
      "type": "function"
    },
    {
      "inputs": [
        {
          "internalType": "bytes32",
          "name": "id",
          "type": "bytes32"
        }
      ],
      "name": "getTimestamp",
      "outputs": [
        {
          "internalType": "uint256",
          "name": "timestamp",
          "type": "uint256"
        }
      ],
      "stateMutability": "view",
      "type": "function"
    },
    {
      "inputs": [
        {
          "internalType": "bytes32",
          "name": "role",
          "type": "bytes32"
        },
        {
          "internalType": "address",
          "name": "account",
          "type": "address"
        }
      ],
      "name": "grantRole",
      "outputs": [],
      "stateMutability": "nonpayable",
      "type": "function"
    },
    {
      "inputs": [
        {
          "internalType": "bytes32",
          "name": "role",
          "type": "bytes32"
        },
        {
          "internalType": "address",
          "name": "account",
          "type": "address"
        }
      ],
      "name": "hasRole",
      "outputs": [
        {
          "internalType": "bool",
          "name": "",
          "type": "bool"
        }
      ],
      "stateMutability": "view",
      "type": "function"
    },
    {
      "inputs": [
        {
          "internalType": "address",
          "name": "target",
          "type": "address"
        },
        {
          "internalType": "uint256",
          "name": "value",
          "type": "uint256"
        },
        {
          "internalType": "bytes",
          "name": "data",
          "type": "bytes"
        },
        {
          "internalType": "bytes32",
          "name": "predecessor",
          "type": "bytes32"
        },
        {
          "internalType": "bytes32",
          "name": "salt",
          "type": "bytes32"
        }
      ],
      "name": "hashOperation",
      "outputs": [
        {
          "internalType": "bytes32",
          "name": "hash",
          "type": "bytes32"
        }
      ],
      "stateMutability": "pure",
      "type": "function"
    },
    {
      "inputs": [
        {
          "internalType": "address[]",
          "name": "targets",
          "type": "address[]"
        },
        {
          "internalType": "uint256[]",
          "name": "values",
          "type": "uint256[]"
        },
        {
          "internalType": "bytes[]",
          "name": "payloads",
          "type": "bytes[]"
        },
        {
          "internalType": "bytes32",
          "name": "predecessor",
          "type": "bytes32"
        },
        {
          "internalType": "bytes32",
          "name": "salt",
          "type": "bytes32"
        }
      ],
      "name": "hashOperationBatch",
      "outputs": [
        {
          "internalType": "bytes32",
          "name": "hash",
          "type": "bytes32"
        }
      ],
      "stateMutability": "pure",
      "type": "function"
    },
    {
      "inputs": [
        {
          "internalType": "bytes32",
          "name": "id",
          "type": "bytes32"
        }
      ],
      "name": "isOperation",
      "outputs": [
        {
          "internalType": "bool",
          "name": "registered",
          "type": "bool"
        }
      ],
      "stateMutability": "view",
      "type": "function"
    },
    {
      "inputs": [
        {
          "internalType": "bytes32",
          "name": "id",
          "type": "bytes32"
        }
      ],
      "name": "isOperationDone",
      "outputs": [
        {
          "internalType": "bool",
          "name": "done",
          "type": "bool"
        }
      ],
      "stateMutability": "view",
      "type": "function"
    },
    {
      "inputs": [
        {
          "internalType": "bytes32",
          "name": "id",
          "type": "bytes32"
        }
      ],
      "name": "isOperationPending",
      "outputs": [
        {
          "internalType": "bool",
          "name": "pending",
          "type": "bool"
        }
      ],
      "stateMutability": "view",
      "type": "function"
    },
    {
      "inputs": [
        {
          "internalType": "bytes32",
          "name": "id",
          "type": "bytes32"
        }
      ],
      "name": "isOperationReady",
      "outputs": [
        {
          "internalType": "bool",
          "name": "ready",
          "type": "bool"
        }
      ],
      "stateMutability": "view",
      "type": "function"
    },
    {
      "inputs": [
        {
          "internalType": "address",
          "name": "",
          "type": "address"
        },
        {
          "internalType": "address",
          "name": "",
          "type": "address"
        },
        {
          "internalType": "uint256[]",
          "name": "",
          "type": "uint256[]"
        },
        {
          "internalType": "uint256[]",
          "name": "",
          "type": "uint256[]"
        },
        {
          "internalType": "bytes",
          "name": "",
          "type": "bytes"
        }
      ],
      "name": "onERC1155BatchReceived",
      "outputs": [
        {
          "internalType": "bytes4",
          "name": "",
          "type": "bytes4"
        }
      ],
      "stateMutability": "nonpayable",
      "type": "function"
    },
    {
      "inputs": [
        {
          "internalType": "address",
          "name": "",
          "type": "address"
        },
        {
          "internalType": "address",
          "name": "",
          "type": "address"
        },
        {
          "internalType": "uint256",
          "name": "",
          "type": "uint256"
        },
        {
          "internalType": "uint256",
          "name": "",
          "type": "uint256"
        },
        {
          "internalType": "bytes",
          "name": "",
          "type": "bytes"
        }
      ],
      "name": "onERC1155Received",
      "outputs": [
        {
          "internalType": "bytes4",
          "name": "",
          "type": "bytes4"
        }
      ],
      "stateMutability": "nonpayable",
      "type": "function"
    },
    {
      "inputs": [
        {
          "internalType": "address",
          "name": "",
          "type": "address"
        },
        {
          "internalType": "address",
          "name": "",
          "type": "address"
        },
        {
          "internalType": "uint256",
          "name": "",
          "type": "uint256"
        },
        {
          "internalType": "bytes",
          "name": "",
          "type": "bytes"
        }
      ],
      "name": "onERC721Received",
      "outputs": [
        {
          "internalType": "bytes4",
          "name": "",
          "type": "bytes4"
        }
      ],
      "stateMutability": "nonpayable",
      "type": "function"
    },
    {
      "inputs": [
        {
          "internalType": "bytes32",
          "name": "role",
          "type": "bytes32"
        },
        {
          "internalType": "address",
          "name": "account",
          "type": "address"
        }
      ],
      "name": "renounceRole",
      "outputs": [],
      "stateMutability": "nonpayable",
      "type": "function"
    },
    {
      "inputs": [
        {
          "internalType": "bytes32",
          "name": "role",
          "type": "bytes32"
        },
        {
          "internalType": "address",
          "name": "account",
          "type": "address"
        }
      ],
      "name": "revokeRole",
      "outputs": [],
      "stateMutability": "nonpayable",
      "type": "function"
    },
    {
      "inputs": [
        {
          "internalType": "address",
          "name": "target",
          "type": "address"
        },
        {
          "internalType": "uint256",
          "name": "value",
          "type": "uint256"
        },
        {
          "internalType": "bytes",
          "name": "data",
          "type": "bytes"
        },
        {
          "internalType": "bytes32",
          "name": "predecessor",
          "type": "bytes32"
        },
        {
          "internalType": "bytes32",
          "name": "salt",
          "type": "bytes32"
        },
        {
          "internalType": "uint256",
          "name": "delay",
          "type": "uint256"
        }
      ],
      "name": "schedule",
      "outputs": [],
      "stateMutability": "nonpayable",
      "type": "function"
    },
    {
      "inputs": [
        {
          "internalType": "address[]",
          "name": "targets",
          "type": "address[]"
        },
        {
          "internalType": "uint256[]",
          "name": "values",
          "type": "uint256[]"
        },
        {
          "internalType": "bytes[]",
          "name": "payloads",
          "type": "bytes[]"
        },
        {
          "internalType": "bytes32",
          "name": "predecessor",
          "type": "bytes32"
        },
        {
          "internalType": "bytes32",
          "name": "salt",
          "type": "bytes32"
        },
        {
          "internalType": "uint256",
          "name": "delay",
          "type": "uint256"
        }
      ],
      "name": "scheduleBatch",
      "outputs": [],
      "stateMutability": "nonpayable",
      "type": "function"
    },
    {
      "inputs": [
        {
          "internalType": "bytes4",
          "name": "interfaceId",
          "type": "bytes4"
        }
      ],
      "name": "supportsInterface",
      "outputs": [
        {
          "internalType": "bool",
          "name": "",
          "type": "bool"
        }
      ],
      "stateMutability": "view",
      "type": "function"
    },
    {
      "inputs": [
        {
          "internalType": "uint256",
          "name": "newDelay",
          "type": "uint256"
        }
      ],
      "name": "updateDelay",
      "outputs": [],
      "stateMutability": "nonpayable",
      "type": "function"
    },
    {
      "stateMutability": "payable",
      "type": "receive"
    }
  ],
  "bytecode": "0x60806040523480156200001157600080fd5b50604051620026c6380380620026c6833981016040819052620000349162000419565b6200004f600080516020620026468339815191528062000251565b62000079600080516020620026668339815191526000805160206200264683398151915262000251565b620000a3600080516020620026868339815191526000805160206200264683398151915262000251565b620000cd600080516020620026a68339815191526000805160206200264683398151915262000251565b620000e860008051602062002646833981519152306200029c565b6001600160a01b0381161562000113576200011360008051602062002646833981519152826200029c565b60005b8351811015620001b15762000169600080516020620026668339815191528583815181106200015557634e487b7160e01b600052603260045260246000fd5b60200260200101516200029c60201b60201c565b6200019e600080516020620026a68339815191528583815181106200015557634e487b7160e01b600052603260045260246000fd5b620001a9816200049d565b905062000116565b5060005b82518110156200020757620001f4600080516020620026868339815191528483815181106200015557634e487b7160e01b600052603260045260246000fd5b620001ff816200049d565b9050620001b5565b5060028490556040805160008152602081018690527f11c24f4ead16507c69ac467fbd5e4eed5fb5c699626d2cc6d66421df253886d5910160405180910390a150505050620004db565b600082815260208190526040808220600101805490849055905190918391839186917fbd79b86ffe0ab8e8776151514217cd7cacd52c909f66475c3af44e129f0b00ff9190a4505050565b620002a88282620002ac565b5050565b6000828152602081815260408083206001600160a01b038516845290915290205460ff16620002a8576000828152602081815260408083206001600160a01b03851684529091529020805460ff19166001179055620003083390565b6001600160a01b0316816001600160a01b0316837f2f8788117e7eff1d82e926ec794901d17c78024a50270940304540a733656f0d60405160405180910390a45050565b80516001600160a01b03811681146200036457600080fd5b919050565b600082601f8301126200037a578081fd5b815160206001600160401b0380831115620003995762000399620004c5565b8260051b604051601f19603f83011681018181108482111715620003c157620003c1620004c5565b60405284815283810192508684018288018501891015620003e0578687fd5b8692505b858310156200040d57620003f8816200034c565b845292840192600192909201918401620003e4565b50979650505050505050565b600080600080608085870312156200042f578384fd5b845160208601519094506001600160401b03808211156200044e578485fd5b6200045c8883890162000369565b9450604087015191508082111562000472578384fd5b50620004818782880162000369565b92505062000492606086016200034c565b905092959194509250565b6000600019821415620004be57634e487b7160e01b81526011600452602481fd5b5060010190565b634e487b7160e01b600052604160045260246000fd5b61215b80620004eb6000396000f3fe6080604052600436106101bb5760003560e01c80638065657f116100ec578063bc197c811161008a578063d547741f11610064578063d547741f146105d8578063e38335e5146105f8578063f23a6e611461060b578063f27a0c921461065057600080fd5b8063bc197c8114610546578063c4d252f51461058b578063d45c4435146105ab57600080fd5b806391d14854116100c657806391d1485414610499578063a217fddf146104dd578063b08e51c0146104f2578063b1c5f4271461052657600080fd5b80638065657f146104255780638f2a0bb0146104455780638f61f4f51461046557600080fd5b8063248a9ca31161015957806331d507501161013357806331d50750146103a557806336568abe146103c5578063584b153e146103e557806364d623531461040557600080fd5b8063248a9ca3146103245780632ab0f529146103545780632f2ff15d1461038557600080fd5b80630d3cf6fc116101955780630d3cf6fc14610260578063134008d31461029457806313bc9f20146102a7578063150b7a02146102c757600080fd5b806301d5062a146101c757806301ffc9a7146101e957806307bd02651461021e57600080fd5b366101c257005b600080fd5b3480156101d357600080fd5b506101e76101e2366004611b10565b610665565b005b3480156101f557600080fd5b50610209610204366004611d19565b6106fa565b60405190151581526020015b60405180910390f35b34801561022a57600080fd5b506102527fd8aa0f3194971a2a116679f7c2090f6939c8d4e01a2a8d7e41d55e5351469e6381565b604051908152602001610215565b34801561026c57600080fd5b506102527f5f58e3a2316349923ce3780f8d587db2d72378aed66a8261c916544fa6846ca581565b6101e76102a2366004611aa6565b61073e565b3480156102b357600080fd5b506102096102c2366004611cd6565b610836565b3480156102d357600080fd5b5061030b6102e23660046119dd565b7f150b7a0200000000000000000000000000000000000000000000000000000000949350505050565b6040516001600160e01b03199091168152602001610215565b34801561033057600080fd5b5061025261033f366004611cd6565b60009081526020819052604090206001015490565b34801561036057600080fd5b5061020961036f366004611cd6565b6000908152600160208190526040909120541490565b34801561039157600080fd5b506101e76103a0366004611cee565b61085c565b3480156103b157600080fd5b506102096103c0366004611cd6565b610886565b3480156103d157600080fd5b506101e76103e0366004611cee565b61089f565b3480156103f157600080fd5b50610209610400366004611cd6565b610930565b34801561041157600080fd5b506101e7610420366004611cd6565b610946565b34801561043157600080fd5b50610252610440366004611aa6565b6109fc565b34801561045157600080fd5b506101e7610460366004611c28565b610a3b565b34801561047157600080fd5b506102527fb09aa5aeb3702cfd50b6b62bc4532604938f21248a27a1d5ca736082b6819cc181565b3480156104a557600080fd5b506102096104b4366004611cee565b6000918252602082815260408084206001600160a01b0393909316845291905290205460ff1690565b3480156104e957600080fd5b50610252600081565b3480156104fe57600080fd5b506102527ffd643c72710c63c0180259aba6b2d05451e3591a24e58b62239378085726f78381565b34801561053257600080fd5b50610252610541366004611b83565b610c2f565b34801561055257600080fd5b5061030b610561366004611937565b7fbc197c810000000000000000000000000000000000000000000000000000000095945050505050565b34801561059757600080fd5b506101e76105a6366004611cd6565b610c74565b3480156105b757600080fd5b506102526105c6366004611cd6565b60009081526001602052604090205490565b3480156105e457600080fd5b506101e76105f3366004611cee565b610d55565b6101e7610606366004611b83565b610d7a565b34801561061757600080fd5b5061030b610626366004611a43565b7ff23a6e610000000000000000000000000000000000000000000000000000000095945050505050565b34801561065c57600080fd5b50600254610252565b7fb09aa5aeb3702cfd50b6b62bc4532604938f21248a27a1d5ca736082b6819cc161068f81610fe9565b600061069f8989898989896109fc565b90506106ab8184610ff6565b6000817f4cf4410cc57040e44862ef0f45f3dd5a5e02db8eb8add648d4b0e236f1d07dca8b8b8b8b8b8a6040516106e796959493929190611ebb565b60405180910390a3505050505050505050565b60006001600160e01b031982167f4e2312e000000000000000000000000000000000000000000000000000000000148061073857506107388261110a565b92915050565b600080527fdae2aa361dfd1ca020a396615627d436107c35eff9fe7738a3512819782d70696020527f5ba6852781629bcdcd4bdaa6de76d786f1c64b16acdac474e55bebc0ea157951547fd8aa0f3194971a2a116679f7c2090f6939c8d4e01a2a8d7e41d55e5351469e639060ff166107bb576107bb8133611171565b60006107cb8888888888886109fc565b90506107d781856111e4565b6107e3888888886112da565b6000817fc2617efa69bab66782fa219543714338489c4e9e178271560a91b82c3f612b588a8a8a8a60405161081b9493929190611e88565b60405180910390a361082c816113b7565b5050505050505050565b6000818152600160205260408120546001811180156108555750428111155b9392505050565b60008281526020819052604090206001015461087781610fe9565b6108818383611433565b505050565b60008181526001602052604081205481905b1192915050565b6001600160a01b03811633146109225760405162461bcd60e51b815260206004820152602f60248201527f416363657373436f6e74726f6c3a2063616e206f6e6c792072656e6f756e636560448201527f20726f6c657320666f722073656c66000000000000000000000000000000000060648201526084015b60405180910390fd5b61092c82826114d1565b5050565b6000818152600160208190526040822054610898565b3330146109bb5760405162461bcd60e51b815260206004820152602b60248201527f54696d656c6f636b436f6e74726f6c6c65723a2063616c6c6572206d7573742060448201527f62652074696d656c6f636b0000000000000000000000000000000000000000006064820152608401610919565b60025460408051918252602082018390527f11c24f4ead16507c69ac467fbd5e4eed5fb5c699626d2cc6d66421df253886d5910160405180910390a1600255565b6000868686868686604051602001610a1996959493929190611ebb565b6040516020818303038152906040528051906020012090509695505050505050565b7fb09aa5aeb3702cfd50b6b62bc4532604938f21248a27a1d5ca736082b6819cc1610a6581610fe9565b888714610ac05760405162461bcd60e51b815260206004820152602360248201527f54696d656c6f636b436f6e74726f6c6c65723a206c656e677468206d69736d616044820152620e8c6d60eb1b6064820152608401610919565b888514610b1b5760405162461bcd60e51b815260206004820152602360248201527f54696d656c6f636b436f6e74726f6c6c65723a206c656e677468206d69736d616044820152620e8c6d60eb1b6064820152608401610919565b6000610b2d8b8b8b8b8b8b8b8b610c2f565b9050610b398184610ff6565b60005b8a811015610c215780827f4cf4410cc57040e44862ef0f45f3dd5a5e02db8eb8add648d4b0e236f1d07dca8e8e85818110610b8757634e487b7160e01b600052603260045260246000fd5b9050602002016020810190610b9c919061191d565b8d8d86818110610bbc57634e487b7160e01b600052603260045260246000fd5b905060200201358c8c87818110610be357634e487b7160e01b600052603260045260246000fd5b9050602002810190610bf59190611fea565b8c8b604051610c0996959493929190611ebb565b60405180910390a3610c1a816120de565b9050610b3c565b505050505050505050505050565b60008888888888888888604051602001610c50989796959493929190611ef9565b60405160208183030381529060405280519060200120905098975050505050505050565b7ffd643c72710c63c0180259aba6b2d05451e3591a24e58b62239378085726f783610c9e81610fe9565b610ca782610930565b610d195760405162461bcd60e51b815260206004820152603160248201527f54696d656c6f636b436f6e74726f6c6c65723a206f7065726174696f6e20636160448201527f6e6e6f742062652063616e63656c6c65640000000000000000000000000000006064820152608401610919565b6000828152600160205260408082208290555183917fbaa1eb22f2a492ba1a5fea61b8df4d27c6c8b5f3971e63bb58fa14ff72eedb7091a25050565b600082815260208190526040902060010154610d7081610fe9565b61088183836114d1565b600080527fdae2aa361dfd1ca020a396615627d436107c35eff9fe7738a3512819782d70696020527f5ba6852781629bcdcd4bdaa6de76d786f1c64b16acdac474e55bebc0ea157951547fd8aa0f3194971a2a116679f7c2090f6939c8d4e01a2a8d7e41d55e5351469e639060ff16610df757610df78133611171565b878614610e525760405162461bcd60e51b815260206004820152602360248201527f54696d656c6f636b436f6e74726f6c6c65723a206c656e677468206d69736d616044820152620e8c6d60eb1b6064820152608401610919565b878414610ead5760405162461bcd60e51b815260206004820152602360248201527f54696d656c6f636b436f6e74726f6c6c65723a206c656e677468206d69736d616044820152620e8c6d60eb1b6064820152608401610919565b6000610ebf8a8a8a8a8a8a8a8a610c2f565b9050610ecb81856111e4565b60005b89811015610fd35760008b8b83818110610ef857634e487b7160e01b600052603260045260246000fd5b9050602002016020810190610f0d919061191d565b905060008a8a84818110610f3157634e487b7160e01b600052603260045260246000fd5b9050602002013590503660008a8a86818110610f5d57634e487b7160e01b600052603260045260246000fd5b9050602002810190610f6f9190611fea565b91509150610f7f848484846112da565b84867fc2617efa69bab66782fa219543714338489c4e9e178271560a91b82c3f612b5886868686604051610fb69493929190611e88565b60405180910390a35050505080610fcc906120de565b9050610ece565b50610fdd816113b7565b50505050505050505050565b610ff38133611171565b50565b610fff82610886565b156110725760405162461bcd60e51b815260206004820152602f60248201527f54696d656c6f636b436f6e74726f6c6c65723a206f7065726174696f6e20616c60448201527f7265616479207363686564756c656400000000000000000000000000000000006064820152608401610919565b6002548110156110ea5760405162461bcd60e51b815260206004820152602660248201527f54696d656c6f636b436f6e74726f6c6c65723a20696e73756666696369656e7460448201527f2064656c617900000000000000000000000000000000000000000000000000006064820152608401610919565b6110f48142612060565b6000928352600160205260409092209190915550565b60006001600160e01b031982167f7965db0b00000000000000000000000000000000000000000000000000000000148061073857507f01ffc9a7000000000000000000000000000000000000000000000000000000006001600160e01b0319831614610738565b6000828152602081815260408083206001600160a01b038516845290915290205460ff1661092c576111a281611550565b6111ad836020611562565b6040516020016111be929190611e07565b60408051601f198184030181529082905262461bcd60e51b825261091991600401611fb7565b6111ed82610836565b61124c5760405162461bcd60e51b815260206004820152602a60248201527f54696d656c6f636b436f6e74726f6c6c65723a206f7065726174696f6e206973604482015269206e6f7420726561647960b01b6064820152608401610919565b8015806112685750600081815260016020819052604090912054145b61092c5760405162461bcd60e51b815260206004820152602660248201527f54696d656c6f636b436f6e74726f6c6c65723a206d697373696e67206465706560448201527f6e64656e637900000000000000000000000000000000000000000000000000006064820152608401610919565b6000846001600160a01b03168484846040516112f7929190611df7565b60006040518083038185875af1925050503d8060008114611334576040519150601f19603f3d011682016040523d82523d6000602084013e611339565b606091505b50509050806113b05760405162461bcd60e51b815260206004820152603360248201527f54696d656c6f636b436f6e74726f6c6c65723a20756e6465726c79696e67207460448201527f72616e73616374696f6e207265766572746564000000000000000000000000006064820152608401610919565b5050505050565b6113c081610836565b61141f5760405162461bcd60e51b815260206004820152602a60248201527f54696d656c6f636b436f6e74726f6c6c65723a206f7065726174696f6e206973604482015269206e6f7420726561647960b01b6064820152608401610919565b600090815260016020819052604090912055565b6000828152602081815260408083206001600160a01b038516845290915290205460ff1661092c576000828152602081815260408083206001600160a01b03851684529091529020805460ff1916600117905561148d3390565b6001600160a01b0316816001600160a01b0316837f2f8788117e7eff1d82e926ec794901d17c78024a50270940304540a733656f0d60405160405180910390a45050565b6000828152602081815260408083206001600160a01b038516845290915290205460ff161561092c576000828152602081815260408083206001600160a01b0385168085529252808320805460ff1916905551339285917ff6391f5c32d9c69d2a47ea670b442974b53935d1edc7fd64eb21e047a839171b9190a45050565b60606107386001600160a01b03831660145b60606000611571836002612078565b61157c906002612060565b67ffffffffffffffff8111156115a257634e487b7160e01b600052604160045260246000fd5b6040519080825280601f01601f1916602001820160405280156115cc576020820181803683370190505b5090507f30000000000000000000000000000000000000000000000000000000000000008160008151811061161157634e487b7160e01b600052603260045260246000fd5b60200101906001600160f81b031916908160001a9053507f78000000000000000000000000000000000000000000000000000000000000008160018151811061166a57634e487b7160e01b600052603260045260246000fd5b60200101906001600160f81b031916908160001a905350600061168e846002612078565b611699906001612060565b90505b600181111561173a577f303132333435363738396162636465660000000000000000000000000000000085600f16601081106116e857634e487b7160e01b600052603260045260246000fd5b1a60f81b82828151811061170c57634e487b7160e01b600052603260045260246000fd5b60200101906001600160f81b031916908160001a90535060049490941c93611733816120c7565b905061169c565b5083156108555760405162461bcd60e51b815260206004820181905260248201527f537472696e67733a20686578206c656e67746820696e73756666696369656e746044820152606401610919565b80356001600160a01b03811681146117a057600080fd5b919050565b60008083601f8401126117b6578182fd5b50813567ffffffffffffffff8111156117cd578182fd5b6020830191508360208260051b85010111156117e857600080fd5b9250929050565b600082601f8301126117ff578081fd5b8135602067ffffffffffffffff82111561181b5761181b61210f565b8160051b61182a82820161202f565b838152828101908684018388018501891015611844578687fd5b8693505b85841015611866578035835260019390930192918401918401611848565b50979650505050505050565b60008083601f840112611883578182fd5b50813567ffffffffffffffff81111561189a578182fd5b6020830191508360208285010111156117e857600080fd5b600082601f8301126118c2578081fd5b813567ffffffffffffffff8111156118dc576118dc61210f565b6118ef601f8201601f191660200161202f565b818152846020838601011115611903578283fd5b816020850160208301379081016020019190915292915050565b60006020828403121561192e578081fd5b61085582611789565b600080600080600060a0868803121561194e578081fd5b61195786611789565b945061196560208701611789565b9350604086013567ffffffffffffffff80821115611981578283fd5b61198d89838a016117ef565b945060608801359150808211156119a2578283fd5b6119ae89838a016117ef565b935060808801359150808211156119c3578283fd5b506119d0888289016118b2565b9150509295509295909350565b600080600080608085870312156119f2578384fd5b6119fb85611789565b9350611a0960208601611789565b925060408501359150606085013567ffffffffffffffff811115611a2b578182fd5b611a37878288016118b2565b91505092959194509250565b600080600080600060a08688031215611a5a578081fd5b611a6386611789565b9450611a7160208701611789565b93506040860135925060608601359150608086013567ffffffffffffffff811115611a9a578182fd5b6119d0888289016118b2565b60008060008060008060a08789031215611abe578081fd5b611ac787611789565b955060208701359450604087013567ffffffffffffffff811115611ae9578182fd5b611af589828a01611872565b979a9699509760608101359660809091013595509350505050565b600080600080600080600060c0888a031215611b2a578081fd5b611b3388611789565b965060208801359550604088013567ffffffffffffffff811115611b55578182fd5b611b618a828b01611872565b989b979a50986060810135976080820135975060a09091013595509350505050565b60008060008060008060008060a0898b031215611b9e578182fd5b883567ffffffffffffffff80821115611bb5578384fd5b611bc18c838d016117a5565b909a50985060208b0135915080821115611bd9578384fd5b611be58c838d016117a5565b909850965060408b0135915080821115611bfd578384fd5b50611c0a8b828c016117a5565b999c989b509699959896976060870135966080013595509350505050565b600080600080600080600080600060c08a8c031215611c45578283fd5b893567ffffffffffffffff80821115611c5c578485fd5b611c688d838e016117a5565b909b50995060208c0135915080821115611c80578485fd5b611c8c8d838e016117a5565b909950975060408c0135915080821115611ca4578485fd5b50611cb18c828d016117a5565b9a9d999c50979a969997986060880135976080810135975060a0013595509350505050565b600060208284031215611ce7578081fd5b5035919050565b60008060408385031215611d00578182fd5b82359150611d1060208401611789565b90509250929050565b600060208284031215611d2a578081fd5b81356001600160e01b031981168114610855578182fd5b81835260006020808501808196508560051b8101915084845b87811015611dc15782840389528135601e19883603018112611d7a578687fd5b8701803567ffffffffffffffff811115611d92578788fd5b803603891315611da0578788fd5b611dad8682898501611dce565b9a87019a9550505090840190600101611d5a565b5091979650505050505050565b81835281816020850137506000828201602090810191909152601f909101601f19169091010190565b8183823760009101908152919050565b7f416363657373436f6e74726f6c3a206163636f756e7420000000000000000000815260008351611e3f816017850160208801612097565b7f206973206d697373696e6720726f6c65200000000000000000000000000000006017918401918201528351611e7c816028840160208801612097565b01602801949350505050565b6001600160a01b0385168152836020820152606060408201526000611eb1606083018486611dce565b9695505050505050565b6001600160a01b038716815285602082015260a060408201526000611ee460a083018688611dce565b60608301949094525060800152949350505050565b60a0808252810188905260008960c08301825b8b811015611f3a576001600160a01b03611f2584611789565b16825260209283019290910190600101611f0c565b5083810360208501528881527f07ffffffffffffffffffffffffffffffffffffffffffffffffffffffffffffff891115611f72578283fd5b8860051b9150818a60208301370160208181018381528483039091016040850152611f9e81888a611d41565b6060850196909652505050608001529695505050505050565b6020815260008251806020840152611fd6816040850160208701612097565b601f01601f19169190910160400192915050565b6000808335601e19843603018112612000578283fd5b83018035915067ffffffffffffffff82111561201a578283fd5b6020019150368190038213156117e857600080fd5b604051601f8201601f1916810167ffffffffffffffff811182821017156120585761205861210f565b604052919050565b60008219821115612073576120736120f9565b500190565b6000816000190483118215151615612092576120926120f9565b500290565b60005b838110156120b257818101518382015260200161209a565b838111156120c1576000848401525b50505050565b6000816120d6576120d66120f9565b506000190190565b60006000198214156120f2576120f26120f9565b5060010190565b634e487b7160e01b600052601160045260246000fd5b634e487b7160e01b600052604160045260246000fdfea2646970667358221220a8856dd048c363a061c6f0a27502a13b6e4e75907c5e937c95e88e5cf342700164736f6c634300080400335f58e3a2316349923ce3780f8d587db2d72378aed66a8261c916544fa6846ca5b09aa5aeb3702cfd50b6b62bc4532604938f21248a27a1d5ca736082b6819cc1d8aa0f3194971a2a116679f7c2090f6939c8d4e01a2a8d7e41d55e5351469e63fd643c72710c63c0180259aba6b2d05451e3591a24e58b62239378085726f783",
  "linkReferences": {},
  "deployedLinkReferences": {}
}