{
  "_format": "hh-sol-artifact-1",
  "contractName": "TimelockController",
  "sourceName": "@openzeppelin/contracts/governance/TimelockController.sol",
  "abi": [
    {
      "inputs": [
        {
          "internalType": "uint256",
          "name": "minDelay",
          "type": "uint256"
        },
        {
          "internalType": "address[]",
          "name": "proposers",
          "type": "address[]"
        },
        {
          "internalType": "address[]",
          "name": "executors",
          "type": "address[]"
        },
        {
          "internalType": "address",
          "name": "admin",
          "type": "address"
        }
      ],
      "stateMutability": "nonpayable",
      "type": "constructor"
    },
    {
      "anonymous": false,
      "inputs": [
        {
          "indexed": true,
          "internalType": "bytes32",
          "name": "id",
          "type": "bytes32"
        },
        {
          "indexed": true,
          "internalType": "uint256",
          "name": "index",
          "type": "uint256"
        },
        {
          "indexed": false,
          "internalType": "address",
          "name": "target",
          "type": "address"
        },
        {
          "indexed": false,
          "internalType": "uint256",
          "name": "value",
          "type": "uint256"
        },
        {
          "indexed": false,
          "internalType": "bytes",
          "name": "data",
          "type": "bytes"
        }
      ],
      "name": "CallExecuted",
      "type": "event"
    },
    {
      "anonymous": false,
      "inputs": [
        {
          "indexed": true,
          "internalType": "bytes32",
          "name": "id",
          "type": "bytes32"
        },
        {
          "indexed": true,
          "internalType": "uint256",
          "name": "index",
          "type": "uint256"
        },
        {
          "indexed": false,
          "internalType": "address",
          "name": "target",
          "type": "address"
        },
        {
          "indexed": false,
          "internalType": "uint256",
          "name": "value",
          "type": "uint256"
        },
        {
          "indexed": false,
          "internalType": "bytes",
          "name": "data",
          "type": "bytes"
        },
        {
          "indexed": false,
          "internalType": "bytes32",
          "name": "predecessor",
          "type": "bytes32"
        },
        {
          "indexed": false,
          "internalType": "uint256",
          "name": "delay",
          "type": "uint256"
        }
      ],
      "name": "CallScheduled",
      "type": "event"
    },
    {
      "anonymous": false,
      "inputs": [
        {
          "indexed": true,
          "internalType": "bytes32",
          "name": "id",
          "type": "bytes32"
        }
      ],
      "name": "Cancelled",
      "type": "event"
    },
    {
      "anonymous": false,
      "inputs": [
        {
          "indexed": false,
          "internalType": "uint256",
          "name": "oldDuration",
          "type": "uint256"
        },
        {
          "indexed": false,
          "internalType": "uint256",
          "name": "newDuration",
          "type": "uint256"
        }
      ],
      "name": "MinDelayChange",
      "type": "event"
    },
    {
      "anonymous": false,
      "inputs": [
        {
          "indexed": true,
          "internalType": "bytes32",
          "name": "role",
          "type": "bytes32"
        },
        {
          "indexed": true,
          "internalType": "bytes32",
          "name": "previousAdminRole",
          "type": "bytes32"
        },
        {
          "indexed": true,
          "internalType": "bytes32",
          "name": "newAdminRole",
          "type": "bytes32"
        }
      ],
      "name": "RoleAdminChanged",
      "type": "event"
    },
    {
      "anonymous": false,
      "inputs": [
        {
          "indexed": true,
          "internalType": "bytes32",
          "name": "role",
          "type": "bytes32"
        },
        {
          "indexed": true,
          "internalType": "address",
          "name": "account",
          "type": "address"
        },
        {
          "indexed": true,
          "internalType": "address",
          "name": "sender",
          "type": "address"
        }
      ],
      "name": "RoleGranted",
      "type": "event"
    },
    {
      "anonymous": false,
      "inputs": [
        {
          "indexed": true,
          "internalType": "bytes32",
          "name": "role",
          "type": "bytes32"
        },
        {
          "indexed": true,
          "internalType": "address",
          "name": "account",
          "type": "address"
        },
        {
          "indexed": true,
          "internalType": "address",
          "name": "sender",
          "type": "address"
        }
      ],
      "name": "RoleRevoked",
      "type": "event"
    },
    {
      "inputs": [],
      "name": "CANCELLER_ROLE",
      "outputs": [
        {
          "internalType": "bytes32",
          "name": "",
          "type": "bytes32"
        }
      ],
      "stateMutability": "view",
      "type": "function"
    },
    {
      "inputs": [],
      "name": "DEFAULT_ADMIN_ROLE",
      "outputs": [
        {
          "internalType": "bytes32",
          "name": "",
          "type": "bytes32"
        }
      ],
      "stateMutability": "view",
      "type": "function"
    },
    {
      "inputs": [],
      "name": "EXECUTOR_ROLE",
      "outputs": [
        {
          "internalType": "bytes32",
          "name": "",
          "type": "bytes32"
        }
      ],
      "stateMutability": "view",
      "type": "function"
    },
    {
      "inputs": [],
      "name": "PROPOSER_ROLE",
      "outputs": [
        {
          "internalType": "bytes32",
          "name": "",
          "type": "bytes32"
        }
      ],
      "stateMutability": "view",
      "type": "function"
    },
    {
      "inputs": [],
      "name": "TIMELOCK_ADMIN_ROLE",
      "outputs": [
        {
          "internalType": "bytes32",
          "name": "",
          "type": "bytes32"
        }
      ],
      "stateMutability": "view",
      "type": "function"
    },
    {
      "inputs": [
        {
          "internalType": "bytes32",
          "name": "id",
          "type": "bytes32"
        }
      ],
      "name": "cancel",
      "outputs": [],
      "stateMutability": "nonpayable",
      "type": "function"
    },
    {
      "inputs": [
        {
          "internalType": "address",
          "name": "target",
          "type": "address"
        },
        {
          "internalType": "uint256",
          "name": "value",
          "type": "uint256"
        },
        {
          "internalType": "bytes",
          "name": "payload",
          "type": "bytes"
        },
        {
          "internalType": "bytes32",
          "name": "predecessor",
          "type": "bytes32"
        },
        {
          "internalType": "bytes32",
          "name": "salt",
          "type": "bytes32"
        }
      ],
      "name": "execute",
      "outputs": [],
      "stateMutability": "payable",
      "type": "function"
    },
    {
      "inputs": [
        {
          "internalType": "address[]",
          "name": "targets",
          "type": "address[]"
        },
        {
          "internalType": "uint256[]",
          "name": "values",
          "type": "uint256[]"
        },
        {
          "internalType": "bytes[]",
          "name": "payloads",
          "type": "bytes[]"
        },
        {
          "internalType": "bytes32",
          "name": "predecessor",
          "type": "bytes32"
        },
        {
          "internalType": "bytes32",
          "name": "salt",
          "type": "bytes32"
        }
      ],
      "name": "executeBatch",
      "outputs": [],
      "stateMutability": "payable",
      "type": "function"
    },
    {
      "inputs": [],
      "name": "getMinDelay",
      "outputs": [
        {
          "internalType": "uint256",
          "name": "duration",
          "type": "uint256"
        }
      ],
      "stateMutability": "view",
      "type": "function"
    },
    {
      "inputs": [
        {
          "internalType": "bytes32",
          "name": "role",
          "type": "bytes32"
        }
      ],
      "name": "getRoleAdmin",
      "outputs": [
        {
          "internalType": "bytes32",
          "name": "",
          "type": "bytes32"
        }
      ],
      "stateMutability": "view",
      "type": "function"
    },
    {
      "inputs": [
        {
          "internalType": "bytes32",
          "name": "id",
          "type": "bytes32"
        }
      ],
      "name": "getTimestamp",
      "outputs": [
        {
          "internalType": "uint256",
          "name": "timestamp",
          "type": "uint256"
        }
      ],
      "stateMutability": "view",
      "type": "function"
    },
    {
      "inputs": [
        {
          "internalType": "bytes32",
          "name": "role",
          "type": "bytes32"
        },
        {
          "internalType": "address",
          "name": "account",
          "type": "address"
        }
      ],
      "name": "grantRole",
      "outputs": [],
      "stateMutability": "nonpayable",
      "type": "function"
    },
    {
      "inputs": [
        {
          "internalType": "bytes32",
          "name": "role",
          "type": "bytes32"
        },
        {
          "internalType": "address",
          "name": "account",
          "type": "address"
        }
      ],
      "name": "hasRole",
      "outputs": [
        {
          "internalType": "bool",
          "name": "",
          "type": "bool"
        }
      ],
      "stateMutability": "view",
      "type": "function"
    },
    {
      "inputs": [
        {
          "internalType": "address",
          "name": "target",
          "type": "address"
        },
        {
          "internalType": "uint256",
          "name": "value",
          "type": "uint256"
        },
        {
          "internalType": "bytes",
          "name": "data",
          "type": "bytes"
        },
        {
          "internalType": "bytes32",
          "name": "predecessor",
          "type": "bytes32"
        },
        {
          "internalType": "bytes32",
          "name": "salt",
          "type": "bytes32"
        }
      ],
      "name": "hashOperation",
      "outputs": [
        {
          "internalType": "bytes32",
          "name": "hash",
          "type": "bytes32"
        }
      ],
      "stateMutability": "pure",
      "type": "function"
    },
    {
      "inputs": [
        {
          "internalType": "address[]",
          "name": "targets",
          "type": "address[]"
        },
        {
          "internalType": "uint256[]",
          "name": "values",
          "type": "uint256[]"
        },
        {
          "internalType": "bytes[]",
          "name": "payloads",
          "type": "bytes[]"
        },
        {
          "internalType": "bytes32",
          "name": "predecessor",
          "type": "bytes32"
        },
        {
          "internalType": "bytes32",
          "name": "salt",
          "type": "bytes32"
        }
      ],
      "name": "hashOperationBatch",
      "outputs": [
        {
          "internalType": "bytes32",
          "name": "hash",
          "type": "bytes32"
        }
      ],
      "stateMutability": "pure",
      "type": "function"
    },
    {
      "inputs": [
        {
          "internalType": "bytes32",
          "name": "id",
          "type": "bytes32"
        }
      ],
      "name": "isOperation",
      "outputs": [
        {
          "internalType": "bool",
          "name": "registered",
          "type": "bool"
        }
      ],
      "stateMutability": "view",
      "type": "function"
    },
    {
      "inputs": [
        {
          "internalType": "bytes32",
          "name": "id",
          "type": "bytes32"
        }
      ],
      "name": "isOperationDone",
      "outputs": [
        {
          "internalType": "bool",
          "name": "done",
          "type": "bool"
        }
      ],
      "stateMutability": "view",
      "type": "function"
    },
    {
      "inputs": [
        {
          "internalType": "bytes32",
          "name": "id",
          "type": "bytes32"
        }
      ],
      "name": "isOperationPending",
      "outputs": [
        {
          "internalType": "bool",
          "name": "pending",
          "type": "bool"
        }
      ],
      "stateMutability": "view",
      "type": "function"
    },
    {
      "inputs": [
        {
          "internalType": "bytes32",
          "name": "id",
          "type": "bytes32"
        }
      ],
      "name": "isOperationReady",
      "outputs": [
        {
          "internalType": "bool",
          "name": "ready",
          "type": "bool"
        }
      ],
      "stateMutability": "view",
      "type": "function"
    },
    {
      "inputs": [
        {
          "internalType": "address",
          "name": "",
          "type": "address"
        },
        {
          "internalType": "address",
          "name": "",
          "type": "address"
        },
        {
          "internalType": "uint256[]",
          "name": "",
          "type": "uint256[]"
        },
        {
          "internalType": "uint256[]",
          "name": "",
          "type": "uint256[]"
        },
        {
          "internalType": "bytes",
          "name": "",
          "type": "bytes"
        }
      ],
      "name": "onERC1155BatchReceived",
      "outputs": [
        {
          "internalType": "bytes4",
          "name": "",
          "type": "bytes4"
        }
      ],
      "stateMutability": "nonpayable",
      "type": "function"
    },
    {
      "inputs": [
        {
          "internalType": "address",
          "name": "",
          "type": "address"
        },
        {
          "internalType": "address",
          "name": "",
          "type": "address"
        },
        {
          "internalType": "uint256",
          "name": "",
          "type": "uint256"
        },
        {
          "internalType": "uint256",
          "name": "",
          "type": "uint256"
        },
        {
          "internalType": "bytes",
          "name": "",
          "type": "bytes"
        }
      ],
      "name": "onERC1155Received",
      "outputs": [
        {
          "internalType": "bytes4",
          "name": "",
          "type": "bytes4"
        }
      ],
      "stateMutability": "nonpayable",
      "type": "function"
    },
    {
      "inputs": [
        {
          "internalType": "address",
          "name": "",
          "type": "address"
        },
        {
          "internalType": "address",
          "name": "",
          "type": "address"
        },
        {
          "internalType": "uint256",
          "name": "",
          "type": "uint256"
        },
        {
          "internalType": "bytes",
          "name": "",
          "type": "bytes"
        }
      ],
      "name": "onERC721Received",
      "outputs": [
        {
          "internalType": "bytes4",
          "name": "",
          "type": "bytes4"
        }
      ],
      "stateMutability": "nonpayable",
      "type": "function"
    },
    {
      "inputs": [
        {
          "internalType": "bytes32",
          "name": "role",
          "type": "bytes32"
        },
        {
          "internalType": "address",
          "name": "account",
          "type": "address"
        }
      ],
      "name": "renounceRole",
      "outputs": [],
      "stateMutability": "nonpayable",
      "type": "function"
    },
    {
      "inputs": [
        {
          "internalType": "bytes32",
          "name": "role",
          "type": "bytes32"
        },
        {
          "internalType": "address",
          "name": "account",
          "type": "address"
        }
      ],
      "name": "revokeRole",
      "outputs": [],
      "stateMutability": "nonpayable",
      "type": "function"
    },
    {
      "inputs": [
        {
          "internalType": "address",
          "name": "target",
          "type": "address"
        },
        {
          "internalType": "uint256",
          "name": "value",
          "type": "uint256"
        },
        {
          "internalType": "bytes",
          "name": "data",
          "type": "bytes"
        },
        {
          "internalType": "bytes32",
          "name": "predecessor",
          "type": "bytes32"
        },
        {
          "internalType": "bytes32",
          "name": "salt",
          "type": "bytes32"
        },
        {
          "internalType": "uint256",
          "name": "delay",
          "type": "uint256"
        }
      ],
      "name": "schedule",
      "outputs": [],
      "stateMutability": "nonpayable",
      "type": "function"
    },
    {
      "inputs": [
        {
          "internalType": "address[]",
          "name": "targets",
          "type": "address[]"
        },
        {
          "internalType": "uint256[]",
          "name": "values",
          "type": "uint256[]"
        },
        {
          "internalType": "bytes[]",
          "name": "payloads",
          "type": "bytes[]"
        },
        {
          "internalType": "bytes32",
          "name": "predecessor",
          "type": "bytes32"
        },
        {
          "internalType": "bytes32",
          "name": "salt",
          "type": "bytes32"
        },
        {
          "internalType": "uint256",
          "name": "delay",
          "type": "uint256"
        }
      ],
      "name": "scheduleBatch",
      "outputs": [],
      "stateMutability": "nonpayable",
      "type": "function"
    },
    {
      "inputs": [
        {
          "internalType": "bytes4",
          "name": "interfaceId",
          "type": "bytes4"
        }
      ],
      "name": "supportsInterface",
      "outputs": [
        {
          "internalType": "bool",
          "name": "",
          "type": "bool"
        }
      ],
      "stateMutability": "view",
      "type": "function"
    },
    {
      "inputs": [
        {
          "internalType": "uint256",
          "name": "newDelay",
          "type": "uint256"
        }
      ],
      "name": "updateDelay",
      "outputs": [],
      "stateMutability": "nonpayable",
      "type": "function"
    },
    {
      "stateMutability": "payable",
      "type": "receive"
    }
  ],
  "bytecode": "0x60806040523480156200001157600080fd5b5060405162003cc538038062003cc58339818101604052810190620000379190620006ae565b620000697f5f58e3a2316349923ce3780f8d587db2d72378aed66a8261c916544fa6846ca580620003e360201b60201c565b620000bb7fb09aa5aeb3702cfd50b6b62bc4532604938f21248a27a1d5ca736082b6819cc17f5f58e3a2316349923ce3780f8d587db2d72378aed66a8261c916544fa6846ca5620003e360201b60201c565b6200010d7fd8aa0f3194971a2a116679f7c2090f6939c8d4e01a2a8d7e41d55e5351469e637f5f58e3a2316349923ce3780f8d587db2d72378aed66a8261c916544fa6846ca5620003e360201b60201c565b6200015f7ffd643c72710c63c0180259aba6b2d05451e3591a24e58b62239378085726f7837f5f58e3a2316349923ce3780f8d587db2d72378aed66a8261c916544fa6846ca5620003e360201b60201c565b620001917f5f58e3a2316349923ce3780f8d587db2d72378aed66a8261c916544fa6846ca5306200044660201b60201c565b600073ffffffffffffffffffffffffffffffffffffffff168173ffffffffffffffffffffffffffffffffffffffff1614620001f957620001f87f5f58e3a2316349923ce3780f8d587db2d72378aed66a8261c916544fa6846ca5826200044660201b60201c565b5b60005b83518110156200030057620002797fb09aa5aeb3702cfd50b6b62bc4532604938f21248a27a1d5ca736082b6819cc185838151811062000265577f4e487b7100000000000000000000000000000000000000000000000000000000600052603260045260246000fd5b60200260200101516200044660201b60201c565b620002ec7ffd643c72710c63c0180259aba6b2d05451e3591a24e58b62239378085726f783858381518110620002d8577f4e487b7100000000000000000000000000000000000000000000000000000000600052603260045260246000fd5b60200260200101516200044660201b60201c565b80620002f8906200087b565b9050620001fc565b5060005b82518110156200039557620003817fd8aa0f3194971a2a116679f7c2090f6939c8d4e01a2a8d7e41d55e5351469e638483815181106200036d577f4e487b7100000000000000000000000000000000000000000000000000000000600052603260045260246000fd5b60200260200101516200044660201b60201c565b806200038d906200087b565b905062000304565b50836002819055507f11c24f4ead16507c69ac467fbd5e4eed5fb5c699626d2cc6d66421df253886d5600085604051620003d19291906200076e565b60405180910390a1505050506200096c565b6000620003f6836200045c60201b60201c565b905081600080858152602001908152602001600020600101819055508181847fbd79b86ffe0ab8e8776151514217cd7cacd52c909f66475c3af44e129f0b00ff60405160405180910390a4505050565b6200045882826200047b60201b60201c565b5050565b6000806000838152602001908152602001600020600101549050919050565b6200048d82826200056c60201b60201c565b6200056857600160008084815260200190815260200160002060000160008373ffffffffffffffffffffffffffffffffffffffff1673ffffffffffffffffffffffffffffffffffffffff16815260200190815260200160002060006101000a81548160ff0219169083151502179055506200050d620005d660201b60201c565b73ffffffffffffffffffffffffffffffffffffffff168173ffffffffffffffffffffffffffffffffffffffff16837f2f8788117e7eff1d82e926ec794901d17c78024a50270940304540a733656f0d60405160405180910390a45b5050565b600080600084815260200190815260200160002060000160008373ffffffffffffffffffffffffffffffffffffffff1673ffffffffffffffffffffffffffffffffffffffff16815260200190815260200160002060009054906101000a900460ff16905092915050565b600033905090565b6000620005f5620005ef84620007c4565b6200079b565b905080838252602082019050828560208602820111156200061557600080fd5b60005b858110156200064957816200062e888262000653565b84526020840193506020830192505060018101905062000618565b5050509392505050565b600081519050620006648162000938565b92915050565b600082601f8301126200067c57600080fd5b81516200068e848260208601620005de565b91505092915050565b600081519050620006a88162000952565b92915050565b60008060008060808587031215620006c557600080fd5b6000620006d58782880162000697565b945050602085015167ffffffffffffffff811115620006f357600080fd5b62000701878288016200066a565b935050604085015167ffffffffffffffff8111156200071f57600080fd5b6200072d878288016200066a565b9250506060620007408782880162000653565b91505092959194509250565b620007578162000831565b82525050565b620007688162000827565b82525050565b60006040820190506200078560008301856200074c565b6200079460208301846200075d565b9392505050565b6000620007a7620007ba565b9050620007b5828262000845565b919050565b6000604051905090565b600067ffffffffffffffff821115620007e257620007e1620008f8565b5b602082029050602081019050919050565b6000620008008262000807565b9050919050565b600073ffffffffffffffffffffffffffffffffffffffff82169050919050565b6000819050919050565b60006200083e8262000827565b9050919050565b620008508262000927565b810181811067ffffffffffffffff82111715620008725762000871620008f8565b5b80604052505050565b6000620008888262000827565b91507fffffffffffffffffffffffffffffffffffffffffffffffffffffffffffffffff821415620008be57620008bd620008c9565b5b600182019050919050565b7f4e487b7100000000000000000000000000000000000000000000000000000000600052601160045260246000fd5b7f4e487b7100000000000000000000000000000000000000000000000000000000600052604160045260246000fd5b6000601f19601f8301169050919050565b6200094381620007f3565b81146200094f57600080fd5b50565b6200095d8162000827565b81146200096957600080fd5b50565b613349806200097c6000396000f3fe6080604052600436106101bb5760003560e01c80638065657f116100ec578063bc197c811161008a578063d547741f11610064578063d547741f1461068c578063e38335e5146106b5578063f23a6e61146106d1578063f27a0c921461070e576101c2565b8063bc197c81146105e9578063c4d252f514610626578063d45c44351461064f576101c2565b806391d14854116100c657806391d1485414610519578063a217fddf14610556578063b08e51c014610581578063b1c5f427146105ac576101c2565b80638065657f146104885780638f2a0bb0146104c55780638f61f4f5146104ee576101c2565b8063248a9ca31161015957806331d507501161013357806331d50750146103bc57806336568abe146103f9578063584b153e1461042257806364d623531461045f576101c2565b8063248a9ca3146103195780632ab0f529146103565780632f2ff15d14610393576101c2565b80630d3cf6fc116101955780630d3cf6fc14610258578063134008d31461028357806313bc9f201461029f578063150b7a02146102dc576101c2565b806301d5062a146101c757806301ffc9a7146101f057806307bd02651461022d576101c2565b366101c257005b600080fd5b3480156101d357600080fd5b506101ee60048036038101906101e99190611ffd565b610739565b005b3480156101fc57600080fd5b50610217600480360381019061021291906122b4565b6107ce565b60405161022491906128ff565b60405180910390f35b34801561023957600080fd5b50610242610848565b60405161024f919061291a565b60405180910390f35b34801561026457600080fd5b5061026d61086c565b60405161027a919061291a565b60405180910390f35b61029d60048036038101906102989190611f6b565b610890565b005b3480156102ab57600080fd5b506102c660048036038101906102c1919061224f565b61094d565b6040516102d391906128ff565b60405180910390f35b3480156102e857600080fd5b5061030360048036038101906102fe9190611e61565b610973565b6040516103109190612935565b60405180910390f35b34801561032557600080fd5b50610340600480360381019061033b919061224f565b610987565b60405161034d919061291a565b60405180910390f35b34801561036257600080fd5b5061037d6004803603810190610378919061224f565b6109a6565b60405161038a91906128ff565b60405180910390f35b34801561039f57600080fd5b506103ba60048036038101906103b59190612278565b6109bb565b005b3480156103c857600080fd5b506103e360048036038101906103de919061224f565b6109dc565b6040516103f091906128ff565b60405180910390f35b34801561040557600080fd5b50610420600480360381019061041b9190612278565b6109f0565b005b34801561042e57600080fd5b506104496004803603810190610444919061224f565b610a73565b60405161045691906128ff565b60405180910390f35b34801561046b57600080fd5b50610486600480360381019061048191906122dd565b610a88565b005b34801561049457600080fd5b506104af60048036038101906104aa9190611f6b565b610b3b565b6040516104bc919061291a565b60405180910390f35b3480156104d157600080fd5b506104ec60048036038101906104e79190612170565b610b7a565b005b3480156104fa57600080fd5b50610503610d97565b604051610510919061291a565b60405180910390f35b34801561052557600080fd5b50610540600480360381019061053b9190612278565b610dbb565b60405161054d91906128ff565b60405180910390f35b34801561056257600080fd5b5061056b610e25565b604051610578919061291a565b60405180910390f35b34801561058d57600080fd5b50610596610e2c565b6040516105a3919061291a565b60405180910390f35b3480156105b857600080fd5b506105d360048036038101906105ce91906120a4565b610e50565b6040516105e0919061291a565b60405180910390f35b3480156105f557600080fd5b50610610600480360381019061060b9190611da2565b610e95565b60405161061d9190612935565b60405180910390f35b34801561063257600080fd5b5061064d6004803603810190610648919061224f565b610eaa565b005b34801561065b57600080fd5b506106766004803603810190610671919061224f565b610f64565b6040516106839190612ab2565b60405180910390f35b34801561069857600080fd5b506106b360048036038101906106ae9190612278565b610f81565b005b6106cf60048036038101906106ca91906120a4565b610fa2565b005b3480156106dd57600080fd5b506106f860048036038101906106f39190611edc565b6111fe565b6040516107059190612935565b60405180910390f35b34801561071a57600080fd5b50610723611213565b6040516107309190612ab2565b60405180910390f35b7fb09aa5aeb3702cfd50b6b62bc4532604938f21248a27a1d5ca736082b6819cc16107638161121d565b6000610773898989898989610b3b565b905061077f8184611231565b6000817f4cf4410cc57040e44862ef0f45f3dd5a5e02db8eb8add648d4b0e236f1d07dca8b8b8b8b8b8a6040516107bb96959493929190612835565b60405180910390a3505050505050505050565b60007f4e2312e0000000000000000000000000000000000000000000000000000000007bffffffffffffffffffffffffffffffffffffffffffffffffffffffff1916827bffffffffffffffffffffffffffffffffffffffffffffffffffffffff191614806108415750610840826112eb565b5b9050919050565b7fd8aa0f3194971a2a116679f7c2090f6939c8d4e01a2a8d7e41d55e5351469e6381565b7f5f58e3a2316349923ce3780f8d587db2d72378aed66a8261c916544fa6846ca581565b7fd8aa0f3194971a2a116679f7c2090f6939c8d4e01a2a8d7e41d55e5351469e636108bc816000610dbb565b6108d2576108d1816108cc611365565b61136d565b5b60006108e2888888888888610b3b565b90506108ee81856113f2565b6108fa88888888611493565b6000817fc2617efa69bab66782fa219543714338489c4e9e178271560a91b82c3f612b588a8a8a8a6040516109329493929190612799565b60405180910390a36109438161154a565b5050505050505050565b60008061095983610f64565b905060018111801561096b5750428111155b915050919050565b600063150b7a0260e01b9050949350505050565b6000806000838152602001908152602001600020600101549050919050565b600060016109b383610f64565b149050919050565b6109c482610987565b6109cd8161121d565b6109d783836115ad565b505050565b6000806109e883610f64565b119050919050565b6109f8611365565b73ffffffffffffffffffffffffffffffffffffffff168173ffffffffffffffffffffffffffffffffffffffff1614610a65576040517f08c379a0000000000000000000000000000000000000000000000000000000008152600401610a5c90612a72565b60405180910390fd5b610a6f828261168d565b5050565b60006001610a8083610f64565b119050919050565b3073ffffffffffffffffffffffffffffffffffffffff163373ffffffffffffffffffffffffffffffffffffffff1614610af6576040517f08c379a0000000000000000000000000000000000000000000000000000000008152600401610aed90612a52565b60405180910390fd5b7f11c24f4ead16507c69ac467fbd5e4eed5fb5c699626d2cc6d66421df253886d560025482604051610b29929190612acd565b60405180910390a18060028190555050565b6000868686868686604051602001610b58969594939291906127d9565b6040516020818303038152906040528051906020012090509695505050505050565b7fb09aa5aeb3702cfd50b6b62bc4532604938f21248a27a1d5ca736082b6819cc1610ba48161121d565b878790508a8a905014610bec576040517f08c379a0000000000000000000000000000000000000000000000000000000008152600401610be3906129b2565b60405180910390fd5b858590508a8a905014610c34576040517f08c379a0000000000000000000000000000000000000000000000000000000008152600401610c2b906129b2565b60405180910390fd5b6000610c468b8b8b8b8b8b8b8b610e50565b9050610c528184611231565b60005b8b8b9050811015610d895780827f4cf4410cc57040e44862ef0f45f3dd5a5e02db8eb8add648d4b0e236f1d07dca8e8e85818110610cbc577f4e487b7100000000000000000000000000000000000000000000000000000000600052603260045260246000fd5b9050602002016020810190610cd19190611d79565b8d8d86818110610d0a577f4e487b7100000000000000000000000000000000000000000000000000000000600052603260045260246000fd5b905060200201358c8c87818110610d4a577f4e487b7100000000000000000000000000000000000000000000000000000000600052603260045260246000fd5b9050602002810190610d5c9190612af6565b8c8b604051610d7096959493929190612835565b60405180910390a380610d8290612ebd565b9050610c55565b505050505050505050505050565b7fb09aa5aeb3702cfd50b6b62bc4532604938f21248a27a1d5ca736082b6819cc181565b600080600084815260200190815260200160002060000160008373ffffffffffffffffffffffffffffffffffffffff1673ffffffffffffffffffffffffffffffffffffffff16815260200190815260200160002060009054906101000a900460ff16905092915050565b6000801b81565b7ffd643c72710c63c0180259aba6b2d05451e3591a24e58b62239378085726f78381565b60008888888888888888604051602001610e71989796959493929190612891565b60405160208183030381529060405280519060200120905098975050505050505050565b600063bc197c8160e01b905095945050505050565b7ffd643c72710c63c0180259aba6b2d05451e3591a24e58b62239378085726f783610ed48161121d565b610edd82610a73565b610f1c576040517f08c379a0000000000000000000000000000000000000000000000000000000008152600401610f1390612a32565b60405180910390fd5b6001600083815260200190815260200160002060009055817fbaa1eb22f2a492ba1a5fea61b8df4d27c6c8b5f3971e63bb58fa14ff72eedb7060405160405180910390a25050565b600060016000838152602001908152602001600020549050919050565b610f8a82610987565b610f938161121d565b610f9d838361168d565b505050565b7fd8aa0f3194971a2a116679f7c2090f6939c8d4e01a2a8d7e41d55e5351469e63610fce816000610dbb565b610fe457610fe381610fde611365565b61136d565b5b86869050898990501461102c576040517f08c379a0000000000000000000000000000000000000000000000000000000008152600401611023906129b2565b60405180910390fd5b848490508989905014611074576040517f08c379a000000000000000000000000000000000000000000000000000000000815260040161106b906129b2565b60405180910390fd5b60006110868a8a8a8a8a8a8a8a610e50565b905061109281856113f2565b60005b8a8a90508110156111e85760008b8b838181106110db577f4e487b7100000000000000000000000000000000000000000000000000000000600052603260045260246000fd5b90506020020160208101906110f09190611d79565b905060008a8a8481811061112d577f4e487b7100000000000000000000000000000000000000000000000000000000600052603260045260246000fd5b9050602002013590503660008a8a86818110611172577f4e487b7100000000000000000000000000000000000000000000000000000000600052603260045260246000fd5b90506020028101906111849190612af6565b9150915061119484848484611493565b84867fc2617efa69bab66782fa219543714338489c4e9e178271560a91b82c3f612b58868686866040516111cb9493929190612799565b60405180910390a350505050806111e190612ebd565b9050611095565b506111f28161154a565b50505050505050505050565b600063f23a6e6160e01b905095945050505050565b6000600254905090565b61122e81611229611365565b61136d565b50565b61123a826109dc565b1561127a576040517f08c379a0000000000000000000000000000000000000000000000000000000008152600401611271906129f2565b60405180910390fd5b611282611213565b8110156112c4576040517f08c379a00000000000000000000000000000000000000000000000000000000081526004016112bb906129d2565b60405180910390fd5b80426112d09190612cf2565b60016000848152602001908152602001600020819055505050565b60007f7965db0b000000000000000000000000000000000000000000000000000000007bffffffffffffffffffffffffffffffffffffffffffffffffffffffff1916827bffffffffffffffffffffffffffffffffffffffffffffffffffffffff1916148061135e575061135d8261176e565b5b9050919050565b600033905090565b6113778282610dbb565b6113ee57611384816117d8565b6113928360001c6020611805565b6040516020016113a392919061275f565b6040516020818303038152906040526040517f08c379a00000000000000000000000000000000000000000000000000000000081526004016113e59190612950565b60405180910390fd5b5050565b6113fb8261094d565b61143a576040517f08c379a000000000000000000000000000000000000000000000000000000000815260040161143190612a12565b60405180910390fd5b6000801b811480611450575061144f816109a6565b5b61148f576040517f08c379a000000000000000000000000000000000000000000000000000000000815260040161148690612992565b60405180910390fd5b5050565b60008473ffffffffffffffffffffffffffffffffffffffff168484846040516114bd929190612746565b60006040518083038185875af1925050503d80600081146114fa576040519150601f19603f3d011682016040523d82523d6000602084013e6114ff565b606091505b5050905080611543576040517f08c379a000000000000000000000000000000000000000000000000000000000815260040161153a90612a92565b60405180910390fd5b5050505050565b6115538161094d565b611592576040517f08c379a000000000000000000000000000000000000000000000000000000000815260040161158990612a12565b60405180910390fd5b60018060008381526020019081526020016000208190555050565b6115b78282610dbb565b61168957600160008084815260200190815260200160002060000160008373ffffffffffffffffffffffffffffffffffffffff1673ffffffffffffffffffffffffffffffffffffffff16815260200190815260200160002060006101000a81548160ff02191690831515021790555061162e611365565b73ffffffffffffffffffffffffffffffffffffffff168173ffffffffffffffffffffffffffffffffffffffff16837f2f8788117e7eff1d82e926ec794901d17c78024a50270940304540a733656f0d60405160405180910390a45b5050565b6116978282610dbb565b1561176a57600080600084815260200190815260200160002060000160008373ffffffffffffffffffffffffffffffffffffffff1673ffffffffffffffffffffffffffffffffffffffff16815260200190815260200160002060006101000a81548160ff02191690831515021790555061170f611365565b73ffffffffffffffffffffffffffffffffffffffff168173ffffffffffffffffffffffffffffffffffffffff16837ff6391f5c32d9c69d2a47ea670b442974b53935d1edc7fd64eb21e047a839171b60405160405180910390a45b5050565b60007f01ffc9a7000000000000000000000000000000000000000000000000000000007bffffffffffffffffffffffffffffffffffffffffffffffffffffffff1916827bffffffffffffffffffffffffffffffffffffffffffffffffffffffff1916149050919050565b60606117fe8273ffffffffffffffffffffffffffffffffffffffff16601460ff16611805565b9050919050565b6060600060028360026118189190612d48565b6118229190612cf2565b67ffffffffffffffff811115611861577f4e487b7100000000000000000000000000000000000000000000000000000000600052604160045260246000fd5b6040519080825280601f01601f1916602001820160405280156118935781602001600182028036833780820191505090505b5090507f3000000000000000000000000000000000000000000000000000000000000000816000815181106118f1577f4e487b7100000000000000000000000000000000000000000000000000000000600052603260045260246000fd5b60200101907effffffffffffffffffffffffffffffffffffffffffffffffffffffffffffff1916908160001a9053507f78000000000000000000000000000000000000000000000000000000000000008160018151811061197b577f4e487b7100000000000000000000000000000000000000000000000000000000600052603260045260246000fd5b60200101907effffffffffffffffffffffffffffffffffffffffffffffffffffffffffffff1916908160001a905350600060018460026119bb9190612d48565b6119c59190612cf2565b90505b6001811115611ab1577f3031323334353637383961626364656600000000000000000000000000000000600f861660108110611a2d577f4e487b7100000000000000000000000000000000000000000000000000000000600052603260045260246000fd5b1a60f81b828281518110611a6a577f4e487b7100000000000000000000000000000000000000000000000000000000600052603260045260246000fd5b60200101907effffffffffffffffffffffffffffffffffffffffffffffffffffffffffffff1916908160001a905350600485901c945080611aaa90612e62565b90506119c8565b5060008414611af5576040517f08c379a0000000000000000000000000000000000000000000000000000000008152600401611aec90612972565b60405180910390fd5b8091505092915050565b6000611b12611b0d84612b72565b612b4d565b90508083825260208201905082856020860282011115611b3157600080fd5b60005b85811015611b615781611b478882611d64565b845260208401935060208301925050600181019050611b34565b5050509392505050565b6000611b7e611b7984612b9e565b612b4d565b905082815260208101848484011115611b9657600080fd5b611ba1848285612e20565b509392505050565b600081359050611bb8816132b7565b92915050565b60008083601f840112611bd057600080fd5b8235905067ffffffffffffffff811115611be957600080fd5b602083019150836020820283011115611c0157600080fd5b9250929050565b60008083601f840112611c1a57600080fd5b8235905067ffffffffffffffff811115611c3357600080fd5b602083019150836020820283011115611c4b57600080fd5b9250929050565b60008083601f840112611c6457600080fd5b8235905067ffffffffffffffff811115611c7d57600080fd5b602083019150836020820283011115611c9557600080fd5b9250929050565b600082601f830112611cad57600080fd5b8135611cbd848260208601611aff565b91505092915050565b600081359050611cd5816132ce565b92915050565b600081359050611cea816132e5565b92915050565b60008083601f840112611d0257600080fd5b8235905067ffffffffffffffff811115611d1b57600080fd5b602083019150836001820283011115611d3357600080fd5b9250929050565b600082601f830112611d4b57600080fd5b8135611d5b848260208601611b6b565b91505092915050565b600081359050611d73816132fc565b92915050565b600060208284031215611d8b57600080fd5b6000611d9984828501611ba9565b91505092915050565b600080600080600060a08688031215611dba57600080fd5b6000611dc888828901611ba9565b9550506020611dd988828901611ba9565b945050604086013567ffffffffffffffff811115611df657600080fd5b611e0288828901611c9c565b935050606086013567ffffffffffffffff811115611e1f57600080fd5b611e2b88828901611c9c565b925050608086013567ffffffffffffffff811115611e4857600080fd5b611e5488828901611d3a565b9150509295509295909350565b60008060008060808587031215611e7757600080fd5b6000611e8587828801611ba9565b9450506020611e9687828801611ba9565b9350506040611ea787828801611d64565b925050606085013567ffffffffffffffff811115611ec457600080fd5b611ed087828801611d3a565b91505092959194509250565b600080600080600060a08688031215611ef457600080fd5b6000611f0288828901611ba9565b9550506020611f1388828901611ba9565b9450506040611f2488828901611d64565b9350506060611f3588828901611d64565b925050608086013567ffffffffffffffff811115611f5257600080fd5b611f5e88828901611d3a565b9150509295509295909350565b60008060008060008060a08789031215611f8457600080fd5b6000611f9289828a01611ba9565b9650506020611fa389828a01611d64565b955050604087013567ffffffffffffffff811115611fc057600080fd5b611fcc89828a01611cf0565b94509450506060611fdf89828a01611cc6565b9250506080611ff089828a01611cc6565b9150509295509295509295565b600080600080600080600060c0888a03121561201857600080fd5b60006120268a828b01611ba9565b97505060206120378a828b01611d64565b965050604088013567ffffffffffffffff81111561205457600080fd5b6120608a828b01611cf0565b955095505060606120738a828b01611cc6565b93505060806120848a828b01611cc6565b92505060a06120958a828b01611d64565b91505092959891949750929550565b60008060008060008060008060a0898b0312156120c057600080fd5b600089013567ffffffffffffffff8111156120da57600080fd5b6120e68b828c01611bbe565b9850985050602089013567ffffffffffffffff81111561210557600080fd5b6121118b828c01611c52565b9650965050604089013567ffffffffffffffff81111561213057600080fd5b61213c8b828c01611c08565b9450945050606061214f8b828c01611cc6565b92505060806121608b828c01611cc6565b9150509295985092959890939650565b600080600080600080600080600060c08a8c03121561218e57600080fd5b60008a013567ffffffffffffffff8111156121a857600080fd5b6121b48c828d01611bbe565b995099505060208a013567ffffffffffffffff8111156121d357600080fd5b6121df8c828d01611c52565b975097505060408a013567ffffffffffffffff8111156121fe57600080fd5b61220a8c828d01611c08565b9550955050606061221d8c828d01611cc6565b935050608061222e8c828d01611cc6565b92505060a061223f8c828d01611d64565b9150509295985092959850929598565b60006020828403121561226157600080fd5b600061226f84828501611cc6565b91505092915050565b6000806040838503121561228b57600080fd5b600061229985828601611cc6565b92505060206122aa85828601611ba9565b9150509250929050565b6000602082840312156122c657600080fd5b60006122d484828501611cdb565b91505092915050565b6000602082840312156122ef57600080fd5b60006122fd84828501611d64565b91505092915050565b60006123128383612334565b60208301905092915050565b600061232b8484846124aa565b90509392505050565b61233d81612da2565b82525050565b61234c81612da2565b82525050565b600061235e8385612c08565b935061236982612bcf565b8060005b858110156123a25761237f8284612c84565b6123898882612306565b975061239483612bee565b92505060018101905061236d565b5085925050509392505050565b60006123bb8385612c19565b9350836020840285016123cd84612bd9565b8060005b878110156124135784840389526123e88284612c9b565b6123f386828461231e565b95506123fe84612bfb565b935060208b019a5050506001810190506123d1565b50829750879450505050509392505050565b60006124318385612c2a565b93507f07ffffffffffffffffffffffffffffffffffffffffffffffffffffffffffffff83111561246057600080fd5b602083029250612471838584612e20565b82840190509392505050565b61248681612db4565b82525050565b61249581612dc0565b82525050565b6124a481612dca565b82525050565b60006124b68385612c3b565b93506124c3838584612e20565b6124cc83612f64565b840190509392505050565b60006124e38385612c4c565b93506124f0838584612e20565b6124f983612f64565b840190509392505050565b60006125108385612c5d565b935061251d838584612e20565b82840190509392505050565b600061253482612be3565b61253e8185612c68565b935061254e818560208601612e2f565b61255781612f64565b840191505092915050565b600061256d82612be3565b6125778185612c79565b9350612587818560208601612e2f565b80840191505092915050565b60006125a0602083612c68565b91506125ab82612f75565b602082019050919050565b60006125c3602683612c68565b91506125ce82612f9e565b604082019050919050565b60006125e6602383612c68565b91506125f182612fed565b604082019050919050565b6000612609602683612c68565b91506126148261303c565b604082019050919050565b600061262c602f83612c68565b91506126378261308b565b604082019050919050565b600061264f602a83612c68565b915061265a826130da565b604082019050919050565b6000612672601783612c79565b915061267d82613129565b601782019050919050565b6000612695603183612c68565b91506126a082613152565b604082019050919050565b60006126b8601183612c79565b91506126c3826131a1565b601182019050919050565b60006126db602b83612c68565b91506126e6826131ca565b604082019050919050565b60006126fe602f83612c68565b915061270982613219565b604082019050919050565b6000612721603383612c68565b915061272c82613268565b604082019050919050565b61274081612e16565b82525050565b6000612753828486612504565b91508190509392505050565b600061276a82612665565b91506127768285612562565b9150612781826126ab565b915061278d8284612562565b91508190509392505050565b60006060820190506127ae6000830187612343565b6127bb6020830186612737565b81810360408301526127ce8184866124d7565b905095945050505050565b600060a0820190506127ee6000830189612343565b6127fb6020830188612737565b818103604083015261280e8186886124d7565b905061281d606083018561248c565b61282a608083018461248c565b979650505050505050565b600060a08201905061284a6000830189612343565b6128576020830188612737565b818103604083015261286a8186886124d7565b9050612879606083018561248c565b6128866080830184612737565b979650505050505050565b600060a08201905081810360008301526128ac818a8c612352565b905081810360208301526128c181888a612425565b905081810360408301526128d68186886123af565b90506128e5606083018561248c565b6128f2608083018461248c565b9998505050505050505050565b6000602082019050612914600083018461247d565b92915050565b600060208201905061292f600083018461248c565b92915050565b600060208201905061294a600083018461249b565b92915050565b6000602082019050818103600083015261296a8184612529565b905092915050565b6000602082019050818103600083015261298b81612593565b9050919050565b600060208201905081810360008301526129ab816125b6565b9050919050565b600060208201905081810360008301526129cb816125d9565b9050919050565b600060208201905081810360008301526129eb816125fc565b9050919050565b60006020820190508181036000830152612a0b8161261f565b9050919050565b60006020820190508181036000830152612a2b81612642565b9050919050565b60006020820190508181036000830152612a4b81612688565b9050919050565b60006020820190508181036000830152612a6b816126ce565b9050919050565b60006020820190508181036000830152612a8b816126f1565b9050919050565b60006020820190508181036000830152612aab81612714565b9050919050565b6000602082019050612ac76000830184612737565b92915050565b6000604082019050612ae26000830185612737565b612aef6020830184612737565b9392505050565b60008083356001602003843603038112612b0f57600080fd5b80840192508235915067ffffffffffffffff821115612b2d57600080fd5b602083019250600182023603831315612b4557600080fd5b509250929050565b6000612b57612b68565b9050612b638282612e8c565b919050565b6000604051905090565b600067ffffffffffffffff821115612b8d57612b8c612f35565b5b602082029050602081019050919050565b600067ffffffffffffffff821115612bb957612bb8612f35565b5b612bc282612f64565b9050602081019050919050565b6000819050919050565b6000819050919050565b600081519050919050565b6000602082019050919050565b6000602082019050919050565b600082825260208201905092915050565b600082825260208201905092915050565b600082825260208201905092915050565b600082825260208201905092915050565b600082825260208201905092915050565b600081905092915050565b600082825260208201905092915050565b600081905092915050565b6000612c936020840184611ba9565b905092915050565b60008083356001602003843603038112612cb457600080fd5b83810192508235915060208301925067ffffffffffffffff821115612cd857600080fd5b600182023603841315612cea57600080fd5b509250929050565b6000612cfd82612e16565b9150612d0883612e16565b9250827fffffffffffffffffffffffffffffffffffffffffffffffffffffffffffffffff03821115612d3d57612d3c612f06565b5b828201905092915050565b6000612d5382612e16565b9150612d5e83612e16565b9250817fffffffffffffffffffffffffffffffffffffffffffffffffffffffffffffffff0483118215151615612d9757612d96612f06565b5b828202905092915050565b6000612dad82612df6565b9050919050565b60008115159050919050565b6000819050919050565b60007fffffffff0000000000000000000000000000000000000000000000000000000082169050919050565b600073ffffffffffffffffffffffffffffffffffffffff82169050919050565b6000819050919050565b82818337600083830152505050565b60005b83811015612e4d578082015181840152602081019050612e32565b83811115612e5c576000848401525b50505050565b6000612e6d82612e16565b91506000821415612e8157612e80612f06565b5b600182039050919050565b612e9582612f64565b810181811067ffffffffffffffff82111715612eb457612eb3612f35565b5b80604052505050565b6000612ec882612e16565b91507fffffffffffffffffffffffffffffffffffffffffffffffffffffffffffffffff821415612efb57612efa612f06565b5b600182019050919050565b7f4e487b7100000000000000000000000000000000000000000000000000000000600052601160045260246000fd5b7f4e487b7100000000000000000000000000000000000000000000000000000000600052604160045260246000fd5b6000601f19601f8301169050919050565b7f537472696e67733a20686578206c656e67746820696e73756666696369656e74600082015250565b7f54696d656c6f636b436f6e74726f6c6c65723a206d697373696e67206465706560008201527f6e64656e63790000000000000000000000000000000000000000000000000000602082015250565b7f54696d656c6f636b436f6e74726f6c6c65723a206c656e677468206d69736d6160008201527f7463680000000000000000000000000000000000000000000000000000000000602082015250565b7f54696d656c6f636b436f6e74726f6c6c65723a20696e73756666696369656e7460008201527f2064656c61790000000000000000000000000000000000000000000000000000602082015250565b7f54696d656c6f636b436f6e74726f6c6c65723a206f7065726174696f6e20616c60008201527f7265616479207363686564756c65640000000000000000000000000000000000602082015250565b7f54696d656c6f636b436f6e74726f6c6c65723a206f7065726174696f6e20697360008201527f206e6f7420726561647900000000000000000000000000000000000000000000602082015250565b7f416363657373436f6e74726f6c3a206163636f756e7420000000000000000000600082015250565b7f54696d656c6f636b436f6e74726f6c6c65723a206f7065726174696f6e20636160008201527f6e6e6f742062652063616e63656c6c6564000000000000000000000000000000602082015250565b7f206973206d697373696e6720726f6c6520000000000000000000000000000000600082015250565b7f54696d656c6f636b436f6e74726f6c6c65723a2063616c6c6572206d7573742060008201527f62652074696d656c6f636b000000000000000000000000000000000000000000602082015250565b7f416363657373436f6e74726f6c3a2063616e206f6e6c792072656e6f756e636560008201527f20726f6c657320666f722073656c660000000000000000000000000000000000602082015250565b7f54696d656c6f636b436f6e74726f6c6c65723a20756e6465726c79696e67207460008201527f72616e73616374696f6e20726576657274656400000000000000000000000000602082015250565b6132c081612da2565b81146132cb57600080fd5b50565b6132d781612dc0565b81146132e257600080fd5b50565b6132ee81612dca565b81146132f957600080fd5b50565b61330581612e16565b811461331057600080fd5b5056fea264697066735822122070afb548d92d344c779058abf512ee0e8d25b589c82cbdfc8a6aa804c825fe1464736f6c63430008040033",
  "linkReferences": {},
  "deployedLinkReferences": {}
}